{
  "_format": "hh-sol-artifact-1",
  "contractName": "BeefyVaultV6",
  "sourceName": "contracts/BIFI/vaults/BeefyVaultV6.sol",
  "abi": [
    {
      "inputs": [
        {
          "internalType": "contract IStrategy",
          "name": "_strategy",
          "type": "address"
        },
        {
          "internalType": "string",
          "name": "_name",
          "type": "string"
        },
        {
          "internalType": "string",
          "name": "_symbol",
          "type": "string"
        },
        {
          "internalType": "uint256",
          "name": "_approvalDelay",
          "type": "uint256"
        }
      ],
      "stateMutability": "nonpayable",
      "type": "constructor"
    },
    {
      "anonymous": false,
      "inputs": [
        {
          "indexed": true,
          "internalType": "address",
          "name": "owner",
          "type": "address"
        },
        {
          "indexed": true,
          "internalType": "address",
          "name": "spender",
          "type": "address"
        },
        {
          "indexed": false,
          "internalType": "uint256",
          "name": "value",
          "type": "uint256"
        }
      ],
      "name": "Approval",
      "type": "event"
    },
    {
      "anonymous": false,
      "inputs": [
        {
          "indexed": false,
          "internalType": "address",
          "name": "implementation",
          "type": "address"
        }
      ],
      "name": "NewStratCandidate",
      "type": "event"
    },
    {
      "anonymous": false,
      "inputs": [
        {
          "indexed": true,
          "internalType": "address",
          "name": "previousOwner",
          "type": "address"
        },
        {
          "indexed": true,
          "internalType": "address",
          "name": "newOwner",
          "type": "address"
        }
      ],
      "name": "OwnershipTransferred",
      "type": "event"
    },
    {
      "anonymous": false,
      "inputs": [
        {
          "indexed": true,
          "internalType": "address",
          "name": "from",
          "type": "address"
        },
        {
          "indexed": true,
          "internalType": "address",
          "name": "to",
          "type": "address"
        },
        {
          "indexed": false,
          "internalType": "uint256",
          "name": "value",
          "type": "uint256"
        }
      ],
      "name": "Transfer",
      "type": "event"
    },
    {
      "anonymous": false,
      "inputs": [
        {
          "indexed": false,
          "internalType": "address",
          "name": "implementation",
          "type": "address"
        }
      ],
      "name": "UpgradeStrat",
      "type": "event"
    },
    {
      "inputs": [
        {
          "internalType": "address",
          "name": "owner",
          "type": "address"
        },
        {
          "internalType": "address",
          "name": "spender",
          "type": "address"
        }
      ],
      "name": "allowance",
      "outputs": [
        {
          "internalType": "uint256",
          "name": "",
          "type": "uint256"
        }
      ],
      "stateMutability": "view",
      "type": "function"
    },
    {
      "inputs": [],
      "name": "approvalDelay",
      "outputs": [
        {
          "internalType": "uint256",
          "name": "",
          "type": "uint256"
        }
      ],
      "stateMutability": "view",
      "type": "function"
    },
    {
      "inputs": [
        {
          "internalType": "address",
          "name": "spender",
          "type": "address"
        },
        {
          "internalType": "uint256",
          "name": "amount",
          "type": "uint256"
        }
      ],
      "name": "approve",
      "outputs": [
        {
          "internalType": "bool",
          "name": "",
          "type": "bool"
        }
      ],
      "stateMutability": "nonpayable",
      "type": "function"
    },
    {
      "inputs": [],
      "name": "available",
      "outputs": [
        {
          "internalType": "uint256",
          "name": "",
          "type": "uint256"
        }
      ],
      "stateMutability": "view",
      "type": "function"
    },
    {
      "inputs": [],
      "name": "balance",
      "outputs": [
        {
          "internalType": "uint256",
          "name": "",
          "type": "uint256"
        }
      ],
      "stateMutability": "view",
      "type": "function"
    },
    {
      "inputs": [
        {
          "internalType": "address",
          "name": "account",
          "type": "address"
        }
      ],
      "name": "balanceOf",
      "outputs": [
        {
          "internalType": "uint256",
          "name": "",
          "type": "uint256"
        }
      ],
      "stateMutability": "view",
      "type": "function"
    },
    {
      "inputs": [],
      "name": "decimals",
      "outputs": [
        {
          "internalType": "uint8",
          "name": "",
          "type": "uint8"
        }
      ],
      "stateMutability": "view",
      "type": "function"
    },
    {
      "inputs": [
        {
          "internalType": "address",
          "name": "spender",
          "type": "address"
        },
        {
          "internalType": "uint256",
          "name": "subtractedValue",
          "type": "uint256"
        }
      ],
      "name": "decreaseAllowance",
      "outputs": [
        {
          "internalType": "bool",
          "name": "",
          "type": "bool"
        }
      ],
      "stateMutability": "nonpayable",
      "type": "function"
    },
    {
      "inputs": [
        {
          "internalType": "uint256",
          "name": "_amount",
          "type": "uint256"
        }
      ],
      "name": "deposit",
      "outputs": [],
      "stateMutability": "nonpayable",
      "type": "function"
    },
    {
      "inputs": [],
      "name": "depositAll",
      "outputs": [],
      "stateMutability": "nonpayable",
      "type": "function"
    },
    {
      "inputs": [],
      "name": "earn",
      "outputs": [],
      "stateMutability": "nonpayable",
      "type": "function"
    },
    {
      "inputs": [],
      "name": "getPricePerFullShare",
      "outputs": [
        {
          "internalType": "uint256",
          "name": "",
          "type": "uint256"
        }
      ],
      "stateMutability": "view",
      "type": "function"
    },
    {
      "inputs": [
        {
          "internalType": "address",
          "name": "_token",
          "type": "address"
        }
      ],
      "name": "inCaseTokensGetStuck",
      "outputs": [],
      "stateMutability": "nonpayable",
      "type": "function"
    },
    {
      "inputs": [
        {
          "internalType": "address",
          "name": "spender",
          "type": "address"
        },
        {
          "internalType": "uint256",
          "name": "addedValue",
          "type": "uint256"
        }
      ],
      "name": "increaseAllowance",
      "outputs": [
        {
          "internalType": "bool",
          "name": "",
          "type": "bool"
        }
      ],
      "stateMutability": "nonpayable",
      "type": "function"
    },
    {
      "inputs": [],
      "name": "name",
      "outputs": [
        {
          "internalType": "string",
          "name": "",
          "type": "string"
        }
      ],
      "stateMutability": "view",
      "type": "function"
    },
    {
      "inputs": [],
      "name": "owner",
      "outputs": [
        {
          "internalType": "address",
          "name": "",
          "type": "address"
        }
      ],
      "stateMutability": "view",
      "type": "function"
    },
    {
      "inputs": [
        {
          "internalType": "address",
          "name": "_implementation",
          "type": "address"
        }
      ],
      "name": "proposeStrat",
      "outputs": [],
      "stateMutability": "nonpayable",
      "type": "function"
    },
    {
      "inputs": [],
      "name": "renounceOwnership",
      "outputs": [],
      "stateMutability": "nonpayable",
      "type": "function"
    },
    {
      "inputs": [],
      "name": "stratCandidate",
      "outputs": [
        {
          "internalType": "address",
          "name": "implementation",
          "type": "address"
        },
        {
          "internalType": "uint256",
          "name": "proposedTime",
          "type": "uint256"
        }
      ],
      "stateMutability": "view",
      "type": "function"
    },
    {
      "inputs": [],
      "name": "strategy",
      "outputs": [
        {
          "internalType": "contract IStrategy",
          "name": "",
          "type": "address"
        }
      ],
      "stateMutability": "view",
      "type": "function"
    },
    {
      "inputs": [],
      "name": "symbol",
      "outputs": [
        {
          "internalType": "string",
          "name": "",
          "type": "string"
        }
      ],
      "stateMutability": "view",
      "type": "function"
    },
    {
      "inputs": [],
      "name": "totalSupply",
      "outputs": [
        {
          "internalType": "uint256",
          "name": "",
          "type": "uint256"
        }
      ],
      "stateMutability": "view",
      "type": "function"
    },
    {
      "inputs": [
        {
          "internalType": "address",
          "name": "recipient",
          "type": "address"
        },
        {
          "internalType": "uint256",
          "name": "amount",
          "type": "uint256"
        }
      ],
      "name": "transfer",
      "outputs": [
        {
          "internalType": "bool",
          "name": "",
          "type": "bool"
        }
      ],
      "stateMutability": "nonpayable",
      "type": "function"
    },
    {
      "inputs": [
        {
          "internalType": "address",
          "name": "sender",
          "type": "address"
        },
        {
          "internalType": "address",
          "name": "recipient",
          "type": "address"
        },
        {
          "internalType": "uint256",
          "name": "amount",
          "type": "uint256"
        }
      ],
      "name": "transferFrom",
      "outputs": [
        {
          "internalType": "bool",
          "name": "",
          "type": "bool"
        }
      ],
      "stateMutability": "nonpayable",
      "type": "function"
    },
    {
      "inputs": [
        {
          "internalType": "address",
          "name": "newOwner",
          "type": "address"
        }
      ],
      "name": "transferOwnership",
      "outputs": [],
      "stateMutability": "nonpayable",
      "type": "function"
    },
    {
      "inputs": [],
      "name": "upgradeStrat",
      "outputs": [],
      "stateMutability": "nonpayable",
      "type": "function"
    },
    {
      "inputs": [],
      "name": "want",
      "outputs": [
        {
          "internalType": "contract IERC20",
          "name": "",
          "type": "address"
        }
      ],
      "stateMutability": "view",
      "type": "function"
    },
    {
      "inputs": [
        {
          "internalType": "uint256",
          "name": "_shares",
          "type": "uint256"
        }
      ],
      "name": "withdraw",
      "outputs": [],
      "stateMutability": "nonpayable",
      "type": "function"
    },
    {
      "inputs": [],
      "name": "withdrawAll",
      "outputs": [],
      "stateMutability": "nonpayable",
      "type": "function"
    }
  ],
  "bytecode": "0x60a06040523480156200001157600080fd5b506040516200261138038062002611833981810160405260808110156200003757600080fd5b8151602083018051604051929492938301929190846401000000008211156200005f57600080fd5b9083019060208201858111156200007557600080fd5b82516401000000008111828201881017156200009057600080fd5b82525081516020918201929091019080838360005b83811015620000bf578181015183820152602001620000a5565b50505050905090810190601f168015620000ed5780820380516001836020036101000a031916815260200191505b50604052602001805160405193929190846401000000008211156200011157600080fd5b9083019060208201858111156200012757600080fd5b82516401000000008111828201881017156200014257600080fd5b82525081516020918201929091019080838360005b838110156200017157818101518382015260200162000157565b50505050905090810190601f1680156200019f5780820380516001836020036101000a031916815260200191505b5060405260209081015185519093508592508491620001c49160039185019062000281565b508051620001da90600490602084019062000281565b50506005805460ff19166012179055506000620001f66200027d565b60058054610100600160a81b0319166101006001600160a01b03841690810291909117909155604051919250906000907f8be0079c531659141344cd1fd0a4f28419497f9722a3daafe3b4186f6b6457e0908290a3506001600655600980546001600160a01b0319166001600160a01b03959095169490941790935550506080526200031d565b3390565b828054600181600116156101000203166002900490600052602060002090601f016020900481019282601f10620002c457805160ff1916838001178555620002f4565b82800160010185558215620002f4579182015b82811115620002f4578251825591602001919060010190620002d7565b506200030292915062000306565b5090565b5b8082111562000302576000815560010162000307565b6080516122d46200033d600039806113bf52806114a352506122d46000f3fe608060405234801561001057600080fd5b50600436106101cf5760003560e01c8063853828b611610104578063b6b55f25116100a2578063def68a9c11610071578063def68a9c146104d8578063e2d1e75c146104fe578063e668524414610506578063f2fde38b1461050e576101cf565b8063b6b55f251461047d578063d389800f1461049a578063dd62ed3e146104a2578063de5f6268146104d0576101cf565b8063a457c2d7116100de578063a457c2d714610415578063a8c62e7614610441578063a9059cbb14610449578063b69ef8a814610475576101cf565b8063853828b6146103fd5780638da5cb5b1461040557806395d89b411461040d576101cf565b8063395093511161017157806370a082311161014b57806370a082311461039c578063715018a6146103c257806376dfabb8146103ca57806377c7b8fc146103f5576101cf565b8063395093511461034257806348a0d7541461036e5780635b12ff9b14610376576101cf565b80631f1fcd51116101ad5780631f1fcd51146102ab57806323b872dd146102cf5780632e1a7d4d14610305578063313ce56714610324576101cf565b806306fdde03146101d4578063095ea7b31461025157806318160ddd14610291575b600080fd5b6101dc610534565b6040805160208082528351818301528351919283929083019185019080838360005b838110156102165781810151838201526020016101fe565b50505050905090810190601f1680156102435780820380516001836020036101000a031916815260200191505b509250505060405180910390f35b61027d6004803603604081101561026757600080fd5b506001600160a01b0381351690602001356105ca565b604080519115158252519081900360200190f35b6102996105e8565b60408051918252519081900360200190f35b6102b36105ee565b604080516001600160a01b039092168252519081900360200190f35b61027d600480360360608110156102e557600080fd5b506001600160a01b03813581169160208101359091169060400135610664565b6103226004803603602081101561031b57600080fd5b50356106ec565b005b61032c6109b7565b6040805160ff9092168252519081900360200190f35b61027d6004803603604081101561035857600080fd5b506001600160a01b0381351690602001356109c0565b610299610a0e565b6103226004803603602081101561038c57600080fd5b50356001600160a01b0316610a64565b610299600480360360208110156103b257600080fd5b50356001600160a01b0316610bd9565b610322610bf4565b6103d2610ca6565b604080516001600160a01b03909316835260208301919091528051918290030190f35b610299610cbb565b610322610cfd565b6102b3610d10565b6101dc610d24565b61027d6004803603604081101561042b57600080fd5b506001600160a01b038135169060200135610d85565b6102b3610ded565b61027d6004803603604081101561045f57600080fd5b506001600160a01b038135169060200135610dfc565b610299610e10565b6103226004803603602081101561049357600080fd5b5035610f15565b61032261112b565b610299600480360360408110156104b857600080fd5b506001600160a01b03813581169160200135166111bc565b6103226111e7565b610322600480360360208110156104ee57600080fd5b50356001600160a01b031661126f565b6102996113bd565b6103226113e1565b6103226004803603602081101561052457600080fd5b50356001600160a01b03166115ed565b60038054604080516020601f60026000196101006001881615020190951694909404938401819004810282018101909252828152606093909290918301828280156105c05780601f10610595576101008083540402835291602001916105c0565b820191906000526020600020905b8154815290600101906020018083116105a357829003601f168201915b5050505050905090565b60006105de6105d76116fb565b84846116ff565b5060015b92915050565b60025490565b60095460408051631f1fcd5160e01b815290516000926001600160a01b031691631f1fcd51916004808301926020929190829003018186803b15801561063357600080fd5b505afa158015610647573d6000803e3d6000fd5b505050506040513d602081101561065d57600080fd5b5051905090565b60006106718484846117eb565b6106e18461067d6116fb565b6106dc8560405180606001604052806028815260200161219e602891396001600160a01b038a166000908152600160205260408120906106bb6116fb565b6001600160a01b031681526020810191909152604001600020549190611946565b6116ff565b5060015b9392505050565b60006107116106f96105e8565b61070b84610705610e10565b906119dd565b90611a36565b905061071d3383611a9d565b600960009054906101000a90046001600160a01b03166001600160a01b031663249c998b6040518163ffffffff1660e01b8152600401600060405180830381600087803b15801561076d57600080fd5b505af1158015610781573d6000803e3d6000fd5b505060095460408051636ae5d25360e01b81526004810187905290516001600160a01b039092169350636ae5d253925060248082019260009290919082900301818387803b1580156107d257600080fd5b505af11580156107e6573d6000803e3d6000fd5b5050505060006107f46105ee565b6001600160a01b03166370a08231306040518263ffffffff1660e01b815260040180826001600160a01b0316815260200191505060206040518083038186803b15801561084057600080fd5b505afa158015610854573d6000803e3d6000fd5b505050506040513d602081101561086a57600080fd5b50519050818110156109955760006108828383611b99565b60095460408051632e1a7d4d60e01b81526004810184905290519293506001600160a01b0390911691632e1a7d4d9160248082019260009290919082900301818387803b1580156108d257600080fd5b505af11580156108e6573d6000803e3d6000fd5b5050505060006108f46105ee565b6001600160a01b03166370a08231306040518263ffffffff1660e01b815260040180826001600160a01b0316815260200191505060206040518083038186803b15801561094057600080fd5b505afa158015610954573d6000803e3d6000fd5b505050506040513d602081101561096a57600080fd5b50519050600061097a8285611b99565b9050828110156109915761098e8482611bf6565b94505b5050505b6109b233836109a26105ee565b6001600160a01b03169190611c50565b505050565b60055460ff1690565b60006105de6109cd6116fb565b846106dc85600160006109de6116fb565b6001600160a01b03908116825260208083019390935260409182016000908120918c168152925290205490611bf6565b6000610a186105ee565b6001600160a01b03166370a08231306040518263ffffffff1660e01b815260040180826001600160a01b0316815260200191505060206040518083038186803b15801561063357600080fd5b610a6c6116fb565b6001600160a01b0316610a7d610d10565b6001600160a01b031614610ac6576040805162461bcd60e51b815260206004820181905260248201526000805160206121c6833981519152604482015290519081900360640190fd5b806001600160a01b031663fbfa77cf6040518163ffffffff1660e01b815260040160206040518083038186803b158015610aff57600080fd5b505afa158015610b13573d6000803e3d6000fd5b505050506040513d6020811015610b2957600080fd5b50516001600160a01b03163014610b715760405162461bcd60e51b815260040180806020018281038252602181526020018061215c6021913960400191505060405180910390fd5b6040805180820182526001600160a01b038316808252426020928301819052600780546001600160a01b03191683179055600855825190815291517f1aae2ec5647db56da2d513de40528ba3565c6057525637050660c4323bbac7df9281900390910190a150565b6001600160a01b031660009081526020819052604090205490565b610bfc6116fb565b6001600160a01b0316610c0d610d10565b6001600160a01b031614610c56576040805162461bcd60e51b815260206004820181905260248201526000805160206121c6833981519152604482015290519081900360640190fd5b60055460405160009161010090046001600160a01b0316907f8be0079c531659141344cd1fd0a4f28419497f9722a3daafe3b4186f6b6457e0908390a360058054610100600160a81b0319169055565b6007546008546001600160a01b039091169082565b6000610cc56105e8565b15610cee57610ce9610cd56105e8565b61070b670de0b6b3a7640000610705610e10565b610cf8565b670de0b6b3a76400005b905090565b610d0e610d0933610bd9565b6106ec565b565b60055461010090046001600160a01b031690565b60048054604080516020601f60026000196101006001881615020190951694909404938401819004810282018101909252828152606093909290918301828280156105c05780601f10610595576101008083540402835291602001916105c0565b60006105de610d926116fb565b846106dc8560405180606001604052806025815260200161227a6025913960016000610dbc6116fb565b6001600160a01b03908116825260208083019390935260409182016000908120918d16815292529020549190611946565b6009546001600160a01b031681565b60006105de610e096116fb565b84846117eb565b6000610cf8600960009054906101000a90046001600160a01b03166001600160a01b031663722713f76040518163ffffffff1660e01b815260040160206040518083038186803b158015610e6357600080fd5b505afa158015610e77573d6000803e3d6000fd5b505050506040513d6020811015610e8d57600080fd5b5051610e976105ee565b6001600160a01b03166370a08231306040518263ffffffff1660e01b815260040180826001600160a01b0316815260200191505060206040518083038186803b158015610ee357600080fd5b505afa158015610ef7573d6000803e3d6000fd5b505050506040513d6020811015610f0d57600080fd5b505190611bf6565b60026006541415610f6d576040805162461bcd60e51b815260206004820152601f60248201527f5265656e7472616e637947756172643a207265656e7472616e742063616c6c00604482015290519081900360640190fd5b600260065560095460408051632b9ff78560e11b815290516001600160a01b039092169163573fef0a9160048082019260009290919082900301818387803b158015610fb857600080fd5b505af1158015610fcc573d6000803e3d6000fd5b505050506000610fda610e10565b9050610ffb333084610fea6105ee565b6001600160a01b0316929190611ca2565b61100361112b565b600960009054906101000a90046001600160a01b03166001600160a01b031663249c998b6040518163ffffffff1660e01b8152600401600060405180830381600087803b15801561105357600080fd5b505af1158015611067573d6000803e3d6000fd5b505050506000611075610e10565b90506110818183611b99565b9250600061108d6105e8565b6110985750826110b1565b6110ae8361070b6110a76105e8565b87906119dd565b90505b6009546040805163055b797b60e51b81526004810184905290516001600160a01b039092169163ab6f2f609160248082019260009290919082900301818387803b1580156110fe57600080fd5b505af1158015611112573d6000803e3d6000fd5b505050506111203382611d02565b505060016006555050565b6000611135610a0e565b600954909150611151906001600160a01b0316826109a26105ee565b600960009054906101000a90046001600160a01b03166001600160a01b031663d0e30db06040518163ffffffff1660e01b8152600401600060405180830381600087803b1580156111a157600080fd5b505af11580156111b5573d6000803e3d6000fd5b5050505050565b6001600160a01b03918216600090815260016020908152604080832093909416825291909152205490565b610d0e6111f26105ee565b6001600160a01b03166370a08231336040518263ffffffff1660e01b815260040180826001600160a01b0316815260200191505060206040518083038186803b15801561123e57600080fd5b505afa158015611252573d6000803e3d6000fd5b505050506040513d602081101561126857600080fd5b5051610f15565b6112776116fb565b6001600160a01b0316611288610d10565b6001600160a01b0316146112d1576040805162461bcd60e51b815260206004820181905260248201526000805160206121c6833981519152604482015290519081900360640190fd5b6112d96105ee565b6001600160a01b0316816001600160a01b03161415611328576040805162461bcd60e51b815260206004820152600660248201526510ba37b5b2b760d11b604482015290519081900360640190fd5b6000816001600160a01b03166370a08231306040518263ffffffff1660e01b815260040180826001600160a01b0316815260200191505060206040518083038186803b15801561137757600080fd5b505afa15801561138b573d6000803e3d6000fd5b505050506040513d60208110156113a157600080fd5b505190506113b96001600160a01b0383163383611c50565b5050565b7f000000000000000000000000000000000000000000000000000000000000000081565b6113e96116fb565b6001600160a01b03166113fa610d10565b6001600160a01b031614611443576040805162461bcd60e51b815260206004820181905260248201526000805160206121c6833981519152604482015290519081900360640190fd5b6007546001600160a01b0316611498576040805162461bcd60e51b81526020600482015260156024820152745468657265206973206e6f2063616e64696461746560581b604482015290519081900360640190fd5b60085442906114c7907f0000000000000000000000000000000000000000000000000000000000000000611bf6565b10611510576040805162461bcd60e51b815260206004820152601460248201527311195b185e481a185cc81b9bdd081c185cdcd95960621b604482015290519081900360640190fd5b600754604080516001600160a01b039092168252517f7f37d440e85aba7fbf641c4bda5ca4ef669a80bffaacde2aa8d9feb1b048c82c9181900360200190a1600960009054906101000a90046001600160a01b03166001600160a01b031663fb6177876040518163ffffffff1660e01b8152600401600060405180830381600087803b15801561159f57600080fd5b505af11580156115b3573d6000803e3d6000fd5b505060078054600980546001600160a01b03199081166001600160a01b03841617909155169055505064012a05f200600855610d0e61112b565b6115f56116fb565b6001600160a01b0316611606610d10565b6001600160a01b03161461164f576040805162461bcd60e51b815260206004820181905260248201526000805160206121c6833981519152604482015290519081900360640190fd5b6001600160a01b0381166116945760405162461bcd60e51b81526004018080602001828103825260268152602001806120c86026913960400191505060405180910390fd5b6005546040516001600160a01b0380841692610100900416907f8be0079c531659141344cd1fd0a4f28419497f9722a3daafe3b4186f6b6457e090600090a3600580546001600160a01b0390921661010002610100600160a81b0319909216919091179055565b3390565b6001600160a01b0383166117445760405162461bcd60e51b815260040180806020018281038252602481526020018061222c6024913960400191505060405180910390fd5b6001600160a01b0382166117895760405162461bcd60e51b81526004018080602001828103825260228152602001806120ee6022913960400191505060405180910390fd5b6001600160a01b03808416600081815260016020908152604080832094871680845294825291829020859055815185815291517f8c5be1e5ebec7d5bd14f71427d1e84f3dd0314c0f7b2291e5b200ac8c7c3b9259281900390910190a3505050565b6001600160a01b0383166118305760405162461bcd60e51b81526004018080602001828103825260258152602001806122076025913960400191505060405180910390fd5b6001600160a01b0382166118755760405162461bcd60e51b81526004018080602001828103825260238152602001806120836023913960400191505060405180910390fd5b6118808383836109b2565b6118bd81604051806060016040528060268152602001612110602691396001600160a01b0386166000908152602081905260409020549190611946565b6001600160a01b0380851660009081526020819052604080822093909355908416815220546118ec9082611bf6565b6001600160a01b038084166000818152602081815260409182902094909455805185815290519193928716927fddf252ad1be2c89b69c2b068fc378daa952ba7f163c4a11628f55a4df523b3ef92918290030190a3505050565b600081848411156119d55760405162461bcd60e51b81526004018080602001828103825283818151815260200191508051906020019080838360005b8381101561199a578181015183820152602001611982565b50505050905090810190601f1680156119c75780820380516001836020036101000a031916815260200191505b509250505060405180910390fd5b505050900390565b6000826119ec575060006105e2565b828202828482816119f957fe5b04146106e55760405162461bcd60e51b815260040180806020018281038252602181526020018061217d6021913960400191505060405180910390fd5b6000808211611a8c576040805162461bcd60e51b815260206004820152601a60248201527f536166654d6174683a206469766973696f6e206279207a65726f000000000000604482015290519081900360640190fd5b818381611a9557fe5b049392505050565b6001600160a01b038216611ae25760405162461bcd60e51b81526004018080602001828103825260218152602001806121e66021913960400191505060405180910390fd5b611aee826000836109b2565b611b2b816040518060600160405280602281526020016120a6602291396001600160a01b0385166000908152602081905260409020549190611946565b6001600160a01b038316600090815260208190526040902055600254611b519082611b99565b6002556040805182815290516000916001600160a01b038516917fddf252ad1be2c89b69c2b068fc378daa952ba7f163c4a11628f55a4df523b3ef9181900360200190a35050565b600082821115611bf0576040805162461bcd60e51b815260206004820152601e60248201527f536166654d6174683a207375627472616374696f6e206f766572666c6f770000604482015290519081900360640190fd5b50900390565b6000828201838110156106e5576040805162461bcd60e51b815260206004820152601b60248201527f536166654d6174683a206164646974696f6e206f766572666c6f770000000000604482015290519081900360640190fd5b604080516001600160a01b038416602482015260448082018490528251808303909101815260649091019091526020810180516001600160e01b031663a9059cbb60e01b1790526109b2908490611df2565b604080516001600160a01b0380861660248301528416604482015260648082018490528251808303909101815260849091019091526020810180516001600160e01b03166323b872dd60e01b179052611cfc908590611df2565b50505050565b6001600160a01b038216611d5d576040805162461bcd60e51b815260206004820152601f60248201527f45524332303a206d696e7420746f20746865207a65726f206164647265737300604482015290519081900360640190fd5b611d69600083836109b2565b600254611d769082611bf6565b6002556001600160a01b038216600090815260208190526040902054611d9c9082611bf6565b6001600160a01b0383166000818152602081815260408083209490945583518581529351929391927fddf252ad1be2c89b69c2b068fc378daa952ba7f163c4a11628f55a4df523b3ef9281900390910190a35050565b6060611e47826040518060400160405280602081526020017f5361666545524332303a206c6f772d6c6576656c2063616c6c206661696c6564815250856001600160a01b0316611ea39092919063ffffffff16565b8051909150156109b257808060200190516020811015611e6657600080fd5b50516109b25760405162461bcd60e51b815260040180806020018281038252602a815260200180612250602a913960400191505060405180910390fd5b6060611eb28484600085611eba565b949350505050565b606082471015611efb5760405162461bcd60e51b81526004018080602001828103825260268152602001806121366026913960400191505060405180910390fd5b611f0485612016565b611f55576040805162461bcd60e51b815260206004820152601d60248201527f416464726573733a2063616c6c20746f206e6f6e2d636f6e7472616374000000604482015290519081900360640190fd5b60006060866001600160a01b031685876040518082805190602001908083835b60208310611f945780518252601f199092019160209182019101611f75565b6001836020036101000a03801982511681845116808217855250505050505090500191505060006040518083038185875af1925050503d8060008114611ff6576040519150601f19603f3d011682016040523d82523d6000602084013e611ffb565b606091505b509150915061200b82828661201c565b979650505050505050565b3b151590565b6060831561202b5750816106e5565b82511561203b5782518084602001fd5b60405162461bcd60e51b815260206004820181815284516024840152845185939192839260440191908501908083836000831561199a57818101518382015260200161198256fe45524332303a207472616e7366657220746f20746865207a65726f206164647265737345524332303a206275726e20616d6f756e7420657863656564732062616c616e63654f776e61626c653a206e6577206f776e657220697320746865207a65726f206164647265737345524332303a20617070726f766520746f20746865207a65726f206164647265737345524332303a207472616e7366657220616d6f756e7420657863656564732062616c616e6365416464726573733a20696e73756666696369656e742062616c616e636520666f722063616c6c50726f706f73616c206e6f742076616c696420666f722074686973205661756c74536166654d6174683a206d756c7469706c69636174696f6e206f766572666c6f7745524332303a207472616e7366657220616d6f756e74206578636565647320616c6c6f77616e63654f776e61626c653a2063616c6c6572206973206e6f7420746865206f776e657245524332303a206275726e2066726f6d20746865207a65726f206164647265737345524332303a207472616e736665722066726f6d20746865207a65726f206164647265737345524332303a20617070726f76652066726f6d20746865207a65726f20616464726573735361666545524332303a204552433230206f7065726174696f6e20646964206e6f74207375636365656445524332303a2064656372656173656420616c6c6f77616e63652062656c6f77207a65726fa2646970667358221220cbe5175df56313f0d7f54b0eb472c3b8ee2109045e8a35e6081774c6e3fb183664736f6c634300060c0033",
  "linkReferences": {},
  "deployedLinkReferences": {}
}