{
  "_format": "hh-sol-artifact-1",
  "contractName": "StrategyRewardPoolBsc",
  "sourceName": "contracts/BIFI/strategies/Common/StrategyRewardPoolBsc.sol",
  "abi": [
    {
      "inputs": [
        {
          "internalType": "address",
          "name": "_want",
          "type": "address"
        },
        {
          "internalType": "address",
          "name": "_output",
          "type": "address"
        },
        {
          "internalType": "address",
          "name": "_rewardPool",
          "type": "address"
        },
        {
          "internalType": "address",
          "name": "_vault",
          "type": "address"
        },
        {
          "internalType": "address",
          "name": "_unirouter",
          "type": "address"
        },
        {
          "internalType": "address",
          "name": "_keeper",
          "type": "address"
        },
        {
          "internalType": "address",
          "name": "_strategist",
          "type": "address"
        },
        {
          "internalType": "address",
          "name": "_beefyFeeRecipient",
          "type": "address"
        }
      ],
      "stateMutability": "nonpayable",
      "type": "constructor"
    },
    {
      "anonymous": false,
      "inputs": [
        {
          "indexed": true,
          "internalType": "address",
          "name": "previousOwner",
          "type": "address"
        },
        {
          "indexed": true,
          "internalType": "address",
          "name": "newOwner",
          "type": "address"
        }
      ],
      "name": "OwnershipTransferred",
      "type": "event"
    },
    {
      "anonymous": false,
      "inputs": [
        {
          "indexed": false,
          "internalType": "address",
          "name": "account",
          "type": "address"
        }
      ],
      "name": "Paused",
      "type": "event"
    },
    {
      "anonymous": false,
      "inputs": [
        {
          "indexed": true,
          "internalType": "address",
          "name": "harvester",
          "type": "address"
        }
      ],
      "name": "StratHarvest",
      "type": "event"
    },
    {
      "anonymous": false,
      "inputs": [
        {
          "indexed": false,
          "internalType": "address",
          "name": "account",
          "type": "address"
        }
      ],
      "name": "Unpaused",
      "type": "event"
    },
    {
      "inputs": [],
      "name": "MAX_CALL_FEE",
      "outputs": [
        {
          "internalType": "uint256",
          "name": "",
          "type": "uint256"
        }
      ],
      "stateMutability": "view",
      "type": "function"
    },
    {
      "inputs": [],
      "name": "MAX_FEE",
      "outputs": [
        {
          "internalType": "uint256",
          "name": "",
          "type": "uint256"
        }
      ],
      "stateMutability": "view",
      "type": "function"
    },
    {
      "inputs": [],
      "name": "STRATEGIST_FEE",
      "outputs": [
        {
          "internalType": "uint256",
          "name": "",
          "type": "uint256"
        }
      ],
      "stateMutability": "view",
      "type": "function"
    },
    {
      "inputs": [],
      "name": "WITHDRAWAL_FEE_CAP",
      "outputs": [
        {
          "internalType": "uint256",
          "name": "",
          "type": "uint256"
        }
      ],
      "stateMutability": "view",
      "type": "function"
    },
    {
      "inputs": [],
      "name": "WITHDRAWAL_MAX",
      "outputs": [
        {
          "internalType": "uint256",
          "name": "",
          "type": "uint256"
        }
      ],
      "stateMutability": "view",
      "type": "function"
    },
    {
      "inputs": [],
      "name": "balanceOf",
      "outputs": [
        {
          "internalType": "uint256",
          "name": "",
          "type": "uint256"
        }
      ],
      "stateMutability": "view",
      "type": "function"
    },
    {
      "inputs": [],
      "name": "balanceOfPool",
      "outputs": [
        {
          "internalType": "uint256",
          "name": "",
          "type": "uint256"
        }
      ],
      "stateMutability": "view",
      "type": "function"
    },
    {
      "inputs": [],
      "name": "balanceOfWant",
      "outputs": [
        {
          "internalType": "uint256",
          "name": "",
          "type": "uint256"
        }
      ],
      "stateMutability": "view",
      "type": "function"
    },
    {
      "inputs": [],
      "name": "beefyFee",
      "outputs": [
        {
          "internalType": "uint256",
          "name": "",
          "type": "uint256"
        }
      ],
      "stateMutability": "view",
      "type": "function"
    },
    {
      "inputs": [],
      "name": "beefyFeeRecipient",
      "outputs": [
        {
          "internalType": "address",
          "name": "",
          "type": "address"
        }
      ],
      "stateMutability": "view",
      "type": "function"
    },
    {
      "inputs": [],
      "name": "beforeDeposit",
      "outputs": [],
      "stateMutability": "nonpayable",
      "type": "function"
    },
    {
      "inputs": [],
      "name": "callFee",
      "outputs": [
        {
          "internalType": "uint256",
          "name": "",
          "type": "uint256"
        }
      ],
      "stateMutability": "view",
      "type": "function"
    },
    {
      "inputs": [],
      "name": "deposit",
      "outputs": [],
      "stateMutability": "nonpayable",
      "type": "function"
    },
    {
      "inputs": [],
      "name": "gasprice",
      "outputs": [
        {
          "internalType": "address",
          "name": "",
          "type": "address"
        }
      ],
      "stateMutability": "view",
      "type": "function"
    },
    {
      "inputs": [],
      "name": "harvest",
      "outputs": [],
      "stateMutability": "nonpayable",
      "type": "function"
    },
    {
      "inputs": [
        {
          "internalType": "address",
          "name": "_token",
          "type": "address"
        }
      ],
      "name": "inCaseTokensGetStuck",
      "outputs": [],
      "stateMutability": "nonpayable",
      "type": "function"
    },
    {
      "inputs": [],
      "name": "keeper",
      "outputs": [
        {
          "internalType": "address",
          "name": "",
          "type": "address"
        }
      ],
      "stateMutability": "view",
      "type": "function"
    },
    {
      "inputs": [],
      "name": "lastHarvest",
      "outputs": [
        {
          "internalType": "uint256",
          "name": "",
          "type": "uint256"
        }
      ],
      "stateMutability": "view",
      "type": "function"
    },
    {
      "inputs": [],
      "name": "output",
      "outputs": [
        {
          "internalType": "address",
          "name": "",
          "type": "address"
        }
      ],
      "stateMutability": "view",
      "type": "function"
    },
    {
      "inputs": [
        {
          "internalType": "uint256",
          "name": "",
          "type": "uint256"
        }
      ],
      "name": "outputToWantRoute",
      "outputs": [
        {
          "internalType": "address",
          "name": "",
          "type": "address"
        }
      ],
      "stateMutability": "view",
      "type": "function"
    },
    {
      "inputs": [
        {
          "internalType": "uint256",
          "name": "",
          "type": "uint256"
        }
      ],
      "name": "outputToWbnbRoute",
      "outputs": [
        {
          "internalType": "address",
          "name": "",
          "type": "address"
        }
      ],
      "stateMutability": "view",
      "type": "function"
    },
    {
      "inputs": [],
      "name": "owner",
      "outputs": [
        {
          "internalType": "address",
          "name": "",
          "type": "address"
        }
      ],
      "stateMutability": "view",
      "type": "function"
    },
    {
      "inputs": [],
      "name": "panic",
      "outputs": [],
      "stateMutability": "nonpayable",
      "type": "function"
    },
    {
      "inputs": [],
      "name": "pause",
      "outputs": [],
      "stateMutability": "nonpayable",
      "type": "function"
    },
    {
      "inputs": [],
      "name": "paused",
      "outputs": [
        {
          "internalType": "bool",
          "name": "",
          "type": "bool"
        }
      ],
      "stateMutability": "view",
      "type": "function"
    },
    {
      "inputs": [],
      "name": "renounceOwnership",
      "outputs": [],
      "stateMutability": "nonpayable",
      "type": "function"
    },
    {
      "inputs": [],
      "name": "retireStrat",
      "outputs": [],
      "stateMutability": "nonpayable",
      "type": "function"
    },
    {
      "inputs": [],
      "name": "rewardPool",
      "outputs": [
        {
          "internalType": "address",
          "name": "",
          "type": "address"
        }
      ],
      "stateMutability": "view",
      "type": "function"
    },
    {
      "inputs": [
        {
          "internalType": "address",
          "name": "_beefyFeeRecipient",
          "type": "address"
        }
      ],
      "name": "setBeefyFeeRecipient",
      "outputs": [],
      "stateMutability": "nonpayable",
      "type": "function"
    },
    {
      "inputs": [
        {
          "internalType": "uint256",
          "name": "_fee",
          "type": "uint256"
        }
      ],
      "name": "setCallFee",
      "outputs": [],
      "stateMutability": "nonpayable",
      "type": "function"
    },
    {
      "inputs": [
        {
          "internalType": "address",
          "name": "_keeper",
          "type": "address"
        }
      ],
      "name": "setKeeper",
      "outputs": [],
      "stateMutability": "nonpayable",
      "type": "function"
    },
    {
      "inputs": [
        {
          "internalType": "address",
          "name": "_strategist",
          "type": "address"
        }
      ],
      "name": "setStrategist",
      "outputs": [],
      "stateMutability": "nonpayable",
      "type": "function"
    },
    {
      "inputs": [
        {
          "internalType": "address",
          "name": "_unirouter",
          "type": "address"
        }
      ],
      "name": "setUnirouter",
      "outputs": [],
      "stateMutability": "nonpayable",
      "type": "function"
    },
    {
      "inputs": [
        {
          "internalType": "address",
          "name": "_vault",
          "type": "address"
        }
      ],
      "name": "setVault",
      "outputs": [],
      "stateMutability": "nonpayable",
      "type": "function"
    },
    {
      "inputs": [
        {
          "internalType": "uint256",
          "name": "_fee",
          "type": "uint256"
        }
      ],
      "name": "setWithdrawalFee",
      "outputs": [],
      "stateMutability": "nonpayable",
      "type": "function"
    },
    {
      "inputs": [],
      "name": "shouldGasThrottle",
      "outputs": [
        {
          "internalType": "bool",
          "name": "",
          "type": "bool"
        }
      ],
      "stateMutability": "view",
      "type": "function"
    },
    {
      "inputs": [],
      "name": "strategist",
      "outputs": [
        {
          "internalType": "address",
          "name": "",
          "type": "address"
        }
      ],
      "stateMutability": "view",
      "type": "function"
    },
    {
      "inputs": [
        {
          "internalType": "address",
          "name": "newOwner",
          "type": "address"
        }
      ],
      "name": "transferOwnership",
      "outputs": [],
      "stateMutability": "nonpayable",
      "type": "function"
    },
    {
      "inputs": [],
      "name": "unirouter",
      "outputs": [
        {
          "internalType": "address",
          "name": "",
          "type": "address"
        }
      ],
      "stateMutability": "view",
      "type": "function"
    },
    {
      "inputs": [],
      "name": "unpause",
      "outputs": [],
      "stateMutability": "nonpayable",
      "type": "function"
    },
    {
      "inputs": [],
      "name": "vault",
      "outputs": [
        {
          "internalType": "address",
          "name": "",
          "type": "address"
        }
      ],
      "stateMutability": "view",
      "type": "function"
    },
    {
      "inputs": [],
      "name": "want",
      "outputs": [
        {
          "internalType": "address",
          "name": "",
          "type": "address"
        }
      ],
      "stateMutability": "view",
      "type": "function"
    },
    {
      "inputs": [],
      "name": "wbnb",
      "outputs": [
        {
          "internalType": "address",
          "name": "",
          "type": "address"
        }
      ],
      "stateMutability": "view",
      "type": "function"
    },
    {
      "inputs": [
        {
          "internalType": "uint256",
          "name": "_amount",
          "type": "uint256"
        }
      ],
      "name": "withdraw",
      "outputs": [],
      "stateMutability": "nonpayable",
      "type": "function"
    },
    {
      "inputs": [],
      "name": "withdrawalFee",
      "outputs": [
        {
          "internalType": "uint256",
          "name": "",
          "type": "uint256"
        }
      ],
      "stateMutability": "view",
      "type": "function"
    }
  ],
  "bytecode": "0x6080604052600a600655606f60075561030960085560098054600160ff1990911617610100600160a81b03191674a43509661141f254f54d9a326e8ec851a0b95307001790553480156200005257600080fd5b5060405162002d3338038062002d3383398181016040526101008110156200007957600080fd5b508051602082015160408301516060840151608085015160a086015160c087015160e09097015195969495939492939192909182828587846000620000bd620002d3565b600080546001600160a01b0319166001600160a01b0383169081178255604051929350917f8be0079c531659141344cd1fd0a4f28419497f9722a3daafe3b4186f6b6457e0908290a3506000805460ff60a01b19169055600180546001600160a01b03199081166001600160a01b03978816179091556002805482169587169590951790945560038054851693861693909317909255600480548416918516919091179055600580548316918416919091179055600a805482168b8416179055600b805482168a84161790819055600c80549092168984161790915560008051602062002c8d833981519152911614620001f05760408051808201909152600b546001600160a01b0316815260008051602062002c8d8339815191526020820152620001ee90600f90600262000746565b505b600a54600b546001600160a01b03908116911614620002bb57600b546001600160a01b031660008051602062002c8d833981519152146200027c5760408051606081018252600b546001600160a01b03908116825260008051602062002c8d8339815191526020830152600a5416918101919091526200027590600e90600362000746565b50620002bb565b6040805180820190915260008051602062002c8d8339815191528152600a546001600160a01b03166020820152620002b990600e90600262000746565b505b620002c5620002d7565b5050505050505050620007d1565b3390565b600c54600a5462000304916001600160a01b03918216911660001962000333602090811b620015f617901c565b600354600b5462000331916001600160a01b03918216911660001962000333602090811b620015f617901c565b565b801580620003bd575060408051636eb1769f60e11b81523060048201526001600160a01b03848116602483015291519185169163dd62ed3e91604480820192602092909190829003018186803b1580156200038d57600080fd5b505afa158015620003a2573d6000803e3d6000fd5b505050506040513d6020811015620003b957600080fd5b5051155b620003fa5760405162461bcd60e51b815260040180806020018281038252603681526020018062002cfd6036913960400191505060405180910390fd5b604080516001600160a01b038416602482015260448082018490528251808303909101815260649091019091526020810180516001600160e01b0390811663095ea7b360e01b17909152620004529185916200045716565b505050565b6060620004b3826040518060400160405280602081526020017f5361666545524332303a206c6f772d6c6576656c2063616c6c206661696c6564815250856001600160a01b03166200051360201b62001709179092919060201c565b8051909150156200045257808060200190516020811015620004d457600080fd5b5051620004525760405162461bcd60e51b815260040180806020018281038252602a81526020018062002cd3602a913960400191505060405180910390fd5b60606200052484846000856200052e565b90505b9392505050565b606082471015620005715760405162461bcd60e51b815260040180806020018281038252602681526020018062002cad6026913960400191505060405180910390fd5b6200057c8562000696565b620005ce576040805162461bcd60e51b815260206004820152601d60248201527f416464726573733a2063616c6c20746f206e6f6e2d636f6e7472616374000000604482015290519081900360640190fd5b60006060866001600160a01b031685876040518082805190602001908083835b602083106200060f5780518252601f199092019160209182019101620005ee565b6001836020036101000a03801982511681845116808217855250505050505090500191505060006040518083038185875af1925050503d806000811462000673576040519150601f19603f3d011682016040523d82523d6000602084013e62000678565b606091505b5090925090506200068b8282866200069c565b979650505050505050565b3b151590565b60608315620006ad57508162000527565b825115620006be5782518084602001fd5b8160405162461bcd60e51b81526004018080602001828103825283818151815260200191508051906020019080838360005b838110156200070a578181015183820152602001620006f0565b50505050905090810190601f168015620007385780820380516001836020036101000a031916815260200191505b509250505060405180910390fd5b8280548282559060005260206000209081019282156200079e579160200282015b828111156200079e57825182546001600160a01b0319166001600160a01b0390911617825560209092019160019091019062000767565b50620007ac929150620007b0565b5090565b5b80821115620007ac5780546001600160a01b0319168155600101620007b1565b6124ac80620007e16000396000f3fe608060405234801561001057600080fd5b506004361061027f5760003560e01c80638bc7e8c41161015c578063c7b9d530116100ce578063dfbdc43711610087578063dfbdc4371461051d578063f1a392da14610525578063f20eaeb81461052d578063f2fde38b14610535578063fb6177871461055b578063fbfa77cf146105635761027f565b8063c7b9d5301461047e578063d0e30db0146104a4578063d3102589146104ac578063d92f3d73146104b4578063dd93d6b3146104da578063def68a9c146104f75761027f565b80639f8b5da1116101205780639f8b5da11461041b578063a68833e514610423578063ac1e502514610449578063aced166114610466578063bc063e1a1461046e578063c1a3d44c146104765761027f565b80638bc7e8c4146103f35780638d72647e146103fb5780638da5cb5b146104035780638e1454591461040b57806390321e1a146104135761027f565b806354518b1a116101f55780636ec232d3116101b95780636ec232d3146103a5578063715018a6146103ad578063722713f7146103b5578063748747e6146103bd5780637d38ca65146103e35780638456cb59146103eb5761027f565b806354518b1a1461034b578063573fef0a146103535780635c975abb1461035b57806366666aa9146103775780636817031b1461037f5761027f565b80632aada48f116102475780632aada48f146102f15780632ad5a53f1461030e5780632e1a7d4d146103165780633f4ba83a146103335780634641257d1461033b5780634700d305146103435761027f565b806311588086146102845780631f1fcd511461029e5780631fe4a686146102c2578063257ae0de146102ca57806326465826146102d2575b600080fd5b61028c61056b565b60408051918252519081900360200190f35b6102a66105e7565b604080516001600160a01b039092168252519081900360200190f35b6102a66105f6565b6102a6610605565b6102ef600480360360208110156102e857600080fd5b5035610614565b005b6102a66004803603602081101561030757600080fd5b50356106ce565b61028c6106f5565b6102ef6004803603602081101561032c57600080fd5b50356106fa565b6102ef61087f565b6102ef610906565b6102ef610ad2565b61028c610bae565b6102ef610904565b610363610bb4565b604080519115158252519081900360200190f35b6102a6610bc4565b6102ef6004803603602081101561039557600080fd5b50356001600160a01b0316610bd3565b6102a6610c57565b6102ef610c6b565b61028c610d17565b6102ef600480360360208110156103d357600080fd5b50356001600160a01b0316610d37565b61028c610dc6565b6102ef610dcb565b61028c610e48565b6102a6610e4e565b6102a6610e66565b6102a6610e75565b61028c610e84565b610363610e8a565b6102ef6004803603602081101561043957600080fd5b50356001600160a01b0316610e93565b6102ef6004803603602081101561045f57600080fd5b5035610f17565b6102a6610fc8565b61028c610fd7565b61028c610fdd565b6102ef6004803603602081101561049457600080fd5b50356001600160a01b0316611028565b6102ef611097565b61028c61115f565b6102ef600480360360208110156104ca57600080fd5b50356001600160a01b0316611165565b6102a6600480360360208110156104f057600080fd5b50356111e9565b6102ef6004803603602081101561050d57600080fd5b50356001600160a01b03166111f6565b61028c61138a565b61028c61138f565b6102a6611395565b6102ef6004803603602081101561054b57600080fd5b50356001600160a01b03166113a4565b6102ef6114a6565b6102a66115e7565b600c54604080516370a0823160e01b815230600482015290516000926001600160a01b0316916370a08231916024808301926020929190829003018186803b1580156105b657600080fd5b505afa1580156105ca573d6000803e3d6000fd5b505050506040513d60208110156105e057600080fd5b5051905090565b600a546001600160a01b031681565b6002546001600160a01b031681565b6003546001600160a01b031681565b61061c610e66565b6001600160a01b0316336001600160a01b0316148061064557506001546001600160a01b031633145b610681576040805162461bcd60e51b815260206004820152600860248201526710b6b0b730b3b2b960c11b604482015290519081900360640190fd5b606f8111156106c0576040805162461bcd60e51b815260206004808301919091526024820152630216361760e41b604482015290519081900360640190fd5b600781905561037803600855565b600f81815481106106db57fe5b6000918252602090912001546001600160a01b0316905081565b606f81565b6004546001600160a01b03163314610742576040805162461bcd60e51b8152602060048201526006602482015265085d985d5b1d60d21b604482015290519081900360640190fd5b600061074c610fdd565b9050818110156107ca57600c546001600160a01b0316632e1a7d4d6107718484611722565b6040518263ffffffff1660e01b815260040180828152602001915050600060405180830381600087803b1580156107a757600080fd5b505af11580156107bb573d6000803e3d6000fd5b505050506107c7610fdd565b90505b818111156107d55750805b6107dd610e66565b6001600160a01b0316326001600160a01b031614806107ff57506107ff610bb4565b1561082657600454600a54610821916001600160a01b03918216911683611784565b61087b565b6000610849612710610843600654856117d690919063ffffffff16565b9061182f565b600454909150610879906001600160a01b03166108668484611722565b600a546001600160a01b03169190611784565b505b5050565b610887610e66565b6001600160a01b0316336001600160a01b031614806108b057506001546001600160a01b031633145b6108ec576040805162461bcd60e51b815260206004820152600860248201526710b6b0b730b3b2b960c11b604482015290519081900360640190fd5b6108f4611896565b6108fc611939565b610904611097565b565b61090e610bb4565b15610953576040805162461bcd60e51b815260206004820152601060248201526f14185d5cd8589b194e881c185d5cd95960821b604482015290519081900360640190fd5b60095460ff1615610a2157600960019054906101000a90046001600160a01b03166001600160a01b0316633de39c116040518163ffffffff1660e01b8152600401602060405180830381600087803b1580156109ae57600080fd5b505af11580156109c2573d6000803e3d6000fd5b505050506040513d60208110156109d857600080fd5b50513a1115610a21576040805162461bcd60e51b815260206004820152601060248201526f67617320697320746f6f20686967682160801b604482015290519081900360640190fd5b600c60009054906101000a90046001600160a01b03166001600160a01b0316633d18b9126040518163ffffffff1660e01b8152600401600060405180830381600087803b158015610a7157600080fd5b505af1158015610a85573d6000803e3d6000fd5b50505050610a91611977565b610a99611d90565b610aa1611097565b42600d5560405133907f577a37fdb49a88d66684922c6f913df5239b4f214b2b97c53ef8e3bbb2034cb590600090a2565b610ada610e66565b6001600160a01b0316336001600160a01b03161480610b0357506001546001600160a01b031633145b610b3f576040805162461bcd60e51b815260206004820152600860248201526710b6b0b730b3b2b960c11b604482015290519081900360640190fd5b600c546001600160a01b0316632e1a7d4d610b5861056b565b6040518263ffffffff1660e01b815260040180828152602001915050600060405180830381600087803b158015610b8e57600080fd5b505af1158015610ba2573d6000803e3d6000fd5b50505050610904610dcb565b61271081565b600054600160a01b900460ff1690565b600c546001600160a01b031681565b610bdb611faf565b6001600160a01b0316610bec610e66565b6001600160a01b031614610c35576040805162461bcd60e51b815260206004820181905260248201526000805160206123f7833981519152604482015290519081900360640190fd5b600480546001600160a01b0319166001600160a01b0392909216919091179055565b60095461010090046001600160a01b031681565b610c73611faf565b6001600160a01b0316610c84610e66565b6001600160a01b031614610ccd576040805162461bcd60e51b815260206004820181905260248201526000805160206123f7833981519152604482015290519081900360640190fd5b600080546040516001600160a01b03909116907f8be0079c531659141344cd1fd0a4f28419497f9722a3daafe3b4186f6b6457e0908390a3600080546001600160a01b0319169055565b6000610d32610d2461056b565b610d2c610fdd565b90611fb3565b905090565b610d3f610e66565b6001600160a01b0316336001600160a01b03161480610d6857506001546001600160a01b031633145b610da4576040805162461bcd60e51b815260206004820152600860248201526710b6b0b730b3b2b960c11b604482015290519081900360640190fd5b600180546001600160a01b0319166001600160a01b0392909216919091179055565b607081565b610dd3610e66565b6001600160a01b0316336001600160a01b03161480610dfc57506001546001600160a01b031633145b610e38576040805162461bcd60e51b815260206004820152600860248201526710b6b0b730b3b2b960c11b604482015290519081900360640190fd5b610e4061200d565b610904612096565b60065481565b73bb4cdb9cbd36b01bd1cbaebf2de08d9173bc095c81565b6000546001600160a01b031690565b6005546001600160a01b031681565b60075481565b60095460ff1681565b610e9b611faf565b6001600160a01b0316610eac610e66565b6001600160a01b031614610ef5576040805162461bcd60e51b815260206004820181905260248201526000805160206123f7833981519152604482015290519081900360640190fd5b600580546001600160a01b0319166001600160a01b0392909216919091179055565b610f1f610e66565b6001600160a01b0316336001600160a01b03161480610f4857506001546001600160a01b031633145b610f84576040805162461bcd60e51b815260206004820152600860248201526710b6b0b730b3b2b960c11b604482015290519081900360640190fd5b6032811115610fc3576040805162461bcd60e51b815260206004808301919091526024820152630216361760e41b604482015290519081900360640190fd5b600655565b6001546001600160a01b031681565b6103e881565b600a54604080516370a0823160e01b815230600482015290516000926001600160a01b0316916370a08231916024808301926020929190829003018186803b1580156105b657600080fd5b6002546001600160a01b03163314611075576040805162461bcd60e51b815260206004820152600b60248201526a085cdd1c985d1959da5cdd60aa1b604482015290519081900360640190fd5b600280546001600160a01b0319166001600160a01b0392909216919091179055565b61109f610bb4565b156110e4576040805162461bcd60e51b815260206004820152601060248201526f14185d5cd8589b194e881c185d5cd95960821b604482015290519081900360640190fd5b60006110ee610fdd565b9050801561115c57600c546040805163b6b55f2560e01b81526004810184905290516001600160a01b039092169163b6b55f259160248082019260009290919082900301818387803b15801561114357600080fd5b505af1158015611157573d6000803e3d6000fd5b505050505b50565b60085481565b61116d611faf565b6001600160a01b031661117e610e66565b6001600160a01b0316146111c7576040805162461bcd60e51b815260206004820181905260248201526000805160206123f7833981519152604482015290519081900360640190fd5b600380546001600160a01b0319166001600160a01b0392909216919091179055565b600e81815481106106db57fe5b6111fe610e66565b6001600160a01b0316336001600160a01b0316148061122757506001546001600160a01b031633145b611263576040805162461bcd60e51b815260206004820152600860248201526710b6b0b730b3b2b960c11b604482015290519081900360640190fd5b600a546001600160a01b03828116911614156112ae576040805162461bcd60e51b8152602060048201526005602482015264217361666560d81b604482015290519081900360640190fd5b600b546001600160a01b03828116911614156112f9576040805162461bcd60e51b8152602060048201526005602482015264217361666560d81b604482015290519081900360640190fd5b6000816001600160a01b03166370a08231306040518263ffffffff1660e01b815260040180826001600160a01b0316815260200191505060206040518083038186803b15801561134857600080fd5b505afa15801561135c573d6000803e3d6000fd5b505050506040513d602081101561137257600080fd5b5051905061087b6001600160a01b0383163383611784565b603281565b600d5481565b600b546001600160a01b031681565b6113ac611faf565b6001600160a01b03166113bd610e66565b6001600160a01b031614611406576040805162461bcd60e51b815260206004820181905260248201526000805160206123f7833981519152604482015290519081900360640190fd5b6001600160a01b03811661144b5760405162461bcd60e51b815260040180806020018281038252602681526020018061238a6026913960400191505060405180910390fd5b600080546040516001600160a01b03808516939216917f8be0079c531659141344cd1fd0a4f28419497f9722a3daafe3b4186f6b6457e091a3600080546001600160a01b0319166001600160a01b0392909216919091179055565b6004546001600160a01b031633146114ee576040805162461bcd60e51b8152602060048201526006602482015265085d985d5b1d60d21b604482015290519081900360640190fd5b600c546001600160a01b0316632e1a7d4d61150761056b565b6040518263ffffffff1660e01b815260040180828152602001915050600060405180830381600087803b15801561153d57600080fd5b505af1158015611551573d6000803e3d6000fd5b50505050600061155f610fdd565b600a54600480546040805163a9059cbb60e01b81526001600160a01b039283169381019390935260248301859052519394509091169163a9059cbb916044808201926020929091908290030181600087803b1580156115bd57600080fd5b505af11580156115d1573d6000803e3d6000fd5b505050506040513d602081101561087957600080fd5b6004546001600160a01b031681565b80158061167c575060408051636eb1769f60e11b81523060048201526001600160a01b03848116602483015291519185169163dd62ed3e91604480820192602092909190829003018186803b15801561164e57600080fd5b505afa158015611662573d6000803e3d6000fd5b505050506040513d602081101561167857600080fd5b5051155b6116b75760405162461bcd60e51b81526004018080602001828103825260368152602001806124416036913960400191505060405180910390fd5b604080516001600160a01b038416602482015260448082018490528251808303909101815260649091019091526020810180516001600160e01b031663095ea7b360e01b1790526108799084906120d2565b60606117188484600085612183565b90505b9392505050565b600082821115611779576040805162461bcd60e51b815260206004820152601e60248201527f536166654d6174683a207375627472616374696f6e206f766572666c6f770000604482015290519081900360640190fd5b508082035b92915050565b604080516001600160a01b038416602482015260448082018490528251808303909101815260649091019091526020810180516001600160e01b031663a9059cbb60e01b1790526108799084906120d2565b6000826117e55750600061177e565b828202828482816117f257fe5b041461171b5760405162461bcd60e51b81526004018080602001828103825260218152602001806123d66021913960400191505060405180910390fd5b6000808211611885576040805162461bcd60e51b815260206004820152601a60248201527f536166654d6174683a206469766973696f6e206279207a65726f000000000000604482015290519081900360640190fd5b81838161188e57fe5b049392505050565b61189e610bb4565b6118e6576040805162461bcd60e51b815260206004820152601460248201527314185d5cd8589b194e881b9bdd081c185d5cd95960621b604482015290519081900360640190fd5b6000805460ff60a01b191690557f5db9ee0a495bf2e6ff9c91a7834c1ba4fdd244a5e8aa4e537bd38aeae4b073aa61191c611faf565b604080516001600160a01b039092168252519081900360200190a1565b600c54600a54611958916001600160a01b0391821691166000196115f6565b600354600b54610904916001600160a01b0391821691166000196115f6565b600b546000906001600160a01b031673bb4cdb9cbd36b01bd1cbaebf2de08d9173bc095c14611c4f57600b54604080516370a0823160e01b81523060048201529051600092611a2f926103e89261084392602d926001600160a01b03909116916370a0823191602480820192602092909190829003018186803b1580156119fd57600080fd5b505afa158015611a11573d6000803e3d6000fd5b505050506040513d6020811015611a2757600080fd5b5051906117d6565b9050600360009054906101000a90046001600160a01b03166001600160a01b03166338ed1739826000600f30426040518663ffffffff1660e01b81526004018086815260200185815260200180602001846001600160a01b031681526020018381526020018281038252858181548152602001915080548015611adb57602002820191906000526020600020905b81546001600160a01b03168152600190910190602001808311611abd575b50509650505050505050600060405180830381600087803b158015611aff57600080fd5b505af1158015611b13573d6000803e3d6000fd5b505050506040513d6000823e601f3d908101601f191682016040526020811015611b3c57600080fd5b8101908080516040519392919084640100000000821115611b5c57600080fd5b908301906020820185811115611b7157600080fd5b8251866020820283011164010000000082111715611b8e57600080fd5b82525081516020918201928201910280838360005b83811015611bbb578181015183820152602001611ba3565b505050509190910160408181526370a0823160e01b82523060048301525173bb4cdb9cbd36b01bd1cbaebf2de08d9173bc095c96506370a082319550602480830195506020945090925090829003018186803b158015611c1a57600080fd5b505afa158015611c2e573d6000803e3d6000fd5b505050506040513d6020811015611c4457600080fd5b50519150611cbe9050565b611cbb6103e8610843602d73bb4cdb9cbd36b01bd1cbaebf2de08d9173bc095c6001600160a01b03166370a08231306040518263ffffffff1660e01b815260040180826001600160a01b0316815260200191505060206040518083038186803b1580156119fd57600080fd5b90505b6000611cdb6103e8610843600754856117d690919063ffffffff16565b9050611cfc73bb4cdb9cbd36b01bd1cbaebf2de08d9173bc095c3283611784565b6000611d196103e8610843600854866117d690919063ffffffff16565b600554909150611d489073bb4cdb9cbd36b01bd1cbaebf2de08d9173bc095c906001600160a01b031683611784565b6000611d5b6103e86108438660706117d6565b600254909150611d8a9073bb4cdb9cbd36b01bd1cbaebf2de08d9173bc095c906001600160a01b031683611784565b50505050565b600a54600b546001600160a01b0390811691161461090457600b54604080516370a0823160e01b815230600482015290516000926001600160a01b0316916370a08231916024808301926020929190829003018186803b158015611df357600080fd5b505afa158015611e07573d6000803e3d6000fd5b505050506040513d6020811015611e1d57600080fd5b50516003546040516338ed173960e01b8152600481018381526000602483018190523060648401819052426084850181905260a060448601908152600e805460a488018190529899506001600160a01b03909716976338ed1739978a979596909590929160c49091019086908015611ebe57602002820191906000526020600020905b81546001600160a01b03168152600190910190602001808311611ea0575b50509650505050505050600060405180830381600087803b158015611ee257600080fd5b505af1158015611ef6573d6000803e3d6000fd5b505050506040513d6000823e601f3d908101601f191682016040526020811015611f1f57600080fd5b8101908080516040519392919084640100000000821115611f3f57600080fd5b908301906020820185811115611f5457600080fd5b8251866020820283011164010000000082111715611f7157600080fd5b82525081516020918201928201910280838360005b83811015611f9e578181015183820152602001611f86565b505050509050016040525050505050565b3390565b60008282018381101561171b576040805162461bcd60e51b815260206004820152601b60248201527f536166654d6174683a206164646974696f6e206f766572666c6f770000000000604482015290519081900360640190fd5b612015610bb4565b1561205a576040805162461bcd60e51b815260206004820152601060248201526f14185d5cd8589b194e881c185d5cd95960821b604482015290519081900360640190fd5b6000805460ff60a01b1916600160a01b1790557f62e78cea01bee320cd4e420270b5ea74000d11b0c9f74754ebdbfc544b05a25861191c611faf565b600c54600a546120b4916001600160a01b03918216911660006115f6565b600354600b54610904916001600160a01b03918216911660006115f6565b6060612127826040518060400160405280602081526020017f5361666545524332303a206c6f772d6c6576656c2063616c6c206661696c6564815250856001600160a01b03166117099092919063ffffffff16565b8051909150156108795780806020019051602081101561214657600080fd5b50516108795760405162461bcd60e51b815260040180806020018281038252602a815260200180612417602a913960400191505060405180910390fd5b6060824710156121c45760405162461bcd60e51b81526004018080602001828103825260268152602001806123b06026913960400191505060405180910390fd5b6121cd856122df565b61221e576040805162461bcd60e51b815260206004820152601d60248201527f416464726573733a2063616c6c20746f206e6f6e2d636f6e7472616374000000604482015290519081900360640190fd5b60006060866001600160a01b031685876040518082805190602001908083835b6020831061225d5780518252601f19909201916020918201910161223e565b6001836020036101000a03801982511681845116808217855250505050505090500191505060006040518083038185875af1925050503d80600081146122bf576040519150601f19603f3d011682016040523d82523d6000602084013e6122c4565b606091505b50915091506122d48282866122e5565b979650505050505050565b3b151590565b606083156122f457508161171b565b8251156123045782518084602001fd5b8160405162461bcd60e51b81526004018080602001828103825283818151815260200191508051906020019080838360005b8381101561234e578181015183820152602001612336565b50505050905090810190601f16801561237b5780820380516001836020036101000a031916815260200191505b509250505060405180910390fdfe4f776e61626c653a206e6577206f776e657220697320746865207a65726f2061646472657373416464726573733a20696e73756666696369656e742062616c616e636520666f722063616c6c536166654d6174683a206d756c7469706c69636174696f6e206f766572666c6f774f776e61626c653a2063616c6c6572206973206e6f7420746865206f776e65725361666545524332303a204552433230206f7065726174696f6e20646964206e6f7420737563636565645361666545524332303a20617070726f76652066726f6d206e6f6e2d7a65726f20746f206e6f6e2d7a65726f20616c6c6f77616e6365a26469706673582212205b7922d027a42401016c98dedf852dbf00a3edddd1f2d438c29bbc4c75771ecf64736f6c634300060c0033000000000000000000000000bb4cdb9cbd36b01bd1cbaebf2de08d9173bc095c416464726573733a20696e73756666696369656e742062616c616e636520666f722063616c6c5361666545524332303a204552433230206f7065726174696f6e20646964206e6f7420737563636565645361666545524332303a20617070726f76652066726f6d206e6f6e2d7a65726f20746f206e6f6e2d7a65726f20616c6c6f77616e6365",
  "linkReferences": {},
  "deployedLinkReferences": {}
}