{
  "_format": "hh-sol-artifact-1",
  "contractName": "StrategyCommonChefLP",
  "sourceName": "contracts/BIFI/strategies/Common/StrategyCommonChefLP.sol",
  "abi": [
    {
      "inputs": [
        {
          "internalType": "address",
          "name": "_want",
          "type": "address"
        },
        {
          "internalType": "uint256",
          "name": "_poolId",
          "type": "uint256"
        },
        {
          "internalType": "address",
          "name": "_chef",
          "type": "address"
        },
        {
          "internalType": "address",
          "name": "_vault",
          "type": "address"
        },
        {
          "internalType": "address",
          "name": "_unirouter",
          "type": "address"
        },
        {
          "internalType": "address",
          "name": "_keeper",
          "type": "address"
        },
        {
          "internalType": "address",
          "name": "_strategist",
          "type": "address"
        },
        {
          "internalType": "address",
          "name": "_beefyFeeRecipient",
          "type": "address"
        },
        {
          "internalType": "address payable",
          "name": "_crtInteraction",
          "type": "address"
        },
        {
          "internalType": "address[]",
          "name": "_nativeToCRTRoute",
          "type": "address[]"
        },
        {
          "internalType": "address[]",
          "name": "_outputToNativeRoute",
          "type": "address[]"
        },
        {
          "internalType": "address[]",
          "name": "_outputToLp0Route",
          "type": "address[]"
        },
        {
          "internalType": "address[]",
          "name": "_outputToLp1Route",
          "type": "address[]"
        }
      ],
      "stateMutability": "nonpayable",
      "type": "constructor"
    },
    {
      "anonymous": false,
      "inputs": [
        {
          "indexed": true,
          "internalType": "address",
          "name": "previousOwner",
          "type": "address"
        },
        {
          "indexed": true,
          "internalType": "address",
          "name": "newOwner",
          "type": "address"
        }
      ],
      "name": "OwnershipTransferred",
      "type": "event"
    },
    {
      "anonymous": false,
      "inputs": [
        {
          "indexed": false,
          "internalType": "address",
          "name": "account",
          "type": "address"
        }
      ],
      "name": "Paused",
      "type": "event"
    },
    {
      "anonymous": false,
      "inputs": [
        {
          "indexed": true,
          "internalType": "address",
          "name": "harvester",
          "type": "address"
        }
      ],
      "name": "StratHarvest",
      "type": "event"
    },
    {
      "anonymous": false,
      "inputs": [
        {
          "indexed": false,
          "internalType": "address",
          "name": "account",
          "type": "address"
        }
      ],
      "name": "Unpaused",
      "type": "event"
    },
    {
      "inputs": [],
      "name": "CRT",
      "outputs": [
        {
          "internalType": "address",
          "name": "",
          "type": "address"
        }
      ],
      "stateMutability": "view",
      "type": "function"
    },
    {
      "inputs": [],
      "name": "MAX_CALL_FEE",
      "outputs": [
        {
          "internalType": "uint256",
          "name": "",
          "type": "uint256"
        }
      ],
      "stateMutability": "view",
      "type": "function"
    },
    {
      "inputs": [],
      "name": "MAX_FEE",
      "outputs": [
        {
          "internalType": "uint256",
          "name": "",
          "type": "uint256"
        }
      ],
      "stateMutability": "view",
      "type": "function"
    },
    {
      "inputs": [],
      "name": "STRATEGIST_FEE",
      "outputs": [
        {
          "internalType": "uint256",
          "name": "",
          "type": "uint256"
        }
      ],
      "stateMutability": "view",
      "type": "function"
    },
    {
      "inputs": [],
      "name": "WITHDRAWAL_FEE_CAP",
      "outputs": [
        {
          "internalType": "uint256",
          "name": "",
          "type": "uint256"
        }
      ],
      "stateMutability": "view",
      "type": "function"
    },
    {
      "inputs": [],
      "name": "WITHDRAWAL_MAX",
      "outputs": [
        {
          "internalType": "uint256",
          "name": "",
          "type": "uint256"
        }
      ],
      "stateMutability": "view",
      "type": "function"
    },
    {
      "inputs": [],
      "name": "accCRTpershare",
      "outputs": [
        {
          "internalType": "uint256",
          "name": "",
          "type": "uint256"
        }
      ],
      "stateMutability": "view",
      "type": "function"
    },
    {
      "inputs": [],
      "name": "balanceOf",
      "outputs": [
        {
          "internalType": "uint256",
          "name": "",
          "type": "uint256"
        }
      ],
      "stateMutability": "view",
      "type": "function"
    },
    {
      "inputs": [],
      "name": "balanceOfPool",
      "outputs": [
        {
          "internalType": "uint256",
          "name": "",
          "type": "uint256"
        }
      ],
      "stateMutability": "view",
      "type": "function"
    },
    {
      "inputs": [],
      "name": "balanceOfWant",
      "outputs": [
        {
          "internalType": "uint256",
          "name": "",
          "type": "uint256"
        }
      ],
      "stateMutability": "view",
      "type": "function"
    },
    {
      "inputs": [],
      "name": "beefyFee",
      "outputs": [
        {
          "internalType": "uint256",
          "name": "",
          "type": "uint256"
        }
      ],
      "stateMutability": "view",
      "type": "function"
    },
    {
      "inputs": [],
      "name": "beefyFeeRecipient",
      "outputs": [
        {
          "internalType": "address",
          "name": "",
          "type": "address"
        }
      ],
      "stateMutability": "view",
      "type": "function"
    },
    {
      "inputs": [],
      "name": "beforeDeposit",
      "outputs": [],
      "stateMutability": "nonpayable",
      "type": "function"
    },
    {
      "inputs": [],
      "name": "callFee",
      "outputs": [
        {
          "internalType": "uint256",
          "name": "",
          "type": "uint256"
        }
      ],
      "stateMutability": "view",
      "type": "function"
    },
    {
      "inputs": [],
      "name": "callReward",
      "outputs": [
        {
          "internalType": "uint256",
          "name": "",
          "type": "uint256"
        }
      ],
      "stateMutability": "view",
      "type": "function"
    },
    {
      "inputs": [],
      "name": "chef",
      "outputs": [
        {
          "internalType": "address",
          "name": "",
          "type": "address"
        }
      ],
      "stateMutability": "view",
      "type": "function"
    },
    {
      "inputs": [],
      "name": "deposit",
      "outputs": [],
      "stateMutability": "nonpayable",
      "type": "function"
    },
    {
      "inputs": [],
      "name": "harvest",
      "outputs": [],
      "stateMutability": "nonpayable",
      "type": "function"
    },
    {
      "inputs": [],
      "name": "harvestCRT",
      "outputs": [],
      "stateMutability": "nonpayable",
      "type": "function"
    },
    {
      "inputs": [],
      "name": "harvestOnDeposit",
      "outputs": [
        {
          "internalType": "bool",
          "name": "",
          "type": "bool"
        }
      ],
      "stateMutability": "view",
      "type": "function"
    },
    {
      "inputs": [
        {
          "internalType": "address",
          "name": "callFeeRecipient",
          "type": "address"
        }
      ],
      "name": "harvestWithCallFeeRecipient",
      "outputs": [],
      "stateMutability": "nonpayable",
      "type": "function"
    },
    {
      "inputs": [],
      "name": "keeper",
      "outputs": [
        {
          "internalType": "address",
          "name": "",
          "type": "address"
        }
      ],
      "stateMutability": "view",
      "type": "function"
    },
    {
      "inputs": [],
      "name": "lastHarvest",
      "outputs": [
        {
          "internalType": "uint256",
          "name": "",
          "type": "uint256"
        }
      ],
      "stateMutability": "view",
      "type": "function"
    },
    {
      "inputs": [],
      "name": "lpToken0",
      "outputs": [
        {
          "internalType": "address",
          "name": "",
          "type": "address"
        }
      ],
      "stateMutability": "view",
      "type": "function"
    },
    {
      "inputs": [],
      "name": "lpToken1",
      "outputs": [
        {
          "internalType": "address",
          "name": "",
          "type": "address"
        }
      ],
      "stateMutability": "view",
      "type": "function"
    },
    {
      "inputs": [],
      "name": "managerHarvest",
      "outputs": [],
      "stateMutability": "nonpayable",
      "type": "function"
    },
    {
      "inputs": [],
      "name": "native",
      "outputs": [
        {
          "internalType": "address",
          "name": "",
          "type": "address"
        }
      ],
      "stateMutability": "view",
      "type": "function"
    },
    {
      "inputs": [
        {
          "internalType": "uint256",
          "name": "",
          "type": "uint256"
        }
      ],
      "name": "nativeToCRTRoute",
      "outputs": [
        {
          "internalType": "address",
          "name": "",
          "type": "address"
        }
      ],
      "stateMutability": "view",
      "type": "function"
    },
    {
      "inputs": [],
      "name": "output",
      "outputs": [
        {
          "internalType": "address",
          "name": "",
          "type": "address"
        }
      ],
      "stateMutability": "view",
      "type": "function"
    },
    {
      "inputs": [],
      "name": "outputToLp0",
      "outputs": [
        {
          "internalType": "address[]",
          "name": "",
          "type": "address[]"
        }
      ],
      "stateMutability": "view",
      "type": "function"
    },
    {
      "inputs": [
        {
          "internalType": "uint256",
          "name": "",
          "type": "uint256"
        }
      ],
      "name": "outputToLp0Route",
      "outputs": [
        {
          "internalType": "address",
          "name": "",
          "type": "address"
        }
      ],
      "stateMutability": "view",
      "type": "function"
    },
    {
      "inputs": [],
      "name": "outputToLp1",
      "outputs": [
        {
          "internalType": "address[]",
          "name": "",
          "type": "address[]"
        }
      ],
      "stateMutability": "view",
      "type": "function"
    },
    {
      "inputs": [
        {
          "internalType": "uint256",
          "name": "",
          "type": "uint256"
        }
      ],
      "name": "outputToLp1Route",
      "outputs": [
        {
          "internalType": "address",
          "name": "",
          "type": "address"
        }
      ],
      "stateMutability": "view",
      "type": "function"
    },
    {
      "inputs": [],
      "name": "outputToNative",
      "outputs": [
        {
          "internalType": "address[]",
          "name": "",
          "type": "address[]"
        }
      ],
      "stateMutability": "view",
      "type": "function"
    },
    {
      "inputs": [
        {
          "internalType": "uint256",
          "name": "",
          "type": "uint256"
        }
      ],
      "name": "outputToNativeRoute",
      "outputs": [
        {
          "internalType": "address",
          "name": "",
          "type": "address"
        }
      ],
      "stateMutability": "view",
      "type": "function"
    },
    {
      "inputs": [],
      "name": "owner",
      "outputs": [
        {
          "internalType": "address",
          "name": "",
          "type": "address"
        }
      ],
      "stateMutability": "view",
      "type": "function"
    },
    {
      "inputs": [],
      "name": "panic",
      "outputs": [],
      "stateMutability": "nonpayable",
      "type": "function"
    },
    {
      "inputs": [],
      "name": "pause",
      "outputs": [],
      "stateMutability": "nonpayable",
      "type": "function"
    },
    {
      "inputs": [],
      "name": "paused",
      "outputs": [
        {
          "internalType": "bool",
          "name": "",
          "type": "bool"
        }
      ],
      "stateMutability": "view",
      "type": "function"
    },
    {
      "inputs": [
        {
          "internalType": "address",
          "name": "_user",
          "type": "address"
        }
      ],
      "name": "pendingCRT",
      "outputs": [
        {
          "internalType": "uint256",
          "name": "",
          "type": "uint256"
        }
      ],
      "stateMutability": "view",
      "type": "function"
    },
    {
      "inputs": [],
      "name": "pendingRewardsFunctionName",
      "outputs": [
        {
          "internalType": "string",
          "name": "",
          "type": "string"
        }
      ],
      "stateMutability": "view",
      "type": "function"
    },
    {
      "inputs": [],
      "name": "poolId",
      "outputs": [
        {
          "internalType": "uint256",
          "name": "",
          "type": "uint256"
        }
      ],
      "stateMutability": "view",
      "type": "function"
    },
    {
      "inputs": [],
      "name": "renounceOwnership",
      "outputs": [],
      "stateMutability": "nonpayable",
      "type": "function"
    },
    {
      "inputs": [],
      "name": "retireStrat",
      "outputs": [],
      "stateMutability": "nonpayable",
      "type": "function"
    },
    {
      "inputs": [],
      "name": "rewardsAvailable",
      "outputs": [
        {
          "internalType": "uint256",
          "name": "",
          "type": "uint256"
        }
      ],
      "stateMutability": "view",
      "type": "function"
    },
    {
      "inputs": [
        {
          "internalType": "address",
          "name": "_beefyFeeRecipient",
          "type": "address"
        }
      ],
      "name": "setBeefyFeeRecipient",
      "outputs": [],
      "stateMutability": "nonpayable",
      "type": "function"
    },
    {
      "inputs": [
        {
          "internalType": "uint256",
          "name": "_fee",
          "type": "uint256"
        }
      ],
      "name": "setCallFee",
      "outputs": [],
      "stateMutability": "nonpayable",
      "type": "function"
    },
    {
      "inputs": [
        {
          "internalType": "bool",
          "name": "_harvestOnDeposit",
          "type": "bool"
        }
      ],
      "name": "setHarvestOnDeposit",
      "outputs": [],
      "stateMutability": "nonpayable",
      "type": "function"
    },
    {
      "inputs": [
        {
          "internalType": "address",
          "name": "_keeper",
          "type": "address"
        }
      ],
      "name": "setKeeper",
      "outputs": [],
      "stateMutability": "nonpayable",
      "type": "function"
    },
    {
      "inputs": [
        {
          "internalType": "string",
          "name": "_pendingRewardsFunctionName",
          "type": "string"
        }
      ],
      "name": "setPendingRewardsFunctionName",
      "outputs": [],
      "stateMutability": "nonpayable",
      "type": "function"
    },
    {
      "inputs": [
        {
          "internalType": "address",
          "name": "_strategist",
          "type": "address"
        }
      ],
      "name": "setStrategist",
      "outputs": [],
      "stateMutability": "nonpayable",
      "type": "function"
    },
    {
      "inputs": [
        {
          "internalType": "address",
          "name": "_unirouter",
          "type": "address"
        }
      ],
      "name": "setUnirouter",
      "outputs": [],
      "stateMutability": "nonpayable",
      "type": "function"
    },
    {
      "inputs": [
        {
          "internalType": "address",
          "name": "_vault",
          "type": "address"
        }
      ],
      "name": "setVault",
      "outputs": [],
      "stateMutability": "nonpayable",
      "type": "function"
    },
    {
      "inputs": [
        {
          "internalType": "uint256",
          "name": "_fee",
          "type": "uint256"
        }
      ],
      "name": "setWithdrawalFee",
      "outputs": [],
      "stateMutability": "nonpayable",
      "type": "function"
    },
    {
      "inputs": [],
      "name": "strategist",
      "outputs": [
        {
          "internalType": "address",
          "name": "",
          "type": "address"
        }
      ],
      "stateMutability": "view",
      "type": "function"
    },
    {
      "inputs": [],
      "name": "totalVaultShare",
      "outputs": [
        {
          "internalType": "uint256",
          "name": "",
          "type": "uint256"
        }
      ],
      "stateMutability": "view",
      "type": "function"
    },
    {
      "inputs": [
        {
          "internalType": "address",
          "name": "newOwner",
          "type": "address"
        }
      ],
      "name": "transferOwnership",
      "outputs": [],
      "stateMutability": "nonpayable",
      "type": "function"
    },
    {
      "inputs": [],
      "name": "unirouter",
      "outputs": [
        {
          "internalType": "address",
          "name": "",
          "type": "address"
        }
      ],
      "stateMutability": "view",
      "type": "function"
    },
    {
      "inputs": [],
      "name": "unpause",
      "outputs": [],
      "stateMutability": "nonpayable",
      "type": "function"
    },
    {
      "inputs": [
        {
          "internalType": "uint256",
          "name": "_amount",
          "type": "uint256"
        }
      ],
      "name": "updateUserin",
      "outputs": [],
      "stateMutability": "nonpayable",
      "type": "function"
    },
    {
      "inputs": [
        {
          "internalType": "uint256",
          "name": "_amount",
          "type": "uint256"
        }
      ],
      "name": "updateUserout",
      "outputs": [],
      "stateMutability": "nonpayable",
      "type": "function"
    },
    {
      "inputs": [
        {
          "internalType": "address",
          "name": "",
          "type": "address"
        }
      ],
      "name": "userInfo",
      "outputs": [
        {
          "internalType": "uint256",
          "name": "amount",
          "type": "uint256"
        },
        {
          "internalType": "uint256",
          "name": "rewardDebt",
          "type": "uint256"
        }
      ],
      "stateMutability": "view",
      "type": "function"
    },
    {
      "inputs": [],
      "name": "vault",
      "outputs": [
        {
          "internalType": "address",
          "name": "",
          "type": "address"
        }
      ],
      "stateMutability": "view",
      "type": "function"
    },
    {
      "inputs": [],
      "name": "want",
      "outputs": [
        {
          "internalType": "address",
          "name": "",
          "type": "address"
        }
      ],
      "stateMutability": "view",
      "type": "function"
    },
    {
      "inputs": [
        {
          "internalType": "uint256",
          "name": "_amount",
          "type": "uint256"
        }
      ],
      "name": "withdraw",
      "outputs": [],
      "stateMutability": "nonpayable",
      "type": "function"
    },
    {
      "inputs": [],
      "name": "withdrawalFee",
      "outputs": [
        {
          "internalType": "uint256",
          "name": "",
          "type": "uint256"
        }
      ],
      "stateMutability": "view",
      "type": "function"
    }
  ],
  "bytecode": "0x6080604052600a600655606f6007556103096008553480156200002157600080fd5b5060405162004cf738038062004cf783398181016040526101a08110156200004857600080fd5b815160208301516040808501516060860151608087015160a088015160c089015160e08a01516101008b01516101208c01805198519a9c999b979a969995989497939692959194929382019284640100000000821115620000a857600080fd5b908301906020820185811115620000be57600080fd5b8251866020820283011164010000000082111715620000dc57600080fd5b82525081516020918201928201910280838360005b838110156200010b578181015183820152602001620000f1565b50505050905001604052602001805160405193929190846401000000008211156200013557600080fd5b9083019060208201858111156200014b57600080fd5b82518660208202830111640100000000821117156200016957600080fd5b82525081516020918201928201910280838360005b83811015620001985781810151838201526020016200017e565b5050505090500160405260200180516040519392919084640100000000821115620001c257600080fd5b908301906020820185811115620001d857600080fd5b8251866020820283011164010000000082111715620001f657600080fd5b82525081516020918201928201910280838360005b83811015620002255781810151838201526020016200020b565b50505050905001604052602001805160405193929190846401000000008211156200024f57600080fd5b9083019060208201858111156200026557600080fd5b82518660208202830111640100000000821117156200028357600080fd5b82525081516020918201928201910280838360005b83811015620002b257818101518382015260200162000298565b5050505090500160405250505087878a8c896000620002d6620008a960201b60201c565b600080546001600160a01b0319166001600160a01b0383169081178255604051929350917f8be0079c531659141344cd1fd0a4f28419497f9722a3daafe3b4186f6b6457e0908290a35060008060146101000a81548160ff02191690831515021790555084600160006101000a8154816001600160a01b0302191690836001600160a01b0316021790555083600260006101000a8154816001600160a01b0302191690836001600160a01b0316021790555082600360006101000a8154816001600160a01b0302191690836001600160a01b0316021790555081600460006101000a8154816001600160a01b0302191690836001600160a01b0316021790555080600560006101000a8154816001600160a01b0302191690836001600160a01b0316021790555050505050508c600e60006101000a8154816001600160a01b0302191690836001600160a01b031602179055508b6014819055508a601360006101000a8154816001600160a01b0302191690836001600160a01b0316021790555084601160006101000a8154816001600160a01b0302191690836001600160a01b03160217905550836001855103815181106200048f57fe5b602090810291909101810151601280546001600160a01b0319166001600160a01b039092169190911790558451620004ce916018919087019062000dfb565b5082600081518110620004dd57fe5b6020026020010151600d60006101000a8154816001600160a01b0302191690836001600160a01b03160217905550826001845103815181106200051c57fe5b602090810291909101810151600c80546001600160a01b0319166001600160a01b0390921691909117905583516200055b916019919086019062000dfb565b50600e60009054906101000a90046001600160a01b03166001600160a01b0316630dfe16816040518163ffffffff1660e01b815260040160206040518083038186803b158015620005ab57600080fd5b505afa158015620005c0573d6000803e3d6000fd5b505050506040513d6020811015620005d757600080fd5b5051600f80546001600160a01b0319166001600160a01b03928316179055600d54835191169083906000906200060957fe5b60200260200101516001600160a01b0316146200066d576040805162461bcd60e51b815260206004820152601d60248201527f6f7574707574546f4c7030526f7574655b305d20213d206f7574707574000000604482015290519081900360640190fd5b600f5482516001600160a01b0390911690839060001981019081106200068f57fe5b60200260200101516001600160a01b031614620006de5760405162461bcd60e51b815260040180806020018281038252602281526020018062004c756022913960400191505060405180910390fd5b8151620006f390601a90602085019062000dfb565b50600e60009054906101000a90046001600160a01b03166001600160a01b031663d21220a76040518163ffffffff1660e01b815260040160206040518083038186803b1580156200074357600080fd5b505afa15801562000758573d6000803e3d6000fd5b505050506040513d60208110156200076f57600080fd5b5051601080546001600160a01b0319166001600160a01b03928316179055600d5482519116908290600090620007a157fe5b60200260200101516001600160a01b03161462000805576040805162461bcd60e51b815260206004820152601d60248201527f6f7574707574546f4c7031526f7574655b305d20213d206f7574707574000000604482015290519081900360640190fd5b60105481516001600160a01b0390911690829060001981019081106200082757fe5b60200260200101516001600160a01b031614620008765760405162461bcd60e51b815260040180806020018281038252602281526020018062004c2d6022913960400191505060405180910390fd5b80516200088b90601b90602084019062000dfb565b5062000896620008ad565b5050505050505050505050505062000e86565b3390565b601354600e54620008da916001600160a01b039182169116600019620009e8602090811b6200224617901c565b600354600d5462000907916001600160a01b039182169116600019620009e8602090811b6200224617901c565b600354600f5462000933916001600160a01b0391821691166000620009e8602090811b6200224617901c565b600354600f5462000960916001600160a01b039182169116600019620009e8602090811b6200224617901c565b6003546010546200098c916001600160a01b0391821691166000620009e8602090811b6200224617901c565b600354601054620009b9916001600160a01b039182169116600019620009e8602090811b6200224617901c565b600354600c54620009e6916001600160a01b039182169116600019620009e8602090811b6200224617901c565b565b80158062000a72575060408051636eb1769f60e11b81523060048201526001600160a01b03848116602483015291519185169163dd62ed3e91604480820192602092909190829003018186803b15801562000a4257600080fd5b505afa15801562000a57573d6000803e3d6000fd5b505050506040513d602081101562000a6e57600080fd5b5051155b62000aaf5760405162461bcd60e51b815260040180806020018281038252603681526020018062004cc16036913960400191505060405180910390fd5b604080516001600160a01b038416602482015260448082018490528251808303909101815260649091019091526020810180516001600160e01b0390811663095ea7b360e01b1790915262000b0791859162000b0c16565b505050565b606062000b68826040518060400160405280602081526020017f5361666545524332303a206c6f772d6c6576656c2063616c6c206661696c6564815250856001600160a01b031662000bc860201b62002359179092919060201c565b80519091501562000b075780806020019051602081101562000b8957600080fd5b505162000b075760405162461bcd60e51b815260040180806020018281038252602a81526020018062004c97602a913960400191505060405180910390fd5b606062000bd9848460008562000be3565b90505b9392505050565b60608247101562000c265760405162461bcd60e51b815260040180806020018281038252602681526020018062004c4f6026913960400191505060405180910390fd5b62000c318562000d4b565b62000c83576040805162461bcd60e51b815260206004820152601d60248201527f416464726573733a2063616c6c20746f206e6f6e2d636f6e7472616374000000604482015290519081900360640190fd5b60006060866001600160a01b031685876040518082805190602001908083835b6020831062000cc45780518252601f19909201916020918201910162000ca3565b6001836020036101000a03801982511681845116808217855250505050505090500191505060006040518083038185875af1925050503d806000811462000d28576040519150601f19603f3d011682016040523d82523d6000602084013e62000d2d565b606091505b50909250905062000d4082828662000d51565b979650505050505050565b3b151590565b6060831562000d6257508162000bdc565b82511562000d735782518084602001fd5b8160405162461bcd60e51b81526004018080602001828103825283818151815260200191508051906020019080838360005b8381101562000dbf57818101518382015260200162000da5565b50505050905090810190601f16801562000ded5780820380516001836020036101000a031916815260200191505b509250505060405180910390fd5b82805482825590600052602060002090810192821562000e53579160200282015b8281111562000e5357825182546001600160a01b0319166001600160a01b0390911617825560209092019160019091019062000e1c565b5062000e6192915062000e65565b5090565b5b8082111562000e615780546001600160a01b031916815560010162000e66565b613d978062000e966000396000f3fe608060405234801561001057600080fd5b50600436106103e65760003560e01c80637d38ca651161020a578063bc063e1a11610125578063d92f3d73116100b8578063f20eaeb811610087578063f20eaeb81461090a578063f2fde38b14610912578063fb61778714610938578063fbfa77cf14610940578063fd63a88714610948576103e6565b8063d92f3d73146108cc578063dfbdc437146108f2578063e7a7250a146108fa578063f1a392da14610902576103e6565b8063c7b9d530116100f4578063c7b9d5301461088e578063d0e30db0146108b4578063d3102589146108bc578063d801d946146108c4576103e6565b8063bc063e1a14610859578063be12a97814610861578063c1a3d44c1461087e578063c3fe71c214610886576103e6565b806390321e1a1161019d578063ab6f2f601161016c578063ab6f2f60146107fa578063ac1e502514610817578063aced166114610834578063b99007f91461083c576103e6565b806390321e1a146107bc57806397fd323d146107c4578063989ef4e3146107cc578063a68833e5146107d4576103e6565b80638912cb8b116101d95780638912cb8b1461079c5780638bc7e8c4146107a45780638da5cb5b146107ac5780638e145459146107b4576103e6565b80637d38ca651461075e5780637ec0a72a146107665780638456cb591461078c578063877562b614610794576103e6565b80632e1a7d4d1161030557806359e79138116102985780636817031b116102675780636817031b146106e55780636ae5d2531461070b578063715018a614610728578063722713f714610730578063748747e614610738576103e6565b806359e791381461062d5780635c975abb1461069b5780635ee167c0146106b7578063623d8bd2146106bf576103e6565b80634641257d116102d45780634641257d1461060d5780634700d3051461061557806354518b1a1461061d578063573fef0a14610625576103e6565b80632e1a7d4d146105c357806336c6cf21146105e05780633e0dc34e146105fd5780633f4ba83a14610605576103e6565b80631fc8bc5d1161037d578063264658261161034c5780632646582614610519578063277e5cfd146105365780632aa0a5c8146105b35780632ad5a53f146105bb576103e6565b80631fc8bc5d146104f95780631fe4a68614610501578063249c998b14610509578063257ae0de14610511576103e6565b806311c01d12116103b957806311c01d12146104a257806313e120b1146104aa5780631959a002146104b25780631f1fcd51146104f1576103e6565b80630587f785146103eb5780630e8fbb5a14610443578063115880861461046457806311b0b42d1461047e575b600080fd5b6103f3610965565b60408051602080825283518183015283519192839290830191858101910280838360005b8381101561042f578181015183820152602001610417565b505050509050019250505060405180910390f35b6104626004803603602081101561045957600080fd5b503515156109c7565b005b61046c610a68565b60408051918252519081900360200190f35b610486610aef565b604080516001600160a01b039092168252519081900360200190f35b61046c610afe565b6103f3610b04565b6104d8600480360360208110156104c857600080fd5b50356001600160a01b0316610b64565b6040805192835260208301919091528051918290030190f35b610486610b7d565b610486610b8c565b610486610b9b565b610462610baa565b610486610c30565b6104626004803603602081101561052f57600080fd5b5035610c3f565b61053e610cf9565b6040805160208082528351818301528351919283929083019185019080838360005b83811015610578578181015183820152602001610560565b50505050905090810190601f1680156105a55780820380516001836020036101000a031916815260200191505b509250505060405180910390f35b610486610d87565b61046c610d96565b610462600480360360208110156105d957600080fd5b5035610d9b565b610486600480360360208110156105f657600080fd5b5035611004565b61046c61102b565b610462611031565b6104626110b8565b6104626110c2565b61046c6111a1565b6104626111a7565b6104626004803603602081101561064357600080fd5b810190602081018135600160201b81111561065d57600080fd5b82018360208201111561066f57600080fd5b803590602001918460018302840111600160201b8311171561069057600080fd5b5090925090506111fa565b6106a3611273565b604080519115158252519081900360200190f35b610486611283565b610462600480360360208110156106d557600080fd5b50356001600160a01b0316611292565b610462600480360360208110156106fb57600080fd5b50356001600160a01b031661129b565b6104626004803603602081101561072157600080fd5b503561131f565b6104626113c1565b61046c61146d565b6104626004803603602081101561074e57600080fd5b50356001600160a01b031661148d565b61046c61151c565b61046c6004803603602081101561077c57600080fd5b50356001600160a01b0316611521565b610462611564565b6104866115e1565b6106a36115f0565b61046c6115f9565b6104866115ff565b61048661160e565b61046c61161d565b61046c611623565b6103f36117ef565b610462600480360360208110156107ea57600080fd5b50356001600160a01b031661184f565b6104626004803603602081101561081057600080fd5b50356118d3565b6104626004803603602081101561082d57600080fd5b50356119b0565b610486611a61565b6104866004803603602081101561085257600080fd5b5035611a70565b61046c611a7d565b6104866004803603602081101561087757600080fd5b5035611a83565b61046c611a90565b61046c611b0c565b610462600480360360208110156108a457600080fd5b50356001600160a01b0316611b12565b610462611b81565b61046c611cbf565b610462611cc5565b610462600480360360208110156108e257600080fd5b50356001600160a01b0316611d32565b61046c611db6565b61046c611dbb565b61046c611f62565b610486611f68565b6104626004803603602081101561092857600080fd5b50356001600160a01b0316611f77565b610462612079565b61048661222a565b6104866004803603602081101561095e57600080fd5b5035612239565b6060601b8054806020026020016040519081016040528092919081815260200182805480156109bd57602002820191906000526020600020905b81546001600160a01b0316815260019091019060200180831161099f575b5050505050905090565b6109cf6115ff565b6001600160a01b0316336001600160a01b031614806109f857506001546001600160a01b031633145b610a34576040805162461bcd60e51b815260206004820152600860248201526710b6b0b730b3b2b960c11b604482015290519081900360640190fd5b6015805460ff1916821515179081905560ff1615610a5b57610a5660006119b0565b610a65565b610a65600a6119b0565b50565b601354601454604080516393f1a40b60e01b81526004810192909252306024830152805160009384936001600160a01b03909116926393f1a40b92604480840193829003018186803b158015610abd57600080fd5b505afa158015610ad1573d6000803e3d6000fd5b505050506040513d6040811015610ae757600080fd5b505191505090565b600c546001600160a01b031681565b600a5481565b606060198054806020026020016040519081016040528092919081815260200182805480156109bd576020028201919060005260206000209081546001600160a01b0316815260019091019060200180831161099f575050505050905090565b6009602052600090815260409020805460019091015482565b600e546001600160a01b031681565b6013546001600160a01b031681565b6002546001600160a01b031681565b3260009081526009602052604081206001810154600a548254929392610bec9291610be69164e8d4a5100091610be09190612370565b906123d2565b90612439565b90508015610c0b57601254610c0b906001600160a01b03163283612496565b600a548254610c249164e8d4a5100091610be091612370565b82600101819055505050565b6003546001600160a01b031681565b610c476115ff565b6001600160a01b0316336001600160a01b03161480610c7057506001546001600160a01b031633145b610cac576040805162461bcd60e51b815260206004820152600860248201526710b6b0b730b3b2b960c11b604482015290519081900360640190fd5b606f811115610ceb576040805162461bcd60e51b815260206004808301919091526024820152630216361760e41b604482015290519081900360640190fd5b600781905561037803600855565b6017805460408051602060026001851615610100026000190190941693909304601f81018490048402820184019092528181529291830182828015610d7f5780601f10610d5457610100808354040283529160200191610d7f565b820191906000526020600020905b815481529060010190602001808311610d6257829003601f168201915b505050505081565b6012546001600160a01b031681565b606f81565b6004546001600160a01b03163314610de3576040805162461bcd60e51b8152602060048201526006602482015265085d985d5b1d60d21b604482015290519081900360640190fd5b600e54604080516370a0823160e01b815230600482015290516000926001600160a01b0316916370a08231916024808301926020929190829003018186803b158015610e2e57600080fd5b505afa158015610e42573d6000803e3d6000fd5b505050506040513d6020811015610e5857600080fd5b5051905081811015610f55576013546014546001600160a01b039091169063441a3e7090610e868585612439565b6040518363ffffffff1660e01b81526004018083815260200182815260200192505050600060405180830381600087803b158015610ec357600080fd5b505af1158015610ed7573d6000803e3d6000fd5b5050600e54604080516370a0823160e01b815230600482015290516001600160a01b0390921693506370a082319250602480820192602092909190829003018186803b158015610f2657600080fd5b505afa158015610f3a573d6000803e3d6000fd5b505050506040513d6020811015610f5057600080fd5b505190505b81811115610f605750805b610f686115ff565b6001600160a01b0316326001600160a01b03161480610f8a5750610f8a611273565b15610fb157600454600e54610fac916001600160a01b03918216911683612496565b611000565b6000610fce612710610be06006548561237090919063ffffffff16565b600454909150610ffe906001600160a01b0316610feb8484612439565b600e546001600160a01b03169190612496565b505b5050565b601a818154811061101157fe5b6000918252602090912001546001600160a01b0316905081565b60145481565b6110396115ff565b6001600160a01b0316336001600160a01b0316148061106257506001546001600160a01b031633145b61109e576040805162461bcd60e51b815260206004820152600860248201526710b6b0b730b3b2b960c11b604482015290519081900360640190fd5b6110a66124e8565b6110ae61258b565b6110b6611b81565b565b6110b66000612662565b6110ca6115ff565b6001600160a01b0316336001600160a01b031614806110f357506001546001600160a01b031633145b61112f576040805162461bcd60e51b815260206004820152600860248201526710b6b0b730b3b2b960c11b604482015290519081900360640190fd5b611137611564565b60135460145460408051632989754760e11b81526004810192909252516001600160a01b0390921691635312ea8e9160248082019260009290919082900301818387803b15801561118757600080fd5b505af115801561119b573d6000803e3d6000fd5b50505050565b61271081565b60155460ff16156110b6576004546001600160a01b031633146110b8576040805162461bcd60e51b8152602060048201526006602482015265085d985d5b1d60d21b604482015290519081900360640190fd5b6112026115ff565b6001600160a01b0316336001600160a01b0316148061122b57506001546001600160a01b031633145b611267576040805162461bcd60e51b815260206004820152600860248201526710b6b0b730b3b2b960c11b604482015290519081900360640190fd5b610ffe60178383613b98565b600054600160a01b900460ff1690565b600f546001600160a01b031681565b610a6581612662565b6112a36127ea565b6001600160a01b03166112b46115ff565b6001600160a01b0316146112fd576040805162461bcd60e51b81526020600482018190526024820152600080516020613cbe833981519152604482015290519081900360640190fd5b600480546001600160a01b0319166001600160a01b0392909216919091179055565b6004546001600160a01b0316331461136b576040805162461bcd60e51b815260206004820152600a6024820152696e6f74207661756c742160b01b604482015290519081900360640190fd5b326000908152600960205260409020811561139f57805461138c9083612439565b8155600b5461139b9083612439565b600b555b600a5481546113b89164e8d4a5100091610be091612370565b60019091015550565b6113c96127ea565b6001600160a01b03166113da6115ff565b6001600160a01b031614611423576040805162461bcd60e51b81526020600482018190526024820152600080516020613cbe833981519152604482015290519081900360640190fd5b600080546040516001600160a01b03909116907f8be0079c531659141344cd1fd0a4f28419497f9722a3daafe3b4186f6b6457e0908390a3600080546001600160a01b0319169055565b600061148861147a610a68565b611482611a90565b906127ee565b905090565b6114956115ff565b6001600160a01b0316336001600160a01b031614806114be57506001546001600160a01b031633145b6114fa576040805162461bcd60e51b815260206004820152600860248201526710b6b0b730b3b2b960c11b604482015290519081900360640190fd5b600180546001600160a01b0319166001600160a01b0392909216919091179055565b607081565b6001600160a01b03811660009081526009602052604081206001810154600a54825461155d9291610be69164e8d4a5100091610be09190612370565b9392505050565b61156c6115ff565b6001600160a01b0316336001600160a01b0316148061159557506001546001600160a01b031633145b6115d1576040805162461bcd60e51b815260206004820152600860248201526710b6b0b730b3b2b960c11b604482015290519081900360640190fd5b6115d9612848565b6110b66128d1565b6010546001600160a01b031681565b60155460ff1681565b60065481565b6000546001600160a01b031690565b6005546001600160a01b031681565b60075481565b60008061162e611dbb565b9050600081156117bc576003546040805163d06ca61f60e01b8152600481018581526024820192835260198054604484018190526001600160a01b039095169463d06ca61f9488949293929091606490910190849080156116b857602002820191906000526020600020905b81546001600160a01b0316815260019091019060200180831161169a575b5050935050505060006040518083038186803b1580156116d757600080fd5b505afa92505050801561179757506040513d6000823e601f3d908101601f19168201604052602081101561170a57600080fd5b8101908080516040519392919084600160201b82111561172957600080fd5b90830190602082018581111561173e57600080fd5b82518660208202830111600160201b8211171561175a57600080fd5b82525081516020918201928201910280838360005b8381101561178757818101518382015260200161176f565b5050505090500160405250505060015b6117a0576117bc565b806001825103815181106117b057fe5b60200260200101519150505b6117e86103e8610be06007546117e26103e8610be0602d8861237090919063ffffffff16565b90612370565b9250505090565b6060601a8054806020026020016040519081016040528092919081815260200182805480156109bd576020028201919060005260206000209081546001600160a01b0316815260019091019060200180831161099f575050505050905090565b6118576127ea565b6001600160a01b03166118686115ff565b6001600160a01b0316146118b1576040805162461bcd60e51b81526020600482018190526024820152600080516020613cbe833981519152604482015290519081900360640190fd5b600580546001600160a01b0319166001600160a01b0392909216919091179055565b6004546001600160a01b0316331461191f576040805162461bcd60e51b815260206004820152600a6024820152696e6f74207661756c742160b01b604482015290519081900360640190fd5b326000908152600960205260409020811561195357805461194090836127ee565b8155600b5461194f90836127ee565b600b555b61197c6040518060400160405280600781526020016630b6b7bab73a1d60c91b81525083612949565b61139f6040518060400160405280601081526020016f3a37ba30b62b30bab63a29b430b9329d60811b815250600b54612949565b6119b86115ff565b6001600160a01b0316336001600160a01b031614806119e157506001546001600160a01b031633145b611a1d576040805162461bcd60e51b815260206004820152600860248201526710b6b0b730b3b2b960c11b604482015290519081900360640190fd5b6032811115611a5c576040805162461bcd60e51b815260206004808301919091526024820152630216361760e41b604482015290519081900360640190fd5b600655565b6001546001600160a01b031681565b6018818154811061101157fe5b6103e881565b6019818154811061101157fe5b600e54604080516370a0823160e01b815230600482015290516000926001600160a01b0316916370a08231916024808301926020929190829003018186803b158015611adb57600080fd5b505afa158015611aef573d6000803e3d6000fd5b505050506040513d6020811015611b0557600080fd5b5051905090565b600b5481565b6002546001600160a01b03163314611b5f576040805162461bcd60e51b815260206004820152600b60248201526a085cdd1c985d1959da5cdd60aa1b604482015290519081900360640190fd5b600280546001600160a01b0319166001600160a01b0392909216919091179055565b611b89611273565b15611bce576040805162461bcd60e51b815260206004820152601060248201526f14185d5cd8589b194e881c185d5cd95960821b604482015290519081900360640190fd5b600e54604080516370a0823160e01b815230600482015290516000926001600160a01b0316916370a08231916024808301926020929190829003018186803b158015611c1957600080fd5b505afa158015611c2d573d6000803e3d6000fd5b505050506040513d6020811015611c4357600080fd5b505190508015610a655760135460145460408051631c57762b60e31b8152600481019290925260248201849052516001600160a01b039092169163e2bbb1589160448082019260009290919082900301818387803b158015611ca457600080fd5b505af1158015611cb8573d6000803e3d6000fd5b5050505050565b60085481565b611ccd6115ff565b6001600160a01b0316336001600160a01b03161480611cf657506001546001600160a01b031633145b6110b8576040805162461bcd60e51b815260206004820152600860248201526710b6b0b730b3b2b960c11b604482015290519081900360640190fd5b611d3a6127ea565b6001600160a01b0316611d4b6115ff565b6001600160a01b031614611d94576040805162461bcd60e51b81526020600482018190526024820152600080516020613cbe833981519152604482015290519081900360640190fd5b600380546001600160a01b0319166001600160a01b0392909216919091179055565b603281565b60178054604080516020601f60026000196101006001881615020190951694909404938401819004810282018101909252828152600093606093611e7e93830182828015611e4a5780601f10611e1f57610100808354040283529160200191611e4a565b820191906000526020600020905b815481529060010190602001808311611e2d57829003601f168201915b5050505050604051806040016040528060118152602001702875696e743235362c616464726573732960781b8152506129f7565b60135460145460408051602481019290925230604480840191909152815180840390910181526064909201908190528351939450606093611f42936001600160a01b031692918691819060208401908083835b60208310611ef05780518252601f199092019160209182019101611ed1565b51815160209384036101000a600019018019909216911617905260405191909301819003902091850180516001600160e01b03199093166001600160e01b039093169290921790915250612ab2915050565b9050808060200190516020811015611f5957600080fd5b50519250505090565b60165481565b600d546001600160a01b031681565b611f7f6127ea565b6001600160a01b0316611f906115ff565b6001600160a01b031614611fd9576040805162461bcd60e51b81526020600482018190526024820152600080516020613cbe833981519152604482015290519081900360640190fd5b6001600160a01b03811661201e5760405162461bcd60e51b8152600401808060200182810382526026815260200180613c2c6026913960400191505060405180910390fd5b600080546040516001600160a01b03808516939216917f8be0079c531659141344cd1fd0a4f28419497f9722a3daafe3b4186f6b6457e091a3600080546001600160a01b0319166001600160a01b0392909216919091179055565b6004546001600160a01b031633146120c1576040805162461bcd60e51b8152602060048201526006602482015265085d985d5b1d60d21b604482015290519081900360640190fd5b60135460145460408051632989754760e11b81526004810192909252516001600160a01b0390921691635312ea8e9160248082019260009290919082900301818387803b15801561211157600080fd5b505af1158015612125573d6000803e3d6000fd5b5050600e54604080516370a0823160e01b81523060048201529051600094506001600160a01b0390921692506370a08231916024808301926020929190829003018186803b15801561217657600080fd5b505afa15801561218a573d6000803e3d6000fd5b505050506040513d60208110156121a057600080fd5b5051600e54600480546040805163a9059cbb60e01b81526001600160a01b039283169381019390935260248301859052519394509091169163a9059cbb916044808201926020929091908290030181600087803b15801561220057600080fd5b505af1158015612214573d6000803e3d6000fd5b505050506040513d6020811015610ffe57600080fd5b6004546001600160a01b031681565b601b818154811061101157fe5b8015806122cc575060408051636eb1769f60e11b81523060048201526001600160a01b03848116602483015291519185169163dd62ed3e91604480820192602092909190829003018186803b15801561229e57600080fd5b505afa1580156122b2573d6000803e3d6000fd5b505050506040513d60208110156122c857600080fd5b5051155b6123075760405162461bcd60e51b8152600401808060200182810382526036815260200180613d2c6036913960400191505060405180910390fd5b604080516001600160a01b038416602482015260448082018490528251808303909101815260649091019091526020810180516001600160e01b031663095ea7b360e01b179052610ffe908490612ad7565b60606123688484600085612b88565b949350505050565b60008261237f575060006123cc565b8282028284828161238c57fe5b04146123c95760405162461bcd60e51b8152600401808060200182810382526021815260200180613c9d6021913960400191505060405180910390fd5b90505b92915050565b6000808211612428576040805162461bcd60e51b815260206004820152601a60248201527f536166654d6174683a206469766973696f6e206279207a65726f000000000000604482015290519081900360640190fd5b81838161243157fe5b049392505050565b600082821115612490576040805162461bcd60e51b815260206004820152601e60248201527f536166654d6174683a207375627472616374696f6e206f766572666c6f770000604482015290519081900360640190fd5b50900390565b604080516001600160a01b038416602482015260448082018490528251808303909101815260649091019091526020810180516001600160e01b031663a9059cbb60e01b179052610ffe908490612ad7565b6124f0611273565b612538576040805162461bcd60e51b815260206004820152601460248201527314185d5cd8589b194e881b9bdd081c185d5cd95960621b604482015290519081900360640190fd5b6000805460ff60a01b191690557f5db9ee0a495bf2e6ff9c91a7834c1ba4fdd244a5e8aa4e537bd38aeae4b073aa61256e6127ea565b604080516001600160a01b039092168252519081900360200190a1565b601354600e546125aa916001600160a01b039182169116600019612246565b600354600d546125c9916001600160a01b039182169116600019612246565b600354600f546125e7916001600160a01b0391821691166000612246565b600354600f54612606916001600160a01b039182169116600019612246565b600354601054612624916001600160a01b0391821691166000612246565b600354601054612643916001600160a01b039182169116600019612246565b600354600c546110b6916001600160a01b039182169116600019612246565b61266a611273565b156126af576040805162461bcd60e51b815260206004820152601060248201526f14185d5cd8589b194e881c185d5cd95960821b604482015290519081900360640190fd5b60135460145460408051631c57762b60e31b8152600481019290925260006024830181905290516001600160a01b039093169263e2bbb15892604480820193929182900301818387803b15801561270557600080fd5b505af1158015612719573d6000803e3d6000fd5b5050600d54604080516370a0823160e01b81523060048201529051600094506001600160a01b0390921692506370a08231916024808301926020929190829003018186803b15801561276a57600080fd5b505afa15801561277e573d6000803e3d6000fd5b505050506040513d602081101561279457600080fd5b505190508015611000576127a782612ce4565b6127af61345e565b6127b7611b81565b4260165560405133907f577a37fdb49a88d66684922c6f913df5239b4f214b2b97c53ef8e3bbb2034cb590600090a25050565b3390565b6000828201838110156123c9576040805162461bcd60e51b815260206004820152601b60248201527f536166654d6174683a206164646974696f6e206f766572666c6f770000000000604482015290519081900360640190fd5b612850611273565b15612895576040805162461bcd60e51b815260206004820152601060248201526f14185d5cd8589b194e881c185d5cd95960821b604482015290519081900360640190fd5b6000805460ff60a01b1916600160a01b1790557f62e78cea01bee320cd4e420270b5ea74000d11b0c9f74754ebdbfc544b05a25861256e6127ea565b601354600e546128ef916001600160a01b0391821691166000612246565b600354600d5461290d916001600160a01b0391821691166000612246565b600354600f5461292b916001600160a01b0391821691166000612246565b6003546010546110b6916001600160a01b0391821691166000612246565b61100082826040516024018080602001838152602001828103825284818151815260200191508051906020019080838360005b8381101561299457818101518382015260200161297c565b50505050905090810190601f1680156129c15780820380516001836020036101000a031916815260200191505b5060408051601f198184030181529190526020810180516001600160e01b03166309710a9d60e41b17905293506139ca92505050565b606082826040516020018083805190602001908083835b60208310612a2d5780518252601f199092019160209182019101612a0e565b51815160209384036101000a600019018019909216911617905285519190930192850191508083835b60208310612a755780518252601f199092019160209182019101612a56565b6001836020036101000a03801982511681845116808217855250505050505090500192505050604051602081830303815290604052905092915050565b60606123c98383604051806060016040528060258152602001613c78602591396139eb565b6060612b2c826040518060400160405280602081526020017f5361666545524332303a206c6f772d6c6576656c2063616c6c206661696c6564815250856001600160a01b03166123599092919063ffffffff16565b805190915015610ffe57808060200190516020811015612b4b57600080fd5b5051610ffe5760405162461bcd60e51b815260040180806020018281038252602a815260200180613d02602a913960400191505060405180910390fd5b606082471015612bc95760405162461bcd60e51b8152600401808060200182810382526026815260200180613c526026913960400191505060405180910390fd5b612bd285613aee565b612c23576040805162461bcd60e51b815260206004820152601d60248201527f416464726573733a2063616c6c20746f206e6f6e2d636f6e7472616374000000604482015290519081900360640190fd5b60006060866001600160a01b031685876040518082805190602001908083835b60208310612c625780518252601f199092019160209182019101612c43565b6001836020036101000a03801982511681845116808217855250505050505090500191505060006040518083038185875af1925050503d8060008114612cc4576040519150601f19603f3d011682016040523d82523d6000602084013e612cc9565b606091505b5091509150612cd9828286613af4565b979650505050505050565b600d54604080516370a0823160e01b81523060048201529051600092612d73926103e892610be092602d926001600160a01b03909116916370a0823191602480820192602092909190829003018186803b158015612d4157600080fd5b505afa158015612d55573d6000803e3d6000fd5b505050506040513d6020811015612d6b57600080fd5b505190612370565b9050600360009054906101000a90046001600160a01b03166001600160a01b03166338ed1739826000601930426040518663ffffffff1660e01b81526004018086815260200185815260200180602001846001600160a01b031681526020018381526020018281038252858181548152602001915080548015612e1f57602002820191906000526020600020905b81546001600160a01b03168152600190910190602001808311612e01575b50509650505050505050600060405180830381600087803b158015612e4357600080fd5b505af1158015612e57573d6000803e3d6000fd5b505050506040513d6000823e601f3d908101601f191682016040526020811015612e8057600080fd5b8101908080516040519392919084600160201b821115612e9f57600080fd5b908301906020820185811115612eb457600080fd5b82518660208202830111600160201b82111715612ed057600080fd5b82525081516020918201928201910280838360005b83811015612efd578181015183820152602001612ee5565b50505050919091016040818152600c546370a0823160e01b83523060048401529051600097506001600160a01b0390911695506370a08231945060248083019450602093509091829003018186803b158015612f5857600080fd5b505afa158015612f6c573d6000803e3d6000fd5b505050506040513d6020811015612f8257600080fd5b5051600754909150600090612fa0906103e890610be0908590612370565b9050612fd46040518060400160405280601081526020016f31b0b636102332b29030b6b7bab73a1d60811b81525082612949565b6001600160a01b03841615612fff57600c54612ffa906001600160a01b03168583612496565b613016565b600c54613016906001600160a01b03163283612496565b600061303e6103e8610be061303760706008546127ee90919063ffffffff16565b8690612370565b604080518082018252600f81526e3730ba34bb32903130b630b731b29d60891b602080830191909152600c5483516370a0823160e01b815230600482015293519495506130e79492936001600160a01b03909116926370a0823192602480840193919291829003018186803b1580156130b657600080fd5b505afa1580156130ca573d6000803e3d6000fd5b505050506040513d60208110156130e057600080fd5b5051612949565b6131156040518060400160405280600c81526020016b18dc9d119959505b5bdd5b9d60a21b81525082612949565b601254604080516370a0823160e01b815230600482015290516000926001600160a01b0316916370a08231916024808301926020929190829003018186803b15801561316057600080fd5b505afa158015613174573d6000803e3d6000fd5b505050506040513d602081101561318a57600080fd5b50516003546040516338ed173960e01b8152600481018581526000602483018190523060648401819052426084850181905260a0604486019081526018805460a488018190529899506001600160a01b03909716976338ed1739978b979596909590929160c4909101908690801561322b57602002820191906000526020600020905b81546001600160a01b0316815260019091019060200180831161320d575b50509650505050505050600060405180830381600087803b15801561324f57600080fd5b505af1158015613263573d6000803e3d6000fd5b505050506040513d6000823e601f3d908101601f19168201604052602081101561328c57600080fd5b8101908080516040519392919084600160201b8211156132ab57600080fd5b9083019060208201858111156132c057600080fd5b82518660208202830111600160201b821117156132dc57600080fd5b82525081516020918201928201910280838360005b838110156133095781810151838201526020016132f1565b505050509190910160408181526012546370a0823160e01b83523060048401529051600097506001600160a01b0390911695506370a08231945060248083019450602093509091829003018186803b15801561336457600080fd5b505afa158015613378573d6000803e3d6000fd5b505050506040513d602081101561338e57600080fd5b50519050600061339e8284612439565b90506133cf6040518060400160405280600d81526020016c31b93a2130b63132b337b9329d60991b81525084612949565b6133fd6040518060400160405280600c81526020016b31b93a2130b630b33a32b91d60a11b81525083612949565b600b546134209061341790610be08464e8d4a51000612370565b600a54906127ee565b600a81905560408051808201909152600f81526e30b1b1a1a92a2832b939b430b9329d60891b602082015261345491612949565b5050505050505050565b600d54604080516370a0823160e01b815230600482015290516000926134e5926002926001600160a01b03909216916370a0823191602480820192602092909190829003018186803b1580156134b357600080fd5b505afa1580156134c7573d6000803e3d6000fd5b505050506040513d60208110156134dd57600080fd5b5051906123d2565b600d54600f549192506001600160a01b03918216911614613687576003546040516338ed173960e01b8152600481018381526000602483018190523060648401819052426084850181905260a060448601908152601a805460a488018190526001600160a01b03909816976338ed1739978a97929594939160c4909101908690801561359a57602002820191906000526020600020905b81546001600160a01b0316815260019091019060200180831161357c575b50509650505050505050600060405180830381600087803b1580156135be57600080fd5b505af11580156135d2573d6000803e3d6000fd5b505050506040513d6000823e601f3d908101601f1916820160405260208110156135fb57600080fd5b8101908080516040519392919084600160201b82111561361a57600080fd5b90830190602082018581111561362f57600080fd5b82518660208202830111600160201b8211171561364b57600080fd5b82525081516020918201928201910280838360005b83811015613678578181015183820152602001613660565b50505050905001604052505050505b600d546010546001600160a01b03908116911614613826576003546040516338ed173960e01b8152600481018381526000602483018190523060648401819052426084850181905260a060448601908152601b805460a488018190526001600160a01b03909816976338ed1739978a97929594939160c4909101908690801561373957602002820191906000526020600020905b81546001600160a01b0316815260019091019060200180831161371b575b50509650505050505050600060405180830381600087803b15801561375d57600080fd5b505af1158015613771573d6000803e3d6000fd5b505050506040513d6000823e601f3d908101601f19168201604052602081101561379a57600080fd5b8101908080516040519392919084600160201b8211156137b957600080fd5b9083019060208201858111156137ce57600080fd5b82518660208202830111600160201b821117156137ea57600080fd5b82525081516020918201928201910280838360005b838110156138175781810151838201526020016137ff565b50505050905001604052505050505b600f54604080516370a0823160e01b815230600482015290516000926001600160a01b0316916370a08231916024808301926020929190829003018186803b15801561387157600080fd5b505afa158015613885573d6000803e3d6000fd5b505050506040513d602081101561389b57600080fd5b5051601054604080516370a0823160e01b815230600482015290519293506000926001600160a01b03909216916370a0823191602480820192602092909190829003018186803b1580156138ee57600080fd5b505afa158015613902573d6000803e3d6000fd5b505050506040513d602081101561391857600080fd5b5051600354600f546010546040805162e8e33760e81b81526001600160a01b0393841660048201529183166024830152604482018790526064820185905260016084830181905260a48301523060c48301524260e48301525193945091169163e8e3370091610104808201926060929091908290030181600087803b1580156139a057600080fd5b505af11580156139b4573d6000803e3d6000fd5b505050506040513d6060811015611cb857600080fd5b80516a636f6e736f6c652e6c6f67602083016000808483855afa5050505050565b60606139f684613aee565b613a315760405162461bcd60e51b8152600401808060200182810382526024815260200180613cde6024913960400191505060405180910390fd5b60006060856001600160a01b0316856040518082805190602001908083835b60208310613a6f5780518252601f199092019160209182019101613a50565b6001836020036101000a038019825116818451168082178552505050505050905001915050600060405180830381855afa9150503d8060008114613acf576040519150601f19603f3d011682016040523d82523d6000602084013e613ad4565b606091505b5091509150613ae4828286613af4565b9695505050505050565b3b151590565b60608315613b0357508161155d565b825115613b135782518084602001fd5b8160405162461bcd60e51b81526004018080602001828103825283818151815260200191508051906020019080838360005b83811015613b5d578181015183820152602001613b45565b50505050905090810190601f168015613b8a5780820380516001836020036101000a031916815260200191505b509250505060405180910390fd5b828054600181600116156101000203166002900490600052602060002090601f016020900481019282601f10613bd95782800160ff19823516178555613c06565b82800160010185558215613c06579182015b82811115613c06578235825591602001919060010190613beb565b50613c12929150613c16565b5090565b5b80821115613c125760008155600101613c1756fe4f776e61626c653a206e6577206f776e657220697320746865207a65726f2061646472657373416464726573733a20696e73756666696369656e742062616c616e636520666f722063616c6c416464726573733a206c6f772d6c6576656c207374617469632063616c6c206661696c6564536166654d6174683a206d756c7469706c69636174696f6e206f766572666c6f774f776e61626c653a2063616c6c6572206973206e6f7420746865206f776e6572416464726573733a207374617469632063616c6c20746f206e6f6e2d636f6e74726163745361666545524332303a204552433230206f7065726174696f6e20646964206e6f7420737563636565645361666545524332303a20617070726f76652066726f6d206e6f6e2d7a65726f20746f206e6f6e2d7a65726f20616c6c6f77616e6365a26469706673582212202f6d680c38d2cd6cd478ca979dbf4d4a02c2e47ca1318fa875b0164b6da4484b64736f6c634300060c00336f7574707574546f4c7031526f7574655b6c6173745d20213d206c70546f6b656e31416464726573733a20696e73756666696369656e742062616c616e636520666f722063616c6c6f7574707574546f4c7030526f7574655b6c6173745d20213d206c70546f6b656e305361666545524332303a204552433230206f7065726174696f6e20646964206e6f7420737563636565645361666545524332303a20617070726f76652066726f6d206e6f6e2d7a65726f20746f206e6f6e2d7a65726f20616c6c6f77616e6365",
  "linkReferences": {},
  "deployedLinkReferences": {}
}