{
  "_format": "hh-sol-artifact-1",
  "contractName": "GasThrottler",
  "sourceName": "contracts/BIFI/utils/GasThrottler.sol",
  "abi": [
    {
      "inputs": [],
      "name": "gasprice",
      "outputs": [
        {
          "internalType": "address",
          "name": "",
          "type": "address"
        }
      ],
      "stateMutability": "view",
      "type": "function"
    },
    {
      "inputs": [],
      "name": "shouldGasThrottle",
      "outputs": [
        {
          "internalType": "bool",
          "name": "",
          "type": "bool"
        }
      ],
      "stateMutability": "view",
      "type": "function"
    }
  ],
  "bytecode": "0x608060405260008054600160ff1990911617610100600160a81b03191674a43509661141f254f54d9a326e8ec851a0b953070017905534801561004157600080fd5b5060c6806100506000396000f3fe6080604052348015600f57600080fd5b506004361060325760003560e01c80636ec232d31460375780639f8b5da1146059575b600080fd5b603d6073565b604080516001600160a01b039092168252519081900360200190f35b605f6087565b604080519115158252519081900360200190f35b60005461010090046001600160a01b031681565b60005460ff168156fea264697066735822122035d429fe4b7d932cb3bbea62f993f72a2fbf98bf905646f97eeea34c6f3ad7b164736f6c634300060c0033",
  "linkReferences": {},
  "deployedLinkReferences": {}
}