{
  "_format": "hh-sol-artifact-1",
  "contractName": "StrategyMiniChefLP",
  "sourceName": "contracts/BIFI/strategies/Common/StrategyMiniChefLP.sol",
  "abi": [
    {
      "inputs": [
        {
          "internalType": "address",
          "name": "_want",
          "type": "address"
        },
        {
          "internalType": "uint256",
          "name": "_poolId",
          "type": "uint256"
        },
        {
          "internalType": "address",
          "name": "_chef",
          "type": "address"
        },
        {
          "internalType": "address",
          "name": "_vault",
          "type": "address"
        },
        {
          "internalType": "address",
          "name": "_unirouter",
          "type": "address"
        },
        {
          "internalType": "address",
          "name": "_keeper",
          "type": "address"
        },
        {
          "internalType": "address",
          "name": "_strategist",
          "type": "address"
        },
        {
          "internalType": "address",
          "name": "_beefyFeeRecipient",
          "type": "address"
        },
        {
          "internalType": "address[]",
          "name": "_outputToNativeRoute",
          "type": "address[]"
        },
        {
          "internalType": "address[]",
          "name": "_rewardToOutputRoute",
          "type": "address[]"
        },
        {
          "internalType": "address[]",
          "name": "_outputToLp0Route",
          "type": "address[]"
        },
        {
          "internalType": "address[]",
          "name": "_outputToLp1Route",
          "type": "address[]"
        }
      ],
      "stateMutability": "nonpayable",
      "type": "constructor"
    },
    {
      "anonymous": false,
      "inputs": [
        {
          "indexed": true,
          "internalType": "address",
          "name": "previousOwner",
          "type": "address"
        },
        {
          "indexed": true,
          "internalType": "address",
          "name": "newOwner",
          "type": "address"
        }
      ],
      "name": "OwnershipTransferred",
      "type": "event"
    },
    {
      "anonymous": false,
      "inputs": [
        {
          "indexed": false,
          "internalType": "address",
          "name": "account",
          "type": "address"
        }
      ],
      "name": "Paused",
      "type": "event"
    },
    {
      "anonymous": false,
      "inputs": [
        {
          "indexed": true,
          "internalType": "address",
          "name": "harvester",
          "type": "address"
        }
      ],
      "name": "StratHarvest",
      "type": "event"
    },
    {
      "anonymous": false,
      "inputs": [
        {
          "indexed": false,
          "internalType": "address",
          "name": "account",
          "type": "address"
        }
      ],
      "name": "Unpaused",
      "type": "event"
    },
    {
      "inputs": [],
      "name": "MAX_CALL_FEE",
      "outputs": [
        {
          "internalType": "uint256",
          "name": "",
          "type": "uint256"
        }
      ],
      "stateMutability": "view",
      "type": "function"
    },
    {
      "inputs": [],
      "name": "MAX_FEE",
      "outputs": [
        {
          "internalType": "uint256",
          "name": "",
          "type": "uint256"
        }
      ],
      "stateMutability": "view",
      "type": "function"
    },
    {
      "inputs": [],
      "name": "STRATEGIST_FEE",
      "outputs": [
        {
          "internalType": "uint256",
          "name": "",
          "type": "uint256"
        }
      ],
      "stateMutability": "view",
      "type": "function"
    },
    {
      "inputs": [],
      "name": "WITHDRAWAL_FEE_CAP",
      "outputs": [
        {
          "internalType": "uint256",
          "name": "",
          "type": "uint256"
        }
      ],
      "stateMutability": "view",
      "type": "function"
    },
    {
      "inputs": [],
      "name": "WITHDRAWAL_MAX",
      "outputs": [
        {
          "internalType": "uint256",
          "name": "",
          "type": "uint256"
        }
      ],
      "stateMutability": "view",
      "type": "function"
    },
    {
      "inputs": [],
      "name": "balanceOf",
      "outputs": [
        {
          "internalType": "uint256",
          "name": "",
          "type": "uint256"
        }
      ],
      "stateMutability": "view",
      "type": "function"
    },
    {
      "inputs": [],
      "name": "balanceOfPool",
      "outputs": [
        {
          "internalType": "uint256",
          "name": "",
          "type": "uint256"
        }
      ],
      "stateMutability": "view",
      "type": "function"
    },
    {
      "inputs": [],
      "name": "balanceOfWant",
      "outputs": [
        {
          "internalType": "uint256",
          "name": "",
          "type": "uint256"
        }
      ],
      "stateMutability": "view",
      "type": "function"
    },
    {
      "inputs": [],
      "name": "beefyFee",
      "outputs": [
        {
          "internalType": "uint256",
          "name": "",
          "type": "uint256"
        }
      ],
      "stateMutability": "view",
      "type": "function"
    },
    {
      "inputs": [],
      "name": "beefyFeeRecipient",
      "outputs": [
        {
          "internalType": "address",
          "name": "",
          "type": "address"
        }
      ],
      "stateMutability": "view",
      "type": "function"
    },
    {
      "inputs": [],
      "name": "beforeDeposit",
      "outputs": [],
      "stateMutability": "nonpayable",
      "type": "function"
    },
    {
      "inputs": [],
      "name": "callFee",
      "outputs": [
        {
          "internalType": "uint256",
          "name": "",
          "type": "uint256"
        }
      ],
      "stateMutability": "view",
      "type": "function"
    },
    {
      "inputs": [],
      "name": "callReward",
      "outputs": [
        {
          "internalType": "uint256",
          "name": "",
          "type": "uint256"
        }
      ],
      "stateMutability": "view",
      "type": "function"
    },
    {
      "inputs": [],
      "name": "chef",
      "outputs": [
        {
          "internalType": "address",
          "name": "",
          "type": "address"
        }
      ],
      "stateMutability": "view",
      "type": "function"
    },
    {
      "inputs": [],
      "name": "deposit",
      "outputs": [],
      "stateMutability": "nonpayable",
      "type": "function"
    },
    {
      "inputs": [],
      "name": "harvest",
      "outputs": [],
      "stateMutability": "nonpayable",
      "type": "function"
    },
    {
      "inputs": [],
      "name": "harvestOnDeposit",
      "outputs": [
        {
          "internalType": "bool",
          "name": "",
          "type": "bool"
        }
      ],
      "stateMutability": "view",
      "type": "function"
    },
    {
      "inputs": [
        {
          "internalType": "address",
          "name": "callFeeRecipient",
          "type": "address"
        }
      ],
      "name": "harvestWithCallFeeRecipient",
      "outputs": [],
      "stateMutability": "nonpayable",
      "type": "function"
    },
    {
      "inputs": [],
      "name": "keeper",
      "outputs": [
        {
          "internalType": "address",
          "name": "",
          "type": "address"
        }
      ],
      "stateMutability": "view",
      "type": "function"
    },
    {
      "inputs": [],
      "name": "lastHarvest",
      "outputs": [
        {
          "internalType": "uint256",
          "name": "",
          "type": "uint256"
        }
      ],
      "stateMutability": "view",
      "type": "function"
    },
    {
      "inputs": [],
      "name": "lpToken0",
      "outputs": [
        {
          "internalType": "address",
          "name": "",
          "type": "address"
        }
      ],
      "stateMutability": "view",
      "type": "function"
    },
    {
      "inputs": [],
      "name": "lpToken1",
      "outputs": [
        {
          "internalType": "address",
          "name": "",
          "type": "address"
        }
      ],
      "stateMutability": "view",
      "type": "function"
    },
    {
      "inputs": [],
      "name": "managerHarvest",
      "outputs": [],
      "stateMutability": "nonpayable",
      "type": "function"
    },
    {
      "inputs": [],
      "name": "native",
      "outputs": [
        {
          "internalType": "address",
          "name": "",
          "type": "address"
        }
      ],
      "stateMutability": "view",
      "type": "function"
    },
    {
      "inputs": [],
      "name": "output",
      "outputs": [
        {
          "internalType": "address",
          "name": "",
          "type": "address"
        }
      ],
      "stateMutability": "view",
      "type": "function"
    },
    {
      "inputs": [
        {
          "internalType": "uint256",
          "name": "",
          "type": "uint256"
        }
      ],
      "name": "outputToLp0Route",
      "outputs": [
        {
          "internalType": "address",
          "name": "",
          "type": "address"
        }
      ],
      "stateMutability": "view",
      "type": "function"
    },
    {
      "inputs": [
        {
          "internalType": "uint256",
          "name": "",
          "type": "uint256"
        }
      ],
      "name": "outputToLp1Route",
      "outputs": [
        {
          "internalType": "address",
          "name": "",
          "type": "address"
        }
      ],
      "stateMutability": "view",
      "type": "function"
    },
    {
      "inputs": [
        {
          "internalType": "uint256",
          "name": "",
          "type": "uint256"
        }
      ],
      "name": "outputToNativeRoute",
      "outputs": [
        {
          "internalType": "address",
          "name": "",
          "type": "address"
        }
      ],
      "stateMutability": "view",
      "type": "function"
    },
    {
      "inputs": [],
      "name": "owner",
      "outputs": [
        {
          "internalType": "address",
          "name": "",
          "type": "address"
        }
      ],
      "stateMutability": "view",
      "type": "function"
    },
    {
      "inputs": [],
      "name": "panic",
      "outputs": [],
      "stateMutability": "nonpayable",
      "type": "function"
    },
    {
      "inputs": [],
      "name": "pause",
      "outputs": [],
      "stateMutability": "nonpayable",
      "type": "function"
    },
    {
      "inputs": [],
      "name": "paused",
      "outputs": [
        {
          "internalType": "bool",
          "name": "",
          "type": "bool"
        }
      ],
      "stateMutability": "view",
      "type": "function"
    },
    {
      "inputs": [],
      "name": "pendingRewardsFunctionName",
      "outputs": [
        {
          "internalType": "string",
          "name": "",
          "type": "string"
        }
      ],
      "stateMutability": "view",
      "type": "function"
    },
    {
      "inputs": [],
      "name": "poolId",
      "outputs": [
        {
          "internalType": "uint256",
          "name": "",
          "type": "uint256"
        }
      ],
      "stateMutability": "view",
      "type": "function"
    },
    {
      "inputs": [],
      "name": "renounceOwnership",
      "outputs": [],
      "stateMutability": "nonpayable",
      "type": "function"
    },
    {
      "inputs": [],
      "name": "retireStrat",
      "outputs": [],
      "stateMutability": "nonpayable",
      "type": "function"
    },
    {
      "inputs": [],
      "name": "reward",
      "outputs": [
        {
          "internalType": "address",
          "name": "",
          "type": "address"
        }
      ],
      "stateMutability": "view",
      "type": "function"
    },
    {
      "inputs": [
        {
          "internalType": "uint256",
          "name": "",
          "type": "uint256"
        }
      ],
      "name": "rewardToOutputRoute",
      "outputs": [
        {
          "internalType": "address",
          "name": "",
          "type": "address"
        }
      ],
      "stateMutability": "view",
      "type": "function"
    },
    {
      "inputs": [],
      "name": "rewardsAvailable",
      "outputs": [
        {
          "internalType": "uint256",
          "name": "",
          "type": "uint256"
        }
      ],
      "stateMutability": "view",
      "type": "function"
    },
    {
      "inputs": [
        {
          "internalType": "address",
          "name": "_beefyFeeRecipient",
          "type": "address"
        }
      ],
      "name": "setBeefyFeeRecipient",
      "outputs": [],
      "stateMutability": "nonpayable",
      "type": "function"
    },
    {
      "inputs": [
        {
          "internalType": "uint256",
          "name": "_fee",
          "type": "uint256"
        }
      ],
      "name": "setCallFee",
      "outputs": [],
      "stateMutability": "nonpayable",
      "type": "function"
    },
    {
      "inputs": [
        {
          "internalType": "bool",
          "name": "_harvestOnDeposit",
          "type": "bool"
        }
      ],
      "name": "setHarvestOnDeposit",
      "outputs": [],
      "stateMutability": "nonpayable",
      "type": "function"
    },
    {
      "inputs": [
        {
          "internalType": "address",
          "name": "_keeper",
          "type": "address"
        }
      ],
      "name": "setKeeper",
      "outputs": [],
      "stateMutability": "nonpayable",
      "type": "function"
    },
    {
      "inputs": [
        {
          "internalType": "string",
          "name": "_pendingRewardsFunctionName",
          "type": "string"
        }
      ],
      "name": "setPendingRewardsFunctionName",
      "outputs": [],
      "stateMutability": "nonpayable",
      "type": "function"
    },
    {
      "inputs": [
        {
          "internalType": "address",
          "name": "_strategist",
          "type": "address"
        }
      ],
      "name": "setStrategist",
      "outputs": [],
      "stateMutability": "nonpayable",
      "type": "function"
    },
    {
      "inputs": [
        {
          "internalType": "address",
          "name": "_unirouter",
          "type": "address"
        }
      ],
      "name": "setUnirouter",
      "outputs": [],
      "stateMutability": "nonpayable",
      "type": "function"
    },
    {
      "inputs": [
        {
          "internalType": "address",
          "name": "_vault",
          "type": "address"
        }
      ],
      "name": "setVault",
      "outputs": [],
      "stateMutability": "nonpayable",
      "type": "function"
    },
    {
      "inputs": [
        {
          "internalType": "uint256",
          "name": "_fee",
          "type": "uint256"
        }
      ],
      "name": "setWithdrawalFee",
      "outputs": [],
      "stateMutability": "nonpayable",
      "type": "function"
    },
    {
      "inputs": [],
      "name": "strategist",
      "outputs": [
        {
          "internalType": "address",
          "name": "",
          "type": "address"
        }
      ],
      "stateMutability": "view",
      "type": "function"
    },
    {
      "inputs": [
        {
          "internalType": "address",
          "name": "newOwner",
          "type": "address"
        }
      ],
      "name": "transferOwnership",
      "outputs": [],
      "stateMutability": "nonpayable",
      "type": "function"
    },
    {
      "inputs": [],
      "name": "unirouter",
      "outputs": [
        {
          "internalType": "address",
          "name": "",
          "type": "address"
        }
      ],
      "stateMutability": "view",
      "type": "function"
    },
    {
      "inputs": [],
      "name": "unpause",
      "outputs": [],
      "stateMutability": "nonpayable",
      "type": "function"
    },
    {
      "inputs": [],
      "name": "vault",
      "outputs": [
        {
          "internalType": "address",
          "name": "",
          "type": "address"
        }
      ],
      "stateMutability": "view",
      "type": "function"
    },
    {
      "inputs": [],
      "name": "want",
      "outputs": [
        {
          "internalType": "address",
          "name": "",
          "type": "address"
        }
      ],
      "stateMutability": "view",
      "type": "function"
    },
    {
      "inputs": [
        {
          "internalType": "uint256",
          "name": "_amount",
          "type": "uint256"
        }
      ],
      "name": "withdraw",
      "outputs": [],
      "stateMutability": "nonpayable",
      "type": "function"
    },
    {
      "inputs": [],
      "name": "withdrawalFee",
      "outputs": [
        {
          "internalType": "uint256",
          "name": "",
          "type": "uint256"
        }
      ],
      "stateMutability": "view",
      "type": "function"
    }
  ],
  "bytecode": "0x6080604052600a600655606f6007556103096008553480156200002157600080fd5b50604051620046153803806200461583398181016040526101808110156200004857600080fd5b815160208301516040808501516060860151608087015160a088015160c089015160e08a01516101008b0180519751999b989a96999598949793969295919491939282019284640100000000821115620000a157600080fd5b908301906020820185811115620000b757600080fd5b8251866020820283011164010000000082111715620000d557600080fd5b82525081516020918201928201910280838360005b8381101562000104578181015183820152602001620000ea565b50505050905001604052602001805160405193929190846401000000008211156200012e57600080fd5b9083019060208201858111156200014457600080fd5b82518660208202830111640100000000821117156200016257600080fd5b82525081516020918201928201910280838360005b838110156200019157818101518382015260200162000177565b5050505090500160405260200180516040519392919084640100000000821115620001bb57600080fd5b908301906020820185811115620001d157600080fd5b8251866020820283011164010000000082111715620001ef57600080fd5b82525081516020918201928201910280838360005b838110156200021e57818101518382015260200162000204565b50505050905001604052602001805160405193929190846401000000008211156200024857600080fd5b9083019060208201858111156200025e57600080fd5b82518660208202830111640100000000821117156200027c57600080fd5b82525081516020918201928201910280838360005b83811015620002ab57818101518382015260200162000291565b505050509050016040525050508686898b886000620002cf6200080b60201b60201c565b600080546001600160a01b0319166001600160a01b0383169081178255604051929350917f8be0079c531659141344cd1fd0a4f28419497f9722a3daafe3b4186f6b6457e0908290a35060008060146101000a81548160ff02191690831515021790555084600160006101000a8154816001600160a01b0302191690836001600160a01b0316021790555083600260006101000a8154816001600160a01b0302191690836001600160a01b0316021790555082600360006101000a8154816001600160a01b0302191690836001600160a01b0316021790555081600460006101000a8154816001600160a01b0302191690836001600160a01b0316021790555080600560006101000a8154816001600160a01b0302191690836001600160a01b0316021790555050505050508b600c60006101000a8154816001600160a01b0302191690836001600160a01b031602179055508a60108190555089600f60006101000a8154816001600160a01b0302191690836001600160a01b031602179055506002845110156200046057600080fd5b836000815181106200046e57fe5b6020026020010151600a60006101000a8154816001600160a01b0302191690836001600160a01b0316021790555083600185510381518110620004ad57fe5b602090810291909101810151600980546001600160a01b0319166001600160a01b039092169190911790558451620004ec916014919087019062000d5d565b50600c60009054906101000a90046001600160a01b03166001600160a01b0316630dfe16816040518163ffffffff1660e01b815260040160206040518083038186803b1580156200053c57600080fd5b505afa15801562000551573d6000803e3d6000fd5b505050506040513d60208110156200056857600080fd5b5051600d80546001600160a01b0319166001600160a01b03928316179055600a54835191169083906000906200059a57fe5b60200260200101516001600160a01b031614620005b657600080fd5b600d5482516001600160a01b039091169083906000198101908110620005d857fe5b60200260200101516001600160a01b031614620005f457600080fd5b81516200060990601690602085019062000d5d565b50600c60009054906101000a90046001600160a01b03166001600160a01b031663d21220a76040518163ffffffff1660e01b815260040160206040518083038186803b1580156200065957600080fd5b505afa1580156200066e573d6000803e3d6000fd5b505050506040513d60208110156200068557600080fd5b5051600e80546001600160a01b0319166001600160a01b03928316179055600a5482519116908290600090620006b757fe5b60200260200101516001600160a01b031614620006d357600080fd5b600e5481516001600160a01b039091169082906000198101908110620006f557fe5b60200260200101516001600160a01b0316146200071157600080fd5b80516200072690601790602084019062000d5d565b50826000815181106200073557fe5b6020908102919091010151600b80546001600160a01b0319166001600160a01b03928316179055600a548451911690849060001981019081106200077557fe5b60200260200101516001600160a01b031614620007d9576040805162461bcd60e51b815260206004820152601e60248201527f5f726577617264546f4f7574707574526f75746520213d206f75747075740000604482015290519081900360640190fd5b8251620007ee90601590602086019062000d5d565b50620007f96200080f565b50505050505050505050505062000de8565b3390565b600f54600c546200083c916001600160a01b0391821691166000196200094a602090811b62001e6917901c565b600354600a5462000869916001600160a01b0391821691166000196200094a602090811b62001e6917901c565b600354600b5462000896916001600160a01b0391821691166000196200094a602090811b62001e6917901c565b600354600d54620008c2916001600160a01b03918216911660006200094a602090811b62001e6917901c565b600354600d54620008ef916001600160a01b0391821691166000196200094a602090811b62001e6917901c565b600354600e546200091b916001600160a01b03918216911660006200094a602090811b62001e6917901c565b600354600e5462000948916001600160a01b0391821691166000196200094a602090811b62001e6917901c565b565b801580620009d4575060408051636eb1769f60e11b81523060048201526001600160a01b03848116602483015291519185169163dd62ed3e91604480820192602092909190829003018186803b158015620009a457600080fd5b505afa158015620009b9573d6000803e3d6000fd5b505050506040513d6020811015620009d057600080fd5b5051155b62000a115760405162461bcd60e51b8152600401808060200182810382526036815260200180620045df6036913960400191505060405180910390fd5b604080516001600160a01b038416602482015260448082018490528251808303909101815260649091019091526020810180516001600160e01b0390811663095ea7b360e01b1790915262000a6991859162000a6e16565b505050565b606062000aca826040518060400160405280602081526020017f5361666545524332303a206c6f772d6c6576656c2063616c6c206661696c6564815250856001600160a01b031662000b2a60201b62001f7c179092919060201c565b80519091501562000a695780806020019051602081101562000aeb57600080fd5b505162000a695760405162461bcd60e51b815260040180806020018281038252602a815260200180620045b5602a913960400191505060405180910390fd5b606062000b3b848460008562000b45565b90505b9392505050565b60608247101562000b885760405162461bcd60e51b81526004018080602001828103825260268152602001806200458f6026913960400191505060405180910390fd5b62000b938562000cad565b62000be5576040805162461bcd60e51b815260206004820152601d60248201527f416464726573733a2063616c6c20746f206e6f6e2d636f6e7472616374000000604482015290519081900360640190fd5b60006060866001600160a01b031685876040518082805190602001908083835b6020831062000c265780518252601f19909201916020918201910162000c05565b6001836020036101000a03801982511681845116808217855250505050505090500191505060006040518083038185875af1925050503d806000811462000c8a576040519150601f19603f3d011682016040523d82523d6000602084013e62000c8f565b606091505b50909250905062000ca282828662000cb3565b979650505050505050565b3b151590565b6060831562000cc457508162000b3e565b82511562000cd55782518084602001fd5b8160405162461bcd60e51b81526004018080602001828103825283818151815260200191508051906020019080838360005b8381101562000d2157818101518382015260200162000d07565b50505050905090810190601f16801562000d4f5780820380516001836020036101000a031916815260200191505b509250505060405180910390fd5b82805482825590600052602060002090810192821562000db5579160200282015b8281111562000db557825182546001600160a01b0319166001600160a01b0390911617825560209092019160019091019062000d7e565b5062000dc392915062000dc7565b5090565b5b8082111562000dc35780546001600160a01b031916815560010162000dc8565b6137978062000df86000396000f3fe608060405234801561001057600080fd5b50600436106103785760003560e01c80638456cb59116101d3578063c7b9d53011610104578063e7a7250a116100a2578063f2fde38b1161007c578063f2fde38b14610785578063fb617787146107ab578063fbfa77cf146107b3578063fd63a887146107bb57610378565b8063e7a7250a1461076d578063f1a392da14610775578063f20eaeb81461077d57610378565b8063d801d946116100de578063d801d9461461071a578063d92f3d7314610722578063dfbdc43714610748578063e3d980981461075057610378565b8063c7b9d530146106e4578063d0e30db01461070a578063d31025891461071257610378565b806397fd323d11610171578063aced16611161014b578063aced1661146106af578063bc063e1a146106b7578063be12a978146106bf578063c1a3d44c146106dc57610378565b806397fd323d14610664578063a68833e51461066c578063ac1e50251461069257610378565b80638bc7e8c4116101ad5780638bc7e8c4146106445780638da5cb5b1461064c5780638e1454591461065457806390321e1a1461065c57610378565b80638456cb591461062c578063877562b6146106345780638912cb8b1461063c57610378565b80633f4ba83a116102ad5780635ee167c01161024b578063715018a611610225578063715018a6146105ee578063722713f7146105f6578063748747e6146105fe5780637d38ca651461062457610378565b80635ee167c01461059a578063623d8bd2146105a25780636817031b146105c857610378565b806354518b1a1161028757806354518b1a14610500578063573fef0a1461050857806359e79138146105105780635c975abb1461057e57610378565b80633f4ba83a146104e85780634641257d146104f05780634700d305146104f857610378565b8063257ae0de1161031a5780632ad5a53f116102f45780632ad5a53f1461049e5780632e1a7d4d146104a657806336c6cf21146104c35780633e0dc34e146104e057610378565b8063257ae0de146103fc5780632646582614610404578063277e5cfd1461042157610378565b80631f1fcd51116103565780631f1fcd51146103dc5780631fc8bc5d146103e45780631fe4a686146103ec578063228cb733146103f457610378565b80630e8fbb5a1461037d578063115880861461039e57806311b0b42d146103b8575b600080fd5b61039c6004803603602081101561039357600080fd5b503515156107d8565b005b6103a6610879565b60408051918252519081900360200190f35b6103c0610900565b604080516001600160a01b039092168252519081900360200190f35b6103c061090f565b6103c061091e565b6103c061092d565b6103c061093c565b6103c061094b565b61039c6004803603602081101561041a57600080fd5b503561095a565b610429610a14565b6040805160208082528351818301528351919283929083019185019080838360005b8381101561046357818101518382015260200161044b565b50505050905090810190601f1680156104905780820380516001836020036101000a031916815260200191505b509250505060405180910390f35b6103a6610aa2565b61039c600480360360208110156104bc57600080fd5b5035610aa7565b6103c0600480360360208110156104d957600080fd5b5035610d27565b6103a6610d4e565b61039c610d54565b61039c610ddb565b61039c610de5565b6103a6610eca565b61039c610ed0565b61039c6004803603602081101561052657600080fd5b810190602081018135600160201b81111561054057600080fd5b82018360208201111561055257600080fd5b803590602001918460018302840111600160201b8311171561057357600080fd5b509092509050610f23565b610586610f9c565b604080519115158252519081900360200190f35b6103c0610fac565b61039c600480360360208110156105b857600080fd5b50356001600160a01b0316610fbb565b61039c600480360360208110156105de57600080fd5b50356001600160a01b0316610fc4565b61039c611048565b6103a66110f4565b61039c6004803603602081101561061457600080fd5b50356001600160a01b0316611114565b6103a66111a3565b61039c6111a8565b6103c0611225565b610586611234565b6103a661123d565b6103c0611243565b6103c0611252565b6103a6611261565b6103a6611267565b61039c6004803603602081101561068257600080fd5b50356001600160a01b0316611549565b61039c600480360360208110156106a857600080fd5b50356115cd565b6103c061167e565b6103a661168d565b6103c0600480360360208110156106d557600080fd5b5035611693565b6103a66116a0565b61039c600480360360208110156106fa57600080fd5b50356001600160a01b031661171c565b61039c61178b565b6103a66118cf565b61039c6118d5565b61039c6004803603602081101561073857600080fd5b50356001600160a01b0316611942565b6103a66119c6565b6103c06004803603602081101561076657600080fd5b50356119cb565b6103a66119d8565b6103a6611b7f565b6103c0611b85565b61039c6004803603602081101561079b57600080fd5b50356001600160a01b0316611b94565b61039c611c96565b6103c0611e4d565b6103c0600480360360208110156107d157600080fd5b5035611e5c565b6107e0611243565b6001600160a01b0316336001600160a01b0316148061080957506001546001600160a01b031633145b610845576040805162461bcd60e51b815260206004820152600860248201526710b6b0b730b3b2b960c11b604482015290519081900360640190fd5b6012805460ff1916821515179081905560ff161561086c5761086760006115cd565b610876565b610876600a6115cd565b50565b600f54601054604080516393f1a40b60e01b81526004810192909252306024830152805160009384936001600160a01b03909116926393f1a40b92604480840193829003018186803b1580156108ce57600080fd5b505afa1580156108e2573d6000803e3d6000fd5b505050506040513d60408110156108f857600080fd5b505191505090565b6009546001600160a01b031681565b600c546001600160a01b031681565b600f546001600160a01b031681565b6002546001600160a01b031681565b600b546001600160a01b031681565b6003546001600160a01b031681565b610962611243565b6001600160a01b0316336001600160a01b0316148061098b57506001546001600160a01b031633145b6109c7576040805162461bcd60e51b815260206004820152600860248201526710b6b0b730b3b2b960c11b604482015290519081900360640190fd5b606f811115610a06576040805162461bcd60e51b815260206004808301919091526024820152630216361760e41b604482015290519081900360640190fd5b600781905561037803600855565b6013805460408051602060026001851615610100026000190190941693909304601f81018490048402820184019092528181529291830182828015610a9a5780601f10610a6f57610100808354040283529160200191610a9a565b820191906000526020600020905b815481529060010190602001808311610a7d57829003601f168201915b505050505081565b606f81565b6004546001600160a01b03163314610aef576040805162461bcd60e51b8152602060048201526006602482015265085d985d5b1d60d21b604482015290519081900360640190fd5b600c54604080516370a0823160e01b815230600482015290516000926001600160a01b0316916370a08231916024808301926020929190829003018186803b158015610b3a57600080fd5b505afa158015610b4e573d6000803e3d6000fd5b505050506040513d6020811015610b6457600080fd5b5051905081811015610c7257600f546010546001600160a01b0390911690630ad58d2f90610b928585611f95565b306040518463ffffffff1660e01b815260040180848152602001838152602001826001600160a01b031681526020019350505050600060405180830381600087803b158015610be057600080fd5b505af1158015610bf4573d6000803e3d6000fd5b5050600c54604080516370a0823160e01b815230600482015290516001600160a01b0390921693506370a082319250602480820192602092909190829003018186803b158015610c4357600080fd5b505afa158015610c57573d6000803e3d6000fd5b505050506040513d6020811015610c6d57600080fd5b505190505b81811115610c7d5750805b610c85611243565b6001600160a01b0316326001600160a01b03161480610ca75750610ca7610f9c565b15610cce57600454600c54610cc9916001600160a01b03918216911683611ff7565b610d23565b6000610cf1612710610ceb6006548561204990919063ffffffff16565b906120a2565b600454909150610d21906001600160a01b0316610d0e8484611f95565b600c546001600160a01b03169190611ff7565b505b5050565b60168181548110610d3457fe5b6000918252602090912001546001600160a01b0316905081565b60105481565b610d5c611243565b6001600160a01b0316336001600160a01b03161480610d8557506001546001600160a01b031633145b610dc1576040805162461bcd60e51b815260206004820152600860248201526710b6b0b730b3b2b960c11b604482015290519081900360640190fd5b610dc9612109565b610dd16121ac565b610dd961178b565b565b610dd96000612283565b610ded611243565b6001600160a01b0316336001600160a01b03161480610e1657506001546001600160a01b031633145b610e52576040805162461bcd60e51b815260206004820152600860248201526710b6b0b730b3b2b960c11b604482015290519081900360640190fd5b610e5a6111a8565b600f54601054604080516302f940c760e41b81526004810192909252306024830152516001600160a01b0390921691632f940c709160448082019260009290919082900301818387803b158015610eb057600080fd5b505af1158015610ec4573d6000803e3d6000fd5b50505050565b61271081565b60125460ff1615610dd9576004546001600160a01b03163314610ddb576040805162461bcd60e51b8152602060048201526006602482015265085d985d5b1d60d21b604482015290519081900360640190fd5b610f2b611243565b6001600160a01b0316336001600160a01b03161480610f5457506001546001600160a01b031633145b610f90576040805162461bcd60e51b815260206004820152600860248201526710b6b0b730b3b2b960c11b604482015290519081900360640190fd5b610d2160138383613598565b600054600160a01b900460ff1690565b600d546001600160a01b031681565b61087681612283565b610fcc612496565b6001600160a01b0316610fdd611243565b6001600160a01b031614611026576040805162461bcd60e51b815260206004820181905260248201526000805160206136be833981519152604482015290519081900360640190fd5b600480546001600160a01b0319166001600160a01b0392909216919091179055565b611050612496565b6001600160a01b0316611061611243565b6001600160a01b0316146110aa576040805162461bcd60e51b815260206004820181905260248201526000805160206136be833981519152604482015290519081900360640190fd5b600080546040516001600160a01b03909116907f8be0079c531659141344cd1fd0a4f28419497f9722a3daafe3b4186f6b6457e0908390a3600080546001600160a01b0319169055565b600061110f611101610879565b6111096116a0565b9061249a565b905090565b61111c611243565b6001600160a01b0316336001600160a01b0316148061114557506001546001600160a01b031633145b611181576040805162461bcd60e51b815260206004820152600860248201526710b6b0b730b3b2b960c11b604482015290519081900360640190fd5b600180546001600160a01b0319166001600160a01b0392909216919091179055565b607081565b6111b0611243565b6001600160a01b0316336001600160a01b031614806111d957506001546001600160a01b031633145b611215576040805162461bcd60e51b815260206004820152600860248201526710b6b0b730b3b2b960c11b604482015290519081900360640190fd5b61121d6124f4565b610dd961257d565b600e546001600160a01b031681565b60125460ff1681565b60065481565b6000546001600160a01b031690565b6005546001600160a01b031681565b60075481565b6000806112726119d8565b905060008115611400576003546040805163d06ca61f60e01b8152600481018581526024820192835260148054604484018190526001600160a01b039095169463d06ca61f9488949293929091606490910190849080156112fc57602002820191906000526020600020905b81546001600160a01b031681526001909101906020018083116112de575b5050935050505060006040518083038186803b15801561131b57600080fd5b505afa9250505080156113db57506040513d6000823e601f3d908101601f19168201604052602081101561134e57600080fd5b8101908080516040519392919084600160201b82111561136d57600080fd5b90830190602082018581111561138257600080fd5b82518660208202830111600160201b8211171561139e57600080fd5b82525081516020918201928201910280838360005b838110156113cb5781810151838201526020016113b3565b5050505090500160405250505060015b6113e457611400565b806001825103815181106113f457fe5b60200260200101519150505b600f546010546040805163c346253d60e01b815260048101929092525160009283926001600160a01b039091169163c346253d91602480820192602092909190829003018186803b15801561145457600080fd5b505afa158015611468573d6000803e3d6000fd5b505050506040513d602081101561147e57600080fd5b505190506001600160a01b0381161561151057601054604080516312390ebd60e21b81526004810192909252306024830152516001600160a01b038316916348e43af4916044808301926020929190829003018186803b1580156114e157600080fd5b505afa1580156114f5573d6000803e3d6000fd5b505050506040513d602081101561150b57600080fd5b505191505b6115406103e8610ceb60075461153a6103e8610ceb602d61153a8b8b61249a90919063ffffffff16565b90612049565b94505050505090565b611551612496565b6001600160a01b0316611562611243565b6001600160a01b0316146115ab576040805162461bcd60e51b815260206004820181905260248201526000805160206136be833981519152604482015290519081900360640190fd5b600580546001600160a01b0319166001600160a01b0392909216919091179055565b6115d5611243565b6001600160a01b0316336001600160a01b031614806115fe57506001546001600160a01b031633145b61163a576040805162461bcd60e51b815260206004820152600860248201526710b6b0b730b3b2b960c11b604482015290519081900360640190fd5b6032811115611679576040805162461bcd60e51b815260206004808301919091526024820152630216361760e41b604482015290519081900360640190fd5b600655565b6001546001600160a01b031681565b6103e881565b60148181548110610d3457fe5b600c54604080516370a0823160e01b815230600482015290516000926001600160a01b0316916370a08231916024808301926020929190829003018186803b1580156116eb57600080fd5b505afa1580156116ff573d6000803e3d6000fd5b505050506040513d602081101561171557600080fd5b5051905090565b6002546001600160a01b03163314611769576040805162461bcd60e51b815260206004820152600b60248201526a085cdd1c985d1959da5cdd60aa1b604482015290519081900360640190fd5b600280546001600160a01b0319166001600160a01b0392909216919091179055565b611793610f9c565b156117d8576040805162461bcd60e51b815260206004820152601060248201526f14185d5cd8589b194e881c185d5cd95960821b604482015290519081900360640190fd5b600c54604080516370a0823160e01b815230600482015290516000926001600160a01b0316916370a08231916024808301926020929190829003018186803b15801561182357600080fd5b505afa158015611837573d6000803e3d6000fd5b505050506040513d602081101561184d57600080fd5b50519050801561087657600f5460105460408051638dbdbe6d60e01b8152600481019290925260248201849052306044830152516001600160a01b0390921691638dbdbe6d9160648082019260009290919082900301818387803b1580156118b457600080fd5b505af11580156118c8573d6000803e3d6000fd5b5050505050565b60085481565b6118dd611243565b6001600160a01b0316336001600160a01b0316148061190657506001546001600160a01b031633145b610ddb576040805162461bcd60e51b815260206004820152600860248201526710b6b0b730b3b2b960c11b604482015290519081900360640190fd5b61194a612496565b6001600160a01b031661195b611243565b6001600160a01b0316146119a4576040805162461bcd60e51b815260206004820181905260248201526000805160206136be833981519152604482015290519081900360640190fd5b600380546001600160a01b0319166001600160a01b0392909216919091179055565b603281565b60158181548110610d3457fe5b60138054604080516020601f60026000196101006001881615020190951694909404938401819004810282018101909252828152600093606093611a9b93830182828015611a675780601f10611a3c57610100808354040283529160200191611a67565b820191906000526020600020905b815481529060010190602001808311611a4a57829003601f168201915b5050505050604051806040016040528060118152602001702875696e743235362c616464726573732960781b815250612613565b600f5460105460408051602481019290925230604480840191909152815180840390910181526064909201908190528351939450606093611b5f936001600160a01b031692918691819060208401908083835b60208310611b0d5780518252601f199092019160209182019101611aee565b51815160209384036101000a600019018019909216911617905260405191909301819003902091850180516001600160e01b03199093166001600160e01b0390931692909217909152506126ce915050565b9050808060200190516020811015611b7657600080fd5b50519250505090565b60115481565b600a546001600160a01b031681565b611b9c612496565b6001600160a01b0316611bad611243565b6001600160a01b031614611bf6576040805162461bcd60e51b815260206004820181905260248201526000805160206136be833981519152604482015290519081900360640190fd5b6001600160a01b038116611c3b5760405162461bcd60e51b815260040180806020018281038252602681526020018061362c6026913960400191505060405180910390fd5b600080546040516001600160a01b03808516939216917f8be0079c531659141344cd1fd0a4f28419497f9722a3daafe3b4186f6b6457e091a3600080546001600160a01b0319166001600160a01b0392909216919091179055565b6004546001600160a01b03163314611cde576040805162461bcd60e51b8152602060048201526006602482015265085d985d5b1d60d21b604482015290519081900360640190fd5b600f54601054604080516302f940c760e41b81526004810192909252306024830152516001600160a01b0390921691632f940c709160448082019260009290919082900301818387803b158015611d3457600080fd5b505af1158015611d48573d6000803e3d6000fd5b5050600c54604080516370a0823160e01b81523060048201529051600094506001600160a01b0390921692506370a08231916024808301926020929190829003018186803b158015611d9957600080fd5b505afa158015611dad573d6000803e3d6000fd5b505050506040513d6020811015611dc357600080fd5b5051600c54600480546040805163a9059cbb60e01b81526001600160a01b039283169381019390935260248301859052519394509091169163a9059cbb916044808201926020929091908290030181600087803b158015611e2357600080fd5b505af1158015611e37573d6000803e3d6000fd5b505050506040513d6020811015610d2157600080fd5b6004546001600160a01b031681565b60178181548110610d3457fe5b801580611eef575060408051636eb1769f60e11b81523060048201526001600160a01b03848116602483015291519185169163dd62ed3e91604480820192602092909190829003018186803b158015611ec157600080fd5b505afa158015611ed5573d6000803e3d6000fd5b505050506040513d6020811015611eeb57600080fd5b5051155b611f2a5760405162461bcd60e51b815260040180806020018281038252603681526020018061372c6036913960400191505060405180910390fd5b604080516001600160a01b038416602482015260448082018490528251808303909101815260649091019091526020810180516001600160e01b031663095ea7b360e01b179052610d219084906126f3565b6060611f8b84846000856127a4565b90505b9392505050565b600082821115611fec576040805162461bcd60e51b815260206004820152601e60248201527f536166654d6174683a207375627472616374696f6e206f766572666c6f770000604482015290519081900360640190fd5b508082035b92915050565b604080516001600160a01b038416602482015260448082018490528251808303909101815260649091019091526020810180516001600160e01b031663a9059cbb60e01b179052610d219084906126f3565b60008261205857506000611ff1565b8282028284828161206557fe5b0414611f8e5760405162461bcd60e51b815260040180806020018281038252602181526020018061369d6021913960400191505060405180910390fd5b60008082116120f8576040805162461bcd60e51b815260206004820152601a60248201527f536166654d6174683a206469766973696f6e206279207a65726f000000000000604482015290519081900360640190fd5b81838161210157fe5b049392505050565b612111610f9c565b612159576040805162461bcd60e51b815260206004820152601460248201527314185d5cd8589b194e881b9bdd081c185d5cd95960621b604482015290519081900360640190fd5b6000805460ff60a01b191690557f5db9ee0a495bf2e6ff9c91a7834c1ba4fdd244a5e8aa4e537bd38aeae4b073aa61218f612496565b604080516001600160a01b039092168252519081900360200190a1565b600f54600c546121cb916001600160a01b039182169116600019611e69565b600354600a546121ea916001600160a01b039182169116600019611e69565b600354600b54612209916001600160a01b039182169116600019611e69565b600354600d54612227916001600160a01b0391821691166000611e69565b600354600d54612246916001600160a01b039182169116600019611e69565b600354600e54612264916001600160a01b0391821691166000611e69565b600354600e54610dd9916001600160a01b039182169116600019611e69565b61228b610f9c565b156122d0576040805162461bcd60e51b815260206004820152601060248201526f14185d5cd8589b194e881c185d5cd95960821b604482015290519081900360640190fd5b600f5460105460408051630c7e663b60e11b81526004810192909252306024830152516001600160a01b03909216916318fccc769160448082019260009290919082900301818387803b15801561232657600080fd5b505af115801561233a573d6000803e3d6000fd5b5050600a54604080516370a0823160e01b81523060048201529051600094506001600160a01b0390921692506370a08231916024808301926020929190829003018186803b15801561238b57600080fd5b505afa15801561239f573d6000803e3d6000fd5b505050506040513d60208110156123b557600080fd5b5051600b54604080516370a0823160e01b815230600482015290519293506000926001600160a01b03909216916370a0823191602480820192602092909190829003018186803b15801561240857600080fd5b505afa15801561241c573d6000803e3d6000fd5b505050506040513d602081101561243257600080fd5b50519050811515806124445750600081115b15610d215761245283612900565b61245a612e7f565b61246261178b565b4260115560405133907f577a37fdb49a88d66684922c6f913df5239b4f214b2b97c53ef8e3bbb2034cb590600090a2505050565b3390565b600082820183811015611f8e576040805162461bcd60e51b815260206004820152601b60248201527f536166654d6174683a206164646974696f6e206f766572666c6f770000000000604482015290519081900360640190fd5b6124fc610f9c565b15612541576040805162461bcd60e51b815260206004820152601060248201526f14185d5cd8589b194e881c185d5cd95960821b604482015290519081900360640190fd5b6000805460ff60a01b1916600160a01b1790557f62e78cea01bee320cd4e420270b5ea74000d11b0c9f74754ebdbfc544b05a25861218f612496565b600f54600c5461259b916001600160a01b0391821691166000611e69565b600354600a546125b9916001600160a01b0391821691166000611e69565b600354600b546125d7916001600160a01b0391821691166000611e69565b600354600d546125f5916001600160a01b0391821691166000611e69565b600354600e54610dd9916001600160a01b0391821691166000611e69565b606082826040516020018083805190602001908083835b602083106126495780518252601f19909201916020918201910161262a565b51815160209384036101000a600019018019909216911617905285519190930192850191508083835b602083106126915780518252601f199092019160209182019101612672565b6001836020036101000a03801982511681845116808217855250505050505090500192505050604051602081830303815290604052905092915050565b6060611f8e8383604051806060016040528060258152602001613678602591396133eb565b6060612748826040518060400160405280602081526020017f5361666545524332303a206c6f772d6c6576656c2063616c6c206661696c6564815250856001600160a01b0316611f7c9092919063ffffffff16565b805190915015610d215780806020019051602081101561276757600080fd5b5051610d215760405162461bcd60e51b815260040180806020018281038252602a815260200180613702602a913960400191505060405180910390fd5b6060824710156127e55760405162461bcd60e51b81526004018080602001828103825260268152602001806136526026913960400191505060405180910390fd5b6127ee856134ee565b61283f576040805162461bcd60e51b815260206004820152601d60248201527f416464726573733a2063616c6c20746f206e6f6e2d636f6e7472616374000000604482015290519081900360640190fd5b60006060866001600160a01b031685876040518082805190602001908083835b6020831061287e5780518252601f19909201916020918201910161285f565b6001836020036101000a03801982511681845116808217855250505050505090500191505060006040518083038185875af1925050503d80600081146128e0576040519150601f19603f3d011682016040523d82523d6000602084013e6128e5565b606091505b50915091506128f58282866134f4565b979650505050505050565b600b54604080516370a0823160e01b815230600482015290516000926001600160a01b0316916370a08231916024808301926020929190829003018186803b15801561294b57600080fd5b505afa15801561295f573d6000803e3d6000fd5b505050506040513d602081101561297557600080fd5b505190508015612b06576003546040516338ed173960e01b8152600481018381526000602483018190523060648401819052426084850181905260a0604486019081526015805460a488018190526001600160a01b03909816976338ed1739978a97929594939160c49091019086908015612a1957602002820191906000526020600020905b81546001600160a01b031681526001909101906020018083116129fb575b50509650505050505050600060405180830381600087803b158015612a3d57600080fd5b505af1158015612a51573d6000803e3d6000fd5b505050506040513d6000823e601f3d908101601f191682016040526020811015612a7a57600080fd5b8101908080516040519392919084600160201b821115612a9957600080fd5b908301906020820185811115612aae57600080fd5b82518660208202830111600160201b82111715612aca57600080fd5b82525081516020918201928201910280838360005b83811015612af7578181015183820152602001612adf565b50505050905001604052505050505b600a54604080516370a0823160e01b81523060048201529051600092612b95926103e892610ceb92602d926001600160a01b03909116916370a0823191602480820192602092909190829003018186803b158015612b6357600080fd5b505afa158015612b77573d6000803e3d6000fd5b505050506040513d6020811015612b8d57600080fd5b505190612049565b9050600360009054906101000a90046001600160a01b03166001600160a01b03166338ed1739826000601430426040518663ffffffff1660e01b81526004018086815260200185815260200180602001846001600160a01b031681526020018381526020018281038252858181548152602001915080548015612c4157602002820191906000526020600020905b81546001600160a01b03168152600190910190602001808311612c23575b50509650505050505050600060405180830381600087803b158015612c6557600080fd5b505af1158015612c79573d6000803e3d6000fd5b505050506040513d6000823e601f3d908101601f191682016040526020811015612ca257600080fd5b8101908080516040519392919084600160201b821115612cc157600080fd5b908301906020820185811115612cd657600080fd5b82518660208202830111600160201b82111715612cf257600080fd5b82525081516020918201928201910280838360005b83811015612d1f578181015183820152602001612d07565b505050509190910160408181526009546370a0823160e01b83523060048401529051600097506001600160a01b0390911695506370a08231945060248083019450602093509091829003018186803b158015612d7a57600080fd5b505afa158015612d8e573d6000803e3d6000fd5b505050506040513d6020811015612da457600080fd5b5051600754909150600090612dc2906103e890610ceb908590612049565b90506001600160a01b03851615612def57600954612dea906001600160a01b03168683611ff7565b612e06565b600954612e06906001600160a01b03163283611ff7565b6000612e236103e8610ceb6008548661204990919063ffffffff16565b600554600954919250612e43916001600160a01b03908116911683611ff7565b6000612e566103e8610ceb866070612049565b600254600954919250612e76916001600160a01b03908116911683611ff7565b50505050505050565b600a54604080516370a0823160e01b81523060048201529051600092612f06926002926001600160a01b03909216916370a0823191602480820192602092909190829003018186803b158015612ed457600080fd5b505afa158015612ee8573d6000803e3d6000fd5b505050506040513d6020811015612efe57600080fd5b5051906120a2565b600a54600d549192506001600160a01b039182169116146130a8576003546040516338ed173960e01b8152600481018381526000602483018190523060648401819052426084850181905260a0604486019081526016805460a488018190526001600160a01b03909816976338ed1739978a97929594939160c49091019086908015612fbb57602002820191906000526020600020905b81546001600160a01b03168152600190910190602001808311612f9d575b50509650505050505050600060405180830381600087803b158015612fdf57600080fd5b505af1158015612ff3573d6000803e3d6000fd5b505050506040513d6000823e601f3d908101601f19168201604052602081101561301c57600080fd5b8101908080516040519392919084600160201b82111561303b57600080fd5b90830190602082018581111561305057600080fd5b82518660208202830111600160201b8211171561306c57600080fd5b82525081516020918201928201910280838360005b83811015613099578181015183820152602001613081565b50505050905001604052505050505b600a54600e546001600160a01b03908116911614613247576003546040516338ed173960e01b8152600481018381526000602483018190523060648401819052426084850181905260a0604486019081526017805460a488018190526001600160a01b03909816976338ed1739978a97929594939160c4909101908690801561315a57602002820191906000526020600020905b81546001600160a01b0316815260019091019060200180831161313c575b50509650505050505050600060405180830381600087803b15801561317e57600080fd5b505af1158015613192573d6000803e3d6000fd5b505050506040513d6000823e601f3d908101601f1916820160405260208110156131bb57600080fd5b8101908080516040519392919084600160201b8211156131da57600080fd5b9083019060208201858111156131ef57600080fd5b82518660208202830111600160201b8211171561320b57600080fd5b82525081516020918201928201910280838360005b83811015613238578181015183820152602001613220565b50505050905001604052505050505b600d54604080516370a0823160e01b815230600482015290516000926001600160a01b0316916370a08231916024808301926020929190829003018186803b15801561329257600080fd5b505afa1580156132a6573d6000803e3d6000fd5b505050506040513d60208110156132bc57600080fd5b5051600e54604080516370a0823160e01b815230600482015290519293506000926001600160a01b03909216916370a0823191602480820192602092909190829003018186803b15801561330f57600080fd5b505afa158015613323573d6000803e3d6000fd5b505050506040513d602081101561333957600080fd5b5051600354600d54600e546040805162e8e33760e81b81526001600160a01b0393841660048201529183166024830152604482018790526064820185905260016084830181905260a48301523060c48301524260e48301525193945091169163e8e3370091610104808201926060929091908290030181600087803b1580156133c157600080fd5b505af11580156133d5573d6000803e3d6000fd5b505050506040513d60608110156118c857600080fd5b60606133f6846134ee565b6134315760405162461bcd60e51b81526004018080602001828103825260248152602001806136de6024913960400191505060405180910390fd5b60006060856001600160a01b0316856040518082805190602001908083835b6020831061346f5780518252601f199092019160209182019101613450565b6001836020036101000a038019825116818451168082178552505050505050905001915050600060405180830381855afa9150503d80600081146134cf576040519150601f19603f3d011682016040523d82523d6000602084013e6134d4565b606091505b50915091506134e48282866134f4565b9695505050505050565b3b151590565b60608315613503575081611f8e565b8251156135135782518084602001fd5b8160405162461bcd60e51b81526004018080602001828103825283818151815260200191508051906020019080838360005b8381101561355d578181015183820152602001613545565b50505050905090810190601f16801561358a5780820380516001836020036101000a031916815260200191505b509250505060405180910390fd5b828054600181600116156101000203166002900490600052602060002090601f016020900481019282601f106135d95782800160ff19823516178555613606565b82800160010185558215613606579182015b828111156136065782358255916020019190600101906135eb565b50613612929150613616565b5090565b5b80821115613612576000815560010161361756fe4f776e61626c653a206e6577206f776e657220697320746865207a65726f2061646472657373416464726573733a20696e73756666696369656e742062616c616e636520666f722063616c6c416464726573733a206c6f772d6c6576656c207374617469632063616c6c206661696c6564536166654d6174683a206d756c7469706c69636174696f6e206f766572666c6f774f776e61626c653a2063616c6c6572206973206e6f7420746865206f776e6572416464726573733a207374617469632063616c6c20746f206e6f6e2d636f6e74726163745361666545524332303a204552433230206f7065726174696f6e20646964206e6f7420737563636565645361666545524332303a20617070726f76652066726f6d206e6f6e2d7a65726f20746f206e6f6e2d7a65726f20616c6c6f77616e6365a2646970667358221220d1ca009b1fef420d96829f63eb02333767ebb611f026eaa41e610c97f0824b0a64736f6c634300060c0033416464726573733a20696e73756666696369656e742062616c616e636520666f722063616c6c5361666545524332303a204552433230206f7065726174696f6e20646964206e6f7420737563636565645361666545524332303a20617070726f76652066726f6d206e6f6e2d7a65726f20746f206e6f6e2d7a65726f20616c6c6f77616e6365",
  "linkReferences": {},
  "deployedLinkReferences": {}
}