{
  "_format": "hh-sol-artifact-1",
  "contractName": "StratManager",
  "sourceName": "contracts/BIFI/strategies/Common/StratManager.sol",
  "abi": [
    {
      "inputs": [
        {
          "internalType": "address",
          "name": "_keeper",
          "type": "address"
        },
        {
          "internalType": "address",
          "name": "_strategist",
          "type": "address"
        },
        {
          "internalType": "address",
          "name": "_unirouter",
          "type": "address"
        },
        {
          "internalType": "address",
          "name": "_vault",
          "type": "address"
        },
        {
          "internalType": "address",
          "name": "_beefyFeeRecipient",
          "type": "address"
        }
      ],
      "stateMutability": "nonpayable",
      "type": "constructor"
    },
    {
      "anonymous": false,
      "inputs": [
        {
          "indexed": true,
          "internalType": "address",
          "name": "previousOwner",
          "type": "address"
        },
        {
          "indexed": true,
          "internalType": "address",
          "name": "newOwner",
          "type": "address"
        }
      ],
      "name": "OwnershipTransferred",
      "type": "event"
    },
    {
      "anonymous": false,
      "inputs": [
        {
          "indexed": false,
          "internalType": "address",
          "name": "account",
          "type": "address"
        }
      ],
      "name": "Paused",
      "type": "event"
    },
    {
      "anonymous": false,
      "inputs": [
        {
          "indexed": false,
          "internalType": "address",
          "name": "account",
          "type": "address"
        }
      ],
      "name": "Unpaused",
      "type": "event"
    },
    {
      "inputs": [],
      "name": "beefyFeeRecipient",
      "outputs": [
        {
          "internalType": "address",
          "name": "",
          "type": "address"
        }
      ],
      "stateMutability": "view",
      "type": "function"
    },
    {
      "inputs": [],
      "name": "beforeDeposit",
      "outputs": [],
      "stateMutability": "nonpayable",
      "type": "function"
    },
    {
      "inputs": [],
      "name": "keeper",
      "outputs": [
        {
          "internalType": "address",
          "name": "",
          "type": "address"
        }
      ],
      "stateMutability": "view",
      "type": "function"
    },
    {
      "inputs": [],
      "name": "owner",
      "outputs": [
        {
          "internalType": "address",
          "name": "",
          "type": "address"
        }
      ],
      "stateMutability": "view",
      "type": "function"
    },
    {
      "inputs": [],
      "name": "paused",
      "outputs": [
        {
          "internalType": "bool",
          "name": "",
          "type": "bool"
        }
      ],
      "stateMutability": "view",
      "type": "function"
    },
    {
      "inputs": [],
      "name": "renounceOwnership",
      "outputs": [],
      "stateMutability": "nonpayable",
      "type": "function"
    },
    {
      "inputs": [
        {
          "internalType": "address",
          "name": "_beefyFeeRecipient",
          "type": "address"
        }
      ],
      "name": "setBeefyFeeRecipient",
      "outputs": [],
      "stateMutability": "nonpayable",
      "type": "function"
    },
    {
      "inputs": [
        {
          "internalType": "address",
          "name": "_keeper",
          "type": "address"
        }
      ],
      "name": "setKeeper",
      "outputs": [],
      "stateMutability": "nonpayable",
      "type": "function"
    },
    {
      "inputs": [
        {
          "internalType": "address",
          "name": "_strategist",
          "type": "address"
        }
      ],
      "name": "setStrategist",
      "outputs": [],
      "stateMutability": "nonpayable",
      "type": "function"
    },
    {
      "inputs": [
        {
          "internalType": "address",
          "name": "_unirouter",
          "type": "address"
        }
      ],
      "name": "setUnirouter",
      "outputs": [],
      "stateMutability": "nonpayable",
      "type": "function"
    },
    {
      "inputs": [
        {
          "internalType": "address",
          "name": "_vault",
          "type": "address"
        }
      ],
      "name": "setVault",
      "outputs": [],
      "stateMutability": "nonpayable",
      "type": "function"
    },
    {
      "inputs": [],
      "name": "strategist",
      "outputs": [
        {
          "internalType": "address",
          "name": "",
          "type": "address"
        }
      ],
      "stateMutability": "view",
      "type": "function"
    },
    {
      "inputs": [
        {
          "internalType": "address",
          "name": "newOwner",
          "type": "address"
        }
      ],
      "name": "transferOwnership",
      "outputs": [],
      "stateMutability": "nonpayable",
      "type": "function"
    },
    {
      "inputs": [],
      "name": "unirouter",
      "outputs": [
        {
          "internalType": "address",
          "name": "",
          "type": "address"
        }
      ],
      "stateMutability": "view",
      "type": "function"
    },
    {
      "inputs": [],
      "name": "vault",
      "outputs": [
        {
          "internalType": "address",
          "name": "",
          "type": "address"
        }
      ],
      "stateMutability": "view",
      "type": "function"
    }
  ],
  "bytecode": "0x608060405234801561001057600080fd5b506040516108a43803806108a4833981810160405260a081101561003357600080fd5b50805160208201516040830151606084015160809094015192939192909190600061005c610115565b600080546001600160a01b0319166001600160a01b0383169081178255604051929350917f8be0079c531659141344cd1fd0a4f28419497f9722a3daafe3b4186f6b6457e0908290a3506000805460ff60a01b19169055600180546001600160a01b03199081166001600160a01b03978816179091556002805482169587169590951790945560038054851693861693909317909255600480548416918516919091179055600580549092169216919091179055610119565b3390565b61077c806101286000396000f3fe608060405234801561001057600080fd5b50600436106100f55760003560e01c80638da5cb5b11610097578063c7b9d53011610066578063c7b9d530146101de578063d92f3d7314610204578063f2fde38b1461022a578063fbfa77cf14610250576100f5565b80638da5cb5b146101a05780638e145459146101a8578063a68833e5146101b0578063aced1661146101d6576100f5565b80635c975abb116100d35780635c975abb146101305780636817031b1461014c578063715018a614610172578063748747e61461017a576100f5565b80631fe4a686146100fa578063257ae0de1461011e578063573fef0a14610126575b600080fd5b610102610258565b604080516001600160a01b039092168252519081900360200190f35b610102610267565b61012e610276565b005b610138610278565b604080519115158252519081900360200190f35b61012e6004803603602081101561016257600080fd5b50356001600160a01b0316610288565b61012e61030c565b61012e6004803603602081101561019057600080fd5b50356001600160a01b03166103b8565b610102610447565b610102610456565b61012e600480360360208110156101c657600080fd5b50356001600160a01b0316610465565b6101026104e9565b61012e600480360360208110156101f457600080fd5b50356001600160a01b03166104f8565b61012e6004803603602081101561021a57600080fd5b50356001600160a01b0316610567565b61012e6004803603602081101561024057600080fd5b50356001600160a01b03166105eb565b6101026106ed565b6002546001600160a01b031681565b6003546001600160a01b031681565b565b600054600160a01b900460ff1690565b6102906106fc565b6001600160a01b03166102a1610447565b6001600160a01b0316146102ea576040805162461bcd60e51b81526020600482018190526024820152600080516020610727833981519152604482015290519081900360640190fd5b600480546001600160a01b0319166001600160a01b0392909216919091179055565b6103146106fc565b6001600160a01b0316610325610447565b6001600160a01b03161461036e576040805162461bcd60e51b81526020600482018190526024820152600080516020610727833981519152604482015290519081900360640190fd5b600080546040516001600160a01b03909116907f8be0079c531659141344cd1fd0a4f28419497f9722a3daafe3b4186f6b6457e0908390a3600080546001600160a01b0319169055565b6103c0610447565b6001600160a01b0316336001600160a01b031614806103e957506001546001600160a01b031633145b610425576040805162461bcd60e51b815260206004820152600860248201526710b6b0b730b3b2b960c11b604482015290519081900360640190fd5b600180546001600160a01b0319166001600160a01b0392909216919091179055565b6000546001600160a01b031690565b6005546001600160a01b031681565b61046d6106fc565b6001600160a01b031661047e610447565b6001600160a01b0316146104c7576040805162461bcd60e51b81526020600482018190526024820152600080516020610727833981519152604482015290519081900360640190fd5b600580546001600160a01b0319166001600160a01b0392909216919091179055565b6001546001600160a01b031681565b6002546001600160a01b03163314610545576040805162461bcd60e51b815260206004820152600b60248201526a085cdd1c985d1959da5cdd60aa1b604482015290519081900360640190fd5b600280546001600160a01b0319166001600160a01b0392909216919091179055565b61056f6106fc565b6001600160a01b0316610580610447565b6001600160a01b0316146105c9576040805162461bcd60e51b81526020600482018190526024820152600080516020610727833981519152604482015290519081900360640190fd5b600380546001600160a01b0319166001600160a01b0392909216919091179055565b6105f36106fc565b6001600160a01b0316610604610447565b6001600160a01b03161461064d576040805162461bcd60e51b81526020600482018190526024820152600080516020610727833981519152604482015290519081900360640190fd5b6001600160a01b0381166106925760405162461bcd60e51b81526004018080602001828103825260268152602001806107016026913960400191505060405180910390fd5b600080546040516001600160a01b03808516939216917f8be0079c531659141344cd1fd0a4f28419497f9722a3daafe3b4186f6b6457e091a3600080546001600160a01b0319166001600160a01b0392909216919091179055565b6004546001600160a01b031681565b339056fe4f776e61626c653a206e6577206f776e657220697320746865207a65726f20616464726573734f776e61626c653a2063616c6c6572206973206e6f7420746865206f776e6572a264697066735822122054c7e80e484066347bf1dc349eebdb6e4ec47b245186eff839c18c86230b8d5e64736f6c634300060c0033",
  "linkReferences": {},
  "deployedLinkReferences": {}
}