{
  "_format": "hh-sol-artifact-1",
  "contractName": "StrategyCommonRewardPool",
  "sourceName": "contracts/BIFI/strategies/Common/StrategyCommonRewardPool.sol",
  "abi": [
    {
      "inputs": [
        {
          "internalType": "address",
          "name": "_want",
          "type": "address"
        },
        {
          "internalType": "address",
          "name": "_rewardPool",
          "type": "address"
        },
        {
          "internalType": "address",
          "name": "_vault",
          "type": "address"
        },
        {
          "internalType": "address",
          "name": "_unirouter",
          "type": "address"
        },
        {
          "internalType": "address",
          "name": "_keeper",
          "type": "address"
        },
        {
          "internalType": "address",
          "name": "_strategist",
          "type": "address"
        },
        {
          "internalType": "address",
          "name": "_beefyFeeRecipient",
          "type": "address"
        },
        {
          "internalType": "address[]",
          "name": "_outputToNativeRoute",
          "type": "address[]"
        },
        {
          "internalType": "address[]",
          "name": "_outputToWantRoute",
          "type": "address[]"
        },
        {
          "internalType": "address[]",
          "name": "_outputToLp0Route",
          "type": "address[]"
        },
        {
          "internalType": "address[]",
          "name": "_outputToLp1Route",
          "type": "address[]"
        }
      ],
      "stateMutability": "nonpayable",
      "type": "constructor"
    },
    {
      "anonymous": false,
      "inputs": [
        {
          "indexed": true,
          "internalType": "address",
          "name": "previousOwner",
          "type": "address"
        },
        {
          "indexed": true,
          "internalType": "address",
          "name": "newOwner",
          "type": "address"
        }
      ],
      "name": "OwnershipTransferred",
      "type": "event"
    },
    {
      "anonymous": false,
      "inputs": [
        {
          "indexed": false,
          "internalType": "address",
          "name": "account",
          "type": "address"
        }
      ],
      "name": "Paused",
      "type": "event"
    },
    {
      "anonymous": false,
      "inputs": [
        {
          "indexed": true,
          "internalType": "address",
          "name": "harvester",
          "type": "address"
        }
      ],
      "name": "StratHarvest",
      "type": "event"
    },
    {
      "anonymous": false,
      "inputs": [
        {
          "indexed": false,
          "internalType": "address",
          "name": "account",
          "type": "address"
        }
      ],
      "name": "Unpaused",
      "type": "event"
    },
    {
      "inputs": [],
      "name": "MAX_CALL_FEE",
      "outputs": [
        {
          "internalType": "uint256",
          "name": "",
          "type": "uint256"
        }
      ],
      "stateMutability": "view",
      "type": "function"
    },
    {
      "inputs": [],
      "name": "MAX_FEE",
      "outputs": [
        {
          "internalType": "uint256",
          "name": "",
          "type": "uint256"
        }
      ],
      "stateMutability": "view",
      "type": "function"
    },
    {
      "inputs": [],
      "name": "STRATEGIST_FEE",
      "outputs": [
        {
          "internalType": "uint256",
          "name": "",
          "type": "uint256"
        }
      ],
      "stateMutability": "view",
      "type": "function"
    },
    {
      "inputs": [],
      "name": "WITHDRAWAL_FEE_CAP",
      "outputs": [
        {
          "internalType": "uint256",
          "name": "",
          "type": "uint256"
        }
      ],
      "stateMutability": "view",
      "type": "function"
    },
    {
      "inputs": [],
      "name": "WITHDRAWAL_MAX",
      "outputs": [
        {
          "internalType": "uint256",
          "name": "",
          "type": "uint256"
        }
      ],
      "stateMutability": "view",
      "type": "function"
    },
    {
      "inputs": [],
      "name": "balanceOf",
      "outputs": [
        {
          "internalType": "uint256",
          "name": "",
          "type": "uint256"
        }
      ],
      "stateMutability": "view",
      "type": "function"
    },
    {
      "inputs": [],
      "name": "balanceOfPool",
      "outputs": [
        {
          "internalType": "uint256",
          "name": "",
          "type": "uint256"
        }
      ],
      "stateMutability": "view",
      "type": "function"
    },
    {
      "inputs": [],
      "name": "balanceOfWant",
      "outputs": [
        {
          "internalType": "uint256",
          "name": "",
          "type": "uint256"
        }
      ],
      "stateMutability": "view",
      "type": "function"
    },
    {
      "inputs": [],
      "name": "beefyFee",
      "outputs": [
        {
          "internalType": "uint256",
          "name": "",
          "type": "uint256"
        }
      ],
      "stateMutability": "view",
      "type": "function"
    },
    {
      "inputs": [],
      "name": "beefyFeeRecipient",
      "outputs": [
        {
          "internalType": "address",
          "name": "",
          "type": "address"
        }
      ],
      "stateMutability": "view",
      "type": "function"
    },
    {
      "inputs": [],
      "name": "beforeDeposit",
      "outputs": [],
      "stateMutability": "nonpayable",
      "type": "function"
    },
    {
      "inputs": [],
      "name": "callFee",
      "outputs": [
        {
          "internalType": "uint256",
          "name": "",
          "type": "uint256"
        }
      ],
      "stateMutability": "view",
      "type": "function"
    },
    {
      "inputs": [],
      "name": "callReward",
      "outputs": [
        {
          "internalType": "uint256",
          "name": "",
          "type": "uint256"
        }
      ],
      "stateMutability": "view",
      "type": "function"
    },
    {
      "inputs": [],
      "name": "deposit",
      "outputs": [],
      "stateMutability": "nonpayable",
      "type": "function"
    },
    {
      "inputs": [],
      "name": "gasprice",
      "outputs": [
        {
          "internalType": "address",
          "name": "",
          "type": "address"
        }
      ],
      "stateMutability": "view",
      "type": "function"
    },
    {
      "inputs": [],
      "name": "harvest",
      "outputs": [],
      "stateMutability": "nonpayable",
      "type": "function"
    },
    {
      "inputs": [],
      "name": "harvestOnDeposit",
      "outputs": [
        {
          "internalType": "bool",
          "name": "",
          "type": "bool"
        }
      ],
      "stateMutability": "view",
      "type": "function"
    },
    {
      "inputs": [
        {
          "internalType": "address",
          "name": "callFeeRecipient",
          "type": "address"
        }
      ],
      "name": "harvestWithCallFeeRecipient",
      "outputs": [],
      "stateMutability": "nonpayable",
      "type": "function"
    },
    {
      "inputs": [],
      "name": "keeper",
      "outputs": [
        {
          "internalType": "address",
          "name": "",
          "type": "address"
        }
      ],
      "stateMutability": "view",
      "type": "function"
    },
    {
      "inputs": [],
      "name": "lastHarvest",
      "outputs": [
        {
          "internalType": "uint256",
          "name": "",
          "type": "uint256"
        }
      ],
      "stateMutability": "view",
      "type": "function"
    },
    {
      "inputs": [],
      "name": "lpToken0",
      "outputs": [
        {
          "internalType": "address",
          "name": "",
          "type": "address"
        }
      ],
      "stateMutability": "view",
      "type": "function"
    },
    {
      "inputs": [],
      "name": "lpToken1",
      "outputs": [
        {
          "internalType": "address",
          "name": "",
          "type": "address"
        }
      ],
      "stateMutability": "view",
      "type": "function"
    },
    {
      "inputs": [],
      "name": "managerHarvest",
      "outputs": [],
      "stateMutability": "nonpayable",
      "type": "function"
    },
    {
      "inputs": [],
      "name": "native",
      "outputs": [
        {
          "internalType": "address",
          "name": "",
          "type": "address"
        }
      ],
      "stateMutability": "view",
      "type": "function"
    },
    {
      "inputs": [],
      "name": "output",
      "outputs": [
        {
          "internalType": "address",
          "name": "",
          "type": "address"
        }
      ],
      "stateMutability": "view",
      "type": "function"
    },
    {
      "inputs": [],
      "name": "outputToLp0",
      "outputs": [
        {
          "internalType": "address[]",
          "name": "",
          "type": "address[]"
        }
      ],
      "stateMutability": "view",
      "type": "function"
    },
    {
      "inputs": [
        {
          "internalType": "uint256",
          "name": "",
          "type": "uint256"
        }
      ],
      "name": "outputToLp0Route",
      "outputs": [
        {
          "internalType": "address",
          "name": "",
          "type": "address"
        }
      ],
      "stateMutability": "view",
      "type": "function"
    },
    {
      "inputs": [],
      "name": "outputToLp1",
      "outputs": [
        {
          "internalType": "address[]",
          "name": "",
          "type": "address[]"
        }
      ],
      "stateMutability": "view",
      "type": "function"
    },
    {
      "inputs": [
        {
          "internalType": "uint256",
          "name": "",
          "type": "uint256"
        }
      ],
      "name": "outputToLp1Route",
      "outputs": [
        {
          "internalType": "address",
          "name": "",
          "type": "address"
        }
      ],
      "stateMutability": "view",
      "type": "function"
    },
    {
      "inputs": [],
      "name": "outputToNative",
      "outputs": [
        {
          "internalType": "address[]",
          "name": "",
          "type": "address[]"
        }
      ],
      "stateMutability": "view",
      "type": "function"
    },
    {
      "inputs": [
        {
          "internalType": "uint256",
          "name": "",
          "type": "uint256"
        }
      ],
      "name": "outputToNativeRoute",
      "outputs": [
        {
          "internalType": "address",
          "name": "",
          "type": "address"
        }
      ],
      "stateMutability": "view",
      "type": "function"
    },
    {
      "inputs": [],
      "name": "outputToWant",
      "outputs": [
        {
          "internalType": "address[]",
          "name": "",
          "type": "address[]"
        }
      ],
      "stateMutability": "view",
      "type": "function"
    },
    {
      "inputs": [
        {
          "internalType": "uint256",
          "name": "",
          "type": "uint256"
        }
      ],
      "name": "outputToWantRoute",
      "outputs": [
        {
          "internalType": "address",
          "name": "",
          "type": "address"
        }
      ],
      "stateMutability": "view",
      "type": "function"
    },
    {
      "inputs": [],
      "name": "owner",
      "outputs": [
        {
          "internalType": "address",
          "name": "",
          "type": "address"
        }
      ],
      "stateMutability": "view",
      "type": "function"
    },
    {
      "inputs": [],
      "name": "panic",
      "outputs": [],
      "stateMutability": "nonpayable",
      "type": "function"
    },
    {
      "inputs": [],
      "name": "pause",
      "outputs": [],
      "stateMutability": "nonpayable",
      "type": "function"
    },
    {
      "inputs": [],
      "name": "paused",
      "outputs": [
        {
          "internalType": "bool",
          "name": "",
          "type": "bool"
        }
      ],
      "stateMutability": "view",
      "type": "function"
    },
    {
      "inputs": [],
      "name": "renounceOwnership",
      "outputs": [],
      "stateMutability": "nonpayable",
      "type": "function"
    },
    {
      "inputs": [],
      "name": "retireStrat",
      "outputs": [],
      "stateMutability": "nonpayable",
      "type": "function"
    },
    {
      "inputs": [],
      "name": "rewardPool",
      "outputs": [
        {
          "internalType": "address",
          "name": "",
          "type": "address"
        }
      ],
      "stateMutability": "view",
      "type": "function"
    },
    {
      "inputs": [],
      "name": "rewardsAvailable",
      "outputs": [
        {
          "internalType": "uint256",
          "name": "",
          "type": "uint256"
        }
      ],
      "stateMutability": "view",
      "type": "function"
    },
    {
      "inputs": [
        {
          "internalType": "address",
          "name": "_beefyFeeRecipient",
          "type": "address"
        }
      ],
      "name": "setBeefyFeeRecipient",
      "outputs": [],
      "stateMutability": "nonpayable",
      "type": "function"
    },
    {
      "inputs": [
        {
          "internalType": "uint256",
          "name": "_fee",
          "type": "uint256"
        }
      ],
      "name": "setCallFee",
      "outputs": [],
      "stateMutability": "nonpayable",
      "type": "function"
    },
    {
      "inputs": [
        {
          "internalType": "bool",
          "name": "_harvestOnDeposit",
          "type": "bool"
        }
      ],
      "name": "setHarvestOnDeposit",
      "outputs": [],
      "stateMutability": "nonpayable",
      "type": "function"
    },
    {
      "inputs": [
        {
          "internalType": "address",
          "name": "_keeper",
          "type": "address"
        }
      ],
      "name": "setKeeper",
      "outputs": [],
      "stateMutability": "nonpayable",
      "type": "function"
    },
    {
      "inputs": [
        {
          "internalType": "address",
          "name": "_strategist",
          "type": "address"
        }
      ],
      "name": "setStrategist",
      "outputs": [],
      "stateMutability": "nonpayable",
      "type": "function"
    },
    {
      "inputs": [
        {
          "internalType": "address",
          "name": "_unirouter",
          "type": "address"
        }
      ],
      "name": "setUnirouter",
      "outputs": [],
      "stateMutability": "nonpayable",
      "type": "function"
    },
    {
      "inputs": [
        {
          "internalType": "address",
          "name": "_vault",
          "type": "address"
        }
      ],
      "name": "setVault",
      "outputs": [],
      "stateMutability": "nonpayable",
      "type": "function"
    },
    {
      "inputs": [
        {
          "internalType": "uint256",
          "name": "_fee",
          "type": "uint256"
        }
      ],
      "name": "setWithdrawalFee",
      "outputs": [],
      "stateMutability": "nonpayable",
      "type": "function"
    },
    {
      "inputs": [],
      "name": "shouldGasThrottle",
      "outputs": [
        {
          "internalType": "bool",
          "name": "",
          "type": "bool"
        }
      ],
      "stateMutability": "view",
      "type": "function"
    },
    {
      "inputs": [],
      "name": "strategist",
      "outputs": [
        {
          "internalType": "address",
          "name": "",
          "type": "address"
        }
      ],
      "stateMutability": "view",
      "type": "function"
    },
    {
      "inputs": [
        {
          "internalType": "address",
          "name": "newOwner",
          "type": "address"
        }
      ],
      "name": "transferOwnership",
      "outputs": [],
      "stateMutability": "nonpayable",
      "type": "function"
    },
    {
      "inputs": [],
      "name": "unirouter",
      "outputs": [
        {
          "internalType": "address",
          "name": "",
          "type": "address"
        }
      ],
      "stateMutability": "view",
      "type": "function"
    },
    {
      "inputs": [],
      "name": "unpause",
      "outputs": [],
      "stateMutability": "nonpayable",
      "type": "function"
    },
    {
      "inputs": [],
      "name": "vault",
      "outputs": [
        {
          "internalType": "address",
          "name": "",
          "type": "address"
        }
      ],
      "stateMutability": "view",
      "type": "function"
    },
    {
      "inputs": [],
      "name": "want",
      "outputs": [
        {
          "internalType": "address",
          "name": "",
          "type": "address"
        }
      ],
      "stateMutability": "view",
      "type": "function"
    },
    {
      "inputs": [
        {
          "internalType": "uint256",
          "name": "_amount",
          "type": "uint256"
        }
      ],
      "name": "withdraw",
      "outputs": [],
      "stateMutability": "nonpayable",
      "type": "function"
    },
    {
      "inputs": [],
      "name": "withdrawalFee",
      "outputs": [
        {
          "internalType": "uint256",
          "name": "",
          "type": "uint256"
        }
      ],
      "stateMutability": "view",
      "type": "function"
    }
  ],
  "bytecode": "0x6080604052600a600655606f60075561030960085560098054600160ff1990911617610100600160a81b03191674a43509661141f254f54d9a326e8ec851a0b95307001790553480156200005257600080fd5b5060405162003a0338038062003a03833981016040819052620000759162000a34565b8686898b88600062000086620004ce565b600080546001600160a01b0319166001600160a01b0383169081178255604051929350917f8be0079c531659141344cd1fd0a4f28419497f9722a3daafe3b4186f6b6457e0908290a3506000805460ff60a01b19168155600180546001600160a01b03199081166001600160a01b0398891617909155600280548216968816969096179095556003805486169487169490941790935560048054851692861692909217909155600580548416918516919091179055600c805483168f8516179055600f8054909216928d1692909217905584518591906200016357fe5b6020026020010151600b60006101000a8154816001600160a01b0302191690836001600160a01b0316021790555083600185510381518110620001a257fe5b602090810291909101810151600a80546001600160a01b0319166001600160a01b039092169190911790558451620001e19160109190870190620008cb565b50825115620002b057600b5483516001600160a01b039091169084906000906200020757fe5b60200260200101516001600160a01b031614620002415760405162461bcd60e51b8152600401620002389062000d38565b60405180910390fd5b600c5483516001600160a01b0390911690849060001981019081106200026357fe5b60200260200101516001600160a01b031614620002945760405162461bcd60e51b8152600401620002389062000d01565b8251620002a9906011906020860190620008cb565b50620004b3565b600c60009054906101000a90046001600160a01b03166001600160a01b0316630dfe16816040518163ffffffff1660e01b815260040160206040518083038186803b158015620002ff57600080fd5b505afa15801562000314573d6000803e3d6000fd5b505050506040513d601f19601f820116820180604052508101906200033a919062000a16565b600d80546001600160a01b0319166001600160a01b03928316179055600b54835191169083906000906200036a57fe5b60200260200101516001600160a01b0316146200039b5760405162461bcd60e51b8152600401620002389062000cca565b8151620003b0906012906020850190620008cb565b50600c60009054906101000a90046001600160a01b03166001600160a01b031663d21220a76040518163ffffffff1660e01b815260040160206040518083038186803b1580156200040057600080fd5b505afa15801562000415573d6000803e3d6000fd5b505050506040513d601f19601f820116820180604052508101906200043b919062000a16565b600e80546001600160a01b0319166001600160a01b03928316179055600b54825191169082906000906200046b57fe5b60200260200101516001600160a01b0316146200049c5760405162461bcd60e51b8152600401620002389062000c93565b8051620004b1906013906020840190620008cb565b505b620004bd620004d2565b505050505050505050505062000e80565b3390565b600f54600c54620004ff916001600160a01b039182169116600019620005f2602090811b620015b817901c565b600354600b546200052c916001600160a01b039182169116600019620005f2602090811b620015b817901c565b600d546001600160a01b031615620005f057600354600d546200056a916001600160a01b0391821691166000620005f2602090811b620015b817901c565b600354600d5462000597916001600160a01b039182169116600019620005f2602090811b620015b817901c565b600354600e54620005c3916001600160a01b0391821691166000620005f2602090811b620015b817901c565b600354600e54620005f0916001600160a01b039182169116600019620005f2602090811b620015b817901c565b565b801580620006815750604051636eb1769f60e11b81526001600160a01b0384169063dd62ed3e906200062b903090869060040162000be5565b60206040518083038186803b1580156200064457600080fd5b505afa15801562000659573d6000803e3d6000fd5b505050506040513d601f19601f820116820180604052508101906200067f919062000bae565b155b620006a05760405162461bcd60e51b8152600401620002389062000df0565b620006fb8363095ea7b360e01b8484604051602401620006c292919062000bff565b60408051808303601f190181529190526020810180516001600160e01b0319939093166001600160e01b03938416179052906200070016565b505050565b60606200075c826040518060400160405280602081526020017f5361666545524332303a206c6f772d6c6576656c2063616c6c206661696c6564815250856001600160a01b03166200079c60201b620016b2179092919060201c565b805190915015620006fb57808060200190518101906200077d919062000b8c565b620006fb5760405162461bcd60e51b8152600401620002389062000da6565b6060620007ad8484600085620007b7565b90505b9392505050565b606082471015620007dc5760405162461bcd60e51b8152600401620002389062000c4d565b620007e78562000887565b620008065760405162461bcd60e51b8152600401620002389062000d6f565b60006060866001600160a01b0316858760405162000825919062000bc7565b60006040518083038185875af1925050503d806000811462000864576040519150601f19603f3d011682016040523d82523d6000602084013e62000869565b606091505b5090925090506200087c8282866200088d565b979650505050505050565b3b151590565b606083156200089e575081620007b0565b825115620008af5782518084602001fd5b8160405162461bcd60e51b815260040162000238919062000c18565b82805482825590600052602060002090810192821562000923579160200282015b828111156200092357825182546001600160a01b0319166001600160a01b03909116178255602090920191600190910190620008ec565b506200093192915062000935565b5090565b5b80821115620009315780546001600160a01b031916815560010162000936565b80516001600160a01b03811681146200096e57600080fd5b92915050565b600082601f83011262000985578081fd5b81516001600160401b03808211156200099c578283fd5b602080830260405182828201018181108582111715620009ba578687fd5b604052848152945081850192508582018187018301881015620009dc57600080fd5b600091505b8482101562000a0b57620009f6888262000956565b845292820192600191909101908201620009e1565b505050505092915050565b60006020828403121562000a28578081fd5b620007b0838362000956565b60008060008060008060008060008060006101608c8e03121562000a56578687fd5b62000a628d8d62000956565b9a5062000a738d60208e0162000956565b995062000a848d60408e0162000956565b985062000a958d60608e0162000956565b975062000aa68d60808e0162000956565b965062000ab78d60a08e0162000956565b955062000ac88d60c08e0162000956565b60e08d01519095506001600160401b0381111562000ae4578485fd5b62000af28e828f0162000974565b6101008e015190955090506001600160401b0381111562000b11578384fd5b62000b1f8e828f0162000974565b6101208e015190945090506001600160401b0381111562000b3e578283fd5b62000b4c8e828f0162000974565b6101408e015190935090506001600160401b0381111562000b6b578182fd5b62000b798e828f0162000974565b9150509295989b509295989b9093969950565b60006020828403121562000b9e578081fd5b81518015158114620007b0578182fd5b60006020828403121562000bc0578081fd5b5051919050565b6000825162000bdb81846020870162000e4d565b9190910192915050565b6001600160a01b0392831681529116602082015260400190565b6001600160a01b03929092168252602082015260400190565b600060208252825180602084015262000c3981604085016020870162000e4d565b601f01601f19169190910160400192915050565b60208082526026908201527f416464726573733a20696e73756666696369656e742062616c616e636520666f6040820152651c8818d85b1b60d21b606082015260800190565b6020808252601d908201527f6f7574707574546f4c7031526f7574655b305d20213d206f7574707574000000604082015260600190565b6020808252601d908201527f6f7574707574546f4c7030526f7574655b305d20213d206f7574707574000000604082015260600190565b6020808252601f908201527f6f7574707574546f57616e74526f7574655b6c6173745d20213d2077616e7400604082015260600190565b6020808252601e908201527f6f7574707574546f57616e74526f7574655b305d20213d206f75747075740000604082015260600190565b6020808252601d908201527f416464726573733a2063616c6c20746f206e6f6e2d636f6e7472616374000000604082015260600190565b6020808252602a908201527f5361666545524332303a204552433230206f7065726174696f6e20646964206e6040820152691bdd081cdd58d8d9595960b21b606082015260800190565b60208082526036908201527f5361666545524332303a20617070726f76652066726f6d206e6f6e2d7a65726f60408201527f20746f206e6f6e2d7a65726f20616c6c6f77616e636500000000000000000000606082015260800190565b60005b8381101562000e6a57818101518382015260200162000e50565b8381111562000e7a576000848401525b50505050565b612b738062000e906000396000f3fe608060405234801561001057600080fd5b506004361061038e5760003560e01c80638912cb8b116101de578063c7b9d5301161010f578063dfbdc437116100ad578063f2fde38b1161007c578063f2fde38b14610611578063fb61778714610624578063fbfa77cf1461062c578063fd63a887146106345761038e565b8063dfbdc437146105f1578063e7a7250a146105f9578063f1a392da14610601578063f20eaeb8146106095761038e565b8063d3102589116100e9578063d3102589146105bb578063d801d946146105c3578063d92f3d73146105cb578063dd93d6b3146105de5761038e565b8063c7b9d53014610598578063cc7cb29b146105ab578063d0e30db0146105b35761038e565b80639f8b5da11161017c578063aced166111610156578063aced16611461056d578063bc063e1a14610575578063be12a9781461057d578063c1a3d44c146105905761038e565b80639f8b5da11461053f578063a68833e514610547578063ac1e50251461055a5761038e565b80638e145459116101b85780638e1454591461051f57806390321e1a1461052757806397fd323d1461052f578063989ef4e3146105375761038e565b80638912cb8b146105075780638bc7e8c41461050f5780638da5cb5b146105175761038e565b80634700d305116102c35780636817031b11610261578063748747e611610230578063748747e6146104dc5780637d38ca65146104ef5780638456cb59146104f7578063877562b6146104ff5761038e565b80636817031b146104b15780636ec232d3146104c4578063715018a6146104cc578063722713f7146104d45761038e565b80635c975abb1161029d5780635c975abb146104795780635ee167c01461048e578063623d8bd21461049657806366666aa9146104a95761038e565b80634700d3051461046157806354518b1a14610469578063573fef0a146104715761038e565b8063257ae0de116103305780632e1a7d4d1161030a5780632e1a7d4d1461042b57806336c6cf211461043e5780633f4ba83a146104515780634641257d146104595761038e565b8063257ae0de1461040857806326465826146104105780632ad5a53f146104235761038e565b806311b0b42d1161036c57806311b0b42d146103db57806313e120b1146103f05780631f1fcd51146103f85780631fe4a686146104005761038e565b80630587f785146103935780630e8fbb5a146103b157806311588086146103c6575b600080fd5b61039b610647565b6040516103a8919061264e565b60405180910390f35b6103c46103bf3660046124c7565b6106a9565b005b6103ce610738565b6040516103a89190612a5e565b6103e36107be565b6040516103a891906125be565b61039b6107cd565b6103e361082d565b6103e361083c565b6103e361084b565b6103c461041e3660046124ff565b61085a565b6103ce6108d6565b6103c46104393660046124ff565b6108db565b6103e361044c3660046124ff565b610a42565b6103c4610a69565b6103c4610ad0565b6103c4610b8c565b6103ce610c4a565b6103c4610c50565b610481610c85565b6040516103a8919061269b565b6103e3610c95565b6103c46104a436600461240b565b610ca4565b6103e3610cad565b6103c46104bf36600461240b565b610cbc565b6103e3610d1d565b6103c4610d31565b6103ce610dba565b6103c46104ea36600461240b565b610dd5565b6103ce610e44565b6103c4610e49565b6103e3610ea6565b610481610eb5565b6103ce610ebe565b6103e3610ec4565b6103e3610ed3565b6103ce610ee2565b6103ce610ee8565b61039b610fd5565b610481611035565b6103c461055536600461240b565b61103e565b6103c46105683660046124ff565b61109f565b6103e3611112565b6103ce611121565b6103e361058b3660046124ff565b611127565b6103ce611134565b6103c46105a636600461240b565b611165565b61039b6111b1565b6103c4611211565b6103ce6112ad565b6103c46112b3565b6103c46105d936600461240b565b611300565b6103e36105ec3660046124ff565b611361565b6103ce61136e565b6103ce611373565b6103ce6113a2565b6103e36113a8565b6103c461061f36600461240b565b6113b7565b6103c4611477565b6103e361159c565b6103e36106423660046124ff565b6115ab565b6060601380548060200260200160405190810160405280929190818152602001828054801561069f57602002820191906000526020600020905b81546001600160a01b03168152600190910190602001808311610681575b5050505050905090565b6106b1610ec4565b6001600160a01b0316336001600160a01b031614806106da57506001546001600160a01b031633145b6106ff5760405162461bcd60e51b81526004016106f69061299c565b60405180910390fd5b6014805460ff1916821515179081905560ff1615156001141561072b57610726600061109f565b610735565b610735600a61109f565b50565b600f546040516370a0823160e01b81526000916001600160a01b0316906370a08231906107699030906004016125be565b60206040518083038186803b15801561078157600080fd5b505afa158015610795573d6000803e3d6000fd5b505050506040513d601f19601f820116820180604052508101906107b99190612517565b905090565b600a546001600160a01b031681565b6060601080548060200260200160405190810160405280929190818152602001828054801561069f576020028201919060005260206000209081546001600160a01b03168152600190910190602001808311610681575050505050905090565b600c546001600160a01b031681565b6002546001600160a01b031681565b6003546001600160a01b031681565b610862610ec4565b6001600160a01b0316336001600160a01b0316148061088b57506001546001600160a01b031633145b6108a75760405162461bcd60e51b81526004016106f69061299c565b606f8111156108c85760405162461bcd60e51b81526004016106f690612887565b600781905561037803600855565b606f81565b6004546001600160a01b031633146109055760405162461bcd60e51b81526004016106f6906128e6565b600061090f611134565b90508181101561098d57600f546001600160a01b0316632e1a7d4d61093484846116cb565b6040518263ffffffff1660e01b81526004016109509190612a5e565b600060405180830381600087803b15801561096a57600080fd5b505af115801561097e573d6000803e3d6000fd5b5050505061098a611134565b90505b818111156109985750805b6109a0610ec4565b6001600160a01b0316326001600160a01b031614806109c257506109c2610c85565b156109e957600454600c546109e4916001600160a01b039182169116836116f8565b610a3e565b6000610a0c612710610a066006548561171790919063ffffffff16565b90611751565b600454909150610a3c906001600160a01b0316610a2984846116cb565b600c546001600160a01b031691906116f8565b505b5050565b60128181548110610a4f57fe5b6000918252602090912001546001600160a01b0316905081565b610a71610ec4565b6001600160a01b0316336001600160a01b03161480610a9a57506001546001600160a01b031633145b610ab65760405162461bcd60e51b81526004016106f69061299c565b610abe611783565b610ac66117f4565b610ace611211565b565b60095460ff1615610b8257600960019054906101000a90046001600160a01b03166001600160a01b0316633de39c116040518163ffffffff1660e01b8152600401602060405180830381600087803b158015610b2b57600080fd5b505af1158015610b3f573d6000803e3d6000fd5b505050506040513d601f19601f82011682018060405250810190610b639190612517565b3a1115610b825760405162461bcd60e51b81526004016106f69061293b565b610ace60006118bd565b610b94610ec4565b6001600160a01b0316336001600160a01b03161480610bbd57506001546001600160a01b031633145b610bd95760405162461bcd60e51b81526004016106f69061299c565b610be1610e49565b600f546001600160a01b0316632e1a7d4d610bfa610738565b6040518263ffffffff1660e01b8152600401610c169190612a5e565b600060405180830381600087803b158015610c3057600080fd5b505af1158015610c44573d6000803e3d6000fd5b50505050565b61271081565b60145460ff1615610ace576004546001600160a01b03163314610b825760405162461bcd60e51b81526004016106f6906128e6565b600054600160a01b900460ff1690565b600d546001600160a01b031681565b610735816118bd565b600f546001600160a01b031681565b610cc4611a21565b6001600160a01b0316610cd5610ec4565b6001600160a01b031614610cfb5760405162461bcd60e51b81526004016106f690612906565b600480546001600160a01b0319166001600160a01b0392909216919091179055565b60095461010090046001600160a01b031681565b610d39611a21565b6001600160a01b0316610d4a610ec4565b6001600160a01b031614610d705760405162461bcd60e51b81526004016106f690612906565b600080546040516001600160a01b03909116907f8be0079c531659141344cd1fd0a4f28419497f9722a3daafe3b4186f6b6457e0908390a3600080546001600160a01b0319169055565b60006107b9610dc7610738565b610dcf611134565b90611a25565b610ddd610ec4565b6001600160a01b0316336001600160a01b03161480610e0657506001546001600160a01b031633145b610e225760405162461bcd60e51b81526004016106f69061299c565b600180546001600160a01b0319166001600160a01b0392909216919091179055565b607081565b610e51610ec4565b6001600160a01b0316336001600160a01b03161480610e7a57506001546001600160a01b031633145b610e965760405162461bcd60e51b81526004016106f69061299c565b610e9e611a4a565b610ace611aab565b600e546001600160a01b031681565b60145460ff1681565b60065481565b6000546001600160a01b031690565b6005546001600160a01b031681565b60075481565b600080610ef3611373565b905060008115610fa25760035460405163d06ca61f60e01b81526001600160a01b039091169063d06ca61f90610f30908590601090600401612a67565b60006040518083038186803b158015610f4857600080fd5b505afa925050508015610f7d57506040513d6000823e601f3d908101601f19168201604052610f7a9190810190612432565b60015b610f8657610fa2565b80600182510381518110610f9657fe5b60200260200101519150505b610fce6103e8610a06600754610fc86103e8610a06602d8861171790919063ffffffff16565b90611717565b9250505090565b6060601280548060200260200160405190810160405280929190818152602001828054801561069f576020028201919060005260206000209081546001600160a01b03168152600190910190602001808311610681575050505050905090565b60095460ff1681565b611046611a21565b6001600160a01b0316611057610ec4565b6001600160a01b03161461107d5760405162461bcd60e51b81526004016106f690612906565b600580546001600160a01b0319166001600160a01b0392909216919091179055565b6110a7610ec4565b6001600160a01b0316336001600160a01b031614806110d057506001546001600160a01b031633145b6110ec5760405162461bcd60e51b81526004016106f69061299c565b603281111561110d5760405162461bcd60e51b81526004016106f690612887565b600655565b6001546001600160a01b031681565b6103e881565b60108181548110610a4f57fe5b600c546040516370a0823160e01b81526000916001600160a01b0316906370a08231906107699030906004016125be565b6002546001600160a01b0316331461118f5760405162461bcd60e51b81526004016106f690612707565b600280546001600160a01b0319166001600160a01b0392909216919091179055565b6060601180548060200260200160405190810160405280929190818152602001828054801561069f576020028201919060005260206000209081546001600160a01b03168152600190910190602001808311610681575050505050905090565b611219610c85565b156112365760405162461bcd60e51b81526004016106f69061285d565b6000611240611134565b9050801561073557600f5460405163534a7e1d60e11b81526001600160a01b039091169063a694fc3a90611278908490600401612a5e565b600060405180830381600087803b15801561129257600080fd5b505af11580156112a6573d6000803e3d6000fd5b5050505050565b60085481565b6112bb610ec4565b6001600160a01b0316336001600160a01b031614806112e457506001546001600160a01b031633145b610b825760405162461bcd60e51b81526004016106f69061299c565b611308611a21565b6001600160a01b0316611319610ec4565b6001600160a01b03161461133f5760405162461bcd60e51b81526004016106f690612906565b600380546001600160a01b0319166001600160a01b0392909216919091179055565b60118181548110610a4f57fe5b603281565b600f546040516246613160e11b81526000916001600160a01b031690628cc262906107699030906004016125be565b60155481565b600b546001600160a01b031681565b6113bf611a21565b6001600160a01b03166113d0610ec4565b6001600160a01b0316146113f65760405162461bcd60e51b81526004016106f690612906565b6001600160a01b03811661141c5760405162461bcd60e51b81526004016106f69061272c565b600080546040516001600160a01b03808516939216917f8be0079c531659141344cd1fd0a4f28419497f9722a3daafe3b4186f6b6457e091a3600080546001600160a01b0319166001600160a01b0392909216919091179055565b6004546001600160a01b031633146114a15760405162461bcd60e51b81526004016106f6906128e6565b600f546001600160a01b0316632e1a7d4d6114ba610738565b6040518263ffffffff1660e01b81526004016114d69190612a5e565b600060405180830381600087803b1580156114f057600080fd5b505af1158015611504573d6000803e3d6000fd5b505050506000611512611134565b600c546004805460405163a9059cbb60e01b81529394506001600160a01b039283169363a9059cbb9361154a93921691869101612635565b602060405180830381600087803b15801561156457600080fd5b505af1158015611578573d6000803e3d6000fd5b505050506040513d601f19601f82011682018060405250810190610a3e91906124e3565b6004546001600160a01b031681565b60138181548110610a4f57fe5b8015806116405750604051636eb1769f60e11b81526001600160a01b0384169063dd62ed3e906115ee90309086906004016125d2565b60206040518083038186803b15801561160657600080fd5b505afa15801561161a573d6000803e3d6000fd5b505050506040513d601f19601f8201168201806040525081019061163e9190612517565b155b61165c5760405162461bcd60e51b81526004016106f690612a08565b610a3c8363095ea7b360e01b848460405160240161167b929190612635565b60408051601f198184030181529190526020810180516001600160e01b03166001600160e01b031990931692909217909152611b34565b60606116c18484600085611bc3565b90505b9392505050565b6000828211156116ed5760405162461bcd60e51b81526004016106f6906127a9565b508082035b92915050565b610a3c8363a9059cbb60e01b848460405160240161167b929190612635565b600082611726575060006116f2565b8282028284828161173357fe5b04146116c45760405162461bcd60e51b81526004016106f6906128a5565b60008082116117725760405162461bcd60e51b81526004016106f690612826565b81838161177b57fe5b049392505050565b61178b610c85565b6117a75760405162461bcd60e51b81526004016106f6906126d9565b6000805460ff60a01b191690557f5db9ee0a495bf2e6ff9c91a7834c1ba4fdd244a5e8aa4e537bd38aeae4b073aa6117dd611a21565b6040516117ea91906125be565b60405180910390a1565b600f54600c54611813916001600160a01b0391821691166000196115b8565b600354600b54611832916001600160a01b0391821691166000196115b8565b600d546001600160a01b031615610ace57600354600d54611861916001600160a01b03918216911660006115b8565b600354600d54611880916001600160a01b0391821691166000196115b8565b600354600e5461189e916001600160a01b03918216911660006115b8565b600354600e54610ace916001600160a01b0391821691166000196115b8565b6118c5610c85565b156118e25760405162461bcd60e51b81526004016106f69061285d565b600f60009054906101000a90046001600160a01b03166001600160a01b0316633d18b9126040518163ffffffff1660e01b8152600401600060405180830381600087803b15801561193257600080fd5b505af1158015611946573d6000803e3d6000fd5b5050600b546040516370a0823160e01b8152600093506001600160a01b0390911691506370a082319061197d9030906004016125be565b60206040518083038186803b15801561199557600080fd5b505afa1580156119a9573d6000803e3d6000fd5b505050506040513d601f19601f820116820180604052508101906119cd9190612517565b90508015610a3e576119de82611c84565b6119e6611f02565b6119ee611211565b4260155560405133907f577a37fdb49a88d66684922c6f913df5239b4f214b2b97c53ef8e3bbb2034cb590600090a25050565b3390565b6000828201838110156116c45760405162461bcd60e51b81526004016106f690612772565b611a52610c85565b15611a6f5760405162461bcd60e51b81526004016106f69061285d565b6000805460ff60a01b1916600160a01b1790557f62e78cea01bee320cd4e420270b5ea74000d11b0c9f74754ebdbfc544b05a2586117dd611a21565b600f54600c54611ac9916001600160a01b03918216911660006115b8565b600354600b54611ae7916001600160a01b03918216911660006115b8565b600d546001600160a01b031615610ace57600354600d54611b16916001600160a01b03918216911660006115b8565b600354600e54610ace916001600160a01b03918216911660006115b8565b6060611b89826040518060400160405280602081526020017f5361666545524332303a206c6f772d6c6576656c2063616c6c206661696c6564815250856001600160a01b03166116b29092919063ffffffff16565b805190915015610a3c5780806020019051810190611ba791906124e3565b610a3c5760405162461bcd60e51b81526004016106f6906129be565b606082471015611be55760405162461bcd60e51b81526004016106f6906127e0565b611bee8561204c565b611c0a5760405162461bcd60e51b81526004016106f690612965565b60006060866001600160a01b03168587604051611c2791906125a2565b60006040518083038185875af1925050503d8060008114611c64576040519150601f19603f3d011682016040523d82523d6000602084013e611c69565b606091505b5091509150611c79828286612052565b979650505050505050565b600b546040516370a0823160e01b8152600091611d14916103e891610a0691602d916001600160a01b0316906370a0823190611cc49030906004016125be565b60206040518083038186803b158015611cdc57600080fd5b505afa158015611cf0573d6000803e3d6000fd5b505050506040513d601f19601f82011682018060405250810190610fc89190612517565b6003546040516338ed173960e01b81529192506001600160a01b0316906338ed173990611d4f90849060009060109030904290600401612a80565b600060405180830381600087803b158015611d6957600080fd5b505af1158015611d7d573d6000803e3d6000fd5b505050506040513d6000823e601f3d908101601f19168201604052611da59190810190612432565b50600a546040516370a0823160e01b81526000916001600160a01b0316906370a0823190611dd79030906004016125be565b60206040518083038186803b158015611def57600080fd5b505afa158015611e03573d6000803e3d6000fd5b505050506040513d601f19601f82011682018060405250810190611e279190612517565b90506000611e466103e8610a066007548561171790919063ffffffff16565b90506001600160a01b03841615611e7357600a54611e6e906001600160a01b031685836116f8565b611e8a565b600a54611e8a906001600160a01b031632836116f8565b6000611ea76103e8610a066008548661171790919063ffffffff16565b600554600a54919250611ec7916001600160a01b039081169116836116f8565b6000611eda6103e8610a06866070611717565b600254600a54919250611efa916001600160a01b039081169116836116f8565b505050505050565b600c54600b546001600160a01b0390811691161415611f2057610ace565b6011546001101561204457600b546040516370a0823160e01b81526000916001600160a01b0316906370a0823190611f5c9030906004016125be565b60206040518083038186803b158015611f7457600080fd5b505afa158015611f88573d6000803e3d6000fd5b505050506040513d601f19601f82011682018060405250810190611fac9190612517565b6003546040516338ed173960e01b81529192506001600160a01b0316906338ed173990611fe790849060009060119030904290600401612a80565b600060405180830381600087803b15801561200157600080fd5b505af1158015612015573d6000803e3d6000fd5b505050506040513d6000823e601f3d908101601f1916820160405261203d9190810190612432565b5050610ace565b610ace61208b565b3b151590565b606083156120615750816116c4565b8251156120715782518084602001fd5b8160405162461bcd60e51b81526004016106f691906126a6565b600b546040516370a0823160e01b8152600091612113916002916001600160a01b0316906370a08231906120c39030906004016125be565b60206040518083038186803b1580156120db57600080fd5b505afa1580156120ef573d6000803e3d6000fd5b505050506040513d601f19601f82011682018060405250810190610a069190612517565b600b54600d549192506001600160a01b039182169116146121c0576003546040516338ed173960e01b81526001600160a01b03909116906338ed17399061216890849060009060129030904290600401612a80565b600060405180830381600087803b15801561218257600080fd5b505af1158015612196573d6000803e3d6000fd5b505050506040513d6000823e601f3d908101601f191682016040526121be9190810190612432565b505b600b54600e546001600160a01b0390811691161461226a576003546040516338ed173960e01b81526001600160a01b03909116906338ed17399061221290849060009060139030904290600401612a80565b600060405180830381600087803b15801561222c57600080fd5b505af1158015612240573d6000803e3d6000fd5b505050506040513d6000823e601f3d908101601f191682016040526122689190810190612432565b505b600d546040516370a0823160e01b81526000916001600160a01b0316906370a082319061229b9030906004016125be565b60206040518083038186803b1580156122b357600080fd5b505afa1580156122c7573d6000803e3d6000fd5b505050506040513d601f19601f820116820180604052508101906122eb9190612517565b600e546040516370a0823160e01b81529192506000916001600160a01b03909116906370a08231906123219030906004016125be565b60206040518083038186803b15801561233957600080fd5b505afa15801561234d573d6000803e3d6000fd5b505050506040513d601f19601f820116820180604052508101906123719190612517565b600354600d54600e5460405162e8e33760e81b81529394506001600160a01b039283169363e8e33700936123b9938116921690879087906001908190309042906004016125ec565b606060405180830381600087803b1580156123d357600080fd5b505af11580156123e7573d6000803e3d6000fd5b505050506040513d601f19601f82011682018060405250810190611efa919061252f565b60006020828403121561241c578081fd5b81356001600160a01b03811681146116c4578182fd5b60006020808385031215612444578182fd5b825167ffffffffffffffff81111561245a578283fd5b8301601f8101851361246a578283fd5b805161247d61247882612ae3565b612abc565b8181528381019083850185840285018601891015612499578687fd5b8694505b838510156124bb57805183526001949094019391850191850161249d565b50979650505050505050565b6000602082840312156124d8578081fd5b81356116c481612b2f565b6000602082840312156124f4578081fd5b81516116c481612b2f565b600060208284031215612510578081fd5b5035919050565b600060208284031215612528578081fd5b5051919050565b600080600060608486031215612543578182fd5b8351925060208401519150604084015190509250925092565b6000815480845260208085019450838352808320835b838110156125975781546001600160a01b031687529582019560019182019101612572565b509495945050505050565b600082516125b4818460208701612b03565b9190910192915050565b6001600160a01b0391909116815260200190565b6001600160a01b0392831681529116602082015260400190565b6001600160a01b039889168152968816602088015260408701959095526060860193909352608085019190915260a084015290921660c082015260e08101919091526101000190565b6001600160a01b03929092168252602082015260400190565b6020808252825182820181905260009190848201906040850190845b8181101561268f5783516001600160a01b03168352928401929184019160010161266a565b50909695505050505050565b901515815260200190565b60006020825282518060208401526126c5816040850160208701612b03565b601f01601f19169190910160400192915050565b60208082526014908201527314185d5cd8589b194e881b9bdd081c185d5cd95960621b604082015260600190565b6020808252600b908201526a085cdd1c985d1959da5cdd60aa1b604082015260600190565b60208082526026908201527f4f776e61626c653a206e6577206f776e657220697320746865207a65726f206160408201526564647265737360d01b606082015260800190565b6020808252601b908201527f536166654d6174683a206164646974696f6e206f766572666c6f770000000000604082015260600190565b6020808252601e908201527f536166654d6174683a207375627472616374696f6e206f766572666c6f770000604082015260600190565b60208082526026908201527f416464726573733a20696e73756666696369656e742062616c616e636520666f6040820152651c8818d85b1b60d21b606082015260800190565b6020808252601a908201527f536166654d6174683a206469766973696f6e206279207a65726f000000000000604082015260600190565b60208082526010908201526f14185d5cd8589b194e881c185d5cd95960821b604082015260600190565b6020808252600490820152630216361760e41b604082015260600190565b60208082526021908201527f536166654d6174683a206d756c7469706c69636174696f6e206f766572666c6f6040820152607760f81b606082015260800190565b602080825260069082015265085d985d5b1d60d21b604082015260600190565b6020808252818101527f4f776e61626c653a2063616c6c6572206973206e6f7420746865206f776e6572604082015260600190565b60208082526010908201526f67617320697320746f6f20686967682160801b604082015260600190565b6020808252601d908201527f416464726573733a2063616c6c20746f206e6f6e2d636f6e7472616374000000604082015260600190565b60208082526008908201526710b6b0b730b3b2b960c11b604082015260600190565b6020808252602a908201527f5361666545524332303a204552433230206f7065726174696f6e20646964206e6040820152691bdd081cdd58d8d9595960b21b606082015260800190565b60208082526036908201527f5361666545524332303a20617070726f76652066726f6d206e6f6e2d7a65726f60408201527520746f206e6f6e2d7a65726f20616c6c6f77616e636560501b606082015260800190565b90815260200190565b6000838252604060208301526116c1604083018461255c565b600086825285602083015260a06040830152612a9f60a083018661255c565b6001600160a01b0394909416606083015250608001529392505050565b60405181810167ffffffffffffffff81118282101715612adb57600080fd5b604052919050565b600067ffffffffffffffff821115612af9578081fd5b5060209081020190565b60005b83811015612b1e578181015183820152602001612b06565b83811115610c445750506000910152565b801515811461073557600080fdfea26469706673582212205678791f1ad75435ecb1de502a4e5b2eeb26b2f67e41e2a34e0b23872357137364736f6c634300060c0033",
  "linkReferences": {},
  "deployedLinkReferences": {}
}