{
  "_format": "hh-sol-artifact-1",
  "contractName": "StrategyCommonChefReferrerLPBsc",
  "sourceName": "contracts/BIFI/strategies/Common/StrategyCommonChefReferrerLPBsc.sol",
  "abi": [
    {
      "inputs": [
        {
          "internalType": "address",
          "name": "_want",
          "type": "address"
        },
        {
          "internalType": "uint256",
          "name": "_poolId",
          "type": "uint256"
        },
        {
          "internalType": "address",
          "name": "_chef",
          "type": "address"
        },
        {
          "internalType": "address",
          "name": "_referrer",
          "type": "address"
        },
        {
          "internalType": "address",
          "name": "_vault",
          "type": "address"
        },
        {
          "internalType": "address",
          "name": "_unirouter",
          "type": "address"
        },
        {
          "internalType": "address",
          "name": "_keeper",
          "type": "address"
        },
        {
          "internalType": "address",
          "name": "_strategist",
          "type": "address"
        },
        {
          "internalType": "address",
          "name": "_beefyFeeRecipient",
          "type": "address"
        },
        {
          "internalType": "address[]",
          "name": "_outputToNativeRoute",
          "type": "address[]"
        },
        {
          "internalType": "address[]",
          "name": "_outputToLp0Route",
          "type": "address[]"
        },
        {
          "internalType": "address[]",
          "name": "_outputToLp1Route",
          "type": "address[]"
        }
      ],
      "stateMutability": "nonpayable",
      "type": "constructor"
    },
    {
      "anonymous": false,
      "inputs": [
        {
          "indexed": true,
          "internalType": "address",
          "name": "previousOwner",
          "type": "address"
        },
        {
          "indexed": true,
          "internalType": "address",
          "name": "newOwner",
          "type": "address"
        }
      ],
      "name": "OwnershipTransferred",
      "type": "event"
    },
    {
      "anonymous": false,
      "inputs": [
        {
          "indexed": false,
          "internalType": "address",
          "name": "account",
          "type": "address"
        }
      ],
      "name": "Paused",
      "type": "event"
    },
    {
      "anonymous": false,
      "inputs": [
        {
          "indexed": true,
          "internalType": "address",
          "name": "harvester",
          "type": "address"
        }
      ],
      "name": "StratHarvest",
      "type": "event"
    },
    {
      "anonymous": false,
      "inputs": [
        {
          "indexed": false,
          "internalType": "address",
          "name": "account",
          "type": "address"
        }
      ],
      "name": "Unpaused",
      "type": "event"
    },
    {
      "inputs": [],
      "name": "MAX_CALL_FEE",
      "outputs": [
        {
          "internalType": "uint256",
          "name": "",
          "type": "uint256"
        }
      ],
      "stateMutability": "view",
      "type": "function"
    },
    {
      "inputs": [],
      "name": "MAX_FEE",
      "outputs": [
        {
          "internalType": "uint256",
          "name": "",
          "type": "uint256"
        }
      ],
      "stateMutability": "view",
      "type": "function"
    },
    {
      "inputs": [],
      "name": "STRATEGIST_FEE",
      "outputs": [
        {
          "internalType": "uint256",
          "name": "",
          "type": "uint256"
        }
      ],
      "stateMutability": "view",
      "type": "function"
    },
    {
      "inputs": [],
      "name": "WITHDRAWAL_FEE_CAP",
      "outputs": [
        {
          "internalType": "uint256",
          "name": "",
          "type": "uint256"
        }
      ],
      "stateMutability": "view",
      "type": "function"
    },
    {
      "inputs": [],
      "name": "WITHDRAWAL_MAX",
      "outputs": [
        {
          "internalType": "uint256",
          "name": "",
          "type": "uint256"
        }
      ],
      "stateMutability": "view",
      "type": "function"
    },
    {
      "inputs": [],
      "name": "balanceOf",
      "outputs": [
        {
          "internalType": "uint256",
          "name": "",
          "type": "uint256"
        }
      ],
      "stateMutability": "view",
      "type": "function"
    },
    {
      "inputs": [],
      "name": "balanceOfPool",
      "outputs": [
        {
          "internalType": "uint256",
          "name": "",
          "type": "uint256"
        }
      ],
      "stateMutability": "view",
      "type": "function"
    },
    {
      "inputs": [],
      "name": "balanceOfWant",
      "outputs": [
        {
          "internalType": "uint256",
          "name": "",
          "type": "uint256"
        }
      ],
      "stateMutability": "view",
      "type": "function"
    },
    {
      "inputs": [],
      "name": "beefyFee",
      "outputs": [
        {
          "internalType": "uint256",
          "name": "",
          "type": "uint256"
        }
      ],
      "stateMutability": "view",
      "type": "function"
    },
    {
      "inputs": [],
      "name": "beefyFeeRecipient",
      "outputs": [
        {
          "internalType": "address",
          "name": "",
          "type": "address"
        }
      ],
      "stateMutability": "view",
      "type": "function"
    },
    {
      "inputs": [],
      "name": "beforeDeposit",
      "outputs": [],
      "stateMutability": "nonpayable",
      "type": "function"
    },
    {
      "inputs": [],
      "name": "callFee",
      "outputs": [
        {
          "internalType": "uint256",
          "name": "",
          "type": "uint256"
        }
      ],
      "stateMutability": "view",
      "type": "function"
    },
    {
      "inputs": [],
      "name": "chef",
      "outputs": [
        {
          "internalType": "address",
          "name": "",
          "type": "address"
        }
      ],
      "stateMutability": "view",
      "type": "function"
    },
    {
      "inputs": [],
      "name": "deposit",
      "outputs": [],
      "stateMutability": "nonpayable",
      "type": "function"
    },
    {
      "inputs": [],
      "name": "gasprice",
      "outputs": [
        {
          "internalType": "address",
          "name": "",
          "type": "address"
        }
      ],
      "stateMutability": "view",
      "type": "function"
    },
    {
      "inputs": [],
      "name": "harvest",
      "outputs": [],
      "stateMutability": "nonpayable",
      "type": "function"
    },
    {
      "inputs": [
        {
          "internalType": "address",
          "name": "callFeeRecipient",
          "type": "address"
        }
      ],
      "name": "harvestWithCallFeeRecipient",
      "outputs": [],
      "stateMutability": "nonpayable",
      "type": "function"
    },
    {
      "inputs": [],
      "name": "keeper",
      "outputs": [
        {
          "internalType": "address",
          "name": "",
          "type": "address"
        }
      ],
      "stateMutability": "view",
      "type": "function"
    },
    {
      "inputs": [],
      "name": "lastHarvest",
      "outputs": [
        {
          "internalType": "uint256",
          "name": "",
          "type": "uint256"
        }
      ],
      "stateMutability": "view",
      "type": "function"
    },
    {
      "inputs": [],
      "name": "lpToken0",
      "outputs": [
        {
          "internalType": "address",
          "name": "",
          "type": "address"
        }
      ],
      "stateMutability": "view",
      "type": "function"
    },
    {
      "inputs": [],
      "name": "lpToken1",
      "outputs": [
        {
          "internalType": "address",
          "name": "",
          "type": "address"
        }
      ],
      "stateMutability": "view",
      "type": "function"
    },
    {
      "inputs": [],
      "name": "managerHarvest",
      "outputs": [],
      "stateMutability": "nonpayable",
      "type": "function"
    },
    {
      "inputs": [],
      "name": "native",
      "outputs": [
        {
          "internalType": "address",
          "name": "",
          "type": "address"
        }
      ],
      "stateMutability": "view",
      "type": "function"
    },
    {
      "inputs": [],
      "name": "output",
      "outputs": [
        {
          "internalType": "address",
          "name": "",
          "type": "address"
        }
      ],
      "stateMutability": "view",
      "type": "function"
    },
    {
      "inputs": [],
      "name": "outputToLp0",
      "outputs": [
        {
          "internalType": "address[]",
          "name": "",
          "type": "address[]"
        }
      ],
      "stateMutability": "view",
      "type": "function"
    },
    {
      "inputs": [
        {
          "internalType": "uint256",
          "name": "",
          "type": "uint256"
        }
      ],
      "name": "outputToLp0Route",
      "outputs": [
        {
          "internalType": "address",
          "name": "",
          "type": "address"
        }
      ],
      "stateMutability": "view",
      "type": "function"
    },
    {
      "inputs": [],
      "name": "outputToLp1",
      "outputs": [
        {
          "internalType": "address[]",
          "name": "",
          "type": "address[]"
        }
      ],
      "stateMutability": "view",
      "type": "function"
    },
    {
      "inputs": [
        {
          "internalType": "uint256",
          "name": "",
          "type": "uint256"
        }
      ],
      "name": "outputToLp1Route",
      "outputs": [
        {
          "internalType": "address",
          "name": "",
          "type": "address"
        }
      ],
      "stateMutability": "view",
      "type": "function"
    },
    {
      "inputs": [],
      "name": "outputToNative",
      "outputs": [
        {
          "internalType": "address[]",
          "name": "",
          "type": "address[]"
        }
      ],
      "stateMutability": "view",
      "type": "function"
    },
    {
      "inputs": [
        {
          "internalType": "uint256",
          "name": "",
          "type": "uint256"
        }
      ],
      "name": "outputToNativeRoute",
      "outputs": [
        {
          "internalType": "address",
          "name": "",
          "type": "address"
        }
      ],
      "stateMutability": "view",
      "type": "function"
    },
    {
      "inputs": [],
      "name": "owner",
      "outputs": [
        {
          "internalType": "address",
          "name": "",
          "type": "address"
        }
      ],
      "stateMutability": "view",
      "type": "function"
    },
    {
      "inputs": [],
      "name": "panic",
      "outputs": [],
      "stateMutability": "nonpayable",
      "type": "function"
    },
    {
      "inputs": [],
      "name": "pause",
      "outputs": [],
      "stateMutability": "nonpayable",
      "type": "function"
    },
    {
      "inputs": [],
      "name": "paused",
      "outputs": [
        {
          "internalType": "bool",
          "name": "",
          "type": "bool"
        }
      ],
      "stateMutability": "view",
      "type": "function"
    },
    {
      "inputs": [],
      "name": "poolId",
      "outputs": [
        {
          "internalType": "uint256",
          "name": "",
          "type": "uint256"
        }
      ],
      "stateMutability": "view",
      "type": "function"
    },
    {
      "inputs": [],
      "name": "referrer",
      "outputs": [
        {
          "internalType": "address",
          "name": "",
          "type": "address"
        }
      ],
      "stateMutability": "view",
      "type": "function"
    },
    {
      "inputs": [],
      "name": "renounceOwnership",
      "outputs": [],
      "stateMutability": "nonpayable",
      "type": "function"
    },
    {
      "inputs": [],
      "name": "retireStrat",
      "outputs": [],
      "stateMutability": "nonpayable",
      "type": "function"
    },
    {
      "inputs": [
        {
          "internalType": "address",
          "name": "_beefyFeeRecipient",
          "type": "address"
        }
      ],
      "name": "setBeefyFeeRecipient",
      "outputs": [],
      "stateMutability": "nonpayable",
      "type": "function"
    },
    {
      "inputs": [
        {
          "internalType": "uint256",
          "name": "_fee",
          "type": "uint256"
        }
      ],
      "name": "setCallFee",
      "outputs": [],
      "stateMutability": "nonpayable",
      "type": "function"
    },
    {
      "inputs": [
        {
          "internalType": "address",
          "name": "_keeper",
          "type": "address"
        }
      ],
      "name": "setKeeper",
      "outputs": [],
      "stateMutability": "nonpayable",
      "type": "function"
    },
    {
      "inputs": [
        {
          "internalType": "address",
          "name": "_strategist",
          "type": "address"
        }
      ],
      "name": "setStrategist",
      "outputs": [],
      "stateMutability": "nonpayable",
      "type": "function"
    },
    {
      "inputs": [
        {
          "internalType": "address",
          "name": "_unirouter",
          "type": "address"
        }
      ],
      "name": "setUnirouter",
      "outputs": [],
      "stateMutability": "nonpayable",
      "type": "function"
    },
    {
      "inputs": [
        {
          "internalType": "address",
          "name": "_vault",
          "type": "address"
        }
      ],
      "name": "setVault",
      "outputs": [],
      "stateMutability": "nonpayable",
      "type": "function"
    },
    {
      "inputs": [
        {
          "internalType": "uint256",
          "name": "_fee",
          "type": "uint256"
        }
      ],
      "name": "setWithdrawalFee",
      "outputs": [],
      "stateMutability": "nonpayable",
      "type": "function"
    },
    {
      "inputs": [],
      "name": "shouldGasThrottle",
      "outputs": [
        {
          "internalType": "bool",
          "name": "",
          "type": "bool"
        }
      ],
      "stateMutability": "view",
      "type": "function"
    },
    {
      "inputs": [],
      "name": "strategist",
      "outputs": [
        {
          "internalType": "address",
          "name": "",
          "type": "address"
        }
      ],
      "stateMutability": "view",
      "type": "function"
    },
    {
      "inputs": [
        {
          "internalType": "address",
          "name": "newOwner",
          "type": "address"
        }
      ],
      "name": "transferOwnership",
      "outputs": [],
      "stateMutability": "nonpayable",
      "type": "function"
    },
    {
      "inputs": [],
      "name": "unirouter",
      "outputs": [
        {
          "internalType": "address",
          "name": "",
          "type": "address"
        }
      ],
      "stateMutability": "view",
      "type": "function"
    },
    {
      "inputs": [],
      "name": "unpause",
      "outputs": [],
      "stateMutability": "nonpayable",
      "type": "function"
    },
    {
      "inputs": [],
      "name": "vault",
      "outputs": [
        {
          "internalType": "address",
          "name": "",
          "type": "address"
        }
      ],
      "stateMutability": "view",
      "type": "function"
    },
    {
      "inputs": [],
      "name": "want",
      "outputs": [
        {
          "internalType": "address",
          "name": "",
          "type": "address"
        }
      ],
      "stateMutability": "view",
      "type": "function"
    },
    {
      "inputs": [
        {
          "internalType": "uint256",
          "name": "_amount",
          "type": "uint256"
        }
      ],
      "name": "withdraw",
      "outputs": [],
      "stateMutability": "nonpayable",
      "type": "function"
    },
    {
      "inputs": [],
      "name": "withdrawalFee",
      "outputs": [
        {
          "internalType": "uint256",
          "name": "",
          "type": "uint256"
        }
      ],
      "stateMutability": "view",
      "type": "function"
    }
  ],
  "bytecode": "0x6080604052600a600655606f6007556103096008556014805460ff60a01b1916600160a01b179055601580546001600160a01b03191673a43509661141f254f54d9a326e8ec851a0b953071790553480156200005a57600080fd5b506040516200395b3803806200395b83398181016040526101808110156200008157600080fd5b815160208301516040808501516060860151608087015160a088015160c089015160e08a01516101008b01516101208c01805198519a9c999b979a969995989497939692959194929382019284640100000000821115620000e157600080fd5b908301906020820185811115620000f757600080fd5b82518660208202830111640100000000821117156200011557600080fd5b82525081516020918201928201910280838360005b83811015620001445781810151838201526020016200012a565b50505050905001604052602001805160405193929190846401000000008211156200016e57600080fd5b9083019060208201858111156200018457600080fd5b8251866020820283011164010000000082111715620001a257600080fd5b82525081516020918201928201910280838360005b83811015620001d1578181015183820152602001620001b7565b5050505090500160405260200180516040519392919084640100000000821115620001fb57600080fd5b9083019060208201858111156200021157600080fd5b82518660208202830111640100000000821117156200022f57600080fd5b82525081516020918201928201910280838360005b838110156200025e57818101518382015260200162000244565b505050509050016040525050508b8b8b8b8b8b8b8b8b8b8b8b8585888a8760006200028e6200081b60201b60201c565b600080546001600160a01b0319166001600160a01b0383169081178255604051929350917f8be0079c531659141344cd1fd0a4f28419497f9722a3daafe3b4186f6b6457e0908290a35060008060146101000a81548160ff02191690831515021790555084600160006101000a8154816001600160a01b0302191690836001600160a01b0316021790555083600260006101000a8154816001600160a01b0302191690836001600160a01b0316021790555082600360006101000a8154816001600160a01b0302191690836001600160a01b0316021790555081600460006101000a8154816001600160a01b0302191690836001600160a01b0316021790555080600560006101000a8154816001600160a01b0302191690836001600160a01b0316021790555050505050508b600b60006101000a8154816001600160a01b0302191690836001600160a01b031602179055508a600f8190555089600e60006101000a8154816001600160a01b0302191690836001600160a01b0316021790555088601460006101000a8154816001600160a01b0302191690836001600160a01b03160217905550826000815181106200044457fe5b6020026020010151600a60006101000a8154816001600160a01b0302191690836001600160a01b03160217905550826001845103815181106200048357fe5b602090810291909101810151600980546001600160a01b0319166001600160a01b039092169190911790558351620004c2916011919086019062000d40565b50600b60009054906101000a90046001600160a01b03166001600160a01b0316630dfe16816040518163ffffffff1660e01b815260040160206040518083038186803b1580156200051257600080fd5b505afa15801562000527573d6000803e3d6000fd5b505050506040513d60208110156200053e57600080fd5b5051600c80546001600160a01b0319166001600160a01b03928316179055600a54835191169083906000906200057057fe5b60200260200101516001600160a01b031614620005d4576040805162461bcd60e51b815260206004820152601d60248201527f6f7574707574546f4c7030526f7574655b305d20213d206f7574707574000000604482015290519081900360640190fd5b600c5482516001600160a01b039091169083906000198101908110620005f657fe5b60200260200101516001600160a01b031614620006455760405162461bcd60e51b8152600401808060200182810382526022815260200180620038d96022913960400191505060405180910390fd5b81516200065a90601290602085019062000d40565b50600b60009054906101000a90046001600160a01b03166001600160a01b031663d21220a76040518163ffffffff1660e01b815260040160206040518083038186803b158015620006aa57600080fd5b505afa158015620006bf573d6000803e3d6000fd5b505050506040513d6020811015620006d657600080fd5b5051600d80546001600160a01b0319166001600160a01b03928316179055600a54825191169082906000906200070857fe5b60200260200101516001600160a01b0316146200076c576040805162461bcd60e51b815260206004820152601d60248201527f6f7574707574546f4c7031526f7574655b305d20213d206f7574707574000000604482015290519081900360640190fd5b600d5481516001600160a01b0390911690829060001981019081106200078e57fe5b60200260200101516001600160a01b031614620007dd5760405162461bcd60e51b8152600401808060200182810382526022815260200180620038916022913960400191505060405180910390fd5b8051620007f290601390602084019062000d40565b50620007fd6200081f565b50505050505050505050505050505050505050505050505062000dcb565b3390565b600e54600b546200084c916001600160a01b0391821691166000196200092d602090811b6200191f17901c565b600354600a5462000879916001600160a01b0391821691166000196200092d602090811b6200191f17901c565b600354600c54620008a5916001600160a01b03918216911660006200092d602090811b6200191f17901c565b600354600c54620008d2916001600160a01b0391821691166000196200092d602090811b6200191f17901c565b600354600d54620008fe916001600160a01b03918216911660006200092d602090811b6200191f17901c565b600354600d546200092b916001600160a01b0391821691166000196200092d602090811b6200191f17901c565b565b801580620009b7575060408051636eb1769f60e11b81523060048201526001600160a01b03848116602483015291519185169163dd62ed3e91604480820192602092909190829003018186803b1580156200098757600080fd5b505afa1580156200099c573d6000803e3d6000fd5b505050506040513d6020811015620009b357600080fd5b5051155b620009f45760405162461bcd60e51b8152600401808060200182810382526036815260200180620039256036913960400191505060405180910390fd5b604080516001600160a01b038416602482015260448082018490528251808303909101815260649091019091526020810180516001600160e01b0390811663095ea7b360e01b1790915262000a4c91859162000a5116565b505050565b606062000aad826040518060400160405280602081526020017f5361666545524332303a206c6f772d6c6576656c2063616c6c206661696c6564815250856001600160a01b031662000b0d60201b62001a32179092919060201c565b80519091501562000a4c5780806020019051602081101562000ace57600080fd5b505162000a4c5760405162461bcd60e51b815260040180806020018281038252602a815260200180620038fb602a913960400191505060405180910390fd5b606062000b1e848460008562000b28565b90505b9392505050565b60608247101562000b6b5760405162461bcd60e51b8152600401808060200182810382526026815260200180620038b36026913960400191505060405180910390fd5b62000b768562000c90565b62000bc8576040805162461bcd60e51b815260206004820152601d60248201527f416464726573733a2063616c6c20746f206e6f6e2d636f6e7472616374000000604482015290519081900360640190fd5b60006060866001600160a01b031685876040518082805190602001908083835b6020831062000c095780518252601f19909201916020918201910162000be8565b6001836020036101000a03801982511681845116808217855250505050505090500191505060006040518083038185875af1925050503d806000811462000c6d576040519150601f19603f3d011682016040523d82523d6000602084013e62000c72565b606091505b50909250905062000c8582828662000c96565b979650505050505050565b3b151590565b6060831562000ca757508162000b21565b82511562000cb85782518084602001fd5b8160405162461bcd60e51b81526004018080602001828103825283818151815260200191508051906020019080838360005b8381101562000d0457818101518382015260200162000cea565b50505050905090810190601f16801562000d325780820380516001836020036101000a031916815260200191505b509250505060405180910390fd5b82805482825590600052602060002090810192821562000d98579160200282015b8281111562000d9857825182546001600160a01b0319166001600160a01b0390911617825560209092019160019091019062000d61565b5062000da692915062000daa565b5090565b5b8082111562000da65780546001600160a01b031916815560010162000dab565b612ab68062000ddb6000396000f3fe608060405234801561001057600080fd5b50600436106103425760003560e01c80637d38ca65116101b8578063be12a97811610104578063dfbdc437116100a2578063f2fde38b1161007c578063f2fde38b14610688578063fb617787146106ae578063fbfa77cf146106b6578063fd63a887146106be57610342565b8063dfbdc43714610670578063f1a392da14610678578063f20eaeb81461068057610342565b8063d0e30db0116100de578063d0e30db014610632578063d31025891461063a578063d801d94614610642578063d92f3d731461064a57610342565b8063be12a978146105e7578063c1a3d44c14610604578063c7b9d5301461060c57610342565b806390321e1a11610171578063a68833e51161014b578063a68833e514610594578063ac1e5025146105ba578063aced1661146105d7578063bc063e1a146105df57610342565b806390321e1a1461057c578063989ef4e3146105845780639f8b5da11461058c57610342565b80637d38ca651461054c5780638456cb5914610554578063877562b61461055c5780638bc7e8c4146105645780638da5cb5b1461056c5780638e1454591461057457610342565b80633f4ba83a11610292578063623d8bd2116102305780636ec232d31161020a5780636ec232d31461050e578063715018a614610516578063722713f71461051e578063748747e61461052657610342565b8063623d8bd2146104ba5780636817031b146104e057806368447c931461050657610342565b806354518b1a1161026c57806354518b1a14610486578063573fef0a1461048e5780635c975abb146104965780635ee167c0146104b257610342565b80633f4ba83a1461046e5780634641257d146104765780634700d3051461047e57610342565b80631fe4a686116102ff5780632ad5a53f116102d95780632ad5a53f146104245780632e1a7d4d1461042c57806336c6cf21146104495780633e0dc34e1461046657610342565b80631fe4a686146103f5578063257ae0de146103fd578063264658261461040557610342565b80630587f78514610347578063115880861461039f57806311b0b42d146103b957806313e120b1146103dd5780631f1fcd51146103e55780631fc8bc5d146103ed575b600080fd5b61034f6106db565b60408051602080825283518183015283519192839290830191858101910280838360005b8381101561038b578181015183820152602001610373565b505050509050019250505060405180910390f35b6103a761073d565b60408051918252519081900360200190f35b6103c16107c4565b604080516001600160a01b039092168252519081900360200190f35b61034f6107d3565b6103c1610833565b6103c1610842565b6103c1610851565b6103c1610860565b6104226004803603602081101561041b57600080fd5b503561086f565b005b6103a7610929565b6104226004803603602081101561044257600080fd5b503561092e565b6103c16004803603602081101561045f57600080fd5b5035610b9d565b6103a7610bc4565b610422610bca565b610422610c51565b610422610d7d565b6103a7610e5c565b610422610c4f565b61049e610e62565b604080519115158252519081900360200190f35b6103c1610e72565b610422600480360360208110156104d057600080fd5b50356001600160a01b0316610e81565b610422600480360360208110156104f657600080fd5b50356001600160a01b0316610e8d565b6103c1610f11565b6103c1610f20565b610422610f2f565b6103a7610fdb565b6104226004803603602081101561053c57600080fd5b50356001600160a01b0316610ffb565b6103a761108a565b61042261108f565b6103c161110c565b6103a761111b565b6103c1611121565b6103c1611130565b6103a761113f565b61034f611145565b61049e6111a5565b610422600480360360208110156105aa57600080fd5b50356001600160a01b03166111b5565b610422600480360360208110156105d057600080fd5b5035611239565b6103c16112ea565b6103a76112f9565b6103c1600480360360208110156105fd57600080fd5b50356112ff565b6103a761130c565b6104226004803603602081101561062257600080fd5b50356001600160a01b0316611388565b6104226113f7565b6103a761153f565b610422611545565b6104226004803603602081101561066057600080fd5b50356001600160a01b03166115b2565b6103a7611636565b6103a761163b565b6103c1611641565b6104226004803603602081101561069e57600080fd5b50356001600160a01b0316611650565b610422611752565b6103c1611903565b6103c1600480360360208110156106d457600080fd5b5035611912565b6060601380548060200260200160405190810160405280929190818152602001828054801561073357602002820191906000526020600020905b81546001600160a01b03168152600190910190602001808311610715575b5050505050905090565b600e54600f54604080516393f1a40b60e01b81526004810192909252306024830152805160009384936001600160a01b03909116926393f1a40b92604480840193829003018186803b15801561079257600080fd5b505afa1580156107a6573d6000803e3d6000fd5b505050506040513d60408110156107bc57600080fd5b505191505090565b6009546001600160a01b031681565b60606011805480602002602001604051908101604052809291908181526020018280548015610733576020028201919060005260206000209081546001600160a01b03168152600190910190602001808311610715575050505050905090565b600b546001600160a01b031681565b600e546001600160a01b031681565b6002546001600160a01b031681565b6003546001600160a01b031681565b610877611121565b6001600160a01b0316336001600160a01b031614806108a057506001546001600160a01b031633145b6108dc576040805162461bcd60e51b815260206004820152600860248201526710b6b0b730b3b2b960c11b604482015290519081900360640190fd5b606f81111561091b576040805162461bcd60e51b815260206004808301919091526024820152630216361760e41b604482015290519081900360640190fd5b600781905561037803600855565b606f81565b6004546001600160a01b03163314610976576040805162461bcd60e51b8152602060048201526006602482015265085d985d5b1d60d21b604482015290519081900360640190fd5b600b54604080516370a0823160e01b815230600482015290516000926001600160a01b0316916370a08231916024808301926020929190829003018186803b1580156109c157600080fd5b505afa1580156109d5573d6000803e3d6000fd5b505050506040513d60208110156109eb57600080fd5b5051905081811015610ae857600e54600f546001600160a01b039091169063441a3e7090610a198585611a4b565b6040518363ffffffff1660e01b81526004018083815260200182815260200192505050600060405180830381600087803b158015610a5657600080fd5b505af1158015610a6a573d6000803e3d6000fd5b5050600b54604080516370a0823160e01b815230600482015290516001600160a01b0390921693506370a082319250602480820192602092909190829003018186803b158015610ab957600080fd5b505afa158015610acd573d6000803e3d6000fd5b505050506040513d6020811015610ae357600080fd5b505190505b81811115610af35750805b610afb611121565b6001600160a01b0316326001600160a01b03161480610b1d5750610b1d610e62565b15610b4457600454600b54610b3f916001600160a01b03918216911683611aad565b610b99565b6000610b67612710610b6160065485611aff90919063ffffffff16565b90611b58565b600454909150610b97906001600160a01b0316610b848484611a4b565b600b546001600160a01b03169190611aad565b505b5050565b60128181548110610baa57fe5b6000918252602090912001546001600160a01b0316905081565b600f5481565b610bd2611121565b6001600160a01b0316336001600160a01b03161480610bfb57506001546001600160a01b031633145b610c37576040805162461bcd60e51b815260206004820152600860248201526710b6b0b730b3b2b960c11b604482015290519081900360640190fd5b610c3f611bbf565b610c47611c62565b610c4f6113f7565b565b610c59610e62565b15610c9e576040805162461bcd60e51b815260206004820152601060248201526f14185d5cd8589b194e881c185d5cd95960821b604482015290519081900360640190fd5b601454600160a01b900460ff1615610d7357601560009054906101000a90046001600160a01b03166001600160a01b0316633de39c116040518163ffffffff1660e01b8152600401602060405180830381600087803b158015610d0057600080fd5b505af1158015610d14573d6000803e3d6000fd5b505050506040513d6020811015610d2a57600080fd5b50513a1115610d73576040805162461bcd60e51b815260206004820152601060248201526f67617320697320746f6f20686967682160801b604482015290519081900360640190fd5b610c4f6000611d1a565b610d85611121565b6001600160a01b0316336001600160a01b03161480610dae57506001546001600160a01b031633145b610dea576040805162461bcd60e51b815260206004820152600860248201526710b6b0b730b3b2b960c11b604482015290519081900360640190fd5b610df261108f565b600e54600f5460408051632989754760e11b81526004810192909252516001600160a01b0390921691635312ea8e9160248082019260009290919082900301818387803b158015610e4257600080fd5b505af1158015610e56573d6000803e3d6000fd5b50505050565b61271081565b600054600160a01b900460ff1690565b600c546001600160a01b031681565b610e8a81611d1a565b50565b610e95611ea9565b6001600160a01b0316610ea6611121565b6001600160a01b031614610eef576040805162461bcd60e51b81526020600482018190526024820152600080516020612a01833981519152604482015290519081900360640190fd5b600480546001600160a01b0319166001600160a01b0392909216919091179055565b6014546001600160a01b031681565b6015546001600160a01b031681565b610f37611ea9565b6001600160a01b0316610f48611121565b6001600160a01b031614610f91576040805162461bcd60e51b81526020600482018190526024820152600080516020612a01833981519152604482015290519081900360640190fd5b600080546040516001600160a01b03909116907f8be0079c531659141344cd1fd0a4f28419497f9722a3daafe3b4186f6b6457e0908390a3600080546001600160a01b0319169055565b6000610ff6610fe861073d565b610ff061130c565b90611ead565b905090565b611003611121565b6001600160a01b0316336001600160a01b0316148061102c57506001546001600160a01b031633145b611068576040805162461bcd60e51b815260206004820152600860248201526710b6b0b730b3b2b960c11b604482015290519081900360640190fd5b600180546001600160a01b0319166001600160a01b0392909216919091179055565b607081565b611097611121565b6001600160a01b0316336001600160a01b031614806110c057506001546001600160a01b031633145b6110fc576040805162461bcd60e51b815260206004820152600860248201526710b6b0b730b3b2b960c11b604482015290519081900360640190fd5b611104611f07565b610c4f611f90565b600d546001600160a01b031681565b60065481565b6000546001600160a01b031690565b6005546001600160a01b031681565b60075481565b60606012805480602002602001604051908101604052809291908181526020018280548015610733576020028201919060005260206000209081546001600160a01b03168152600190910190602001808311610715575050505050905090565b601454600160a01b900460ff1681565b6111bd611ea9565b6001600160a01b03166111ce611121565b6001600160a01b031614611217576040805162461bcd60e51b81526020600482018190526024820152600080516020612a01833981519152604482015290519081900360640190fd5b600580546001600160a01b0319166001600160a01b0392909216919091179055565b611241611121565b6001600160a01b0316336001600160a01b0316148061126a57506001546001600160a01b031633145b6112a6576040805162461bcd60e51b815260206004820152600860248201526710b6b0b730b3b2b960c11b604482015290519081900360640190fd5b60328111156112e5576040805162461bcd60e51b815260206004808301919091526024820152630216361760e41b604482015290519081900360640190fd5b600655565b6001546001600160a01b031681565b6103e881565b60118181548110610baa57fe5b600b54604080516370a0823160e01b815230600482015290516000926001600160a01b0316916370a08231916024808301926020929190829003018186803b15801561135757600080fd5b505afa15801561136b573d6000803e3d6000fd5b505050506040513d602081101561138157600080fd5b5051905090565b6002546001600160a01b031633146113d5576040805162461bcd60e51b815260206004820152600b60248201526a085cdd1c985d1959da5cdd60aa1b604482015290519081900360640190fd5b600280546001600160a01b0319166001600160a01b0392909216919091179055565b6113ff610e62565b15611444576040805162461bcd60e51b815260206004820152601060248201526f14185d5cd8589b194e881c185d5cd95960821b604482015290519081900360640190fd5b600b54604080516370a0823160e01b815230600482015290516000926001600160a01b0316916370a08231916024808301926020929190829003018186803b15801561148f57600080fd5b505afa1580156114a3573d6000803e3d6000fd5b505050506040513d60208110156114b957600080fd5b505190508015610e8a57600e54600f5460145460408051638dbdbe6d60e01b81526004810193909352602483018590526001600160a01b03918216604484015251921691638dbdbe6d9160648082019260009290919082900301818387803b15801561152457600080fd5b505af1158015611538573d6000803e3d6000fd5b5050505050565b60085481565b61154d611121565b6001600160a01b0316336001600160a01b0316148061157657506001546001600160a01b031633145b610d73576040805162461bcd60e51b815260206004820152600860248201526710b6b0b730b3b2b960c11b604482015290519081900360640190fd5b6115ba611ea9565b6001600160a01b03166115cb611121565b6001600160a01b031614611614576040805162461bcd60e51b81526020600482018190526024820152600080516020612a01833981519152604482015290519081900360640190fd5b600380546001600160a01b0319166001600160a01b0392909216919091179055565b603281565b60105481565b600a546001600160a01b031681565b611658611ea9565b6001600160a01b0316611669611121565b6001600160a01b0316146116b2576040805162461bcd60e51b81526020600482018190526024820152600080516020612a01833981519152604482015290519081900360640190fd5b6001600160a01b0381166116f75760405162461bcd60e51b81526004018080602001828103825260268152602001806129946026913960400191505060405180910390fd5b600080546040516001600160a01b03808516939216917f8be0079c531659141344cd1fd0a4f28419497f9722a3daafe3b4186f6b6457e091a3600080546001600160a01b0319166001600160a01b0392909216919091179055565b6004546001600160a01b0316331461179a576040805162461bcd60e51b8152602060048201526006602482015265085d985d5b1d60d21b604482015290519081900360640190fd5b600e54600f5460408051632989754760e11b81526004810192909252516001600160a01b0390921691635312ea8e9160248082019260009290919082900301818387803b1580156117ea57600080fd5b505af11580156117fe573d6000803e3d6000fd5b5050600b54604080516370a0823160e01b81523060048201529051600094506001600160a01b0390921692506370a08231916024808301926020929190829003018186803b15801561184f57600080fd5b505afa158015611863573d6000803e3d6000fd5b505050506040513d602081101561187957600080fd5b5051600b54600480546040805163a9059cbb60e01b81526001600160a01b039283169381019390935260248301859052519394509091169163a9059cbb916044808201926020929091908290030181600087803b1580156118d957600080fd5b505af11580156118ed573d6000803e3d6000fd5b505050506040513d6020811015610b9757600080fd5b6004546001600160a01b031681565b60138181548110610baa57fe5b8015806119a5575060408051636eb1769f60e11b81523060048201526001600160a01b03848116602483015291519185169163dd62ed3e91604480820192602092909190829003018186803b15801561197757600080fd5b505afa15801561198b573d6000803e3d6000fd5b505050506040513d60208110156119a157600080fd5b5051155b6119e05760405162461bcd60e51b8152600401808060200182810382526036815260200180612a4b6036913960400191505060405180910390fd5b604080516001600160a01b038416602482015260448082018490528251808303909101815260649091019091526020810180516001600160e01b031663095ea7b360e01b179052610b97908490612008565b6060611a4184846000856120b9565b90505b9392505050565b600082821115611aa2576040805162461bcd60e51b815260206004820152601e60248201527f536166654d6174683a207375627472616374696f6e206f766572666c6f770000604482015290519081900360640190fd5b508082035b92915050565b604080516001600160a01b038416602482015260448082018490528251808303909101815260649091019091526020810180516001600160e01b031663a9059cbb60e01b179052610b97908490612008565b600082611b0e57506000611aa7565b82820282848281611b1b57fe5b0414611a445760405162461bcd60e51b81526004018080602001828103825260218152602001806129e06021913960400191505060405180910390fd5b6000808211611bae576040805162461bcd60e51b815260206004820152601a60248201527f536166654d6174683a206469766973696f6e206279207a65726f000000000000604482015290519081900360640190fd5b818381611bb757fe5b049392505050565b611bc7610e62565b611c0f576040805162461bcd60e51b815260206004820152601460248201527314185d5cd8589b194e881b9bdd081c185d5cd95960621b604482015290519081900360640190fd5b6000805460ff60a01b191690557f5db9ee0a495bf2e6ff9c91a7834c1ba4fdd244a5e8aa4e537bd38aeae4b073aa611c45611ea9565b604080516001600160a01b039092168252519081900360200190a1565b600e54600b54611c81916001600160a01b03918216911660001961191f565b600354600a54611ca0916001600160a01b03918216911660001961191f565b600354600c54611cbe916001600160a01b039182169116600061191f565b600354600c54611cdd916001600160a01b03918216911660001961191f565b600354600d54611cfb916001600160a01b039182169116600061191f565b600354600d54610c4f916001600160a01b03918216911660001961191f565b611d22610e62565b15611d67576040805162461bcd60e51b815260206004820152601060248201526f14185d5cd8589b194e881c185d5cd95960821b604482015290519081900360640190fd5b600e54600f5460408051638dbdbe6d60e01b815260048101929092526000602483018190526044830181905290516001600160a01b0390931692638dbdbe6d92606480820193929182900301818387803b158015611dc457600080fd5b505af1158015611dd8573d6000803e3d6000fd5b5050600a54604080516370a0823160e01b81523060048201529051600094506001600160a01b0390921692506370a08231916024808301926020929190829003018186803b158015611e2957600080fd5b505afa158015611e3d573d6000803e3d6000fd5b505050506040513d6020811015611e5357600080fd5b505190508015610b9957611e6682612215565b611e6e6124dd565b611e766113f7565b4260105560405133907f577a37fdb49a88d66684922c6f913df5239b4f214b2b97c53ef8e3bbb2034cb590600090a25050565b3390565b600082820183811015611a44576040805162461bcd60e51b815260206004820152601b60248201527f536166654d6174683a206164646974696f6e206f766572666c6f770000000000604482015290519081900360640190fd5b611f0f610e62565b15611f54576040805162461bcd60e51b815260206004820152601060248201526f14185d5cd8589b194e881c185d5cd95960821b604482015290519081900360640190fd5b6000805460ff60a01b1916600160a01b1790557f62e78cea01bee320cd4e420270b5ea74000d11b0c9f74754ebdbfc544b05a258611c45611ea9565b600e54600b54611fae916001600160a01b039182169116600061191f565b600354600a54611fcc916001600160a01b039182169116600061191f565b600354600c54611fea916001600160a01b039182169116600061191f565b600354600d54610c4f916001600160a01b039182169116600061191f565b606061205d826040518060400160405280602081526020017f5361666545524332303a206c6f772d6c6576656c2063616c6c206661696c6564815250856001600160a01b0316611a329092919063ffffffff16565b805190915015610b975780806020019051602081101561207c57600080fd5b5051610b975760405162461bcd60e51b815260040180806020018281038252602a815260200180612a21602a913960400191505060405180910390fd5b6060824710156120fa5760405162461bcd60e51b81526004018080602001828103825260268152602001806129ba6026913960400191505060405180910390fd5b612103856128e9565b612154576040805162461bcd60e51b815260206004820152601d60248201527f416464726573733a2063616c6c20746f206e6f6e2d636f6e7472616374000000604482015290519081900360640190fd5b60006060866001600160a01b031685876040518082805190602001908083835b602083106121935780518252601f199092019160209182019101612174565b6001836020036101000a03801982511681845116808217855250505050505090500191505060006040518083038185875af1925050503d80600081146121f5576040519150601f19603f3d011682016040523d82523d6000602084013e6121fa565b606091505b509150915061220a8282866128ef565b979650505050505050565b600a54604080516370a0823160e01b815230600482015290516000926122a4926103e892610b6192602d926001600160a01b03909116916370a0823191602480820192602092909190829003018186803b15801561227257600080fd5b505afa158015612286573d6000803e3d6000fd5b505050506040513d602081101561229c57600080fd5b505190611aff565b9050600360009054906101000a90046001600160a01b03166001600160a01b0316635c11d795826000601130426040518663ffffffff1660e01b81526004018086815260200185815260200180602001846001600160a01b03168152602001838152602001828103825285818154815260200191508054801561235057602002820191906000526020600020905b81546001600160a01b03168152600190910190602001808311612332575b50509650505050505050600060405180830381600087803b15801561237457600080fd5b505af1158015612388573d6000803e3d6000fd5b5050600954604080516370a0823160e01b81523060048201529051600094506001600160a01b0390921692506370a08231916024808301926020929190829003018186803b1580156123d957600080fd5b505afa1580156123ed573d6000803e3d6000fd5b505050506040513d602081101561240357600080fd5b5051600754909150600090612421906103e890610b61908590611aff565b90506001600160a01b0384161561244e57600954612449906001600160a01b03168583611aad565b612465565b600954612465906001600160a01b03163283611aad565b60006124826103e8610b6160085486611aff90919063ffffffff16565b6005546009549192506124a2916001600160a01b03908116911683611aad565b60006124b56103e8610b61866070611aff565b6002546009549192506124d5916001600160a01b03908116911683611aad565b505050505050565b600a54604080516370a0823160e01b81523060048201529051600092612564926002926001600160a01b03909216916370a0823191602480820192602092909190829003018186803b15801561253257600080fd5b505afa158015612546573d6000803e3d6000fd5b505050506040513d602081101561255c57600080fd5b505190611b58565b600a54600c549192506001600160a01b0391821691161461265657600354604051635c11d79560e01b8152600481018381526000602483018190523060648401819052426084850181905260a0604486019081526012805460a488018190526001600160a01b0390981697635c11d795978a97929594939160c4909101908690801561261957602002820191906000526020600020905b81546001600160a01b031681526001909101906020018083116125fb575b50509650505050505050600060405180830381600087803b15801561263d57600080fd5b505af1158015612651573d6000803e3d6000fd5b505050505b600a54600d546001600160a01b0390811691161461274557600354604051635c11d79560e01b8152600481018381526000602483018190523060648401819052426084850181905260a0604486019081526013805460a488018190526001600160a01b0390981697635c11d795978a97929594939160c4909101908690801561270857602002820191906000526020600020905b81546001600160a01b031681526001909101906020018083116126ea575b50509650505050505050600060405180830381600087803b15801561272c57600080fd5b505af1158015612740573d6000803e3d6000fd5b505050505b600c54604080516370a0823160e01b815230600482015290516000926001600160a01b0316916370a08231916024808301926020929190829003018186803b15801561279057600080fd5b505afa1580156127a4573d6000803e3d6000fd5b505050506040513d60208110156127ba57600080fd5b5051600d54604080516370a0823160e01b815230600482015290519293506000926001600160a01b03909216916370a0823191602480820192602092909190829003018186803b15801561280d57600080fd5b505afa158015612821573d6000803e3d6000fd5b505050506040513d602081101561283757600080fd5b5051600354600c54600d546040805162e8e33760e81b81526001600160a01b0393841660048201529183166024830152604482018790526064820185905260016084830181905260a48301523060c48301524260e48301525193945091169163e8e3370091610104808201926060929091908290030181600087803b1580156128bf57600080fd5b505af11580156128d3573d6000803e3d6000fd5b505050506040513d606081101561153857600080fd5b3b151590565b606083156128fe575081611a44565b82511561290e5782518084602001fd5b8160405162461bcd60e51b81526004018080602001828103825283818151815260200191508051906020019080838360005b83811015612958578181015183820152602001612940565b50505050905090810190601f1680156129855780820380516001836020036101000a031916815260200191505b509250505060405180910390fdfe4f776e61626c653a206e6577206f776e657220697320746865207a65726f2061646472657373416464726573733a20696e73756666696369656e742062616c616e636520666f722063616c6c536166654d6174683a206d756c7469706c69636174696f6e206f766572666c6f774f776e61626c653a2063616c6c6572206973206e6f7420746865206f776e65725361666545524332303a204552433230206f7065726174696f6e20646964206e6f7420737563636565645361666545524332303a20617070726f76652066726f6d206e6f6e2d7a65726f20746f206e6f6e2d7a65726f20616c6c6f77616e6365a26469706673582212201f4fa3216c32634a08c5ebdca3374620eca96ce6b06aade7b3a5e715ebb73ed864736f6c634300060c00336f7574707574546f4c7031526f7574655b6c6173745d20213d206c70546f6b656e31416464726573733a20696e73756666696369656e742062616c616e636520666f722063616c6c6f7574707574546f4c7030526f7574655b6c6173745d20213d206c70546f6b656e305361666545524332303a204552433230206f7065726174696f6e20646964206e6f7420737563636565645361666545524332303a20617070726f76652066726f6d206e6f6e2d7a65726f20746f206e6f6e2d7a65726f20616c6c6f77616e6365",
  "linkReferences": {},
  "deployedLinkReferences": {}
}