{
  "_format": "hh-sol-artifact-1",
  "contractName": "StrategyCommonRewardPoolLP",
  "sourceName": "contracts/BIFI/strategies/Common/StrategyCommonRewardPoolLP.sol",
  "abi": [
    {
      "inputs": [
        {
          "internalType": "address",
          "name": "_want",
          "type": "address"
        },
        {
          "internalType": "address",
          "name": "_rewardPool",
          "type": "address"
        },
        {
          "internalType": "address",
          "name": "_vault",
          "type": "address"
        },
        {
          "internalType": "address",
          "name": "_unirouter",
          "type": "address"
        },
        {
          "internalType": "address",
          "name": "_keeper",
          "type": "address"
        },
        {
          "internalType": "address",
          "name": "_strategist",
          "type": "address"
        },
        {
          "internalType": "address",
          "name": "_beefyFeeRecipient",
          "type": "address"
        },
        {
          "internalType": "address[]",
          "name": "_outputToNativeRoute",
          "type": "address[]"
        },
        {
          "internalType": "address[]",
          "name": "_outputToLp0Route",
          "type": "address[]"
        },
        {
          "internalType": "address[]",
          "name": "_outputToLp1Route",
          "type": "address[]"
        }
      ],
      "stateMutability": "nonpayable",
      "type": "constructor"
    },
    {
      "anonymous": false,
      "inputs": [
        {
          "indexed": true,
          "internalType": "address",
          "name": "previousOwner",
          "type": "address"
        },
        {
          "indexed": true,
          "internalType": "address",
          "name": "newOwner",
          "type": "address"
        }
      ],
      "name": "OwnershipTransferred",
      "type": "event"
    },
    {
      "anonymous": false,
      "inputs": [
        {
          "indexed": false,
          "internalType": "address",
          "name": "account",
          "type": "address"
        }
      ],
      "name": "Paused",
      "type": "event"
    },
    {
      "anonymous": false,
      "inputs": [
        {
          "indexed": true,
          "internalType": "address",
          "name": "harvester",
          "type": "address"
        }
      ],
      "name": "StratHarvest",
      "type": "event"
    },
    {
      "anonymous": false,
      "inputs": [
        {
          "indexed": false,
          "internalType": "address",
          "name": "account",
          "type": "address"
        }
      ],
      "name": "Unpaused",
      "type": "event"
    },
    {
      "inputs": [],
      "name": "MAX_CALL_FEE",
      "outputs": [
        {
          "internalType": "uint256",
          "name": "",
          "type": "uint256"
        }
      ],
      "stateMutability": "view",
      "type": "function"
    },
    {
      "inputs": [],
      "name": "MAX_FEE",
      "outputs": [
        {
          "internalType": "uint256",
          "name": "",
          "type": "uint256"
        }
      ],
      "stateMutability": "view",
      "type": "function"
    },
    {
      "inputs": [],
      "name": "STRATEGIST_FEE",
      "outputs": [
        {
          "internalType": "uint256",
          "name": "",
          "type": "uint256"
        }
      ],
      "stateMutability": "view",
      "type": "function"
    },
    {
      "inputs": [],
      "name": "WITHDRAWAL_FEE_CAP",
      "outputs": [
        {
          "internalType": "uint256",
          "name": "",
          "type": "uint256"
        }
      ],
      "stateMutability": "view",
      "type": "function"
    },
    {
      "inputs": [],
      "name": "WITHDRAWAL_MAX",
      "outputs": [
        {
          "internalType": "uint256",
          "name": "",
          "type": "uint256"
        }
      ],
      "stateMutability": "view",
      "type": "function"
    },
    {
      "inputs": [],
      "name": "balanceOf",
      "outputs": [
        {
          "internalType": "uint256",
          "name": "",
          "type": "uint256"
        }
      ],
      "stateMutability": "view",
      "type": "function"
    },
    {
      "inputs": [],
      "name": "balanceOfPool",
      "outputs": [
        {
          "internalType": "uint256",
          "name": "",
          "type": "uint256"
        }
      ],
      "stateMutability": "view",
      "type": "function"
    },
    {
      "inputs": [],
      "name": "balanceOfWant",
      "outputs": [
        {
          "internalType": "uint256",
          "name": "",
          "type": "uint256"
        }
      ],
      "stateMutability": "view",
      "type": "function"
    },
    {
      "inputs": [],
      "name": "beefyFee",
      "outputs": [
        {
          "internalType": "uint256",
          "name": "",
          "type": "uint256"
        }
      ],
      "stateMutability": "view",
      "type": "function"
    },
    {
      "inputs": [],
      "name": "beefyFeeRecipient",
      "outputs": [
        {
          "internalType": "address",
          "name": "",
          "type": "address"
        }
      ],
      "stateMutability": "view",
      "type": "function"
    },
    {
      "inputs": [],
      "name": "beforeDeposit",
      "outputs": [],
      "stateMutability": "nonpayable",
      "type": "function"
    },
    {
      "inputs": [],
      "name": "callFee",
      "outputs": [
        {
          "internalType": "uint256",
          "name": "",
          "type": "uint256"
        }
      ],
      "stateMutability": "view",
      "type": "function"
    },
    {
      "inputs": [],
      "name": "deposit",
      "outputs": [],
      "stateMutability": "nonpayable",
      "type": "function"
    },
    {
      "inputs": [],
      "name": "harvest",
      "outputs": [],
      "stateMutability": "nonpayable",
      "type": "function"
    },
    {
      "inputs": [],
      "name": "harvestOnDeposit",
      "outputs": [
        {
          "internalType": "bool",
          "name": "",
          "type": "bool"
        }
      ],
      "stateMutability": "view",
      "type": "function"
    },
    {
      "inputs": [
        {
          "internalType": "address",
          "name": "callFeeRecipient",
          "type": "address"
        }
      ],
      "name": "harvestWithCallFeeRecipient",
      "outputs": [],
      "stateMutability": "nonpayable",
      "type": "function"
    },
    {
      "inputs": [],
      "name": "keeper",
      "outputs": [
        {
          "internalType": "address",
          "name": "",
          "type": "address"
        }
      ],
      "stateMutability": "view",
      "type": "function"
    },
    {
      "inputs": [],
      "name": "lastHarvest",
      "outputs": [
        {
          "internalType": "uint256",
          "name": "",
          "type": "uint256"
        }
      ],
      "stateMutability": "view",
      "type": "function"
    },
    {
      "inputs": [],
      "name": "lpToken0",
      "outputs": [
        {
          "internalType": "address",
          "name": "",
          "type": "address"
        }
      ],
      "stateMutability": "view",
      "type": "function"
    },
    {
      "inputs": [],
      "name": "lpToken1",
      "outputs": [
        {
          "internalType": "address",
          "name": "",
          "type": "address"
        }
      ],
      "stateMutability": "view",
      "type": "function"
    },
    {
      "inputs": [],
      "name": "managerHarvest",
      "outputs": [],
      "stateMutability": "nonpayable",
      "type": "function"
    },
    {
      "inputs": [],
      "name": "native",
      "outputs": [
        {
          "internalType": "address",
          "name": "",
          "type": "address"
        }
      ],
      "stateMutability": "view",
      "type": "function"
    },
    {
      "inputs": [],
      "name": "output",
      "outputs": [
        {
          "internalType": "address",
          "name": "",
          "type": "address"
        }
      ],
      "stateMutability": "view",
      "type": "function"
    },
    {
      "inputs": [],
      "name": "outputToLp0",
      "outputs": [
        {
          "internalType": "address[]",
          "name": "",
          "type": "address[]"
        }
      ],
      "stateMutability": "view",
      "type": "function"
    },
    {
      "inputs": [
        {
          "internalType": "uint256",
          "name": "",
          "type": "uint256"
        }
      ],
      "name": "outputToLp0Route",
      "outputs": [
        {
          "internalType": "address",
          "name": "",
          "type": "address"
        }
      ],
      "stateMutability": "view",
      "type": "function"
    },
    {
      "inputs": [
        {
          "internalType": "uint256",
          "name": "",
          "type": "uint256"
        }
      ],
      "name": "outputToLp0SymbolRoute",
      "outputs": [
        {
          "internalType": "string",
          "name": "",
          "type": "string"
        }
      ],
      "stateMutability": "view",
      "type": "function"
    },
    {
      "inputs": [],
      "name": "outputToLp1",
      "outputs": [
        {
          "internalType": "address[]",
          "name": "",
          "type": "address[]"
        }
      ],
      "stateMutability": "view",
      "type": "function"
    },
    {
      "inputs": [
        {
          "internalType": "uint256",
          "name": "",
          "type": "uint256"
        }
      ],
      "name": "outputToLp1Route",
      "outputs": [
        {
          "internalType": "address",
          "name": "",
          "type": "address"
        }
      ],
      "stateMutability": "view",
      "type": "function"
    },
    {
      "inputs": [
        {
          "internalType": "uint256",
          "name": "",
          "type": "uint256"
        }
      ],
      "name": "outputToLp1SymbolRoute",
      "outputs": [
        {
          "internalType": "string",
          "name": "",
          "type": "string"
        }
      ],
      "stateMutability": "view",
      "type": "function"
    },
    {
      "inputs": [],
      "name": "outputToNative",
      "outputs": [
        {
          "internalType": "address[]",
          "name": "",
          "type": "address[]"
        }
      ],
      "stateMutability": "view",
      "type": "function"
    },
    {
      "inputs": [
        {
          "internalType": "uint256",
          "name": "",
          "type": "uint256"
        }
      ],
      "name": "outputToNativeRoute",
      "outputs": [
        {
          "internalType": "address",
          "name": "",
          "type": "address"
        }
      ],
      "stateMutability": "view",
      "type": "function"
    },
    {
      "inputs": [],
      "name": "owner",
      "outputs": [
        {
          "internalType": "address",
          "name": "",
          "type": "address"
        }
      ],
      "stateMutability": "view",
      "type": "function"
    },
    {
      "inputs": [],
      "name": "panic",
      "outputs": [],
      "stateMutability": "nonpayable",
      "type": "function"
    },
    {
      "inputs": [],
      "name": "pause",
      "outputs": [],
      "stateMutability": "nonpayable",
      "type": "function"
    },
    {
      "inputs": [],
      "name": "paused",
      "outputs": [
        {
          "internalType": "bool",
          "name": "",
          "type": "bool"
        }
      ],
      "stateMutability": "view",
      "type": "function"
    },
    {
      "inputs": [],
      "name": "renounceOwnership",
      "outputs": [],
      "stateMutability": "nonpayable",
      "type": "function"
    },
    {
      "inputs": [],
      "name": "retireStrat",
      "outputs": [],
      "stateMutability": "nonpayable",
      "type": "function"
    },
    {
      "inputs": [],
      "name": "rewardPool",
      "outputs": [
        {
          "internalType": "address",
          "name": "",
          "type": "address"
        }
      ],
      "stateMutability": "view",
      "type": "function"
    },
    {
      "inputs": [],
      "name": "rewardsAvailable",
      "outputs": [
        {
          "internalType": "uint256",
          "name": "",
          "type": "uint256"
        }
      ],
      "stateMutability": "view",
      "type": "function"
    },
    {
      "inputs": [
        {
          "internalType": "address",
          "name": "_beefyFeeRecipient",
          "type": "address"
        }
      ],
      "name": "setBeefyFeeRecipient",
      "outputs": [],
      "stateMutability": "nonpayable",
      "type": "function"
    },
    {
      "inputs": [
        {
          "internalType": "uint256",
          "name": "_fee",
          "type": "uint256"
        }
      ],
      "name": "setCallFee",
      "outputs": [],
      "stateMutability": "nonpayable",
      "type": "function"
    },
    {
      "inputs": [
        {
          "internalType": "bool",
          "name": "_harvestOnDeposit",
          "type": "bool"
        }
      ],
      "name": "setHarvestOnDeposit",
      "outputs": [],
      "stateMutability": "nonpayable",
      "type": "function"
    },
    {
      "inputs": [
        {
          "internalType": "address",
          "name": "_keeper",
          "type": "address"
        }
      ],
      "name": "setKeeper",
      "outputs": [],
      "stateMutability": "nonpayable",
      "type": "function"
    },
    {
      "inputs": [
        {
          "internalType": "address",
          "name": "_strategist",
          "type": "address"
        }
      ],
      "name": "setStrategist",
      "outputs": [],
      "stateMutability": "nonpayable",
      "type": "function"
    },
    {
      "inputs": [
        {
          "internalType": "address",
          "name": "_unirouter",
          "type": "address"
        }
      ],
      "name": "setUnirouter",
      "outputs": [],
      "stateMutability": "nonpayable",
      "type": "function"
    },
    {
      "inputs": [
        {
          "internalType": "address",
          "name": "_vault",
          "type": "address"
        }
      ],
      "name": "setVault",
      "outputs": [],
      "stateMutability": "nonpayable",
      "type": "function"
    },
    {
      "inputs": [
        {
          "internalType": "uint256",
          "name": "_fee",
          "type": "uint256"
        }
      ],
      "name": "setWithdrawalFee",
      "outputs": [],
      "stateMutability": "nonpayable",
      "type": "function"
    },
    {
      "inputs": [],
      "name": "strategist",
      "outputs": [
        {
          "internalType": "address",
          "name": "",
          "type": "address"
        }
      ],
      "stateMutability": "view",
      "type": "function"
    },
    {
      "inputs": [
        {
          "internalType": "address",
          "name": "newOwner",
          "type": "address"
        }
      ],
      "name": "transferOwnership",
      "outputs": [],
      "stateMutability": "nonpayable",
      "type": "function"
    },
    {
      "inputs": [],
      "name": "unirouter",
      "outputs": [
        {
          "internalType": "address",
          "name": "",
          "type": "address"
        }
      ],
      "stateMutability": "view",
      "type": "function"
    },
    {
      "inputs": [],
      "name": "unpause",
      "outputs": [],
      "stateMutability": "nonpayable",
      "type": "function"
    },
    {
      "inputs": [],
      "name": "vault",
      "outputs": [
        {
          "internalType": "address",
          "name": "",
          "type": "address"
        }
      ],
      "stateMutability": "view",
      "type": "function"
    },
    {
      "inputs": [],
      "name": "want",
      "outputs": [
        {
          "internalType": "address",
          "name": "",
          "type": "address"
        }
      ],
      "stateMutability": "view",
      "type": "function"
    },
    {
      "inputs": [
        {
          "internalType": "uint256",
          "name": "_amount",
          "type": "uint256"
        }
      ],
      "name": "withdraw",
      "outputs": [],
      "stateMutability": "nonpayable",
      "type": "function"
    },
    {
      "inputs": [],
      "name": "withdrawalFee",
      "outputs": [
        {
          "internalType": "uint256",
          "name": "",
          "type": "uint256"
        }
      ],
      "stateMutability": "view",
      "type": "function"
    }
  ],
  "bytecode": "0x6080604052600a600655606f6007556103096008553480156200002157600080fd5b50604051620033fe380380620033fe8339810160408190526200004491620008a8565b8585888a876000620000556200034b565b600080546001600160a01b0319166001600160a01b0383169081178255604051929350917f8be0079c531659141344cd1fd0a4f28419497f9722a3daafe3b4186f6b6457e0908290a3506000805460ff60a01b19168155600180546001600160a01b03199081166001600160a01b0398891617909155600280548216968816969096179095556003805486169487169490941790935560048054851692861692909217909155600580548416918516919091179055600b805483168e8516179055600e8054909216928c1692909217905583518491906200013257fe5b6020026020010151600a60006101000a8154816001600160a01b0302191690836001600160a01b03160217905550826001845103815181106200017157fe5b602090810291909101810151600980546001600160a01b0319166001600160a01b039092169190911790558351620001b091600f91908601906200073f565b50600b60009054906101000a90046001600160a01b03166001600160a01b0316630dfe16816040518163ffffffff1660e01b815260040160206040518083038186803b1580156200020057600080fd5b505afa15801562000215573d6000803e3d6000fd5b505050506040513d601f19601f820116820180604052508101906200023b91906200088a565b600c80546001600160a01b0319166001600160a01b03929092169190911790558151620002709060109060208501906200073f565b50600b60009054906101000a90046001600160a01b03166001600160a01b031663d21220a76040518163ffffffff1660e01b815260040160206040518083038186803b158015620002c057600080fd5b505afa158015620002d5573d6000803e3d6000fd5b505050506040513d601f19601f82011682018060405250810190620002fb91906200088a565b600d80546001600160a01b0319166001600160a01b03929092169190911790558051620003309060119060208401906200073f565b506200033b6200034f565b5050505050505050505062000bda565b3390565b600e54600b546200037c916001600160a01b0391821691166000196200045d602090811b6200141117901c565b600354600a54620003a9916001600160a01b0391821691166000196200045d602090811b6200141117901c565b600354600c54620003d5916001600160a01b03918216911660006200045d602090811b6200141117901c565b600354600c5462000402916001600160a01b0391821691166000196200045d602090811b6200141117901c565b600354600d546200042e916001600160a01b03918216911660006200045d602090811b6200141117901c565b600354600d546200045b916001600160a01b0391821691166000196200045d602090811b6200141117901c565b565b801580620004ec5750604051636eb1769f60e11b81526001600160a01b0384169063dd62ed3e9062000496903090869060040162000a1b565b60206040518083038186803b158015620004af57600080fd5b505afa158015620004c4573d6000803e3d6000fd5b505050506040513d601f19601f82011682018060405250810190620004ea9190620009e4565b155b620005145760405162461bcd60e51b81526004016200050b9062000b4a565b60405180910390fd5b6200056f8363095ea7b360e01b84846040516024016200053692919062000a35565b60408051808303601f190181529190526020810180516001600160e01b0319939093166001600160e01b03938416179052906200057416565b505050565b6060620005d0826040518060400160405280602081526020017f5361666545524332303a206c6f772d6c6576656c2063616c6c206661696c6564815250856001600160a01b03166200061060201b6200150b179092919060201c565b8051909150156200056f5780806020019051810190620005f19190620009c2565b6200056f5760405162461bcd60e51b81526004016200050b9062000b00565b60606200062184846000856200062b565b90505b9392505050565b606082471015620006505760405162461bcd60e51b81526004016200050b9062000a83565b6200065b85620006fb565b6200067a5760405162461bcd60e51b81526004016200050b9062000ac9565b60006060866001600160a01b03168587604051620006999190620009fd565b60006040518083038185875af1925050503d8060008114620006d8576040519150601f19603f3d011682016040523d82523d6000602084013e620006dd565b606091505b509092509050620006f082828662000701565b979650505050505050565b3b151590565b606083156200071257508162000624565b825115620007235782518084602001fd5b8160405162461bcd60e51b81526004016200050b919062000a4e565b82805482825590600052602060002090810192821562000797579160200282015b828111156200079757825182546001600160a01b0319166001600160a01b0390911617825560209092019160019091019062000760565b50620007a5929150620007a9565b5090565b5b80821115620007a55780546001600160a01b0319168155600101620007aa565b80516001600160a01b0381168114620007e257600080fd5b92915050565b600082601f830112620007f9578081fd5b81516001600160401b038082111562000810578283fd5b6020808302604051828282010181811085821117156200082e578687fd5b6040528481529450818501925085820181870183018810156200085057600080fd5b600091505b848210156200087f576200086a8882620007ca565b84529282019260019190910190820162000855565b505050505092915050565b6000602082840312156200089c578081fd5b620006248383620007ca565b6000806000806000806000806000806101408b8d031215620008c8578586fd5b620008d48c8c620007ca565b9950620008e58c60208d01620007ca565b9850620008f68c60408d01620007ca565b9750620009078c60608d01620007ca565b9650620009188c60808d01620007ca565b9550620009298c60a08d01620007ca565b94506200093a8c60c08d01620007ca565b60e08c01519094506001600160401b038082111562000957578485fd5b620009658e838f01620007e8565b94506101008d01519150808211156200097c578384fd5b6200098a8e838f01620007e8565b93506101208d0151915080821115620009a1578283fd5b50620009b08d828e01620007e8565b9150509295989b9194979a5092959850565b600060208284031215620009d4578081fd5b8151801515811462000624578182fd5b600060208284031215620009f6578081fd5b5051919050565b6000825162000a1181846020870162000ba7565b9190910192915050565b6001600160a01b0392831681529116602082015260400190565b6001600160a01b03929092168252602082015260400190565b600060208252825180602084015262000a6f81604085016020870162000ba7565b601f01601f19169190910160400192915050565b60208082526026908201527f416464726573733a20696e73756666696369656e742062616c616e636520666f6040820152651c8818d85b1b60d21b606082015260800190565b6020808252601d908201527f416464726573733a2063616c6c20746f206e6f6e2d636f6e7472616374000000604082015260600190565b6020808252602a908201527f5361666545524332303a204552433230206f7065726174696f6e20646964206e6040820152691bdd081cdd58d8d9595960b21b606082015260800190565b60208082526036908201527f5361666545524332303a20617070726f76652066726f6d206e6f6e2d7a65726f60408201527f20746f206e6f6e2d7a65726f20616c6c6f77616e636500000000000000000000606082015260800190565b60005b8381101562000bc457818101518382015260200162000baa565b8381111562000bd4576000848401525b50505050565b6128148062000bea6000396000f3fe608060405234801561001057600080fd5b506004361061035d5760003560e01c80638456cb59116101d3578063c1a3d44c11610104578063e7a7250a116100a2578063f2fde38b1161007c578063f2fde38b146105e0578063fb617787146105f3578063fbfa77cf146105fb578063fd63a887146106035761035d565b8063e7a7250a146105c8578063f1a392da146105d0578063f20eaeb8146105d85761035d565b8063d3102589116100de578063d31025891461059d578063d801d946146105a5578063d92f3d73146105ad578063dfbdc437146105c05761035d565b8063c1a3d44c1461057a578063c7b9d53014610582578063d0e30db0146105955761035d565b8063989ef4e311610171578063aced16611161014b578063aced166114610544578063b224a53e1461054c578063bc063e1a1461055f578063be12a978146105675761035d565b8063989ef4e314610516578063a68833e51461051e578063ac1e5025146105315761035d565b80638bc7e8c4116101ad5780638bc7e8c4146104f65780638da5cb5b146104fe5780638e1454591461050657806390321e1a1461050e5761035d565b80638456cb59146104de578063877562b6146104e65780638912cb8b146104ee5761035d565b80633f4ba83a116102ad578063623d8bd21161024b578063715018a611610225578063715018a6146104b3578063722713f7146104bb578063748747e6146104c35780637d38ca65146104d65761035d565b8063623d8bd21461048557806366666aa9146104985780636817031b146104a05761035d565b806354518b1a1161028757806354518b1a14610458578063573fef0a146104605780635c975abb146104685780635ee167c01461047d5761035d565b80633f4ba83a146104405780634641257d146104485780634700d305146104505761035d565b80631fe4a6861161031a5780632ad5a53f116102f45780632ad5a53f146103f25780632e1a7d4d146103fa57806336c6cf211461040d5780633c48eacf146104205761035d565b80631fe4a686146103cf578063257ae0de146103d757806326465826146103df5761035d565b80630587f785146103625780630e8fbb5a14610380578063115880861461039557806311b0b42d146103aa57806313e120b1146103bf5780631f1fcd51146103c7575b600080fd5b61036a610616565b60405161037791906122fb565b60405180910390f35b61039361038e3660046121ba565b610678565b005b61039d610707565b60405161037791906126e1565b6103b261078d565b604051610377919061226b565b61036a61079c565b6103b26107fc565b6103b261080b565b6103b261081a565b6103936103ed3660046121f2565b610829565b61039d6108a5565b6103936104083660046121f2565b6108aa565b6103b261041b3660046121f2565b610a11565b61043361042e3660046121f2565b610a38565b6040516103779190612353565b610393610ade565b610393610b45565b610393610b4f565b61039d610c0d565b610393610c13565b610470610c48565b6040516103779190612348565b6103b2610c58565b6103936104933660046120fe565b610c67565b6103b2610c70565b6103936104ae3660046120fe565b610c7f565b610393610ce0565b61039d610d69565b6103936104d13660046120fe565b610d84565b61039d610df3565b610393610df8565b6103b2610e55565b610470610e64565b61039d610e6d565b6103b2610e73565b6103b2610e82565b61039d610e91565b61036a610e97565b61039361052c3660046120fe565b610ef7565b61039361053f3660046121f2565b610f58565b6103b2610fcb565b61043361055a3660046121f2565b610fda565b61039d610fe7565b6103b26105753660046121f2565b610fed565b61039d610ffa565b6103936105903660046120fe565b61102b565b610393611077565b61039d611113565b610393611119565b6103936105bb3660046120fe565b611166565b61039d6111c7565b61039d6111cc565b61039d6111fb565b6103b2611201565b6103936105ee3660046120fe565b611210565b6103936112d0565b6103b26113f5565b6103b26106113660046121f2565b611404565b6060601180548060200260200160405190810160405280929190818152602001828054801561066e57602002820191906000526020600020905b81546001600160a01b03168152600190910190602001808311610650575b5050505050905090565b610680610e73565b6001600160a01b0316336001600160a01b031614806106a957506001546001600160a01b031633145b6106ce5760405162461bcd60e51b81526004016106c59061261f565b60405180910390fd5b6012805460ff1916821515179081905560ff161515600114156106fa576106f56000610f58565b610704565b610704600a610f58565b50565b600e546040516370a0823160e01b81526000916001600160a01b0316906370a082319061073890309060040161226b565b60206040518083038186803b15801561075057600080fd5b505afa158015610764573d6000803e3d6000fd5b505050506040513d601f19601f82011682018060405250810190610788919061220a565b905090565b6009546001600160a01b031681565b6060600f80548060200260200160405190810160405280929190818152602001828054801561066e576020028201919060005260206000209081546001600160a01b03168152600190910190602001808311610650575050505050905090565b600b546001600160a01b031681565b6002546001600160a01b031681565b6003546001600160a01b031681565b610831610e73565b6001600160a01b0316336001600160a01b0316148061085a57506001546001600160a01b031633145b6108765760405162461bcd60e51b81526004016106c59061261f565b606f8111156108975760405162461bcd60e51b81526004016106c590612534565b600781905561037803600855565b606f81565b6004546001600160a01b031633146108d45760405162461bcd60e51b81526004016106c590612593565b60006108de610ffa565b90508181101561095c57600e546001600160a01b0316632e1a7d4d6109038484611524565b6040518263ffffffff1660e01b815260040161091f91906126e1565b600060405180830381600087803b15801561093957600080fd5b505af115801561094d573d6000803e3d6000fd5b50505050610959610ffa565b90505b818111156109675750805b61096f610e73565b6001600160a01b0316326001600160a01b031614806109915750610991610c48565b156109b857600454600b546109b3916001600160a01b03918216911683611551565b610a0d565b60006109db6127106109d56006548561157090919063ffffffff16565b906115aa565b600454909150610a0b906001600160a01b03166109f88484611524565b600b546001600160a01b03169190611551565b505b5050565b60108181548110610a1e57fe5b6000918252602090912001546001600160a01b0316905081565b60148181548110610a4557fe5b600091825260209182902001805460408051601f6002600019610100600187161502019094169390930492830185900485028101850190915281815293509091830182828015610ad65780601f10610aab57610100808354040283529160200191610ad6565b820191906000526020600020905b815481529060010190602001808311610ab957829003601f168201915b505050505081565b610ae6610e73565b6001600160a01b0316336001600160a01b03161480610b0f57506001546001600160a01b031633145b610b2b5760405162461bcd60e51b81526004016106c59061261f565b610b336115dc565b610b3b61164d565b610b43611077565b565b610b436000611705565b610b57610e73565b6001600160a01b0316336001600160a01b03161480610b8057506001546001600160a01b031633145b610b9c5760405162461bcd60e51b81526004016106c59061261f565b610ba4610df8565b600e546001600160a01b0316632e1a7d4d610bbd610707565b6040518263ffffffff1660e01b8152600401610bd991906126e1565b600060405180830381600087803b158015610bf357600080fd5b505af1158015610c07573d6000803e3d6000fd5b50505050565b61271081565b60125460ff1615610b43576004546001600160a01b03163314610b455760405162461bcd60e51b81526004016106c590612593565b600054600160a01b900460ff1690565b600c546001600160a01b031681565b61070481611705565b600e546001600160a01b031681565b610c87611869565b6001600160a01b0316610c98610e73565b6001600160a01b031614610cbe5760405162461bcd60e51b81526004016106c5906125b3565b600480546001600160a01b0319166001600160a01b0392909216919091179055565b610ce8611869565b6001600160a01b0316610cf9610e73565b6001600160a01b031614610d1f5760405162461bcd60e51b81526004016106c5906125b3565b600080546040516001600160a01b03909116907f8be0079c531659141344cd1fd0a4f28419497f9722a3daafe3b4186f6b6457e0908390a3600080546001600160a01b0319169055565b6000610788610d76610707565b610d7e610ffa565b9061186d565b610d8c610e73565b6001600160a01b0316336001600160a01b03161480610db557506001546001600160a01b031633145b610dd15760405162461bcd60e51b81526004016106c59061261f565b600180546001600160a01b0319166001600160a01b0392909216919091179055565b607081565b610e00610e73565b6001600160a01b0316336001600160a01b03161480610e2957506001546001600160a01b031633145b610e455760405162461bcd60e51b81526004016106c59061261f565b610e4d611892565b610b436118f3565b600d546001600160a01b031681565b60125460ff1681565b60065481565b6000546001600160a01b031690565b6005546001600160a01b031681565b60075481565b6060601080548060200260200160405190810160405280929190818152602001828054801561066e576020028201919060005260206000209081546001600160a01b03168152600190910190602001808311610650575050505050905090565b610eff611869565b6001600160a01b0316610f10610e73565b6001600160a01b031614610f365760405162461bcd60e51b81526004016106c5906125b3565b600580546001600160a01b0319166001600160a01b0392909216919091179055565b610f60610e73565b6001600160a01b0316336001600160a01b03161480610f8957506001546001600160a01b031633145b610fa55760405162461bcd60e51b81526004016106c59061261f565b6032811115610fc65760405162461bcd60e51b81526004016106c590612534565b600655565b6001546001600160a01b031681565b60158181548110610a4557fe5b6103e881565b600f8181548110610a1e57fe5b600b546040516370a0823160e01b81526000916001600160a01b0316906370a082319061073890309060040161226b565b6002546001600160a01b031633146110555760405162461bcd60e51b81526004016106c5906123b4565b600280546001600160a01b0319166001600160a01b0392909216919091179055565b61107f610c48565b1561109c5760405162461bcd60e51b81526004016106c59061250a565b60006110a6610ffa565b9050801561070457600e5460405163534a7e1d60e11b81526001600160a01b039091169063a694fc3a906110de9084906004016126e1565b600060405180830381600087803b1580156110f857600080fd5b505af115801561110c573d6000803e3d6000fd5b5050505050565b60085481565b611121610e73565b6001600160a01b0316336001600160a01b0316148061114a57506001546001600160a01b031633145b610b455760405162461bcd60e51b81526004016106c59061261f565b61116e611869565b6001600160a01b031661117f610e73565b6001600160a01b0316146111a55760405162461bcd60e51b81526004016106c5906125b3565b600380546001600160a01b0319166001600160a01b0392909216919091179055565b603281565b600e546040516246613160e11b81526000916001600160a01b031690628cc2629061073890309060040161226b565b60135481565b600a546001600160a01b031681565b611218611869565b6001600160a01b0316611229610e73565b6001600160a01b03161461124f5760405162461bcd60e51b81526004016106c5906125b3565b6001600160a01b0381166112755760405162461bcd60e51b81526004016106c5906123d9565b600080546040516001600160a01b03808516939216917f8be0079c531659141344cd1fd0a4f28419497f9722a3daafe3b4186f6b6457e091a3600080546001600160a01b0319166001600160a01b0392909216919091179055565b6004546001600160a01b031633146112fa5760405162461bcd60e51b81526004016106c590612593565b600e546001600160a01b0316632e1a7d4d611313610707565b6040518263ffffffff1660e01b815260040161132f91906126e1565b600060405180830381600087803b15801561134957600080fd5b505af115801561135d573d6000803e3d6000fd5b50505050600061136b610ffa565b600b546004805460405163a9059cbb60e01b81529394506001600160a01b039283169363a9059cbb936113a3939216918691016122e2565b602060405180830381600087803b1580156113bd57600080fd5b505af11580156113d1573d6000803e3d6000fd5b505050506040513d601f19601f82011682018060405250810190610a0d91906121d6565b6004546001600160a01b031681565b60118181548110610a1e57fe5b8015806114995750604051636eb1769f60e11b81526001600160a01b0384169063dd62ed3e90611447903090869060040161227f565b60206040518083038186803b15801561145f57600080fd5b505afa158015611473573d6000803e3d6000fd5b505050506040513d601f19601f82011682018060405250810190611497919061220a565b155b6114b55760405162461bcd60e51b81526004016106c59061268b565b610a0b8363095ea7b360e01b84846040516024016114d49291906122e2565b60408051601f198184030181529190526020810180516001600160e01b03166001600160e01b03199093169290921790915261196b565b606061151a84846000856119fa565b90505b9392505050565b6000828211156115465760405162461bcd60e51b81526004016106c590612456565b508082035b92915050565b610a0b8363a9059cbb60e01b84846040516024016114d49291906122e2565b60008261157f5750600061154b565b8282028284828161158c57fe5b041461151d5760405162461bcd60e51b81526004016106c590612552565b60008082116115cb5760405162461bcd60e51b81526004016106c5906124d3565b8183816115d457fe5b049392505050565b6115e4610c48565b6116005760405162461bcd60e51b81526004016106c590612386565b6000805460ff60a01b191690557f5db9ee0a495bf2e6ff9c91a7834c1ba4fdd244a5e8aa4e537bd38aeae4b073aa611636611869565b604051611643919061226b565b60405180910390a1565b600e54600b5461166c916001600160a01b039182169116600019611411565b600354600a5461168b916001600160a01b039182169116600019611411565b600354600c546116a9916001600160a01b0391821691166000611411565b600354600c546116c8916001600160a01b039182169116600019611411565b600354600d546116e6916001600160a01b0391821691166000611411565b600354600d54610b43916001600160a01b039182169116600019611411565b61170d610c48565b1561172a5760405162461bcd60e51b81526004016106c59061250a565b600e60009054906101000a90046001600160a01b03166001600160a01b0316633d18b9126040518163ffffffff1660e01b8152600401600060405180830381600087803b15801561177a57600080fd5b505af115801561178e573d6000803e3d6000fd5b5050600a546040516370a0823160e01b8152600093506001600160a01b0390911691506370a08231906117c590309060040161226b565b60206040518083038186803b1580156117dd57600080fd5b505afa1580156117f1573d6000803e3d6000fd5b505050506040513d601f19601f82011682018060405250810190611815919061220a565b90508015610a0d5761182682611abb565b61182e611d3f565b611836611077565b4260135560405133907f577a37fdb49a88d66684922c6f913df5239b4f214b2b97c53ef8e3bbb2034cb590600090a25050565b3390565b60008282018381101561151d5760405162461bcd60e51b81526004016106c59061241f565b61189a610c48565b156118b75760405162461bcd60e51b81526004016106c59061250a565b6000805460ff60a01b1916600160a01b1790557f62e78cea01bee320cd4e420270b5ea74000d11b0c9f74754ebdbfc544b05a258611636611869565b600e54600b54611911916001600160a01b0391821691166000611411565b600354600a5461192f916001600160a01b0391821691166000611411565b600354600c5461194d916001600160a01b0391821691166000611411565b600354600d54610b43916001600160a01b0391821691166000611411565b60606119c0826040518060400160405280602081526020017f5361666545524332303a206c6f772d6c6576656c2063616c6c206661696c6564815250856001600160a01b031661150b9092919063ffffffff16565b805190915015610a0b57808060200190518101906119de91906121d6565b610a0b5760405162461bcd60e51b81526004016106c590612641565b606082471015611a1c5760405162461bcd60e51b81526004016106c59061248d565b611a25856120bf565b611a415760405162461bcd60e51b81526004016106c5906125e8565b60006060866001600160a01b03168587604051611a5e919061224f565b60006040518083038185875af1925050503d8060008114611a9b576040519150601f19603f3d011682016040523d82523d6000602084013e611aa0565b606091505b5091509150611ab08282866120c5565b979650505050505050565b600a546040516370a0823160e01b8152600091611b51916103e8916109d591602d916001600160a01b0316906370a0823190611afb90309060040161226b565b60206040518083038186803b158015611b1357600080fd5b505afa158015611b27573d6000803e3d6000fd5b505050506040513d601f19601f82011682018060405250810190611b4b919061220a565b90611570565b6003546040516338ed173960e01b81529192506001600160a01b0316906338ed173990611b8c908490600090600f90309042906004016126ea565b600060405180830381600087803b158015611ba657600080fd5b505af1158015611bba573d6000803e3d6000fd5b505050506040513d6000823e601f3d908101601f19168201604052611be29190810190612125565b506009546040516370a0823160e01b81526000916001600160a01b0316906370a0823190611c1490309060040161226b565b60206040518083038186803b158015611c2c57600080fd5b505afa158015611c40573d6000803e3d6000fd5b505050506040513d601f19601f82011682018060405250810190611c64919061220a565b90506000611c836103e86109d56007548561157090919063ffffffff16565b90506001600160a01b03841615611cb057600954611cab906001600160a01b03168583611551565b611cc7565b600954611cc7906001600160a01b03163283611551565b6000611ce46103e86109d56008548661157090919063ffffffff16565b600554600954919250611d04916001600160a01b03908116911683611551565b6000611d176103e86109d5866070611570565b600254600954919250611d37916001600160a01b03908116911683611551565b505050505050565b600a546040516370a0823160e01b8152600091611dc7916002916001600160a01b0316906370a0823190611d7790309060040161226b565b60206040518083038186803b158015611d8f57600080fd5b505afa158015611da3573d6000803e3d6000fd5b505050506040513d601f19601f820116820180604052508101906109d5919061220a565b600a54600c549192506001600160a01b03918216911614611e74576003546040516338ed173960e01b81526001600160a01b03909116906338ed173990611e1c908490600090601090309042906004016126ea565b600060405180830381600087803b158015611e3657600080fd5b505af1158015611e4a573d6000803e3d6000fd5b505050506040513d6000823e601f3d908101601f19168201604052611e729190810190612125565b505b600a54600d546001600160a01b03908116911614611f1e576003546040516338ed173960e01b81526001600160a01b03909116906338ed173990611ec6908490600090601190309042906004016126ea565b600060405180830381600087803b158015611ee057600080fd5b505af1158015611ef4573d6000803e3d6000fd5b505050506040513d6000823e601f3d908101601f19168201604052611f1c9190810190612125565b505b600c546040516370a0823160e01b81526000916001600160a01b0316906370a0823190611f4f90309060040161226b565b60206040518083038186803b158015611f6757600080fd5b505afa158015611f7b573d6000803e3d6000fd5b505050506040513d601f19601f82011682018060405250810190611f9f919061220a565b600d546040516370a0823160e01b81529192506000916001600160a01b03909116906370a0823190611fd590309060040161226b565b60206040518083038186803b158015611fed57600080fd5b505afa158015612001573d6000803e3d6000fd5b505050506040513d601f19601f82011682018060405250810190612025919061220a565b600354600c54600d5460405162e8e33760e81b81529394506001600160a01b039283169363e8e337009361206d93811692169087908790600190819030904290600401612299565b606060405180830381600087803b15801561208757600080fd5b505af115801561209b573d6000803e3d6000fd5b505050506040513d601f19601f82011682018060405250810190611d379190612222565b3b151590565b606083156120d457508161151d565b8251156120e45782518084602001fd5b8160405162461bcd60e51b81526004016106c59190612353565b60006020828403121561210f578081fd5b81356001600160a01b038116811461151d578182fd5b60006020808385031215612137578182fd5b825167ffffffffffffffff81111561214d578283fd5b8301601f8101851361215d578283fd5b805161217061216b82612784565b61275d565b818152838101908385018584028501860189101561218c578687fd5b8694505b838510156121ae578051835260019490940193918501918501612190565b50979650505050505050565b6000602082840312156121cb578081fd5b813561151d816127d0565b6000602082840312156121e7578081fd5b815161151d816127d0565b600060208284031215612203578081fd5b5035919050565b60006020828403121561221b578081fd5b5051919050565b600080600060608486031215612236578182fd5b8351925060208401519150604084015190509250925092565b600082516122618184602087016127a4565b9190910192915050565b6001600160a01b0391909116815260200190565b6001600160a01b0392831681529116602082015260400190565b6001600160a01b039889168152968816602088015260408701959095526060860193909352608085019190915260a084015290921660c082015260e08101919091526101000190565b6001600160a01b03929092168252602082015260400190565b6020808252825182820181905260009190848201906040850190845b8181101561233c5783516001600160a01b031683529284019291840191600101612317565b50909695505050505050565b901515815260200190565b60006020825282518060208401526123728160408501602087016127a4565b601f01601f19169190910160400192915050565b60208082526014908201527314185d5cd8589b194e881b9bdd081c185d5cd95960621b604082015260600190565b6020808252600b908201526a085cdd1c985d1959da5cdd60aa1b604082015260600190565b60208082526026908201527f4f776e61626c653a206e6577206f776e657220697320746865207a65726f206160408201526564647265737360d01b606082015260800190565b6020808252601b908201527f536166654d6174683a206164646974696f6e206f766572666c6f770000000000604082015260600190565b6020808252601e908201527f536166654d6174683a207375627472616374696f6e206f766572666c6f770000604082015260600190565b60208082526026908201527f416464726573733a20696e73756666696369656e742062616c616e636520666f6040820152651c8818d85b1b60d21b606082015260800190565b6020808252601a908201527f536166654d6174683a206469766973696f6e206279207a65726f000000000000604082015260600190565b60208082526010908201526f14185d5cd8589b194e881c185d5cd95960821b604082015260600190565b6020808252600490820152630216361760e41b604082015260600190565b60208082526021908201527f536166654d6174683a206d756c7469706c69636174696f6e206f766572666c6f6040820152607760f81b606082015260800190565b602080825260069082015265085d985d5b1d60d21b604082015260600190565b6020808252818101527f4f776e61626c653a2063616c6c6572206973206e6f7420746865206f776e6572604082015260600190565b6020808252601d908201527f416464726573733a2063616c6c20746f206e6f6e2d636f6e7472616374000000604082015260600190565b60208082526008908201526710b6b0b730b3b2b960c11b604082015260600190565b6020808252602a908201527f5361666545524332303a204552433230206f7065726174696f6e20646964206e6040820152691bdd081cdd58d8d9595960b21b606082015260800190565b60208082526036908201527f5361666545524332303a20617070726f76652066726f6d206e6f6e2d7a65726f60408201527520746f206e6f6e2d7a65726f20616c6c6f77616e636560501b606082015260800190565b90815260200190565b600060a082018783526020878185015260a0604085015281875480845260c0860191508885528285209350845b8181101561273c5784546001600160a01b031683526001948501949284019201612717565b50506001600160a01b03969096166060850152505050608001529392505050565b60405181810167ffffffffffffffff8111828210171561277c57600080fd5b604052919050565b600067ffffffffffffffff82111561279a578081fd5b5060209081020190565b60005b838110156127bf5781810151838201526020016127a7565b83811115610c075750506000910152565b801515811461070457600080fdfea2646970667358221220a21349b85fb57edd30a70fd63ed34d02c3b35dd4ce412c52b3dbd2889ca87fe864736f6c634300060c0033",
  "linkReferences": {},
  "deployedLinkReferences": {}
}