{
  "_format": "hh-sol-artifact-1",
  "contractName": "StrategyCommonRewardPoolLP",
  "sourceName": "contracts/BIFI/strategies/quick/StrategyCommonRewardPoolLP.sol",
  "abi": [
    {
      "inputs": [
        {
          "internalType": "address",
          "name": "_want",
          "type": "address"
        },
        {
          "internalType": "address",
          "name": "_rewardPool",
          "type": "address"
        },
        {
          "internalType": "address",
          "name": "_vault",
          "type": "address"
        },
        {
          "internalType": "address",
          "name": "_unirouter",
          "type": "address"
        },
        {
          "internalType": "address",
          "name": "_keeper",
          "type": "address"
        },
        {
          "internalType": "address",
          "name": "_strategist",
          "type": "address"
        },
        {
          "internalType": "address",
          "name": "_beefyFeeRecipient",
          "type": "address"
        },
        {
          "internalType": "address[]",
          "name": "_outputToNativeRoute",
          "type": "address[]"
        },
        {
          "internalType": "address[]",
          "name": "_outputToLp0Route",
          "type": "address[]"
        },
        {
          "internalType": "address[]",
          "name": "_outputToLp1Route",
          "type": "address[]"
        }
      ],
      "stateMutability": "nonpayable",
      "type": "constructor"
    },
    {
      "anonymous": false,
      "inputs": [
        {
          "indexed": true,
          "internalType": "address",
          "name": "previousOwner",
          "type": "address"
        },
        {
          "indexed": true,
          "internalType": "address",
          "name": "newOwner",
          "type": "address"
        }
      ],
      "name": "OwnershipTransferred",
      "type": "event"
    },
    {
      "anonymous": false,
      "inputs": [
        {
          "indexed": false,
          "internalType": "address",
          "name": "account",
          "type": "address"
        }
      ],
      "name": "Paused",
      "type": "event"
    },
    {
      "anonymous": false,
      "inputs": [
        {
          "indexed": true,
          "internalType": "address",
          "name": "harvester",
          "type": "address"
        }
      ],
      "name": "StratHarvest",
      "type": "event"
    },
    {
      "anonymous": false,
      "inputs": [
        {
          "indexed": false,
          "internalType": "address",
          "name": "account",
          "type": "address"
        }
      ],
      "name": "Unpaused",
      "type": "event"
    },
    {
      "inputs": [],
      "name": "MAX_CALL_FEE",
      "outputs": [
        {
          "internalType": "uint256",
          "name": "",
          "type": "uint256"
        }
      ],
      "stateMutability": "view",
      "type": "function"
    },
    {
      "inputs": [],
      "name": "MAX_FEE",
      "outputs": [
        {
          "internalType": "uint256",
          "name": "",
          "type": "uint256"
        }
      ],
      "stateMutability": "view",
      "type": "function"
    },
    {
      "inputs": [],
      "name": "STRATEGIST_FEE",
      "outputs": [
        {
          "internalType": "uint256",
          "name": "",
          "type": "uint256"
        }
      ],
      "stateMutability": "view",
      "type": "function"
    },
    {
      "inputs": [],
      "name": "WITHDRAWAL_FEE_CAP",
      "outputs": [
        {
          "internalType": "uint256",
          "name": "",
          "type": "uint256"
        }
      ],
      "stateMutability": "view",
      "type": "function"
    },
    {
      "inputs": [],
      "name": "WITHDRAWAL_MAX",
      "outputs": [
        {
          "internalType": "uint256",
          "name": "",
          "type": "uint256"
        }
      ],
      "stateMutability": "view",
      "type": "function"
    },
    {
      "inputs": [],
      "name": "balanceOf",
      "outputs": [
        {
          "internalType": "uint256",
          "name": "",
          "type": "uint256"
        }
      ],
      "stateMutability": "view",
      "type": "function"
    },
    {
      "inputs": [],
      "name": "balanceOfPool",
      "outputs": [
        {
          "internalType": "uint256",
          "name": "",
          "type": "uint256"
        }
      ],
      "stateMutability": "view",
      "type": "function"
    },
    {
      "inputs": [],
      "name": "balanceOfWant",
      "outputs": [
        {
          "internalType": "uint256",
          "name": "",
          "type": "uint256"
        }
      ],
      "stateMutability": "view",
      "type": "function"
    },
    {
      "inputs": [],
      "name": "beefyFee",
      "outputs": [
        {
          "internalType": "uint256",
          "name": "",
          "type": "uint256"
        }
      ],
      "stateMutability": "view",
      "type": "function"
    },
    {
      "inputs": [],
      "name": "beefyFeeRecipient",
      "outputs": [
        {
          "internalType": "address",
          "name": "",
          "type": "address"
        }
      ],
      "stateMutability": "view",
      "type": "function"
    },
    {
      "inputs": [],
      "name": "beforeDeposit",
      "outputs": [],
      "stateMutability": "nonpayable",
      "type": "function"
    },
    {
      "inputs": [],
      "name": "callFee",
      "outputs": [
        {
          "internalType": "uint256",
          "name": "",
          "type": "uint256"
        }
      ],
      "stateMutability": "view",
      "type": "function"
    },
    {
      "inputs": [],
      "name": "callReward",
      "outputs": [
        {
          "internalType": "uint256",
          "name": "",
          "type": "uint256"
        }
      ],
      "stateMutability": "view",
      "type": "function"
    },
    {
      "inputs": [],
      "name": "deposit",
      "outputs": [],
      "stateMutability": "nonpayable",
      "type": "function"
    },
    {
      "inputs": [],
      "name": "dragonsLair",
      "outputs": [
        {
          "internalType": "address",
          "name": "",
          "type": "address"
        }
      ],
      "stateMutability": "view",
      "type": "function"
    },
    {
      "inputs": [],
      "name": "harvest",
      "outputs": [],
      "stateMutability": "nonpayable",
      "type": "function"
    },
    {
      "inputs": [],
      "name": "harvestOnDeposit",
      "outputs": [
        {
          "internalType": "bool",
          "name": "",
          "type": "bool"
        }
      ],
      "stateMutability": "view",
      "type": "function"
    },
    {
      "inputs": [
        {
          "internalType": "address",
          "name": "callFeeRecipient",
          "type": "address"
        }
      ],
      "name": "harvestWithCallFeeRecipient",
      "outputs": [],
      "stateMutability": "nonpayable",
      "type": "function"
    },
    {
      "inputs": [],
      "name": "keeper",
      "outputs": [
        {
          "internalType": "address",
          "name": "",
          "type": "address"
        }
      ],
      "stateMutability": "view",
      "type": "function"
    },
    {
      "inputs": [],
      "name": "lastHarvest",
      "outputs": [
        {
          "internalType": "uint256",
          "name": "",
          "type": "uint256"
        }
      ],
      "stateMutability": "view",
      "type": "function"
    },
    {
      "inputs": [],
      "name": "lpToken0",
      "outputs": [
        {
          "internalType": "address",
          "name": "",
          "type": "address"
        }
      ],
      "stateMutability": "view",
      "type": "function"
    },
    {
      "inputs": [],
      "name": "lpToken1",
      "outputs": [
        {
          "internalType": "address",
          "name": "",
          "type": "address"
        }
      ],
      "stateMutability": "view",
      "type": "function"
    },
    {
      "inputs": [],
      "name": "managerHarvest",
      "outputs": [],
      "stateMutability": "nonpayable",
      "type": "function"
    },
    {
      "inputs": [],
      "name": "native",
      "outputs": [
        {
          "internalType": "address",
          "name": "",
          "type": "address"
        }
      ],
      "stateMutability": "view",
      "type": "function"
    },
    {
      "inputs": [],
      "name": "output",
      "outputs": [
        {
          "internalType": "address",
          "name": "",
          "type": "address"
        }
      ],
      "stateMutability": "view",
      "type": "function"
    },
    {
      "inputs": [],
      "name": "outputToLp0",
      "outputs": [
        {
          "internalType": "address[]",
          "name": "",
          "type": "address[]"
        }
      ],
      "stateMutability": "view",
      "type": "function"
    },
    {
      "inputs": [
        {
          "internalType": "uint256",
          "name": "",
          "type": "uint256"
        }
      ],
      "name": "outputToLp0Route",
      "outputs": [
        {
          "internalType": "address",
          "name": "",
          "type": "address"
        }
      ],
      "stateMutability": "view",
      "type": "function"
    },
    {
      "inputs": [
        {
          "internalType": "uint256",
          "name": "",
          "type": "uint256"
        }
      ],
      "name": "outputToLp0SymbolRoute",
      "outputs": [
        {
          "internalType": "string",
          "name": "",
          "type": "string"
        }
      ],
      "stateMutability": "view",
      "type": "function"
    },
    {
      "inputs": [],
      "name": "outputToLp1",
      "outputs": [
        {
          "internalType": "address[]",
          "name": "",
          "type": "address[]"
        }
      ],
      "stateMutability": "view",
      "type": "function"
    },
    {
      "inputs": [
        {
          "internalType": "uint256",
          "name": "",
          "type": "uint256"
        }
      ],
      "name": "outputToLp1Route",
      "outputs": [
        {
          "internalType": "address",
          "name": "",
          "type": "address"
        }
      ],
      "stateMutability": "view",
      "type": "function"
    },
    {
      "inputs": [
        {
          "internalType": "uint256",
          "name": "",
          "type": "uint256"
        }
      ],
      "name": "outputToLp1SymbolRoute",
      "outputs": [
        {
          "internalType": "string",
          "name": "",
          "type": "string"
        }
      ],
      "stateMutability": "view",
      "type": "function"
    },
    {
      "inputs": [],
      "name": "outputToNative",
      "outputs": [
        {
          "internalType": "address[]",
          "name": "",
          "type": "address[]"
        }
      ],
      "stateMutability": "view",
      "type": "function"
    },
    {
      "inputs": [
        {
          "internalType": "uint256",
          "name": "",
          "type": "uint256"
        }
      ],
      "name": "outputToNativeRoute",
      "outputs": [
        {
          "internalType": "address",
          "name": "",
          "type": "address"
        }
      ],
      "stateMutability": "view",
      "type": "function"
    },
    {
      "inputs": [],
      "name": "owner",
      "outputs": [
        {
          "internalType": "address",
          "name": "",
          "type": "address"
        }
      ],
      "stateMutability": "view",
      "type": "function"
    },
    {
      "inputs": [],
      "name": "panic",
      "outputs": [],
      "stateMutability": "nonpayable",
      "type": "function"
    },
    {
      "inputs": [],
      "name": "pause",
      "outputs": [],
      "stateMutability": "nonpayable",
      "type": "function"
    },
    {
      "inputs": [],
      "name": "paused",
      "outputs": [
        {
          "internalType": "bool",
          "name": "",
          "type": "bool"
        }
      ],
      "stateMutability": "view",
      "type": "function"
    },
    {
      "inputs": [],
      "name": "renounceOwnership",
      "outputs": [],
      "stateMutability": "nonpayable",
      "type": "function"
    },
    {
      "inputs": [],
      "name": "retireStrat",
      "outputs": [],
      "stateMutability": "nonpayable",
      "type": "function"
    },
    {
      "inputs": [],
      "name": "rewardPool",
      "outputs": [
        {
          "internalType": "address",
          "name": "",
          "type": "address"
        }
      ],
      "stateMutability": "view",
      "type": "function"
    },
    {
      "inputs": [],
      "name": "rewardsAvailable",
      "outputs": [
        {
          "internalType": "uint256",
          "name": "",
          "type": "uint256"
        }
      ],
      "stateMutability": "view",
      "type": "function"
    },
    {
      "inputs": [
        {
          "internalType": "address",
          "name": "_beefyFeeRecipient",
          "type": "address"
        }
      ],
      "name": "setBeefyFeeRecipient",
      "outputs": [],
      "stateMutability": "nonpayable",
      "type": "function"
    },
    {
      "inputs": [
        {
          "internalType": "uint256",
          "name": "_fee",
          "type": "uint256"
        }
      ],
      "name": "setCallFee",
      "outputs": [],
      "stateMutability": "nonpayable",
      "type": "function"
    },
    {
      "inputs": [
        {
          "internalType": "bool",
          "name": "_harvestOnDeposit",
          "type": "bool"
        }
      ],
      "name": "setHarvestOnDeposit",
      "outputs": [],
      "stateMutability": "nonpayable",
      "type": "function"
    },
    {
      "inputs": [
        {
          "internalType": "address",
          "name": "_keeper",
          "type": "address"
        }
      ],
      "name": "setKeeper",
      "outputs": [],
      "stateMutability": "nonpayable",
      "type": "function"
    },
    {
      "inputs": [
        {
          "internalType": "address",
          "name": "_strategist",
          "type": "address"
        }
      ],
      "name": "setStrategist",
      "outputs": [],
      "stateMutability": "nonpayable",
      "type": "function"
    },
    {
      "inputs": [
        {
          "internalType": "address",
          "name": "_unirouter",
          "type": "address"
        }
      ],
      "name": "setUnirouter",
      "outputs": [],
      "stateMutability": "nonpayable",
      "type": "function"
    },
    {
      "inputs": [
        {
          "internalType": "address",
          "name": "_vault",
          "type": "address"
        }
      ],
      "name": "setVault",
      "outputs": [],
      "stateMutability": "nonpayable",
      "type": "function"
    },
    {
      "inputs": [
        {
          "internalType": "uint256",
          "name": "_fee",
          "type": "uint256"
        }
      ],
      "name": "setWithdrawalFee",
      "outputs": [],
      "stateMutability": "nonpayable",
      "type": "function"
    },
    {
      "inputs": [],
      "name": "strategist",
      "outputs": [
        {
          "internalType": "address",
          "name": "",
          "type": "address"
        }
      ],
      "stateMutability": "view",
      "type": "function"
    },
    {
      "inputs": [
        {
          "internalType": "address",
          "name": "newOwner",
          "type": "address"
        }
      ],
      "name": "transferOwnership",
      "outputs": [],
      "stateMutability": "nonpayable",
      "type": "function"
    },
    {
      "inputs": [],
      "name": "unirouter",
      "outputs": [
        {
          "internalType": "address",
          "name": "",
          "type": "address"
        }
      ],
      "stateMutability": "view",
      "type": "function"
    },
    {
      "inputs": [],
      "name": "unpause",
      "outputs": [],
      "stateMutability": "nonpayable",
      "type": "function"
    },
    {
      "inputs": [],
      "name": "vault",
      "outputs": [
        {
          "internalType": "address",
          "name": "",
          "type": "address"
        }
      ],
      "stateMutability": "view",
      "type": "function"
    },
    {
      "inputs": [],
      "name": "want",
      "outputs": [
        {
          "internalType": "address",
          "name": "",
          "type": "address"
        }
      ],
      "stateMutability": "view",
      "type": "function"
    },
    {
      "inputs": [
        {
          "internalType": "uint256",
          "name": "_amount",
          "type": "uint256"
        }
      ],
      "name": "withdraw",
      "outputs": [],
      "stateMutability": "nonpayable",
      "type": "function"
    },
    {
      "inputs": [],
      "name": "withdrawalFee",
      "outputs": [
        {
          "internalType": "uint256",
          "name": "",
          "type": "uint256"
        }
      ],
      "stateMutability": "view",
      "type": "function"
    }
  ],
  "bytecode": "0x6080604052600a600655606f6007556103096008553480156200002157600080fd5b5060405162003736380380620037368339810160408190526200004491620008a8565b8585888a876000620000556200034b565b600080546001600160a01b0319166001600160a01b0383169081178255604051929350917f8be0079c531659141344cd1fd0a4f28419497f9722a3daafe3b4186f6b6457e0908290a3506000805460ff60a01b19168155600180546001600160a01b03199081166001600160a01b0398891617909155600280548216968816969096179095556003805486169487169490941790935560048054851692861692909217909155600580548416918516919091179055600b805483168e8516179055600e8054909216928c1692909217905583518491906200013257fe5b6020026020010151600a60006101000a8154816001600160a01b0302191690836001600160a01b03160217905550826001845103815181106200017157fe5b602090810291909101810151600980546001600160a01b0319166001600160a01b039092169190911790558351620001b091600f91908601906200073f565b50600b60009054906101000a90046001600160a01b03166001600160a01b0316630dfe16816040518163ffffffff1660e01b815260040160206040518083038186803b1580156200020057600080fd5b505afa15801562000215573d6000803e3d6000fd5b505050506040513d601f19601f820116820180604052508101906200023b91906200088a565b600c80546001600160a01b0319166001600160a01b03929092169190911790558151620002709060109060208501906200073f565b50600b60009054906101000a90046001600160a01b03166001600160a01b031663d21220a76040518163ffffffff1660e01b815260040160206040518083038186803b158015620002c057600080fd5b505afa158015620002d5573d6000803e3d6000fd5b505050506040513d601f19601f82011682018060405250810190620002fb91906200088a565b600d80546001600160a01b0319166001600160a01b03929092169190911790558051620003309060119060208401906200073f565b506200033b6200034f565b5050505050505050505062000bda565b3390565b600e54600b546200037c916001600160a01b0391821691166000196200045d602090811b6200163017901c565b600354600a54620003a9916001600160a01b0391821691166000196200045d602090811b6200163017901c565b600354600c54620003d5916001600160a01b03918216911660006200045d602090811b6200163017901c565b600354600c5462000402916001600160a01b0391821691166000196200045d602090811b6200163017901c565b600354600d546200042e916001600160a01b03918216911660006200045d602090811b6200163017901c565b600354600d546200045b916001600160a01b0391821691166000196200045d602090811b6200163017901c565b565b801580620004ec5750604051636eb1769f60e11b81526001600160a01b0384169063dd62ed3e9062000496903090869060040162000a1b565b60206040518083038186803b158015620004af57600080fd5b505afa158015620004c4573d6000803e3d6000fd5b505050506040513d601f19601f82011682018060405250810190620004ea9190620009e4565b155b620005145760405162461bcd60e51b81526004016200050b9062000b4a565b60405180910390fd5b6200056f8363095ea7b360e01b84846040516024016200053692919062000a35565b60408051808303601f190181529190526020810180516001600160e01b0319939093166001600160e01b03938416179052906200057416565b505050565b6060620005d0826040518060400160405280602081526020017f5361666545524332303a206c6f772d6c6576656c2063616c6c206661696c6564815250856001600160a01b03166200061060201b6200172a179092919060201c565b8051909150156200056f5780806020019051810190620005f19190620009c2565b6200056f5760405162461bcd60e51b81526004016200050b9062000b00565b60606200062184846000856200062b565b90505b9392505050565b606082471015620006505760405162461bcd60e51b81526004016200050b9062000a83565b6200065b85620006fb565b6200067a5760405162461bcd60e51b81526004016200050b9062000ac9565b60006060866001600160a01b03168587604051620006999190620009fd565b60006040518083038185875af1925050503d8060008114620006d8576040519150601f19603f3d011682016040523d82523d6000602084013e620006dd565b606091505b509092509050620006f082828662000701565b979650505050505050565b3b151590565b606083156200071257508162000624565b825115620007235782518084602001fd5b8160405162461bcd60e51b81526004016200050b919062000a4e565b82805482825590600052602060002090810192821562000797579160200282015b828111156200079757825182546001600160a01b0319166001600160a01b0390911617825560209092019160019091019062000760565b50620007a5929150620007a9565b5090565b5b80821115620007a55780546001600160a01b0319168155600101620007aa565b80516001600160a01b0381168114620007e257600080fd5b92915050565b600082601f830112620007f9578081fd5b81516001600160401b038082111562000810578283fd5b6020808302604051828282010181811085821117156200082e578687fd5b6040528481529450818501925085820181870183018810156200085057600080fd5b600091505b848210156200087f576200086a8882620007ca565b84529282019260019190910190820162000855565b505050505092915050565b6000602082840312156200089c578081fd5b620006248383620007ca565b6000806000806000806000806000806101408b8d031215620008c8578586fd5b620008d48c8c620007ca565b9950620008e58c60208d01620007ca565b9850620008f68c60408d01620007ca565b9750620009078c60608d01620007ca565b9650620009188c60808d01620007ca565b9550620009298c60a08d01620007ca565b94506200093a8c60c08d01620007ca565b60e08c01519094506001600160401b038082111562000957578485fd5b620009658e838f01620007e8565b94506101008d01519150808211156200097c578384fd5b6200098a8e838f01620007e8565b93506101208d0151915080821115620009a1578283fd5b50620009b08d828e01620007e8565b9150509295989b9194979a5092959850565b600060208284031215620009d4578081fd5b8151801515811462000624578182fd5b600060208284031215620009f6578081fd5b5051919050565b6000825162000a1181846020870162000ba7565b9190910192915050565b6001600160a01b0392831681529116602082015260400190565b6001600160a01b03929092168252602082015260400190565b600060208252825180602084015262000a6f81604085016020870162000ba7565b601f01601f19169190910160400192915050565b60208082526026908201527f416464726573733a20696e73756666696369656e742062616c616e636520666f6040820152651c8818d85b1b60d21b606082015260800190565b6020808252601d908201527f416464726573733a2063616c6c20746f206e6f6e2d636f6e7472616374000000604082015260600190565b6020808252602a908201527f5361666545524332303a204552433230206f7065726174696f6e20646964206e6040820152691bdd081cdd58d8d9595960b21b606082015260800190565b60208082526036908201527f5361666545524332303a20617070726f76652066726f6d206e6f6e2d7a65726f60408201527f20746f206e6f6e2d7a65726f20616c6c6f77616e636500000000000000000000606082015260800190565b60005b8381101562000bc457818101518382015260200162000baa565b8381111562000bd4576000848401525b50505050565b612b4c8062000bea6000396000f3fe608060405234801561001057600080fd5b50600436106103835760003560e01c80638456cb59116101de578063be12a9781161010f578063dfbdc437116100ad578063f2fde38b1161007c578063f2fde38b14610616578063fb61778714610629578063fbfa77cf14610631578063fd63a8871461063957610383565b8063dfbdc437146105f6578063e7a7250a146105fe578063f1a392da14610606578063f20eaeb81461060e57610383565b8063d0e30db0116100e9578063d0e30db0146105cb578063d3102589146105d3578063d801d946146105db578063d92f3d73146105e357610383565b8063be12a9781461059d578063c1a3d44c146105b0578063c7b9d530146105b857610383565b806397fd323d1161017c578063ac1e502511610156578063ac1e502514610567578063aced16611461057a578063b224a53e14610582578063bc063e1a1461059557610383565b806397fd323d14610544578063989ef4e31461054c578063a68833e51461055457610383565b80638bc7e8c4116101b85780638bc7e8c4146105245780638da5cb5b1461052c5780638e1454591461053457806390321e1a1461053c57610383565b80638456cb591461050c578063877562b6146105145780638912cb8b1461051c57610383565b80634641257d116102b8578063623d8bd211610256578063715018a611610230578063715018a6146104e1578063722713f7146104e9578063748747e6146104f15780637d38ca651461050457610383565b8063623d8bd2146104b357806366666aa9146104c65780636817031b146104ce57610383565b8063573fef0a11610292578063573fef0a146104865780635c975abb1461048e5780635ee167c0146104a35780636013d5bf146104ab57610383565b80634641257d1461046e5780634700d3051461047657806354518b1a1461047e57610383565b8063257ae0de116103255780632e1a7d4d116102ff5780632e1a7d4d1461042057806336c6cf21146104335780633c48eacf146104465780633f4ba83a1461046657610383565b8063257ae0de146103fd57806326465826146104055780632ad5a53f1461041857610383565b806311b0b42d1161036157806311b0b42d146103d057806313e120b1146103e55780631f1fcd51146103ed5780631fe4a686146103f557610383565b80630587f785146103885780630e8fbb5a146103a657806311588086146103bb575b600080fd5b61039061064c565b60405161039d9190612651565b60405180910390f35b6103b96103b43660046124ca565b6106ae565b005b6103c361073d565b60405161039d9190612a37565b6103d86107c3565b60405161039d91906125c1565b6103906107d2565b6103d8610832565b6103d8610841565b6103d8610850565b6103b9610413366004612502565b61085f565b6103c36108db565b6103b961042e366004612502565b6108e0565b6103d8610441366004612502565b610a47565b610459610454366004612502565b610a6e565b60405161039d91906126a9565b6103b9610b14565b6103b9610b7b565b6103b9610b85565b6103c3610c43565b6103b9610c49565b610496610c7e565b60405161039d919061269e565b6103d8610c8e565b6103d8610c9d565b6103b96104c136600461240e565b610cb5565b6103d8610cbe565b6103b96104dc36600461240e565b610ccd565b6103b9610d2e565b6103c3610db7565b6103b96104ff36600461240e565b610dd2565b6103c3610e41565b6103b9610e46565b6103d8610ea3565b610496610eb2565b6103c3610ebb565b6103d8610ec1565b6103d8610ed0565b6103c3610edf565b6103c3610ee5565b610390610fd2565b6103b961056236600461240e565b611032565b6103b9610575366004612502565b611093565b6103d8611106565b610459610590366004612502565b611115565b6103c3611122565b6103d86105ab366004612502565b611128565b6103c3611135565b6103b96105c636600461240e565b611166565b6103b96111b2565b6103c361124e565b6103b9611254565b6103b96105f136600461240e565b6112a1565b6103c3611302565b6103c3611307565b6103c361141a565b6103d8611420565b6103b961062436600461240e565b61142f565b6103b96114ef565b6103d8611614565b6103d8610647366004612502565b611623565b606060118054806020026020016040519081016040528092919081815260200182805480156106a457602002820191906000526020600020905b81546001600160a01b03168152600190910190602001808311610686575b5050505050905090565b6106b6610ec1565b6001600160a01b0316336001600160a01b031614806106df57506001546001600160a01b031633145b6107045760405162461bcd60e51b81526004016106fb90612975565b60405180910390fd5b6012805460ff1916821515179081905560ff161515600114156107305761072b6000611093565b61073a565b61073a600a611093565b50565b600e546040516370a0823160e01b81526000916001600160a01b0316906370a082319061076e9030906004016125c1565b60206040518083038186803b15801561078657600080fd5b505afa15801561079a573d6000803e3d6000fd5b505050506040513d601f19601f820116820180604052508101906107be919061251a565b905090565b6009546001600160a01b031681565b6060600f8054806020026020016040519081016040528092919081815260200182805480156106a4576020028201919060005260206000209081546001600160a01b03168152600190910190602001808311610686575050505050905090565b600b546001600160a01b031681565b6002546001600160a01b031681565b6003546001600160a01b031681565b610867610ec1565b6001600160a01b0316336001600160a01b0316148061089057506001546001600160a01b031633145b6108ac5760405162461bcd60e51b81526004016106fb90612975565b606f8111156108cd5760405162461bcd60e51b81526004016106fb9061288a565b600781905561037803600855565b606f81565b6004546001600160a01b0316331461090a5760405162461bcd60e51b81526004016106fb906128e9565b6000610914611135565b90508181101561099257600e546001600160a01b0316632e1a7d4d6109398484611743565b6040518263ffffffff1660e01b81526004016109559190612a37565b600060405180830381600087803b15801561096f57600080fd5b505af1158015610983573d6000803e3d6000fd5b5050505061098f611135565b90505b8181111561099d5750805b6109a5610ec1565b6001600160a01b0316326001600160a01b031614806109c757506109c7610c7e565b156109ee57600454600b546109e9916001600160a01b03918216911683611770565b610a43565b6000610a11612710610a0b6006548561178f90919063ffffffff16565b906117c9565b600454909150610a41906001600160a01b0316610a2e8484611743565b600b546001600160a01b03169190611770565b505b5050565b60108181548110610a5457fe5b6000918252602090912001546001600160a01b0316905081565b60148181548110610a7b57fe5b600091825260209182902001805460408051601f6002600019610100600187161502019094169390930492830185900485028101850190915281815293509091830182828015610b0c5780601f10610ae157610100808354040283529160200191610b0c565b820191906000526020600020905b815481529060010190602001808311610aef57829003601f168201915b505050505081565b610b1c610ec1565b6001600160a01b0316336001600160a01b03161480610b4557506001546001600160a01b031633145b610b615760405162461bcd60e51b81526004016106fb90612975565b610b696117fb565b610b7161186c565b610b796111b2565b565b610b796000611924565b610b8d610ec1565b6001600160a01b0316336001600160a01b03161480610bb657506001546001600160a01b031633145b610bd25760405162461bcd60e51b81526004016106fb90612975565b610bda610e46565b600e546001600160a01b0316632e1a7d4d610bf361073d565b6040518263ffffffff1660e01b8152600401610c0f9190612a37565b600060405180830381600087803b158015610c2957600080fd5b505af1158015610c3d573d6000803e3d6000fd5b50505050565b61271081565b60125460ff1615610b79576004546001600160a01b03163314610b7b5760405162461bcd60e51b81526004016106fb906128e9565b600054600160a01b900460ff1690565b600c546001600160a01b031681565b73f28164a485b0b2c90639e47b0f377b4a438a16b181565b61073a81611924565b600e546001600160a01b031681565b610cd5611b7f565b6001600160a01b0316610ce6610ec1565b6001600160a01b031614610d0c5760405162461bcd60e51b81526004016106fb90612909565b600480546001600160a01b0319166001600160a01b0392909216919091179055565b610d36611b7f565b6001600160a01b0316610d47610ec1565b6001600160a01b031614610d6d5760405162461bcd60e51b81526004016106fb90612909565b600080546040516001600160a01b03909116907f8be0079c531659141344cd1fd0a4f28419497f9722a3daafe3b4186f6b6457e0908390a3600080546001600160a01b0319169055565b60006107be610dc461073d565b610dcc611135565b90611b83565b610dda610ec1565b6001600160a01b0316336001600160a01b03161480610e0357506001546001600160a01b031633145b610e1f5760405162461bcd60e51b81526004016106fb90612975565b600180546001600160a01b0319166001600160a01b0392909216919091179055565b607081565b610e4e610ec1565b6001600160a01b0316336001600160a01b03161480610e7757506001546001600160a01b031633145b610e935760405162461bcd60e51b81526004016106fb90612975565b610e9b611ba8565b610b79611c09565b600d546001600160a01b031681565b60125460ff1681565b60065481565b6000546001600160a01b031690565b6005546001600160a01b031681565b60075481565b600080610ef0611307565b905060008115610f9f5760035460405163d06ca61f60e01b81526001600160a01b039091169063d06ca61f90610f2d908590600f90600401612a40565b60006040518083038186803b158015610f4557600080fd5b505afa925050508015610f7a57506040513d6000823e601f3d908101601f19168201604052610f779190810190612435565b60015b610f8357610f9f565b80600182510381518110610f9357fe5b60200260200101519150505b610fcb6103e8610a0b600754610fc56103e8610a0b602d8861178f90919063ffffffff16565b9061178f565b9250505090565b606060108054806020026020016040519081016040528092919081815260200182805480156106a4576020028201919060005260206000209081546001600160a01b03168152600190910190602001808311610686575050505050905090565b61103a611b7f565b6001600160a01b031661104b610ec1565b6001600160a01b0316146110715760405162461bcd60e51b81526004016106fb90612909565b600580546001600160a01b0319166001600160a01b0392909216919091179055565b61109b610ec1565b6001600160a01b0316336001600160a01b031614806110c457506001546001600160a01b031633145b6110e05760405162461bcd60e51b81526004016106fb90612975565b60328111156111015760405162461bcd60e51b81526004016106fb9061288a565b600655565b6001546001600160a01b031681565b60158181548110610a7b57fe5b6103e881565b600f8181548110610a5457fe5b600b546040516370a0823160e01b81526000916001600160a01b0316906370a082319061076e9030906004016125c1565b6002546001600160a01b031633146111905760405162461bcd60e51b81526004016106fb9061270a565b600280546001600160a01b0319166001600160a01b0392909216919091179055565b6111ba610c7e565b156111d75760405162461bcd60e51b81526004016106fb90612860565b60006111e1611135565b9050801561073a57600e5460405163534a7e1d60e11b81526001600160a01b039091169063a694fc3a90611219908490600401612a37565b600060405180830381600087803b15801561123357600080fd5b505af1158015611247573d6000803e3d6000fd5b5050505050565b60085481565b61125c610ec1565b6001600160a01b0316336001600160a01b0316148061128557506001546001600160a01b031633145b610b7b5760405162461bcd60e51b81526004016106fb90612975565b6112a9611b7f565b6001600160a01b03166112ba610ec1565b6001600160a01b0316146112e05760405162461bcd60e51b81526004016106fb90612909565b600380546001600160a01b0319166001600160a01b0392909216919091179055565b603281565b600e546040516246613160e11b815260009182916001600160a01b0390911690628cc2629061133a9030906004016125c1565b60206040518083038186803b15801561135257600080fd5b505afa158015611366573d6000803e3d6000fd5b505050506040513d601f19601f8201168201806040525081019061138a919061251a565b6040516315a33b5f60e31b815290915073f28164a485b0b2c90639e47b0f377b4a438a16b19063ad19daf8906113c4908490600401612a37565b60206040518083038186803b1580156113dc57600080fd5b505afa1580156113f0573d6000803e3d6000fd5b505050506040513d601f19601f82011682018060405250810190611414919061251a565b91505090565b60135481565b600a546001600160a01b031681565b611437611b7f565b6001600160a01b0316611448610ec1565b6001600160a01b03161461146e5760405162461bcd60e51b81526004016106fb90612909565b6001600160a01b0381166114945760405162461bcd60e51b81526004016106fb9061272f565b600080546040516001600160a01b03808516939216917f8be0079c531659141344cd1fd0a4f28419497f9722a3daafe3b4186f6b6457e091a3600080546001600160a01b0319166001600160a01b0392909216919091179055565b6004546001600160a01b031633146115195760405162461bcd60e51b81526004016106fb906128e9565b600e546001600160a01b0316632e1a7d4d61153261073d565b6040518263ffffffff1660e01b815260040161154e9190612a37565b600060405180830381600087803b15801561156857600080fd5b505af115801561157c573d6000803e3d6000fd5b50505050600061158a611135565b600b546004805460405163a9059cbb60e01b81529394506001600160a01b039283169363a9059cbb936115c293921691869101612638565b602060405180830381600087803b1580156115dc57600080fd5b505af11580156115f0573d6000803e3d6000fd5b505050506040513d601f19601f82011682018060405250810190610a4391906124e6565b6004546001600160a01b031681565b60118181548110610a5457fe5b8015806116b85750604051636eb1769f60e11b81526001600160a01b0384169063dd62ed3e9061166690309086906004016125d5565b60206040518083038186803b15801561167e57600080fd5b505afa158015611692573d6000803e3d6000fd5b505050506040513d601f19601f820116820180604052508101906116b6919061251a565b155b6116d45760405162461bcd60e51b81526004016106fb906129e1565b610a418363095ea7b360e01b84846040516024016116f3929190612638565b60408051601f198184030181529190526020810180516001600160e01b03166001600160e01b031990931692909217909152611c81565b60606117398484600085611d10565b90505b9392505050565b6000828211156117655760405162461bcd60e51b81526004016106fb906127ac565b508082035b92915050565b610a418363a9059cbb60e01b84846040516024016116f3929190612638565b60008261179e5750600061176a565b828202828482816117ab57fe5b041461173c5760405162461bcd60e51b81526004016106fb906128a8565b60008082116117ea5760405162461bcd60e51b81526004016106fb90612829565b8183816117f357fe5b049392505050565b611803610c7e565b61181f5760405162461bcd60e51b81526004016106fb906126dc565b6000805460ff60a01b191690557f5db9ee0a495bf2e6ff9c91a7834c1ba4fdd244a5e8aa4e537bd38aeae4b073aa611855611b7f565b60405161186291906125c1565b60405180910390a1565b600e54600b5461188b916001600160a01b039182169116600019611630565b600354600a546118aa916001600160a01b039182169116600019611630565b600354600c546118c8916001600160a01b0391821691166000611630565b600354600c546118e7916001600160a01b039182169116600019611630565b600354600d54611905916001600160a01b0391821691166000611630565b600354600d54610b79916001600160a01b039182169116600019611630565b61192c610c7e565b156119495760405162461bcd60e51b81526004016106fb90612860565b600e60009054906101000a90046001600160a01b03166001600160a01b0316633d18b9126040518163ffffffff1660e01b8152600401600060405180830381600087803b15801561199957600080fd5b505af11580156119ad573d6000803e3d6000fd5b50506040516370a0823160e01b81526000925073f28164a485b0b2c90639e47b0f377b4a438a16b191506370a08231906119eb9030906004016125c1565b60206040518083038186803b158015611a0357600080fd5b505afa158015611a17573d6000803e3d6000fd5b505050506040513d601f19601f82011682018060405250810190611a3b919061251a565b6040516367dfd4c960e01b815290915073f28164a485b0b2c90639e47b0f377b4a438a16b1906367dfd4c990611a75908490600401612a37565b600060405180830381600087803b158015611a8f57600080fd5b505af1158015611aa3573d6000803e3d6000fd5b5050600a546040516370a0823160e01b8152600093506001600160a01b0390911691506370a0823190611ada9030906004016125c1565b60206040518083038186803b158015611af257600080fd5b505afa158015611b06573d6000803e3d6000fd5b505050506040513d601f19601f82011682018060405250810190611b2a919061251a565b90508015610a4157611b3b83611dd1565b611b4361204f565b611b4b6111b2565b4260135560405133907f577a37fdb49a88d66684922c6f913df5239b4f214b2b97c53ef8e3bbb2034cb590600090a2505050565b3390565b60008282018381101561173c5760405162461bcd60e51b81526004016106fb90612775565b611bb0610c7e565b15611bcd5760405162461bcd60e51b81526004016106fb90612860565b6000805460ff60a01b1916600160a01b1790557f62e78cea01bee320cd4e420270b5ea74000d11b0c9f74754ebdbfc544b05a258611855611b7f565b600e54600b54611c27916001600160a01b0391821691166000611630565b600354600a54611c45916001600160a01b0391821691166000611630565b600354600c54611c63916001600160a01b0391821691166000611630565b600354600d54610b79916001600160a01b0391821691166000611630565b6060611cd6826040518060400160405280602081526020017f5361666545524332303a206c6f772d6c6576656c2063616c6c206661696c6564815250856001600160a01b031661172a9092919063ffffffff16565b805190915015610a415780806020019051810190611cf491906124e6565b610a415760405162461bcd60e51b81526004016106fb90612997565b606082471015611d325760405162461bcd60e51b81526004016106fb906127e3565b611d3b856123cf565b611d575760405162461bcd60e51b81526004016106fb9061293e565b60006060866001600160a01b03168587604051611d7491906125a5565b60006040518083038185875af1925050503d8060008114611db1576040519150601f19603f3d011682016040523d82523d6000602084013e611db6565b606091505b5091509150611dc68282866123d5565b979650505050505050565b600a546040516370a0823160e01b8152600091611e61916103e891610a0b91602d916001600160a01b0316906370a0823190611e119030906004016125c1565b60206040518083038186803b158015611e2957600080fd5b505afa158015611e3d573d6000803e3d6000fd5b505050506040513d601f19601f82011682018060405250810190610fc5919061251a565b6003546040516338ed173960e01b81529192506001600160a01b0316906338ed173990611e9c908490600090600f9030904290600401612a59565b600060405180830381600087803b158015611eb657600080fd5b505af1158015611eca573d6000803e3d6000fd5b505050506040513d6000823e601f3d908101601f19168201604052611ef29190810190612435565b506009546040516370a0823160e01b81526000916001600160a01b0316906370a0823190611f249030906004016125c1565b60206040518083038186803b158015611f3c57600080fd5b505afa158015611f50573d6000803e3d6000fd5b505050506040513d601f19601f82011682018060405250810190611f74919061251a565b90506000611f936103e8610a0b6007548561178f90919063ffffffff16565b90506001600160a01b03841615611fc057600954611fbb906001600160a01b03168583611770565b611fd7565b600954611fd7906001600160a01b03163283611770565b6000611ff46103e8610a0b6008548661178f90919063ffffffff16565b600554600954919250612014916001600160a01b03908116911683611770565b60006120276103e8610a0b86607061178f565b600254600954919250612047916001600160a01b03908116911683611770565b505050505050565b600a546040516370a0823160e01b81526000916120d7916002916001600160a01b0316906370a08231906120879030906004016125c1565b60206040518083038186803b15801561209f57600080fd5b505afa1580156120b3573d6000803e3d6000fd5b505050506040513d601f19601f82011682018060405250810190610a0b919061251a565b600a54600c549192506001600160a01b03918216911614612184576003546040516338ed173960e01b81526001600160a01b03909116906338ed17399061212c90849060009060109030904290600401612a59565b600060405180830381600087803b15801561214657600080fd5b505af115801561215a573d6000803e3d6000fd5b505050506040513d6000823e601f3d908101601f191682016040526121829190810190612435565b505b600a54600d546001600160a01b0390811691161461222e576003546040516338ed173960e01b81526001600160a01b03909116906338ed1739906121d690849060009060119030904290600401612a59565b600060405180830381600087803b1580156121f057600080fd5b505af1158015612204573d6000803e3d6000fd5b505050506040513d6000823e601f3d908101601f1916820160405261222c9190810190612435565b505b600c546040516370a0823160e01b81526000916001600160a01b0316906370a082319061225f9030906004016125c1565b60206040518083038186803b15801561227757600080fd5b505afa15801561228b573d6000803e3d6000fd5b505050506040513d601f19601f820116820180604052508101906122af919061251a565b600d546040516370a0823160e01b81529192506000916001600160a01b03909116906370a08231906122e59030906004016125c1565b60206040518083038186803b1580156122fd57600080fd5b505afa158015612311573d6000803e3d6000fd5b505050506040513d601f19601f82011682018060405250810190612335919061251a565b600354600c54600d5460405162e8e33760e81b81529394506001600160a01b039283169363e8e337009361237d938116921690879087906001908190309042906004016125ef565b606060405180830381600087803b15801561239757600080fd5b505af11580156123ab573d6000803e3d6000fd5b505050506040513d601f19601f820116820180604052508101906120479190612532565b3b151590565b606083156123e457508161173c565b8251156123f45782518084602001fd5b8160405162461bcd60e51b81526004016106fb91906126a9565b60006020828403121561241f578081fd5b81356001600160a01b038116811461173c578182fd5b60006020808385031215612447578182fd5b825167ffffffffffffffff81111561245d578283fd5b8301601f8101851361246d578283fd5b805161248061247b82612abc565b612a95565b818152838101908385018584028501860189101561249c578687fd5b8694505b838510156124be5780518352600194909401939185019185016124a0565b50979650505050505050565b6000602082840312156124db578081fd5b813561173c81612b08565b6000602082840312156124f7578081fd5b815161173c81612b08565b600060208284031215612513578081fd5b5035919050565b60006020828403121561252b578081fd5b5051919050565b600080600060608486031215612546578182fd5b8351925060208401519150604084015190509250925092565b6000815480845260208085019450838352808320835b8381101561259a5781546001600160a01b031687529582019560019182019101612575565b509495945050505050565b600082516125b7818460208701612adc565b9190910192915050565b6001600160a01b0391909116815260200190565b6001600160a01b0392831681529116602082015260400190565b6001600160a01b039889168152968816602088015260408701959095526060860193909352608085019190915260a084015290921660c082015260e08101919091526101000190565b6001600160a01b03929092168252602082015260400190565b6020808252825182820181905260009190848201906040850190845b818110156126925783516001600160a01b03168352928401929184019160010161266d565b50909695505050505050565b901515815260200190565b60006020825282518060208401526126c8816040850160208701612adc565b601f01601f19169190910160400192915050565b60208082526014908201527314185d5cd8589b194e881b9bdd081c185d5cd95960621b604082015260600190565b6020808252600b908201526a085cdd1c985d1959da5cdd60aa1b604082015260600190565b60208082526026908201527f4f776e61626c653a206e6577206f776e657220697320746865207a65726f206160408201526564647265737360d01b606082015260800190565b6020808252601b908201527f536166654d6174683a206164646974696f6e206f766572666c6f770000000000604082015260600190565b6020808252601e908201527f536166654d6174683a207375627472616374696f6e206f766572666c6f770000604082015260600190565b60208082526026908201527f416464726573733a20696e73756666696369656e742062616c616e636520666f6040820152651c8818d85b1b60d21b606082015260800190565b6020808252601a908201527f536166654d6174683a206469766973696f6e206279207a65726f000000000000604082015260600190565b60208082526010908201526f14185d5cd8589b194e881c185d5cd95960821b604082015260600190565b6020808252600490820152630216361760e41b604082015260600190565b60208082526021908201527f536166654d6174683a206d756c7469706c69636174696f6e206f766572666c6f6040820152607760f81b606082015260800190565b602080825260069082015265085d985d5b1d60d21b604082015260600190565b6020808252818101527f4f776e61626c653a2063616c6c6572206973206e6f7420746865206f776e6572604082015260600190565b6020808252601d908201527f416464726573733a2063616c6c20746f206e6f6e2d636f6e7472616374000000604082015260600190565b60208082526008908201526710b6b0b730b3b2b960c11b604082015260600190565b6020808252602a908201527f5361666545524332303a204552433230206f7065726174696f6e20646964206e6040820152691bdd081cdd58d8d9595960b21b606082015260800190565b60208082526036908201527f5361666545524332303a20617070726f76652066726f6d206e6f6e2d7a65726f60408201527520746f206e6f6e2d7a65726f20616c6c6f77616e636560501b606082015260800190565b90815260200190565b600083825260406020830152611739604083018461255f565b600086825285602083015260a06040830152612a7860a083018661255f565b6001600160a01b0394909416606083015250608001529392505050565b60405181810167ffffffffffffffff81118282101715612ab457600080fd5b604052919050565b600067ffffffffffffffff821115612ad2578081fd5b5060209081020190565b60005b83811015612af7578181015183820152602001612adf565b83811115610c3d5750506000910152565b801515811461073a57600080fdfea2646970667358221220191682a168ffa1345863c41d9d6dc3c999f0f857acba70d332334561cbbc837e64736f6c634300060c0033",
  "linkReferences": {},
  "deployedLinkReferences": {}
}