{
  "_format": "hh-sol-artifact-1",
  "contractName": "StrategyCommonChefLPBsc",
  "sourceName": "contracts/BIFI/strategies/Common/StrategyCommonChefLPBsc.sol",
  "abi": [
    {
      "inputs": [
        {
          "internalType": "address",
          "name": "_want",
          "type": "address"
        },
        {
          "internalType": "uint256",
          "name": "_poolId",
          "type": "uint256"
        },
        {
          "internalType": "address",
          "name": "_chef",
          "type": "address"
        },
        {
          "internalType": "address",
          "name": "_vault",
          "type": "address"
        },
        {
          "internalType": "address",
          "name": "_unirouter",
          "type": "address"
        },
        {
          "internalType": "address",
          "name": "_keeper",
          "type": "address"
        },
        {
          "internalType": "address",
          "name": "_strategist",
          "type": "address"
        },
        {
          "internalType": "address",
          "name": "_beefyFeeRecipient",
          "type": "address"
        },
        {
          "internalType": "address payable",
          "name": "_crtInteration",
          "type": "address"
        },
        {
          "internalType": "address[]",
          "name": "_nativeToCRTRoute",
          "type": "address[]"
        },
        {
          "internalType": "address[]",
          "name": "_outputToNativeRoute",
          "type": "address[]"
        },
        {
          "internalType": "address[]",
          "name": "_outputToLp0Route",
          "type": "address[]"
        },
        {
          "internalType": "address[]",
          "name": "_outputToLp1Route",
          "type": "address[]"
        }
      ],
      "stateMutability": "nonpayable",
      "type": "constructor"
    },
    {
      "anonymous": false,
      "inputs": [
        {
          "indexed": true,
          "internalType": "address",
          "name": "previousOwner",
          "type": "address"
        },
        {
          "indexed": true,
          "internalType": "address",
          "name": "newOwner",
          "type": "address"
        }
      ],
      "name": "OwnershipTransferred",
      "type": "event"
    },
    {
      "anonymous": false,
      "inputs": [
        {
          "indexed": false,
          "internalType": "address",
          "name": "account",
          "type": "address"
        }
      ],
      "name": "Paused",
      "type": "event"
    },
    {
      "anonymous": false,
      "inputs": [
        {
          "indexed": true,
          "internalType": "address",
          "name": "harvester",
          "type": "address"
        }
      ],
      "name": "StratHarvest",
      "type": "event"
    },
    {
      "anonymous": false,
      "inputs": [
        {
          "indexed": false,
          "internalType": "address",
          "name": "account",
          "type": "address"
        }
      ],
      "name": "Unpaused",
      "type": "event"
    },
    {
      "inputs": [],
      "name": "CRT",
      "outputs": [
        {
          "internalType": "address",
          "name": "",
          "type": "address"
        }
      ],
      "stateMutability": "view",
      "type": "function"
    },
    {
      "inputs": [],
      "name": "MAX_CALL_FEE",
      "outputs": [
        {
          "internalType": "uint256",
          "name": "",
          "type": "uint256"
        }
      ],
      "stateMutability": "view",
      "type": "function"
    },
    {
      "inputs": [],
      "name": "MAX_FEE",
      "outputs": [
        {
          "internalType": "uint256",
          "name": "",
          "type": "uint256"
        }
      ],
      "stateMutability": "view",
      "type": "function"
    },
    {
      "inputs": [],
      "name": "STRATEGIST_FEE",
      "outputs": [
        {
          "internalType": "uint256",
          "name": "",
          "type": "uint256"
        }
      ],
      "stateMutability": "view",
      "type": "function"
    },
    {
      "inputs": [],
      "name": "WITHDRAWAL_FEE_CAP",
      "outputs": [
        {
          "internalType": "uint256",
          "name": "",
          "type": "uint256"
        }
      ],
      "stateMutability": "view",
      "type": "function"
    },
    {
      "inputs": [],
      "name": "WITHDRAWAL_MAX",
      "outputs": [
        {
          "internalType": "uint256",
          "name": "",
          "type": "uint256"
        }
      ],
      "stateMutability": "view",
      "type": "function"
    },
    {
      "inputs": [],
      "name": "accCRTpershare",
      "outputs": [
        {
          "internalType": "uint256",
          "name": "",
          "type": "uint256"
        }
      ],
      "stateMutability": "view",
      "type": "function"
    },
    {
      "inputs": [],
      "name": "balanceOf",
      "outputs": [
        {
          "internalType": "uint256",
          "name": "",
          "type": "uint256"
        }
      ],
      "stateMutability": "view",
      "type": "function"
    },
    {
      "inputs": [],
      "name": "balanceOfPool",
      "outputs": [
        {
          "internalType": "uint256",
          "name": "",
          "type": "uint256"
        }
      ],
      "stateMutability": "view",
      "type": "function"
    },
    {
      "inputs": [],
      "name": "balanceOfWant",
      "outputs": [
        {
          "internalType": "uint256",
          "name": "",
          "type": "uint256"
        }
      ],
      "stateMutability": "view",
      "type": "function"
    },
    {
      "inputs": [],
      "name": "beefyFee",
      "outputs": [
        {
          "internalType": "uint256",
          "name": "",
          "type": "uint256"
        }
      ],
      "stateMutability": "view",
      "type": "function"
    },
    {
      "inputs": [],
      "name": "beefyFeeRecipient",
      "outputs": [
        {
          "internalType": "address",
          "name": "",
          "type": "address"
        }
      ],
      "stateMutability": "view",
      "type": "function"
    },
    {
      "inputs": [],
      "name": "beforeDeposit",
      "outputs": [],
      "stateMutability": "nonpayable",
      "type": "function"
    },
    {
      "inputs": [],
      "name": "callFee",
      "outputs": [
        {
          "internalType": "uint256",
          "name": "",
          "type": "uint256"
        }
      ],
      "stateMutability": "view",
      "type": "function"
    },
    {
      "inputs": [],
      "name": "callReward",
      "outputs": [
        {
          "internalType": "uint256",
          "name": "",
          "type": "uint256"
        }
      ],
      "stateMutability": "view",
      "type": "function"
    },
    {
      "inputs": [],
      "name": "chef",
      "outputs": [
        {
          "internalType": "address",
          "name": "",
          "type": "address"
        }
      ],
      "stateMutability": "view",
      "type": "function"
    },
    {
      "inputs": [],
      "name": "deposit",
      "outputs": [],
      "stateMutability": "nonpayable",
      "type": "function"
    },
    {
      "inputs": [],
      "name": "gasprice",
      "outputs": [
        {
          "internalType": "address",
          "name": "",
          "type": "address"
        }
      ],
      "stateMutability": "view",
      "type": "function"
    },
    {
      "inputs": [],
      "name": "harvest",
      "outputs": [],
      "stateMutability": "nonpayable",
      "type": "function"
    },
    {
      "inputs": [],
      "name": "harvestCRT",
      "outputs": [],
      "stateMutability": "nonpayable",
      "type": "function"
    },
    {
      "inputs": [],
      "name": "harvestOnDeposit",
      "outputs": [
        {
          "internalType": "bool",
          "name": "",
          "type": "bool"
        }
      ],
      "stateMutability": "view",
      "type": "function"
    },
    {
      "inputs": [
        {
          "internalType": "address",
          "name": "callFeeRecipient",
          "type": "address"
        }
      ],
      "name": "harvestWithCallFeeRecipient",
      "outputs": [],
      "stateMutability": "nonpayable",
      "type": "function"
    },
    {
      "inputs": [],
      "name": "keeper",
      "outputs": [
        {
          "internalType": "address",
          "name": "",
          "type": "address"
        }
      ],
      "stateMutability": "view",
      "type": "function"
    },
    {
      "inputs": [],
      "name": "lastHarvest",
      "outputs": [
        {
          "internalType": "uint256",
          "name": "",
          "type": "uint256"
        }
      ],
      "stateMutability": "view",
      "type": "function"
    },
    {
      "inputs": [],
      "name": "lpToken0",
      "outputs": [
        {
          "internalType": "address",
          "name": "",
          "type": "address"
        }
      ],
      "stateMutability": "view",
      "type": "function"
    },
    {
      "inputs": [],
      "name": "lpToken1",
      "outputs": [
        {
          "internalType": "address",
          "name": "",
          "type": "address"
        }
      ],
      "stateMutability": "view",
      "type": "function"
    },
    {
      "inputs": [],
      "name": "managerHarvest",
      "outputs": [],
      "stateMutability": "nonpayable",
      "type": "function"
    },
    {
      "inputs": [],
      "name": "native",
      "outputs": [
        {
          "internalType": "address",
          "name": "",
          "type": "address"
        }
      ],
      "stateMutability": "view",
      "type": "function"
    },
    {
      "inputs": [
        {
          "internalType": "uint256",
          "name": "",
          "type": "uint256"
        }
      ],
      "name": "nativeToCRTRoute",
      "outputs": [
        {
          "internalType": "address",
          "name": "",
          "type": "address"
        }
      ],
      "stateMutability": "view",
      "type": "function"
    },
    {
      "inputs": [],
      "name": "output",
      "outputs": [
        {
          "internalType": "address",
          "name": "",
          "type": "address"
        }
      ],
      "stateMutability": "view",
      "type": "function"
    },
    {
      "inputs": [],
      "name": "outputToLp0",
      "outputs": [
        {
          "internalType": "address[]",
          "name": "",
          "type": "address[]"
        }
      ],
      "stateMutability": "view",
      "type": "function"
    },
    {
      "inputs": [
        {
          "internalType": "uint256",
          "name": "",
          "type": "uint256"
        }
      ],
      "name": "outputToLp0Route",
      "outputs": [
        {
          "internalType": "address",
          "name": "",
          "type": "address"
        }
      ],
      "stateMutability": "view",
      "type": "function"
    },
    {
      "inputs": [],
      "name": "outputToLp1",
      "outputs": [
        {
          "internalType": "address[]",
          "name": "",
          "type": "address[]"
        }
      ],
      "stateMutability": "view",
      "type": "function"
    },
    {
      "inputs": [
        {
          "internalType": "uint256",
          "name": "",
          "type": "uint256"
        }
      ],
      "name": "outputToLp1Route",
      "outputs": [
        {
          "internalType": "address",
          "name": "",
          "type": "address"
        }
      ],
      "stateMutability": "view",
      "type": "function"
    },
    {
      "inputs": [],
      "name": "outputToNative",
      "outputs": [
        {
          "internalType": "address[]",
          "name": "",
          "type": "address[]"
        }
      ],
      "stateMutability": "view",
      "type": "function"
    },
    {
      "inputs": [
        {
          "internalType": "uint256",
          "name": "",
          "type": "uint256"
        }
      ],
      "name": "outputToNativeRoute",
      "outputs": [
        {
          "internalType": "address",
          "name": "",
          "type": "address"
        }
      ],
      "stateMutability": "view",
      "type": "function"
    },
    {
      "inputs": [],
      "name": "owner",
      "outputs": [
        {
          "internalType": "address",
          "name": "",
          "type": "address"
        }
      ],
      "stateMutability": "view",
      "type": "function"
    },
    {
      "inputs": [],
      "name": "panic",
      "outputs": [],
      "stateMutability": "nonpayable",
      "type": "function"
    },
    {
      "inputs": [],
      "name": "pause",
      "outputs": [],
      "stateMutability": "nonpayable",
      "type": "function"
    },
    {
      "inputs": [],
      "name": "paused",
      "outputs": [
        {
          "internalType": "bool",
          "name": "",
          "type": "bool"
        }
      ],
      "stateMutability": "view",
      "type": "function"
    },
    {
      "inputs": [
        {
          "internalType": "address",
          "name": "_user",
          "type": "address"
        }
      ],
      "name": "pendingCRT",
      "outputs": [
        {
          "internalType": "uint256",
          "name": "",
          "type": "uint256"
        }
      ],
      "stateMutability": "view",
      "type": "function"
    },
    {
      "inputs": [],
      "name": "pendingRewardsFunctionName",
      "outputs": [
        {
          "internalType": "string",
          "name": "",
          "type": "string"
        }
      ],
      "stateMutability": "view",
      "type": "function"
    },
    {
      "inputs": [],
      "name": "poolId",
      "outputs": [
        {
          "internalType": "uint256",
          "name": "",
          "type": "uint256"
        }
      ],
      "stateMutability": "view",
      "type": "function"
    },
    {
      "inputs": [],
      "name": "renounceOwnership",
      "outputs": [],
      "stateMutability": "nonpayable",
      "type": "function"
    },
    {
      "inputs": [],
      "name": "retireStrat",
      "outputs": [],
      "stateMutability": "nonpayable",
      "type": "function"
    },
    {
      "inputs": [],
      "name": "rewardsAvailable",
      "outputs": [
        {
          "internalType": "uint256",
          "name": "",
          "type": "uint256"
        }
      ],
      "stateMutability": "view",
      "type": "function"
    },
    {
      "inputs": [
        {
          "internalType": "address",
          "name": "_beefyFeeRecipient",
          "type": "address"
        }
      ],
      "name": "setBeefyFeeRecipient",
      "outputs": [],
      "stateMutability": "nonpayable",
      "type": "function"
    },
    {
      "inputs": [
        {
          "internalType": "uint256",
          "name": "_fee",
          "type": "uint256"
        }
      ],
      "name": "setCallFee",
      "outputs": [],
      "stateMutability": "nonpayable",
      "type": "function"
    },
    {
      "inputs": [
        {
          "internalType": "bool",
          "name": "_harvestOnDeposit",
          "type": "bool"
        }
      ],
      "name": "setHarvestOnDeposit",
      "outputs": [],
      "stateMutability": "nonpayable",
      "type": "function"
    },
    {
      "inputs": [
        {
          "internalType": "address",
          "name": "_keeper",
          "type": "address"
        }
      ],
      "name": "setKeeper",
      "outputs": [],
      "stateMutability": "nonpayable",
      "type": "function"
    },
    {
      "inputs": [
        {
          "internalType": "string",
          "name": "_pendingRewardsFunctionName",
          "type": "string"
        }
      ],
      "name": "setPendingRewardsFunctionName",
      "outputs": [],
      "stateMutability": "nonpayable",
      "type": "function"
    },
    {
      "inputs": [
        {
          "internalType": "address",
          "name": "_strategist",
          "type": "address"
        }
      ],
      "name": "setStrategist",
      "outputs": [],
      "stateMutability": "nonpayable",
      "type": "function"
    },
    {
      "inputs": [
        {
          "internalType": "address",
          "name": "_unirouter",
          "type": "address"
        }
      ],
      "name": "setUnirouter",
      "outputs": [],
      "stateMutability": "nonpayable",
      "type": "function"
    },
    {
      "inputs": [
        {
          "internalType": "address",
          "name": "_vault",
          "type": "address"
        }
      ],
      "name": "setVault",
      "outputs": [],
      "stateMutability": "nonpayable",
      "type": "function"
    },
    {
      "inputs": [
        {
          "internalType": "uint256",
          "name": "_fee",
          "type": "uint256"
        }
      ],
      "name": "setWithdrawalFee",
      "outputs": [],
      "stateMutability": "nonpayable",
      "type": "function"
    },
    {
      "inputs": [],
      "name": "shouldGasThrottle",
      "outputs": [
        {
          "internalType": "bool",
          "name": "",
          "type": "bool"
        }
      ],
      "stateMutability": "view",
      "type": "function"
    },
    {
      "inputs": [],
      "name": "strategist",
      "outputs": [
        {
          "internalType": "address",
          "name": "",
          "type": "address"
        }
      ],
      "stateMutability": "view",
      "type": "function"
    },
    {
      "inputs": [],
      "name": "totalVaultShare",
      "outputs": [
        {
          "internalType": "uint256",
          "name": "",
          "type": "uint256"
        }
      ],
      "stateMutability": "view",
      "type": "function"
    },
    {
      "inputs": [
        {
          "internalType": "address",
          "name": "newOwner",
          "type": "address"
        }
      ],
      "name": "transferOwnership",
      "outputs": [],
      "stateMutability": "nonpayable",
      "type": "function"
    },
    {
      "inputs": [],
      "name": "unirouter",
      "outputs": [
        {
          "internalType": "address",
          "name": "",
          "type": "address"
        }
      ],
      "stateMutability": "view",
      "type": "function"
    },
    {
      "inputs": [],
      "name": "unpause",
      "outputs": [],
      "stateMutability": "nonpayable",
      "type": "function"
    },
    {
      "inputs": [
        {
          "internalType": "uint256",
          "name": "_amount",
          "type": "uint256"
        }
      ],
      "name": "updateUserin",
      "outputs": [],
      "stateMutability": "nonpayable",
      "type": "function"
    },
    {
      "inputs": [
        {
          "internalType": "uint256",
          "name": "_amount",
          "type": "uint256"
        }
      ],
      "name": "updateUserout",
      "outputs": [],
      "stateMutability": "nonpayable",
      "type": "function"
    },
    {
      "inputs": [
        {
          "internalType": "address",
          "name": "",
          "type": "address"
        }
      ],
      "name": "userInfo",
      "outputs": [
        {
          "internalType": "uint256",
          "name": "amount",
          "type": "uint256"
        },
        {
          "internalType": "uint256",
          "name": "rewardDebt",
          "type": "uint256"
        }
      ],
      "stateMutability": "view",
      "type": "function"
    },
    {
      "inputs": [],
      "name": "vault",
      "outputs": [
        {
          "internalType": "address",
          "name": "",
          "type": "address"
        }
      ],
      "stateMutability": "view",
      "type": "function"
    },
    {
      "inputs": [],
      "name": "want",
      "outputs": [
        {
          "internalType": "address",
          "name": "",
          "type": "address"
        }
      ],
      "stateMutability": "view",
      "type": "function"
    },
    {
      "inputs": [
        {
          "internalType": "uint256",
          "name": "_amount",
          "type": "uint256"
        }
      ],
      "name": "withdraw",
      "outputs": [],
      "stateMutability": "nonpayable",
      "type": "function"
    },
    {
      "inputs": [],
      "name": "withdrawalFee",
      "outputs": [
        {
          "internalType": "uint256",
          "name": "",
          "type": "uint256"
        }
      ],
      "stateMutability": "view",
      "type": "function"
    }
  ],
  "bytecode": "0x6080604052600a600655606f600755610309600855601c8054600160ff1990911617610100600160a81b03191674a43509661141f254f54d9a326e8ec851a0b95307001790553480156200005257600080fd5b5060405162004ea038038062004ea083398181016040526101a08110156200007957600080fd5b815160208301516040808501516060860151608087015160a088015160c089015160e08a01516101008b01516101208c01805198519a9c999b979a969995989497939692959194929382019284640100000000821115620000d957600080fd5b908301906020820185811115620000ef57600080fd5b82518660208202830111640100000000821117156200010d57600080fd5b82525081516020918201928201910280838360005b838110156200013c57818101518382015260200162000122565b50505050905001604052602001805160405193929190846401000000008211156200016657600080fd5b9083019060208201858111156200017c57600080fd5b82518660208202830111640100000000821117156200019a57600080fd5b82525081516020918201928201910280838360005b83811015620001c9578181015183820152602001620001af565b5050505090500160405260200180516040519392919084640100000000821115620001f357600080fd5b9083019060208201858111156200020957600080fd5b82518660208202830111640100000000821117156200022757600080fd5b82525081516020918201928201910280838360005b83811015620002565781810151838201526020016200023c565b50505050905001604052602001805160405193929190846401000000008211156200028057600080fd5b9083019060208201858111156200029657600080fd5b8251866020820283011164010000000082111715620002b457600080fd5b82525081516020918201928201910280838360005b83811015620002e3578181015183820152602001620002c9565b505050509050016040525050508c8c8c8c8c8c8c8c8c8c8c8c8c87878a8c89600062000314620008f460201b60201c565b600080546001600160a01b0319166001600160a01b0383169081178255604051929350917f8be0079c531659141344cd1fd0a4f28419497f9722a3daafe3b4186f6b6457e0908290a35060008060146101000a81548160ff02191690831515021790555084600160006101000a8154816001600160a01b0302191690836001600160a01b0316021790555083600260006101000a8154816001600160a01b0302191690836001600160a01b0316021790555082600360006101000a8154816001600160a01b0302191690836001600160a01b0316021790555081600460006101000a8154816001600160a01b0302191690836001600160a01b0316021790555080600560006101000a8154816001600160a01b0302191690836001600160a01b0316021790555050505050508c600e60006101000a8154816001600160a01b0302191690836001600160a01b031602179055508b6014819055508a601360006101000a8154816001600160a01b0302191690836001600160a01b0316021790555084601160006101000a8154816001600160a01b0302191690836001600160a01b0316021790555083600185510381518110620004cd57fe5b602090810291909101810151601280546001600160a01b0319166001600160a01b0390921691909117905584516200050c916018919087019062000e46565b50826000815181106200051b57fe5b6020026020010151600d60006101000a8154816001600160a01b0302191690836001600160a01b03160217905550826001845103815181106200055a57fe5b602090810291909101810151600c80546001600160a01b0319166001600160a01b03909216919091179055835162000599916019919086019062000e46565b50600e60009054906101000a90046001600160a01b03166001600160a01b0316630dfe16816040518163ffffffff1660e01b815260040160206040518083038186803b158015620005e957600080fd5b505afa158015620005fe573d6000803e3d6000fd5b505050506040513d60208110156200061557600080fd5b5051600f80546001600160a01b0319166001600160a01b03928316179055600d54835191169083906000906200064757fe5b60200260200101516001600160a01b031614620006ab576040805162461bcd60e51b815260206004820152601d60248201527f6f7574707574546f4c7030526f7574655b305d20213d206f7574707574000000604482015290519081900360640190fd5b600f5482516001600160a01b039091169083906000198101908110620006cd57fe5b60200260200101516001600160a01b0316146200071c5760405162461bcd60e51b815260040180806020018281038252602281526020018062004e1e6022913960400191505060405180910390fd5b81516200073190601a90602085019062000e46565b50600e60009054906101000a90046001600160a01b03166001600160a01b031663d21220a76040518163ffffffff1660e01b815260040160206040518083038186803b1580156200078157600080fd5b505afa15801562000796573d6000803e3d6000fd5b505050506040513d6020811015620007ad57600080fd5b5051601080546001600160a01b0319166001600160a01b03928316179055600d5482519116908290600090620007df57fe5b60200260200101516001600160a01b03161462000843576040805162461bcd60e51b815260206004820152601d60248201527f6f7574707574546f4c7031526f7574655b305d20213d206f7574707574000000604482015290519081900360640190fd5b60105481516001600160a01b0390911690829060001981019081106200086557fe5b60200260200101516001600160a01b031614620008b45760405162461bcd60e51b815260040180806020018281038252602281526020018062004dd66022913960400191505060405180910390fd5b8051620008c990601b90602084019062000e46565b50620008d4620008f8565b505050505050505050505050505050505050505050505050505062000ed1565b3390565b601354600e5462000925916001600160a01b03918216911660001962000a33602090811b620023a417901c565b600354600d5462000952916001600160a01b03918216911660001962000a33602090811b620023a417901c565b600354600f546200097e916001600160a01b039182169116600062000a33602090811b620023a417901c565b600354600f54620009ab916001600160a01b03918216911660001962000a33602090811b620023a417901c565b600354601054620009d7916001600160a01b039182169116600062000a33602090811b620023a417901c565b60035460105462000a04916001600160a01b03918216911660001962000a33602090811b620023a417901c565b600354600c5462000a31916001600160a01b03918216911660001962000a33602090811b620023a417901c565b565b80158062000abd575060408051636eb1769f60e11b81523060048201526001600160a01b03848116602483015291519185169163dd62ed3e91604480820192602092909190829003018186803b15801562000a8d57600080fd5b505afa15801562000aa2573d6000803e3d6000fd5b505050506040513d602081101562000ab957600080fd5b5051155b62000afa5760405162461bcd60e51b815260040180806020018281038252603681526020018062004e6a6036913960400191505060405180910390fd5b604080516001600160a01b038416602482015260448082018490528251808303909101815260649091019091526020810180516001600160e01b0390811663095ea7b360e01b1790915262000b5291859162000b5716565b505050565b606062000bb3826040518060400160405280602081526020017f5361666545524332303a206c6f772d6c6576656c2063616c6c206661696c6564815250856001600160a01b031662000c1360201b620024b7179092919060201c565b80519091501562000b525780806020019051602081101562000bd457600080fd5b505162000b525760405162461bcd60e51b815260040180806020018281038252602a81526020018062004e40602a913960400191505060405180910390fd5b606062000c24848460008562000c2e565b90505b9392505050565b60608247101562000c715760405162461bcd60e51b815260040180806020018281038252602681526020018062004df86026913960400191505060405180910390fd5b62000c7c8562000d96565b62000cce576040805162461bcd60e51b815260206004820152601d60248201527f416464726573733a2063616c6c20746f206e6f6e2d636f6e7472616374000000604482015290519081900360640190fd5b60006060866001600160a01b031685876040518082805190602001908083835b6020831062000d0f5780518252601f19909201916020918201910162000cee565b6001836020036101000a03801982511681845116808217855250505050505090500191505060006040518083038185875af1925050503d806000811462000d73576040519150601f19603f3d011682016040523d82523d6000602084013e62000d78565b606091505b50909250905062000d8b82828662000d9c565b979650505050505050565b3b151590565b6060831562000dad57508162000c27565b82511562000dbe5782518084602001fd5b8160405162461bcd60e51b81526004018080602001828103825283818151815260200191508051906020019080838360005b8381101562000e0a57818101518382015260200162000df0565b50505050905090810190601f16801562000e385780820380516001836020036101000a031916815260200191505b509250505060405180910390fd5b82805482825590600052602060002090810192821562000e9e579160200282015b8281111562000e9e57825182546001600160a01b0319166001600160a01b0390911617825560209092019160019091019062000e67565b5062000eac92915062000eb0565b5090565b5b8082111562000eac5780546001600160a01b031916815560010162000eb1565b613ef58062000ee16000396000f3fe608060405234801561001057600080fd5b50600436106103fc5760003560e01c80637d38ca6511610215578063bc063e1a11610125578063d92f3d73116100b8578063f20eaeb811610087578063f20eaeb814610930578063f2fde38b14610938578063fb6177871461095e578063fbfa77cf14610966578063fd63a8871461096e576103fc565b8063d92f3d73146108f2578063dfbdc43714610918578063e7a7250a14610920578063f1a392da14610928576103fc565b8063c7b9d530116100f4578063c7b9d530146108b4578063d0e30db0146108da578063d3102589146108e2578063d801d946146108ea576103fc565b8063bc063e1a1461087f578063be12a97814610887578063c1a3d44c146108a4578063c3fe71c2146108ac576103fc565b806390321e1a116101a8578063a68833e511610177578063a68833e5146107fa578063ab6f2f6014610820578063ac1e50251461083d578063aced16611461085a578063b99007f914610862576103fc565b806390321e1a146107da57806397fd323d146107e2578063989ef4e3146107ea5780639f8b5da1146107f2576103fc565b80638912cb8b116101e45780638912cb8b146107ba5780638bc7e8c4146107c25780638da5cb5b146107ca5780638e145459146107d2576103fc565b80637d38ca651461077c5780637ec0a72a146107845780638456cb59146107aa578063877562b6146107b2576103fc565b806336c6cf21116103105780635c975abb116102a35780636ae5d253116102725780636ae5d253146107215780636ec232d31461073e578063715018a614610746578063722713f71461074e578063748747e614610756576103fc565b80635c975abb146106b15780635ee167c0146106cd578063623d8bd2146106d55780636817031b146106fb576103fc565b80634700d305116102df5780634700d3051461062b57806354518b1a14610633578063573fef0a1461063b57806359e7913814610643576103fc565b806336c6cf21146105f65780633e0dc34e146106135780633f4ba83a1461061b5780634641257d14610623576103fc565b80631fc8bc5d116103935780632646582611610362578063264658261461052f578063277e5cfd1461054c5780632aa0a5c8146105c95780632ad5a53f146105d15780632e1a7d4d146105d9576103fc565b80631fc8bc5d1461050f5780631fe4a68614610517578063249c998b1461051f578063257ae0de14610527576103fc565b806311c01d12116103cf57806311c01d12146104b857806313e120b1146104c05780631959a002146104c85780631f1fcd5114610507576103fc565b80630587f785146104015780630e8fbb5a14610459578063115880861461047a57806311b0b42d14610494575b600080fd5b61040961098b565b60408051602080825283518183015283519192839290830191858101910280838360005b8381101561044557818101518382015260200161042d565b505050509050019250505060405180910390f35b6104786004803603602081101561046f57600080fd5b503515156109ed565b005b610482610a8e565b60408051918252519081900360200190f35b61049c610b15565b604080516001600160a01b039092168252519081900360200190f35b610482610b24565b610409610b2a565b6104ee600480360360208110156104de57600080fd5b50356001600160a01b0316610b8a565b6040805192835260208301919091528051918290030190f35b61049c610ba3565b61049c610bb2565b61049c610bc1565b610478610bd0565b61049c610c56565b6104786004803603602081101561054557600080fd5b5035610c65565b610554610d1f565b6040805160208082528351818301528351919283929083019185019080838360005b8381101561058e578181015183820152602001610576565b50505050905090810190601f1680156105bb5780820380516001836020036101000a031916815260200191505b509250505060405180910390f35b61049c610dad565b610482610dbc565b610478600480360360208110156105ef57600080fd5b5035610dc1565b61049c6004803603602081101561060c57600080fd5b503561102a565b610482611051565b610478611057565b6104786110de565b610478611203565b6104826112e2565b6104786112e8565b6104786004803603602081101561065957600080fd5b810190602081018135600160201b81111561067357600080fd5b82018360208201111561068557600080fd5b803590602001918460018302840111600160201b831117156106a657600080fd5b50909250905061133b565b6106b96113b4565b604080519115158252519081900360200190f35b61049c6113c4565b610478600480360360208110156106eb57600080fd5b50356001600160a01b03166113d3565b6104786004803603602081101561071157600080fd5b50356001600160a01b03166113dc565b6104786004803603602081101561073757600080fd5b5035611460565b61049c611502565b610478611516565b6104826115c2565b6104786004803603602081101561076c57600080fd5b50356001600160a01b03166115e2565b610482611671565b6104826004803603602081101561079a57600080fd5b50356001600160a01b0316611676565b6104786116b9565b61049c611736565b6106b9611745565b61048261174e565b61049c611754565b61049c611763565b610482611772565b610482611778565b610409611944565b6106b96119a4565b6104786004803603602081101561081057600080fd5b50356001600160a01b03166119ad565b6104786004803603602081101561083657600080fd5b5035611a31565b6104786004803603602081101561085357600080fd5b5035611b0e565b61049c611bbf565b61049c6004803603602081101561087857600080fd5b5035611bce565b610482611bdb565b61049c6004803603602081101561089d57600080fd5b5035611be1565b610482611bee565b610482611c6a565b610478600480360360208110156108ca57600080fd5b50356001600160a01b0316611c70565b610478611cdf565b610482611e1d565b610478611e23565b6104786004803603602081101561090857600080fd5b50356001600160a01b0316611e90565b610482611f14565b610482611f19565b6104826120c0565b61049c6120c6565b6104786004803603602081101561094e57600080fd5b50356001600160a01b03166120d5565b6104786121d7565b61049c612388565b61049c6004803603602081101561098457600080fd5b5035612397565b6060601b8054806020026020016040519081016040528092919081815260200182805480156109e357602002820191906000526020600020905b81546001600160a01b031681526001909101906020018083116109c5575b5050505050905090565b6109f5611754565b6001600160a01b0316336001600160a01b03161480610a1e57506001546001600160a01b031633145b610a5a576040805162461bcd60e51b815260206004820152600860248201526710b6b0b730b3b2b960c11b604482015290519081900360640190fd5b6015805460ff1916821515179081905560ff1615610a8157610a7c6000611b0e565b610a8b565b610a8b600a611b0e565b50565b601354601454604080516393f1a40b60e01b81526004810192909252306024830152805160009384936001600160a01b03909116926393f1a40b92604480840193829003018186803b158015610ae357600080fd5b505afa158015610af7573d6000803e3d6000fd5b505050506040513d6040811015610b0d57600080fd5b505191505090565b600c546001600160a01b031681565b600a5481565b606060198054806020026020016040519081016040528092919081815260200182805480156109e3576020028201919060005260206000209081546001600160a01b031681526001909101906020018083116109c5575050505050905090565b6009602052600090815260409020805460019091015482565b600e546001600160a01b031681565b6013546001600160a01b031681565b6002546001600160a01b031681565b3260009081526009602052604081206001810154600a548254929392610c129291610c0c9164e8d4a5100091610c0691906124ce565b90612530565b90612597565b90508015610c3157601254610c31906001600160a01b031632836125f4565b600a548254610c4a9164e8d4a5100091610c06916124ce565b82600101819055505050565b6003546001600160a01b031681565b610c6d611754565b6001600160a01b0316336001600160a01b03161480610c9657506001546001600160a01b031633145b610cd2576040805162461bcd60e51b815260206004820152600860248201526710b6b0b730b3b2b960c11b604482015290519081900360640190fd5b606f811115610d11576040805162461bcd60e51b815260206004808301919091526024820152630216361760e41b604482015290519081900360640190fd5b600781905561037803600855565b6017805460408051602060026001851615610100026000190190941693909304601f81018490048402820184019092528181529291830182828015610da55780601f10610d7a57610100808354040283529160200191610da5565b820191906000526020600020905b815481529060010190602001808311610d8857829003601f168201915b505050505081565b6012546001600160a01b031681565b606f81565b6004546001600160a01b03163314610e09576040805162461bcd60e51b8152602060048201526006602482015265085d985d5b1d60d21b604482015290519081900360640190fd5b600e54604080516370a0823160e01b815230600482015290516000926001600160a01b0316916370a08231916024808301926020929190829003018186803b158015610e5457600080fd5b505afa158015610e68573d6000803e3d6000fd5b505050506040513d6020811015610e7e57600080fd5b5051905081811015610f7b576013546014546001600160a01b039091169063441a3e7090610eac8585612597565b6040518363ffffffff1660e01b81526004018083815260200182815260200192505050600060405180830381600087803b158015610ee957600080fd5b505af1158015610efd573d6000803e3d6000fd5b5050600e54604080516370a0823160e01b815230600482015290516001600160a01b0390921693506370a082319250602480820192602092909190829003018186803b158015610f4c57600080fd5b505afa158015610f60573d6000803e3d6000fd5b505050506040513d6020811015610f7657600080fd5b505190505b81811115610f865750805b610f8e611754565b6001600160a01b0316326001600160a01b03161480610fb05750610fb06113b4565b15610fd757600454600e54610fd2916001600160a01b039182169116836125f4565b611026565b6000610ff4612710610c06600654856124ce90919063ffffffff16565b600454909150611024906001600160a01b03166110118484612597565b600e546001600160a01b031691906125f4565b505b5050565b601a818154811061103757fe5b6000918252602090912001546001600160a01b0316905081565b60145481565b61105f611754565b6001600160a01b0316336001600160a01b0316148061108857506001546001600160a01b031633145b6110c4576040805162461bcd60e51b815260206004820152600860248201526710b6b0b730b3b2b960c11b604482015290519081900360640190fd5b6110cc612646565b6110d46126e9565b6110dc611cdf565b565b6110e66113b4565b1561112b576040805162461bcd60e51b815260206004820152601060248201526f14185d5cd8589b194e881c185d5cd95960821b604482015290519081900360640190fd5b601c5460ff16156111f957601c60019054906101000a90046001600160a01b03166001600160a01b0316633de39c116040518163ffffffff1660e01b8152600401602060405180830381600087803b15801561118657600080fd5b505af115801561119a573d6000803e3d6000fd5b505050506040513d60208110156111b057600080fd5b50513a11156111f9576040805162461bcd60e51b815260206004820152601060248201526f67617320697320746f6f20686967682160801b604482015290519081900360640190fd5b6110dc60006127c0565b61120b611754565b6001600160a01b0316336001600160a01b0316148061123457506001546001600160a01b031633145b611270576040805162461bcd60e51b815260206004820152600860248201526710b6b0b730b3b2b960c11b604482015290519081900360640190fd5b6112786116b9565b60135460145460408051632989754760e11b81526004810192909252516001600160a01b0390921691635312ea8e9160248082019260009290919082900301818387803b1580156112c857600080fd5b505af11580156112dc573d6000803e3d6000fd5b50505050565b61271081565b60155460ff16156110dc576004546001600160a01b031633146111f9576040805162461bcd60e51b8152602060048201526006602482015265085d985d5b1d60d21b604482015290519081900360640190fd5b611343611754565b6001600160a01b0316336001600160a01b0316148061136c57506001546001600160a01b031633145b6113a8576040805162461bcd60e51b815260206004820152600860248201526710b6b0b730b3b2b960c11b604482015290519081900360640190fd5b61102460178383613cf6565b600054600160a01b900460ff1690565b600f546001600160a01b031681565b610a8b816127c0565b6113e4612948565b6001600160a01b03166113f5611754565b6001600160a01b03161461143e576040805162461bcd60e51b81526020600482018190526024820152600080516020613e1c833981519152604482015290519081900360640190fd5b600480546001600160a01b0319166001600160a01b0392909216919091179055565b6004546001600160a01b031633146114ac576040805162461bcd60e51b815260206004820152600a6024820152696e6f74207661756c742160b01b604482015290519081900360640190fd5b32600090815260096020526040902081156114e05780546114cd9083612597565b8155600b546114dc9083612597565b600b555b600a5481546114f99164e8d4a5100091610c06916124ce565b60019091015550565b601c5461010090046001600160a01b031681565b61151e612948565b6001600160a01b031661152f611754565b6001600160a01b031614611578576040805162461bcd60e51b81526020600482018190526024820152600080516020613e1c833981519152604482015290519081900360640190fd5b600080546040516001600160a01b03909116907f8be0079c531659141344cd1fd0a4f28419497f9722a3daafe3b4186f6b6457e0908390a3600080546001600160a01b0319169055565b60006115dd6115cf610a8e565b6115d7611bee565b9061294c565b905090565b6115ea611754565b6001600160a01b0316336001600160a01b0316148061161357506001546001600160a01b031633145b61164f576040805162461bcd60e51b815260206004820152600860248201526710b6b0b730b3b2b960c11b604482015290519081900360640190fd5b600180546001600160a01b0319166001600160a01b0392909216919091179055565b607081565b6001600160a01b03811660009081526009602052604081206001810154600a5482546116b29291610c0c9164e8d4a5100091610c0691906124ce565b9392505050565b6116c1611754565b6001600160a01b0316336001600160a01b031614806116ea57506001546001600160a01b031633145b611726576040805162461bcd60e51b815260206004820152600860248201526710b6b0b730b3b2b960c11b604482015290519081900360640190fd5b61172e6129a6565b6110dc612a2f565b6010546001600160a01b031681565b60155460ff1681565b60065481565b6000546001600160a01b031690565b6005546001600160a01b031681565b60075481565b600080611783611f19565b905060008115611911576003546040805163d06ca61f60e01b8152600481018581526024820192835260198054604484018190526001600160a01b039095169463d06ca61f94889492939290916064909101908490801561180d57602002820191906000526020600020905b81546001600160a01b031681526001909101906020018083116117ef575b5050935050505060006040518083038186803b15801561182c57600080fd5b505afa9250505080156118ec57506040513d6000823e601f3d908101601f19168201604052602081101561185f57600080fd5b8101908080516040519392919084600160201b82111561187e57600080fd5b90830190602082018581111561189357600080fd5b82518660208202830111600160201b821117156118af57600080fd5b82525081516020918201928201910280838360005b838110156118dc5781810151838201526020016118c4565b5050505090500160405250505060015b6118f557611911565b8060018251038151811061190557fe5b60200260200101519150505b61193d6103e8610c066007546119376103e8610c06602d886124ce90919063ffffffff16565b906124ce565b9250505090565b6060601a8054806020026020016040519081016040528092919081815260200182805480156109e3576020028201919060005260206000209081546001600160a01b031681526001909101906020018083116109c5575050505050905090565b601c5460ff1681565b6119b5612948565b6001600160a01b03166119c6611754565b6001600160a01b031614611a0f576040805162461bcd60e51b81526020600482018190526024820152600080516020613e1c833981519152604482015290519081900360640190fd5b600580546001600160a01b0319166001600160a01b0392909216919091179055565b6004546001600160a01b03163314611a7d576040805162461bcd60e51b815260206004820152600a6024820152696e6f74207661756c742160b01b604482015290519081900360640190fd5b3260009081526009602052604090208115611ab1578054611a9e908361294c565b8155600b54611aad908361294c565b600b555b611ada6040518060400160405280600781526020016630b6b7bab73a1d60c91b81525083612aa7565b6114e06040518060400160405280601081526020016f3a37ba30b62b30bab63a29b430b9329d60811b815250600b54612aa7565b611b16611754565b6001600160a01b0316336001600160a01b03161480611b3f57506001546001600160a01b031633145b611b7b576040805162461bcd60e51b815260206004820152600860248201526710b6b0b730b3b2b960c11b604482015290519081900360640190fd5b6032811115611bba576040805162461bcd60e51b815260206004808301919091526024820152630216361760e41b604482015290519081900360640190fd5b600655565b6001546001600160a01b031681565b6018818154811061103757fe5b6103e881565b6019818154811061103757fe5b600e54604080516370a0823160e01b815230600482015290516000926001600160a01b0316916370a08231916024808301926020929190829003018186803b158015611c3957600080fd5b505afa158015611c4d573d6000803e3d6000fd5b505050506040513d6020811015611c6357600080fd5b5051905090565b600b5481565b6002546001600160a01b03163314611cbd576040805162461bcd60e51b815260206004820152600b60248201526a085cdd1c985d1959da5cdd60aa1b604482015290519081900360640190fd5b600280546001600160a01b0319166001600160a01b0392909216919091179055565b611ce76113b4565b15611d2c576040805162461bcd60e51b815260206004820152601060248201526f14185d5cd8589b194e881c185d5cd95960821b604482015290519081900360640190fd5b600e54604080516370a0823160e01b815230600482015290516000926001600160a01b0316916370a08231916024808301926020929190829003018186803b158015611d7757600080fd5b505afa158015611d8b573d6000803e3d6000fd5b505050506040513d6020811015611da157600080fd5b505190508015610a8b5760135460145460408051631c57762b60e31b8152600481019290925260248201849052516001600160a01b039092169163e2bbb1589160448082019260009290919082900301818387803b158015611e0257600080fd5b505af1158015611e16573d6000803e3d6000fd5b5050505050565b60085481565b611e2b611754565b6001600160a01b0316336001600160a01b03161480611e5457506001546001600160a01b031633145b6111f9576040805162461bcd60e51b815260206004820152600860248201526710b6b0b730b3b2b960c11b604482015290519081900360640190fd5b611e98612948565b6001600160a01b0316611ea9611754565b6001600160a01b031614611ef2576040805162461bcd60e51b81526020600482018190526024820152600080516020613e1c833981519152604482015290519081900360640190fd5b600380546001600160a01b0319166001600160a01b0392909216919091179055565b603281565b60178054604080516020601f60026000196101006001881615020190951694909404938401819004810282018101909252828152600093606093611fdc93830182828015611fa85780601f10611f7d57610100808354040283529160200191611fa8565b820191906000526020600020905b815481529060010190602001808311611f8b57829003601f168201915b5050505050604051806040016040528060118152602001702875696e743235362c616464726573732960781b815250612b55565b601354601454604080516024810192909252306044808401919091528151808403909101815260649092019081905283519394506060936120a0936001600160a01b031692918691819060208401908083835b6020831061204e5780518252601f19909201916020918201910161202f565b51815160209384036101000a600019018019909216911617905260405191909301819003902091850180516001600160e01b03199093166001600160e01b039093169290921790915250612c10915050565b90508080602001905160208110156120b757600080fd5b50519250505090565b60165481565b600d546001600160a01b031681565b6120dd612948565b6001600160a01b03166120ee611754565b6001600160a01b031614612137576040805162461bcd60e51b81526020600482018190526024820152600080516020613e1c833981519152604482015290519081900360640190fd5b6001600160a01b03811661217c5760405162461bcd60e51b8152600401808060200182810382526026815260200180613d8a6026913960400191505060405180910390fd5b600080546040516001600160a01b03808516939216917f8be0079c531659141344cd1fd0a4f28419497f9722a3daafe3b4186f6b6457e091a3600080546001600160a01b0319166001600160a01b0392909216919091179055565b6004546001600160a01b0316331461221f576040805162461bcd60e51b8152602060048201526006602482015265085d985d5b1d60d21b604482015290519081900360640190fd5b60135460145460408051632989754760e11b81526004810192909252516001600160a01b0390921691635312ea8e9160248082019260009290919082900301818387803b15801561226f57600080fd5b505af1158015612283573d6000803e3d6000fd5b5050600e54604080516370a0823160e01b81523060048201529051600094506001600160a01b0390921692506370a08231916024808301926020929190829003018186803b1580156122d457600080fd5b505afa1580156122e8573d6000803e3d6000fd5b505050506040513d60208110156122fe57600080fd5b5051600e54600480546040805163a9059cbb60e01b81526001600160a01b039283169381019390935260248301859052519394509091169163a9059cbb916044808201926020929091908290030181600087803b15801561235e57600080fd5b505af1158015612372573d6000803e3d6000fd5b505050506040513d602081101561102457600080fd5b6004546001600160a01b031681565b601b818154811061103757fe5b80158061242a575060408051636eb1769f60e11b81523060048201526001600160a01b03848116602483015291519185169163dd62ed3e91604480820192602092909190829003018186803b1580156123fc57600080fd5b505afa158015612410573d6000803e3d6000fd5b505050506040513d602081101561242657600080fd5b5051155b6124655760405162461bcd60e51b8152600401808060200182810382526036815260200180613e8a6036913960400191505060405180910390fd5b604080516001600160a01b038416602482015260448082018490528251808303909101815260649091019091526020810180516001600160e01b031663095ea7b360e01b179052611024908490612c35565b60606124c68484600085612ce6565b949350505050565b6000826124dd5750600061252a565b828202828482816124ea57fe5b04146125275760405162461bcd60e51b8152600401808060200182810382526021815260200180613dfb6021913960400191505060405180910390fd5b90505b92915050565b6000808211612586576040805162461bcd60e51b815260206004820152601a60248201527f536166654d6174683a206469766973696f6e206279207a65726f000000000000604482015290519081900360640190fd5b81838161258f57fe5b049392505050565b6000828211156125ee576040805162461bcd60e51b815260206004820152601e60248201527f536166654d6174683a207375627472616374696f6e206f766572666c6f770000604482015290519081900360640190fd5b50900390565b604080516001600160a01b038416602482015260448082018490528251808303909101815260649091019091526020810180516001600160e01b031663a9059cbb60e01b179052611024908490612c35565b61264e6113b4565b612696576040805162461bcd60e51b815260206004820152601460248201527314185d5cd8589b194e881b9bdd081c185d5cd95960621b604482015290519081900360640190fd5b6000805460ff60a01b191690557f5db9ee0a495bf2e6ff9c91a7834c1ba4fdd244a5e8aa4e537bd38aeae4b073aa6126cc612948565b604080516001600160a01b039092168252519081900360200190a1565b601354600e54612708916001600160a01b0391821691166000196123a4565b600354600d54612727916001600160a01b0391821691166000196123a4565b600354600f54612745916001600160a01b03918216911660006123a4565b600354600f54612764916001600160a01b0391821691166000196123a4565b600354601054612782916001600160a01b03918216911660006123a4565b6003546010546127a1916001600160a01b0391821691166000196123a4565b600354600c546110dc916001600160a01b0391821691166000196123a4565b6127c86113b4565b1561280d576040805162461bcd60e51b815260206004820152601060248201526f14185d5cd8589b194e881c185d5cd95960821b604482015290519081900360640190fd5b60135460145460408051631c57762b60e31b8152600481019290925260006024830181905290516001600160a01b039093169263e2bbb15892604480820193929182900301818387803b15801561286357600080fd5b505af1158015612877573d6000803e3d6000fd5b5050600d54604080516370a0823160e01b81523060048201529051600094506001600160a01b0390921692506370a08231916024808301926020929190829003018186803b1580156128c857600080fd5b505afa1580156128dc573d6000803e3d6000fd5b505050506040513d60208110156128f257600080fd5b5051905080156110265761290582612e42565b61290d6135bc565b612915611cdf565b4260165560405133907f577a37fdb49a88d66684922c6f913df5239b4f214b2b97c53ef8e3bbb2034cb590600090a25050565b3390565b600082820183811015612527576040805162461bcd60e51b815260206004820152601b60248201527f536166654d6174683a206164646974696f6e206f766572666c6f770000000000604482015290519081900360640190fd5b6129ae6113b4565b156129f3576040805162461bcd60e51b815260206004820152601060248201526f14185d5cd8589b194e881c185d5cd95960821b604482015290519081900360640190fd5b6000805460ff60a01b1916600160a01b1790557f62e78cea01bee320cd4e420270b5ea74000d11b0c9f74754ebdbfc544b05a2586126cc612948565b601354600e54612a4d916001600160a01b03918216911660006123a4565b600354600d54612a6b916001600160a01b03918216911660006123a4565b600354600f54612a89916001600160a01b03918216911660006123a4565b6003546010546110dc916001600160a01b03918216911660006123a4565b61102682826040516024018080602001838152602001828103825284818151815260200191508051906020019080838360005b83811015612af2578181015183820152602001612ada565b50505050905090810190601f168015612b1f5780820380516001836020036101000a031916815260200191505b5060408051601f198184030181529190526020810180516001600160e01b03166309710a9d60e41b1790529350613b2892505050565b606082826040516020018083805190602001908083835b60208310612b8b5780518252601f199092019160209182019101612b6c565b51815160209384036101000a600019018019909216911617905285519190930192850191508083835b60208310612bd35780518252601f199092019160209182019101612bb4565b6001836020036101000a03801982511681845116808217855250505050505090500192505050604051602081830303815290604052905092915050565b60606125278383604051806060016040528060258152602001613dd660259139613b49565b6060612c8a826040518060400160405280602081526020017f5361666545524332303a206c6f772d6c6576656c2063616c6c206661696c6564815250856001600160a01b03166124b79092919063ffffffff16565b80519091501561102457808060200190516020811015612ca957600080fd5b50516110245760405162461bcd60e51b815260040180806020018281038252602a815260200180613e60602a913960400191505060405180910390fd5b606082471015612d275760405162461bcd60e51b8152600401808060200182810382526026815260200180613db06026913960400191505060405180910390fd5b612d3085613c4c565b612d81576040805162461bcd60e51b815260206004820152601d60248201527f416464726573733a2063616c6c20746f206e6f6e2d636f6e7472616374000000604482015290519081900360640190fd5b60006060866001600160a01b031685876040518082805190602001908083835b60208310612dc05780518252601f199092019160209182019101612da1565b6001836020036101000a03801982511681845116808217855250505050505090500191505060006040518083038185875af1925050503d8060008114612e22576040519150601f19603f3d011682016040523d82523d6000602084013e612e27565b606091505b5091509150612e37828286613c52565b979650505050505050565b600d54604080516370a0823160e01b81523060048201529051600092612ed1926103e892610c0692602d926001600160a01b03909116916370a0823191602480820192602092909190829003018186803b158015612e9f57600080fd5b505afa158015612eb3573d6000803e3d6000fd5b505050506040513d6020811015612ec957600080fd5b5051906124ce565b9050600360009054906101000a90046001600160a01b03166001600160a01b03166338ed1739826000601930426040518663ffffffff1660e01b81526004018086815260200185815260200180602001846001600160a01b031681526020018381526020018281038252858181548152602001915080548015612f7d57602002820191906000526020600020905b81546001600160a01b03168152600190910190602001808311612f5f575b50509650505050505050600060405180830381600087803b158015612fa157600080fd5b505af1158015612fb5573d6000803e3d6000fd5b505050506040513d6000823e601f3d908101601f191682016040526020811015612fde57600080fd5b8101908080516040519392919084600160201b821115612ffd57600080fd5b90830190602082018581111561301257600080fd5b82518660208202830111600160201b8211171561302e57600080fd5b82525081516020918201928201910280838360005b8381101561305b578181015183820152602001613043565b50505050919091016040818152600c546370a0823160e01b83523060048401529051600097506001600160a01b0390911695506370a08231945060248083019450602093509091829003018186803b1580156130b657600080fd5b505afa1580156130ca573d6000803e3d6000fd5b505050506040513d60208110156130e057600080fd5b50516007549091506000906130fe906103e890610c069085906124ce565b90506131326040518060400160405280601081526020016f31b0b636102332b29030b6b7bab73a1d60811b81525082612aa7565b6001600160a01b0384161561315d57600c54613158906001600160a01b031685836125f4565b613174565b600c54613174906001600160a01b031632836125f4565b600061319c6103e8610c06613195607060085461294c90919063ffffffff16565b86906124ce565b604080518082018252600f81526e3730ba34bb32903130b630b731b29d60891b602080830191909152600c5483516370a0823160e01b815230600482015293519495506132459492936001600160a01b03909116926370a0823192602480840193919291829003018186803b15801561321457600080fd5b505afa158015613228573d6000803e3d6000fd5b505050506040513d602081101561323e57600080fd5b5051612aa7565b6132736040518060400160405280600c81526020016b18dc9d119959505b5bdd5b9d60a21b81525082612aa7565b601254604080516370a0823160e01b815230600482015290516000926001600160a01b0316916370a08231916024808301926020929190829003018186803b1580156132be57600080fd5b505afa1580156132d2573d6000803e3d6000fd5b505050506040513d60208110156132e857600080fd5b50516003546040516338ed173960e01b8152600481018581526000602483018190523060648401819052426084850181905260a0604486019081526018805460a488018190529899506001600160a01b03909716976338ed1739978b979596909590929160c4909101908690801561338957602002820191906000526020600020905b81546001600160a01b0316815260019091019060200180831161336b575b50509650505050505050600060405180830381600087803b1580156133ad57600080fd5b505af11580156133c1573d6000803e3d6000fd5b505050506040513d6000823e601f3d908101601f1916820160405260208110156133ea57600080fd5b8101908080516040519392919084600160201b82111561340957600080fd5b90830190602082018581111561341e57600080fd5b82518660208202830111600160201b8211171561343a57600080fd5b82525081516020918201928201910280838360005b8381101561346757818101518382015260200161344f565b505050509190910160408181526012546370a0823160e01b83523060048401529051600097506001600160a01b0390911695506370a08231945060248083019450602093509091829003018186803b1580156134c257600080fd5b505afa1580156134d6573d6000803e3d6000fd5b505050506040513d60208110156134ec57600080fd5b5051905060006134fc8284612597565b905061352d6040518060400160405280600d81526020016c31b93a2130b63132b337b9329d60991b81525084612aa7565b61355b6040518060400160405280600c81526020016b31b93a2130b630b33a32b91d60a11b81525083612aa7565b600b5461357e9061357590610c068464e8d4a510006124ce565b600a549061294c565b600a81905560408051808201909152600f81526e30b1b1a1a92a2832b939b430b9329d60891b60208201526135b291612aa7565b5050505050505050565b600d54604080516370a0823160e01b81523060048201529051600092613643926002926001600160a01b03909216916370a0823191602480820192602092909190829003018186803b15801561361157600080fd5b505afa158015613625573d6000803e3d6000fd5b505050506040513d602081101561363b57600080fd5b505190612530565b600d54600f549192506001600160a01b039182169116146137e5576003546040516338ed173960e01b8152600481018381526000602483018190523060648401819052426084850181905260a060448601908152601a805460a488018190526001600160a01b03909816976338ed1739978a97929594939160c490910190869080156136f857602002820191906000526020600020905b81546001600160a01b031681526001909101906020018083116136da575b50509650505050505050600060405180830381600087803b15801561371c57600080fd5b505af1158015613730573d6000803e3d6000fd5b505050506040513d6000823e601f3d908101601f19168201604052602081101561375957600080fd5b8101908080516040519392919084600160201b82111561377857600080fd5b90830190602082018581111561378d57600080fd5b82518660208202830111600160201b821117156137a957600080fd5b82525081516020918201928201910280838360005b838110156137d65781810151838201526020016137be565b50505050905001604052505050505b600d546010546001600160a01b03908116911614613984576003546040516338ed173960e01b8152600481018381526000602483018190523060648401819052426084850181905260a060448601908152601b805460a488018190526001600160a01b03909816976338ed1739978a97929594939160c4909101908690801561389757602002820191906000526020600020905b81546001600160a01b03168152600190910190602001808311613879575b50509650505050505050600060405180830381600087803b1580156138bb57600080fd5b505af11580156138cf573d6000803e3d6000fd5b505050506040513d6000823e601f3d908101601f1916820160405260208110156138f857600080fd5b8101908080516040519392919084600160201b82111561391757600080fd5b90830190602082018581111561392c57600080fd5b82518660208202830111600160201b8211171561394857600080fd5b82525081516020918201928201910280838360005b8381101561397557818101518382015260200161395d565b50505050905001604052505050505b600f54604080516370a0823160e01b815230600482015290516000926001600160a01b0316916370a08231916024808301926020929190829003018186803b1580156139cf57600080fd5b505afa1580156139e3573d6000803e3d6000fd5b505050506040513d60208110156139f957600080fd5b5051601054604080516370a0823160e01b815230600482015290519293506000926001600160a01b03909216916370a0823191602480820192602092909190829003018186803b158015613a4c57600080fd5b505afa158015613a60573d6000803e3d6000fd5b505050506040513d6020811015613a7657600080fd5b5051600354600f546010546040805162e8e33760e81b81526001600160a01b0393841660048201529183166024830152604482018790526064820185905260016084830181905260a48301523060c48301524260e48301525193945091169163e8e3370091610104808201926060929091908290030181600087803b158015613afe57600080fd5b505af1158015613b12573d6000803e3d6000fd5b505050506040513d6060811015611e1657600080fd5b80516a636f6e736f6c652e6c6f67602083016000808483855afa5050505050565b6060613b5484613c4c565b613b8f5760405162461bcd60e51b8152600401808060200182810382526024815260200180613e3c6024913960400191505060405180910390fd5b60006060856001600160a01b0316856040518082805190602001908083835b60208310613bcd5780518252601f199092019160209182019101613bae565b6001836020036101000a038019825116818451168082178552505050505050905001915050600060405180830381855afa9150503d8060008114613c2d576040519150601f19603f3d011682016040523d82523d6000602084013e613c32565b606091505b5091509150613c42828286613c52565b9695505050505050565b3b151590565b60608315613c615750816116b2565b825115613c715782518084602001fd5b8160405162461bcd60e51b81526004018080602001828103825283818151815260200191508051906020019080838360005b83811015613cbb578181015183820152602001613ca3565b50505050905090810190601f168015613ce85780820380516001836020036101000a031916815260200191505b509250505060405180910390fd5b828054600181600116156101000203166002900490600052602060002090601f016020900481019282601f10613d375782800160ff19823516178555613d64565b82800160010185558215613d64579182015b82811115613d64578235825591602001919060010190613d49565b50613d70929150613d74565b5090565b5b80821115613d705760008155600101613d7556fe4f776e61626c653a206e6577206f776e657220697320746865207a65726f2061646472657373416464726573733a20696e73756666696369656e742062616c616e636520666f722063616c6c416464726573733a206c6f772d6c6576656c207374617469632063616c6c206661696c6564536166654d6174683a206d756c7469706c69636174696f6e206f766572666c6f774f776e61626c653a2063616c6c6572206973206e6f7420746865206f776e6572416464726573733a207374617469632063616c6c20746f206e6f6e2d636f6e74726163745361666545524332303a204552433230206f7065726174696f6e20646964206e6f7420737563636565645361666545524332303a20617070726f76652066726f6d206e6f6e2d7a65726f20746f206e6f6e2d7a65726f20616c6c6f77616e6365a2646970667358221220391fef3e61d015304fd16aa5a84d93ada71ba62f4a84adc80b49146a6ad5b15364736f6c634300060c00336f7574707574546f4c7031526f7574655b6c6173745d20213d206c70546f6b656e31416464726573733a20696e73756666696369656e742062616c616e636520666f722063616c6c6f7574707574546f4c7030526f7574655b6c6173745d20213d206c70546f6b656e305361666545524332303a204552433230206f7065726174696f6e20646964206e6f7420737563636565645361666545524332303a20617070726f76652066726f6d206e6f6e2d7a65726f20746f206e6f6e2d7a65726f20616c6c6f77616e6365",
  "linkReferences": {},
  "deployedLinkReferences": {}
}