{
  "_format": "hh-sol-artifact-1",
  "contractName": "StrategyCommonChefReferrerSingle",
  "sourceName": "contracts/BIFI/strategies/Common/StrategyCommonChefReferrerSingle.sol",
  "abi": [
    {
      "inputs": [
        {
          "internalType": "address",
          "name": "_want",
          "type": "address"
        },
        {
          "internalType": "uint256",
          "name": "_poolId",
          "type": "uint256"
        },
        {
          "internalType": "address",
          "name": "_chef",
          "type": "address"
        },
        {
          "internalType": "address",
          "name": "_referrer",
          "type": "address"
        },
        {
          "internalType": "address",
          "name": "_vault",
          "type": "address"
        },
        {
          "internalType": "address",
          "name": "_unirouter",
          "type": "address"
        },
        {
          "internalType": "address",
          "name": "_keeper",
          "type": "address"
        },
        {
          "internalType": "address",
          "name": "_strategist",
          "type": "address"
        },
        {
          "internalType": "address",
          "name": "_beefyFeeRecipient",
          "type": "address"
        },
        {
          "internalType": "address[]",
          "name": "_outputToNativeRoute",
          "type": "address[]"
        },
        {
          "internalType": "address[]",
          "name": "_outputToWantRoute",
          "type": "address[]"
        }
      ],
      "stateMutability": "nonpayable",
      "type": "constructor"
    },
    {
      "anonymous": false,
      "inputs": [
        {
          "indexed": true,
          "internalType": "address",
          "name": "previousOwner",
          "type": "address"
        },
        {
          "indexed": true,
          "internalType": "address",
          "name": "newOwner",
          "type": "address"
        }
      ],
      "name": "OwnershipTransferred",
      "type": "event"
    },
    {
      "anonymous": false,
      "inputs": [
        {
          "indexed": false,
          "internalType": "address",
          "name": "account",
          "type": "address"
        }
      ],
      "name": "Paused",
      "type": "event"
    },
    {
      "anonymous": false,
      "inputs": [
        {
          "indexed": true,
          "internalType": "address",
          "name": "harvester",
          "type": "address"
        }
      ],
      "name": "StratHarvest",
      "type": "event"
    },
    {
      "anonymous": false,
      "inputs": [
        {
          "indexed": false,
          "internalType": "address",
          "name": "account",
          "type": "address"
        }
      ],
      "name": "Unpaused",
      "type": "event"
    },
    {
      "inputs": [],
      "name": "MAX_CALL_FEE",
      "outputs": [
        {
          "internalType": "uint256",
          "name": "",
          "type": "uint256"
        }
      ],
      "stateMutability": "view",
      "type": "function"
    },
    {
      "inputs": [],
      "name": "MAX_FEE",
      "outputs": [
        {
          "internalType": "uint256",
          "name": "",
          "type": "uint256"
        }
      ],
      "stateMutability": "view",
      "type": "function"
    },
    {
      "inputs": [],
      "name": "STRATEGIST_FEE",
      "outputs": [
        {
          "internalType": "uint256",
          "name": "",
          "type": "uint256"
        }
      ],
      "stateMutability": "view",
      "type": "function"
    },
    {
      "inputs": [],
      "name": "WITHDRAWAL_FEE_CAP",
      "outputs": [
        {
          "internalType": "uint256",
          "name": "",
          "type": "uint256"
        }
      ],
      "stateMutability": "view",
      "type": "function"
    },
    {
      "inputs": [],
      "name": "WITHDRAWAL_MAX",
      "outputs": [
        {
          "internalType": "uint256",
          "name": "",
          "type": "uint256"
        }
      ],
      "stateMutability": "view",
      "type": "function"
    },
    {
      "inputs": [],
      "name": "balanceOf",
      "outputs": [
        {
          "internalType": "uint256",
          "name": "",
          "type": "uint256"
        }
      ],
      "stateMutability": "view",
      "type": "function"
    },
    {
      "inputs": [],
      "name": "balanceOfPool",
      "outputs": [
        {
          "internalType": "uint256",
          "name": "",
          "type": "uint256"
        }
      ],
      "stateMutability": "view",
      "type": "function"
    },
    {
      "inputs": [],
      "name": "balanceOfWant",
      "outputs": [
        {
          "internalType": "uint256",
          "name": "",
          "type": "uint256"
        }
      ],
      "stateMutability": "view",
      "type": "function"
    },
    {
      "inputs": [],
      "name": "beefyFee",
      "outputs": [
        {
          "internalType": "uint256",
          "name": "",
          "type": "uint256"
        }
      ],
      "stateMutability": "view",
      "type": "function"
    },
    {
      "inputs": [],
      "name": "beefyFeeRecipient",
      "outputs": [
        {
          "internalType": "address",
          "name": "",
          "type": "address"
        }
      ],
      "stateMutability": "view",
      "type": "function"
    },
    {
      "inputs": [],
      "name": "beforeDeposit",
      "outputs": [],
      "stateMutability": "nonpayable",
      "type": "function"
    },
    {
      "inputs": [],
      "name": "callFee",
      "outputs": [
        {
          "internalType": "uint256",
          "name": "",
          "type": "uint256"
        }
      ],
      "stateMutability": "view",
      "type": "function"
    },
    {
      "inputs": [],
      "name": "chef",
      "outputs": [
        {
          "internalType": "address",
          "name": "",
          "type": "address"
        }
      ],
      "stateMutability": "view",
      "type": "function"
    },
    {
      "inputs": [],
      "name": "deposit",
      "outputs": [],
      "stateMutability": "nonpayable",
      "type": "function"
    },
    {
      "inputs": [],
      "name": "harvest",
      "outputs": [],
      "stateMutability": "nonpayable",
      "type": "function"
    },
    {
      "inputs": [
        {
          "internalType": "address",
          "name": "callFeeRecipient",
          "type": "address"
        }
      ],
      "name": "harvestWithCallFeeRecipient",
      "outputs": [],
      "stateMutability": "nonpayable",
      "type": "function"
    },
    {
      "inputs": [],
      "name": "keeper",
      "outputs": [
        {
          "internalType": "address",
          "name": "",
          "type": "address"
        }
      ],
      "stateMutability": "view",
      "type": "function"
    },
    {
      "inputs": [],
      "name": "lastHarvest",
      "outputs": [
        {
          "internalType": "uint256",
          "name": "",
          "type": "uint256"
        }
      ],
      "stateMutability": "view",
      "type": "function"
    },
    {
      "inputs": [],
      "name": "managerHarvest",
      "outputs": [],
      "stateMutability": "nonpayable",
      "type": "function"
    },
    {
      "inputs": [],
      "name": "native",
      "outputs": [
        {
          "internalType": "address",
          "name": "",
          "type": "address"
        }
      ],
      "stateMutability": "view",
      "type": "function"
    },
    {
      "inputs": [],
      "name": "output",
      "outputs": [
        {
          "internalType": "address",
          "name": "",
          "type": "address"
        }
      ],
      "stateMutability": "view",
      "type": "function"
    },
    {
      "inputs": [
        {
          "internalType": "uint256",
          "name": "",
          "type": "uint256"
        }
      ],
      "name": "outputToNativeRoute",
      "outputs": [
        {
          "internalType": "address",
          "name": "",
          "type": "address"
        }
      ],
      "stateMutability": "view",
      "type": "function"
    },
    {
      "inputs": [
        {
          "internalType": "uint256",
          "name": "",
          "type": "uint256"
        }
      ],
      "name": "outputToWantRoute",
      "outputs": [
        {
          "internalType": "address",
          "name": "",
          "type": "address"
        }
      ],
      "stateMutability": "view",
      "type": "function"
    },
    {
      "inputs": [],
      "name": "owner",
      "outputs": [
        {
          "internalType": "address",
          "name": "",
          "type": "address"
        }
      ],
      "stateMutability": "view",
      "type": "function"
    },
    {
      "inputs": [],
      "name": "panic",
      "outputs": [],
      "stateMutability": "nonpayable",
      "type": "function"
    },
    {
      "inputs": [],
      "name": "pause",
      "outputs": [],
      "stateMutability": "nonpayable",
      "type": "function"
    },
    {
      "inputs": [],
      "name": "paused",
      "outputs": [
        {
          "internalType": "bool",
          "name": "",
          "type": "bool"
        }
      ],
      "stateMutability": "view",
      "type": "function"
    },
    {
      "inputs": [],
      "name": "poolId",
      "outputs": [
        {
          "internalType": "uint256",
          "name": "",
          "type": "uint256"
        }
      ],
      "stateMutability": "view",
      "type": "function"
    },
    {
      "inputs": [],
      "name": "referrer",
      "outputs": [
        {
          "internalType": "address",
          "name": "",
          "type": "address"
        }
      ],
      "stateMutability": "view",
      "type": "function"
    },
    {
      "inputs": [],
      "name": "renounceOwnership",
      "outputs": [],
      "stateMutability": "nonpayable",
      "type": "function"
    },
    {
      "inputs": [],
      "name": "retireStrat",
      "outputs": [],
      "stateMutability": "nonpayable",
      "type": "function"
    },
    {
      "inputs": [
        {
          "internalType": "address",
          "name": "_beefyFeeRecipient",
          "type": "address"
        }
      ],
      "name": "setBeefyFeeRecipient",
      "outputs": [],
      "stateMutability": "nonpayable",
      "type": "function"
    },
    {
      "inputs": [
        {
          "internalType": "uint256",
          "name": "_fee",
          "type": "uint256"
        }
      ],
      "name": "setCallFee",
      "outputs": [],
      "stateMutability": "nonpayable",
      "type": "function"
    },
    {
      "inputs": [
        {
          "internalType": "address",
          "name": "_keeper",
          "type": "address"
        }
      ],
      "name": "setKeeper",
      "outputs": [],
      "stateMutability": "nonpayable",
      "type": "function"
    },
    {
      "inputs": [
        {
          "internalType": "address",
          "name": "_strategist",
          "type": "address"
        }
      ],
      "name": "setStrategist",
      "outputs": [],
      "stateMutability": "nonpayable",
      "type": "function"
    },
    {
      "inputs": [
        {
          "internalType": "address",
          "name": "_unirouter",
          "type": "address"
        }
      ],
      "name": "setUnirouter",
      "outputs": [],
      "stateMutability": "nonpayable",
      "type": "function"
    },
    {
      "inputs": [
        {
          "internalType": "address",
          "name": "_vault",
          "type": "address"
        }
      ],
      "name": "setVault",
      "outputs": [],
      "stateMutability": "nonpayable",
      "type": "function"
    },
    {
      "inputs": [
        {
          "internalType": "uint256",
          "name": "_fee",
          "type": "uint256"
        }
      ],
      "name": "setWithdrawalFee",
      "outputs": [],
      "stateMutability": "nonpayable",
      "type": "function"
    },
    {
      "inputs": [],
      "name": "strategist",
      "outputs": [
        {
          "internalType": "address",
          "name": "",
          "type": "address"
        }
      ],
      "stateMutability": "view",
      "type": "function"
    },
    {
      "inputs": [
        {
          "internalType": "address",
          "name": "newOwner",
          "type": "address"
        }
      ],
      "name": "transferOwnership",
      "outputs": [],
      "stateMutability": "nonpayable",
      "type": "function"
    },
    {
      "inputs": [],
      "name": "unirouter",
      "outputs": [
        {
          "internalType": "address",
          "name": "",
          "type": "address"
        }
      ],
      "stateMutability": "view",
      "type": "function"
    },
    {
      "inputs": [],
      "name": "unpause",
      "outputs": [],
      "stateMutability": "nonpayable",
      "type": "function"
    },
    {
      "inputs": [],
      "name": "vault",
      "outputs": [
        {
          "internalType": "address",
          "name": "",
          "type": "address"
        }
      ],
      "stateMutability": "view",
      "type": "function"
    },
    {
      "inputs": [],
      "name": "want",
      "outputs": [
        {
          "internalType": "address",
          "name": "",
          "type": "address"
        }
      ],
      "stateMutability": "view",
      "type": "function"
    },
    {
      "inputs": [
        {
          "internalType": "uint256",
          "name": "_amount",
          "type": "uint256"
        }
      ],
      "name": "withdraw",
      "outputs": [],
      "stateMutability": "nonpayable",
      "type": "function"
    },
    {
      "inputs": [],
      "name": "withdrawalFee",
      "outputs": [
        {
          "internalType": "uint256",
          "name": "",
          "type": "uint256"
        }
      ],
      "stateMutability": "view",
      "type": "function"
    }
  ],
  "bytecode": "0x6080604052600a600655606f6007556103096008553480156200002157600080fd5b5060405162002cd438038062002cd483398181016040526101608110156200004857600080fd5b815160208301516040808501516060860151608087015160a088015160c089015160e08a01516101008b01516101208c01805198519a9c999b979a969995989497939692959194929382019284640100000000821115620000a857600080fd5b908301906020820185811115620000be57600080fd5b8251866020820283011164010000000082111715620000dc57600080fd5b82525081516020918201928201910280838360005b838110156200010b578181015183820152602001620000f1565b50505050905001604052602001805160405193929190846401000000008211156200013557600080fd5b9083019060208201858111156200014b57600080fd5b82518660208202830111640100000000821117156200016957600080fd5b82525081516020918201928201910280838360005b83811015620001985781810151838201526020016200017e565b5050505090500160405250505084848789866000620001bc6200035a60201b60201c565b600080546001600160a01b0319166001600160a01b0383169081178255604051929350917f8be0079c531659141344cd1fd0a4f28419497f9722a3daafe3b4186f6b6457e0908290a3506000805460ff60a01b19168155600180546001600160a01b03199081166001600160a01b0398891617909155600280548216968816969096179095556003805486169487169490941790935560048054851692861692909217909155600580548416918516919091179055600b805483168f8516179055600d8d9055600c805483168d851617905560118054909216928b169290921790558251839190620002aa57fe5b6020026020010151600a60006101000a8154816001600160a01b0302191690836001600160a01b0316021790555081600183510381518110620002e957fe5b602090810291909101810151600980546001600160a01b0319166001600160a01b0390921691909117905582516200032891600f9190850190620007cd565b5080516200033e906010906020840190620007cd565b50620003496200035e565b505050505050505050505062000858565b3390565b600c54600b546200038b916001600160a01b039182169116600019620003ba602090811b620013e717901c565b600354600a54620003b8916001600160a01b039182169116600019620003ba602090811b620013e717901c565b565b80158062000444575060408051636eb1769f60e11b81523060048201526001600160a01b03848116602483015291519185169163dd62ed3e91604480820192602092909190829003018186803b1580156200041457600080fd5b505afa15801562000429573d6000803e3d6000fd5b505050506040513d60208110156200044057600080fd5b5051155b620004815760405162461bcd60e51b815260040180806020018281038252603681526020018062002c9e6036913960400191505060405180910390fd5b604080516001600160a01b038416602482015260448082018490528251808303909101815260649091019091526020810180516001600160e01b0390811663095ea7b360e01b17909152620004d9918591620004de16565b505050565b60606200053a826040518060400160405280602081526020017f5361666545524332303a206c6f772d6c6576656c2063616c6c206661696c6564815250856001600160a01b03166200059a60201b620014fa179092919060201c565b805190915015620004d9578080602001905160208110156200055b57600080fd5b5051620004d95760405162461bcd60e51b815260040180806020018281038252602a81526020018062002c74602a913960400191505060405180910390fd5b6060620005ab8484600085620005b5565b90505b9392505050565b606082471015620005f85760405162461bcd60e51b815260040180806020018281038252602681526020018062002c4e6026913960400191505060405180910390fd5b62000603856200071d565b62000655576040805162461bcd60e51b815260206004820152601d60248201527f416464726573733a2063616c6c20746f206e6f6e2d636f6e7472616374000000604482015290519081900360640190fd5b60006060866001600160a01b031685876040518082805190602001908083835b60208310620006965780518252601f19909201916020918201910162000675565b6001836020036101000a03801982511681845116808217855250505050505090500191505060006040518083038185875af1925050503d8060008114620006fa576040519150601f19603f3d011682016040523d82523d6000602084013e620006ff565b606091505b5090925090506200071282828662000723565b979650505050505050565b3b151590565b6060831562000734575081620005ae565b825115620007455782518084602001fd5b8160405162461bcd60e51b81526004018080602001828103825283818151815260200191508051906020019080838360005b838110156200079157818101518382015260200162000777565b50505050905090810190601f168015620007bf5780820380516001836020036101000a031916815260200191505b509250505060405180910390fd5b82805482825590600052602060002090810192821562000825579160200282015b828111156200082557825182546001600160a01b0319166001600160a01b03909116178255602090920191600190910190620007ee565b506200083392915062000837565b5090565b5b80821115620008335780546001600160a01b031916815560010162000838565b6123e680620008686000396000f3fe608060405234801561001057600080fd5b506004361061028a5760003560e01c80638456cb591161015c578063c7b9d530116100ce578063dfbdc43711610087578063dfbdc43714610530578063f1a392da14610538578063f20eaeb814610540578063f2fde38b14610548578063fb6177871461056e578063fbfa77cf146105765761028a565b8063c7b9d530146104af578063d0e30db0146104d5578063d3102589146104dd578063d801d946146104e5578063d92f3d73146104ed578063dd93d6b3146105135761028a565b8063a68833e511610120578063a68833e514610437578063ac1e50251461045d578063aced16611461047a578063bc063e1a14610482578063be12a9781461048a578063c1a3d44c146104a75761028a565b80638456cb591461040f5780638bc7e8c4146104175780638da5cb5b1461041f5780638e1454591461042757806390321e1a1461042f5761028a565b80634641257d116102005780636817031b116101b95780636817031b146103a357806368447c93146103c9578063715018a6146103d1578063722713f7146103d9578063748747e6146103e15780637d38ca65146104075761028a565b80634641257d146103415780634700d3051461034957806354518b1a14610351578063573fef0a146103595780635c975abb14610361578063623d8bd21461037d5761028a565b8063257ae0de11610252578063257ae0de146102e557806326465826146102ed5780632ad5a53f1461030c5780632e1a7d4d146103145780633e0dc34e146103315780633f4ba83a146103395761028a565b8063115880861461028f57806311b0b42d146102a95780631f1fcd51146102cd5780631fc8bc5d146102d55780631fe4a686146102dd575b600080fd5b61029761057e565b60408051918252519081900360200190f35b6102b1610605565b604080516001600160a01b039092168252519081900360200190f35b6102b1610614565b6102b1610623565b6102b1610632565b6102b1610641565b61030a6004803603602081101561030357600080fd5b5035610650565b005b61029761070a565b61030a6004803603602081101561032a57600080fd5b503561070f565b6102976108a2565b61030a6108a8565b61030a61092f565b61030a610939565b610297610a18565b61030a610a1e565b610369610a89565b604080519115158252519081900360200190f35b61030a6004803603602081101561039357600080fd5b50356001600160a01b0316610a99565b61030a600480360360208110156103b957600080fd5b50356001600160a01b0316610aa5565b6102b1610b29565b61030a610b38565b610297610be4565b61030a600480360360208110156103f757600080fd5b50356001600160a01b0316610c04565b610297610c93565b61030a610c98565b610297610d15565b6102b1610d1b565b6102b1610d2a565b610297610d39565b61030a6004803603602081101561044d57600080fd5b50356001600160a01b0316610d3f565b61030a6004803603602081101561047357600080fd5b5035610dc3565b6102b1610e74565b610297610e83565b6102b1600480360360208110156104a057600080fd5b5035610e89565b610297610eb0565b61030a600480360360208110156104c557600080fd5b50356001600160a01b0316610f2c565b61030a610f9b565b610297611076565b61030a61107c565b61030a6004803603602081101561050357600080fd5b50356001600160a01b03166110e9565b6102b16004803603602081101561052957600080fd5b503561116d565b61029761117a565b61029761117f565b6102b1611185565b61030a6004803603602081101561055e57600080fd5b50356001600160a01b0316611194565b61030a611296565b6102b16113d8565b600c54600d54604080516393f1a40b60e01b81526004810192909252306024830152805160009384936001600160a01b03909116926393f1a40b92604480840193829003018186803b1580156105d357600080fd5b505afa1580156105e7573d6000803e3d6000fd5b505050506040513d60408110156105fd57600080fd5b505191505090565b6009546001600160a01b031681565b600b546001600160a01b031681565b600c546001600160a01b031681565b6002546001600160a01b031681565b6003546001600160a01b031681565b610658610d1b565b6001600160a01b0316336001600160a01b0316148061068157506001546001600160a01b031633145b6106bd576040805162461bcd60e51b815260206004820152600860248201526710b6b0b730b3b2b960c11b604482015290519081900360640190fd5b606f8111156106fc576040805162461bcd60e51b815260206004808301919091526024820152630216361760e41b604482015290519081900360640190fd5b600781905561037803600855565b606f81565b6004546001600160a01b03163314610757576040805162461bcd60e51b8152602060048201526006602482015265085d985d5b1d60d21b604482015290519081900360640190fd5b6000610761610eb0565b9050818110156107ed57600c54600d546001600160a01b039091169063441a3e709061078d8585611513565b6040518363ffffffff1660e01b81526004018083815260200182815260200192505050600060405180830381600087803b1580156107ca57600080fd5b505af11580156107de573d6000803e3d6000fd5b505050506107ea610eb0565b90505b818111156107f85750805b610800610d1b565b6001600160a01b0316326001600160a01b031614806108225750610822610a89565b1561084957600454600b54610844916001600160a01b03918216911683611575565b61089e565b600061086c612710610866600654856115c790919063ffffffff16565b90611620565b60045490915061089c906001600160a01b03166108898484611513565b600b546001600160a01b03169190611575565b505b5050565b600d5481565b6108b0610d1b565b6001600160a01b0316336001600160a01b031614806108d957506001546001600160a01b031633145b610915576040805162461bcd60e51b815260206004820152600860248201526710b6b0b730b3b2b960c11b604482015290519081900360640190fd5b61091d611687565b61092561172a565b61092d610f9b565b565b61092d6000611768565b610941610d1b565b6001600160a01b0316336001600160a01b0316148061096a57506001546001600160a01b031633145b6109a6576040805162461bcd60e51b815260206004820152600860248201526710b6b0b730b3b2b960c11b604482015290519081900360640190fd5b6109ae610c98565b600c54600d5460408051632989754760e11b81526004810192909252516001600160a01b0390921691635312ea8e9160248082019260009290919082900301818387803b1580156109fe57600080fd5b505af1158015610a12573d6000803e3d6000fd5b50505050565b61271081565b6004546001600160a01b03163314610a66576040805162461bcd60e51b8152602060048201526006602482015265085d985d5b1d60d21b604482015290519081900360640190fd5b600a54600b546001600160a01b039081169116141561092d5761092d6000611768565b600054600160a01b900460ff1690565b610aa281611768565b50565b610aad611950565b6001600160a01b0316610abe610d1b565b6001600160a01b031614610b07576040805162461bcd60e51b81526020600482018190526024820152600080516020612331833981519152604482015290519081900360640190fd5b600480546001600160a01b0319166001600160a01b0392909216919091179055565b6011546001600160a01b031681565b610b40611950565b6001600160a01b0316610b51610d1b565b6001600160a01b031614610b9a576040805162461bcd60e51b81526020600482018190526024820152600080516020612331833981519152604482015290519081900360640190fd5b600080546040516001600160a01b03909116907f8be0079c531659141344cd1fd0a4f28419497f9722a3daafe3b4186f6b6457e0908390a3600080546001600160a01b0319169055565b6000610bff610bf161057e565b610bf9610eb0565b90611954565b905090565b610c0c610d1b565b6001600160a01b0316336001600160a01b03161480610c3557506001546001600160a01b031633145b610c71576040805162461bcd60e51b815260206004820152600860248201526710b6b0b730b3b2b960c11b604482015290519081900360640190fd5b600180546001600160a01b0319166001600160a01b0392909216919091179055565b607081565b610ca0610d1b565b6001600160a01b0316336001600160a01b03161480610cc957506001546001600160a01b031633145b610d05576040805162461bcd60e51b815260206004820152600860248201526710b6b0b730b3b2b960c11b604482015290519081900360640190fd5b610d0d6119ae565b61092d611a37565b60065481565b6000546001600160a01b031690565b6005546001600160a01b031681565b60075481565b610d47611950565b6001600160a01b0316610d58610d1b565b6001600160a01b031614610da1576040805162461bcd60e51b81526020600482018190526024820152600080516020612331833981519152604482015290519081900360640190fd5b600580546001600160a01b0319166001600160a01b0392909216919091179055565b610dcb610d1b565b6001600160a01b0316336001600160a01b03161480610df457506001546001600160a01b031633145b610e30576040805162461bcd60e51b815260206004820152600860248201526710b6b0b730b3b2b960c11b604482015290519081900360640190fd5b6032811115610e6f576040805162461bcd60e51b815260206004808301919091526024820152630216361760e41b604482015290519081900360640190fd5b600655565b6001546001600160a01b031681565b6103e881565b600f8181548110610e9657fe5b6000918252602090912001546001600160a01b0316905081565b600b54604080516370a0823160e01b815230600482015290516000926001600160a01b0316916370a08231916024808301926020929190829003018186803b158015610efb57600080fd5b505afa158015610f0f573d6000803e3d6000fd5b505050506040513d6020811015610f2557600080fd5b5051905090565b6002546001600160a01b03163314610f79576040805162461bcd60e51b815260206004820152600b60248201526a085cdd1c985d1959da5cdd60aa1b604482015290519081900360640190fd5b600280546001600160a01b0319166001600160a01b0392909216919091179055565b610fa3610a89565b15610fe8576040805162461bcd60e51b815260206004820152601060248201526f14185d5cd8589b194e881c185d5cd95960821b604482015290519081900360640190fd5b6000610ff2610eb0565b90508015610aa257600c54600d5460115460408051638dbdbe6d60e01b81526004810193909352602483018590526001600160a01b03918216604484015251921691638dbdbe6d9160648082019260009290919082900301818387803b15801561105b57600080fd5b505af115801561106f573d6000803e3d6000fd5b5050505050565b60085481565b611084610d1b565b6001600160a01b0316336001600160a01b031614806110ad57506001546001600160a01b031633145b61092f576040805162461bcd60e51b815260206004820152600860248201526710b6b0b730b3b2b960c11b604482015290519081900360640190fd5b6110f1611950565b6001600160a01b0316611102610d1b565b6001600160a01b03161461114b576040805162461bcd60e51b81526020600482018190526024820152600080516020612331833981519152604482015290519081900360640190fd5b600380546001600160a01b0319166001600160a01b0392909216919091179055565b60108181548110610e9657fe5b603281565b600e5481565b600a546001600160a01b031681565b61119c611950565b6001600160a01b03166111ad610d1b565b6001600160a01b0316146111f6576040805162461bcd60e51b81526020600482018190526024820152600080516020612331833981519152604482015290519081900360640190fd5b6001600160a01b03811661123b5760405162461bcd60e51b81526004018080602001828103825260268152602001806122c46026913960400191505060405180910390fd5b600080546040516001600160a01b03808516939216917f8be0079c531659141344cd1fd0a4f28419497f9722a3daafe3b4186f6b6457e091a3600080546001600160a01b0319166001600160a01b0392909216919091179055565b6004546001600160a01b031633146112de576040805162461bcd60e51b8152602060048201526006602482015265085d985d5b1d60d21b604482015290519081900360640190fd5b600c54600d5460408051632989754760e11b81526004810192909252516001600160a01b0390921691635312ea8e9160248082019260009290919082900301818387803b15801561132e57600080fd5b505af1158015611342573d6000803e3d6000fd5b505050506000611350610eb0565b600b54600480546040805163a9059cbb60e01b81526001600160a01b039283169381019390935260248301859052519394509091169163a9059cbb916044808201926020929091908290030181600087803b1580156113ae57600080fd5b505af11580156113c2573d6000803e3d6000fd5b505050506040513d602081101561089c57600080fd5b6004546001600160a01b031681565b80158061146d575060408051636eb1769f60e11b81523060048201526001600160a01b03848116602483015291519185169163dd62ed3e91604480820192602092909190829003018186803b15801561143f57600080fd5b505afa158015611453573d6000803e3d6000fd5b505050506040513d602081101561146957600080fd5b5051155b6114a85760405162461bcd60e51b815260040180806020018281038252603681526020018061237b6036913960400191505060405180910390fd5b604080516001600160a01b038416602482015260448082018490528251808303909101815260649091019091526020810180516001600160e01b031663095ea7b360e01b17905261089c908490611a73565b60606115098484600085611b24565b90505b9392505050565b60008282111561156a576040805162461bcd60e51b815260206004820152601e60248201527f536166654d6174683a207375627472616374696f6e206f766572666c6f770000604482015290519081900360640190fd5b508082035b92915050565b604080516001600160a01b038416602482015260448082018490528251808303909101815260649091019091526020810180516001600160e01b031663a9059cbb60e01b17905261089c908490611a73565b6000826115d65750600061156f565b828202828482816115e357fe5b041461150c5760405162461bcd60e51b81526004018080602001828103825260218152602001806123106021913960400191505060405180910390fd5b6000808211611676576040805162461bcd60e51b815260206004820152601a60248201527f536166654d6174683a206469766973696f6e206279207a65726f000000000000604482015290519081900360640190fd5b81838161167f57fe5b049392505050565b61168f610a89565b6116d7576040805162461bcd60e51b815260206004820152601460248201527314185d5cd8589b194e881b9bdd081c185d5cd95960621b604482015290519081900360640190fd5b6000805460ff60a01b191690557f5db9ee0a495bf2e6ff9c91a7834c1ba4fdd244a5e8aa4e537bd38aeae4b073aa61170d611950565b604080516001600160a01b039092168252519081900360200190a1565b600c54600b54611749916001600160a01b0391821691166000196113e7565b600354600a5461092d916001600160a01b0391821691166000196113e7565b611770610a89565b156117b5576040805162461bcd60e51b815260206004820152601060248201526f14185d5cd8589b194e881c185d5cd95960821b604482015290519081900360640190fd5b323314806117cd57506004546001600160a01b031633145b61180a576040805162461bcd60e51b81526020600482015260096024820152680858dbdb9d1c9858dd60ba1b604482015290519081900360640190fd5b600c54600d5460115460408051638dbdbe6d60e01b815260048101939093526000602484018190526001600160a01b03928316604485015290519190931692638dbdbe6d926064808201939182900301818387803b15801561186b57600080fd5b505af115801561187f573d6000803e3d6000fd5b5050600a54604080516370a0823160e01b81523060048201529051600094506001600160a01b0390921692506370a08231916024808301926020929190829003018186803b1580156118d057600080fd5b505afa1580156118e4573d6000803e3d6000fd5b505050506040513d60208110156118fa57600080fd5b50519050801561089e5761190d82611c80565b611915611ffa565b61191d610f9b565b42600e5560405133907f577a37fdb49a88d66684922c6f913df5239b4f214b2b97c53ef8e3bbb2034cb590600090a25050565b3390565b60008282018381101561150c576040805162461bcd60e51b815260206004820152601b60248201527f536166654d6174683a206164646974696f6e206f766572666c6f770000000000604482015290519081900360640190fd5b6119b6610a89565b156119fb576040805162461bcd60e51b815260206004820152601060248201526f14185d5cd8589b194e881c185d5cd95960821b604482015290519081900360640190fd5b6000805460ff60a01b1916600160a01b1790557f62e78cea01bee320cd4e420270b5ea74000d11b0c9f74754ebdbfc544b05a25861170d611950565b600c54600b54611a55916001600160a01b03918216911660006113e7565b600354600a5461092d916001600160a01b03918216911660006113e7565b6060611ac8826040518060400160405280602081526020017f5361666545524332303a206c6f772d6c6576656c2063616c6c206661696c6564815250856001600160a01b03166114fa9092919063ffffffff16565b80519091501561089c57808060200190516020811015611ae757600080fd5b505161089c5760405162461bcd60e51b815260040180806020018281038252602a815260200180612351602a913960400191505060405180910390fd5b606082471015611b655760405162461bcd60e51b81526004018080602001828103825260268152602001806122ea6026913960400191505060405180910390fd5b611b6e85612219565b611bbf576040805162461bcd60e51b815260206004820152601d60248201527f416464726573733a2063616c6c20746f206e6f6e2d636f6e7472616374000000604482015290519081900360640190fd5b60006060866001600160a01b031685876040518082805190602001908083835b60208310611bfe5780518252601f199092019160209182019101611bdf565b6001836020036101000a03801982511681845116808217855250505050505090500191505060006040518083038185875af1925050503d8060008114611c60576040519150601f19603f3d011682016040523d82523d6000602084013e611c65565b606091505b5091509150611c7582828661221f565b979650505050505050565b600a54604080516370a0823160e01b81523060048201529051600092611d0f926103e89261086692602d926001600160a01b03909116916370a0823191602480820192602092909190829003018186803b158015611cdd57600080fd5b505afa158015611cf1573d6000803e3d6000fd5b505050506040513d6020811015611d0757600080fd5b5051906115c7565b9050600360009054906101000a90046001600160a01b03166001600160a01b03166338ed1739826000600f30426040518663ffffffff1660e01b81526004018086815260200185815260200180602001846001600160a01b031681526020018381526020018281038252858181548152602001915080548015611dbb57602002820191906000526020600020905b81546001600160a01b03168152600190910190602001808311611d9d575b50509650505050505050600060405180830381600087803b158015611ddf57600080fd5b505af1158015611df3573d6000803e3d6000fd5b505050506040513d6000823e601f3d908101601f191682016040526020811015611e1c57600080fd5b8101908080516040519392919084640100000000821115611e3c57600080fd5b908301906020820185811115611e5157600080fd5b8251866020820283011164010000000082111715611e6e57600080fd5b82525081516020918201928201910280838360005b83811015611e9b578181015183820152602001611e83565b505050509190910160408181526009546370a0823160e01b83523060048401529051600097506001600160a01b0390911695506370a08231945060248083019450602093509091829003018186803b158015611ef657600080fd5b505afa158015611f0a573d6000803e3d6000fd5b505050506040513d6020811015611f2057600080fd5b5051600754909150600090611f3e906103e8906108669085906115c7565b90506001600160a01b03841615611f6b57600954611f66906001600160a01b03168583611575565b611f82565b600954611f82906001600160a01b03163283611575565b6000611f9f6103e8610866600854866115c790919063ffffffff16565b600554600954919250611fbf916001600160a01b03908116911683611575565b6000611fd26103e86108668660706115c7565b600254600954919250611ff2916001600160a01b03908116911683611575565b505050505050565b600a54600b546001600160a01b0390811691161461092d57600a54604080516370a0823160e01b815230600482015290516000926001600160a01b0316916370a08231916024808301926020929190829003018186803b15801561205d57600080fd5b505afa158015612071573d6000803e3d6000fd5b505050506040513d602081101561208757600080fd5b50516003546040516338ed173960e01b8152600481018381526000602483018190523060648401819052426084850181905260a0604486019081526010805460a488018190529899506001600160a01b03909716976338ed1739978a979596909590929160c4909101908690801561212857602002820191906000526020600020905b81546001600160a01b0316815260019091019060200180831161210a575b50509650505050505050600060405180830381600087803b15801561214c57600080fd5b505af1158015612160573d6000803e3d6000fd5b505050506040513d6000823e601f3d908101601f19168201604052602081101561218957600080fd5b81019080805160405193929190846401000000008211156121a957600080fd5b9083019060208201858111156121be57600080fd5b82518660208202830111640100000000821117156121db57600080fd5b82525081516020918201928201910280838360005b838110156122085781810151838201526020016121f0565b505050509050016040525050505050565b3b151590565b6060831561222e57508161150c565b82511561223e5782518084602001fd5b8160405162461bcd60e51b81526004018080602001828103825283818151815260200191508051906020019080838360005b83811015612288578181015183820152602001612270565b50505050905090810190601f1680156122b55780820380516001836020036101000a031916815260200191505b509250505060405180910390fdfe4f776e61626c653a206e6577206f776e657220697320746865207a65726f2061646472657373416464726573733a20696e73756666696369656e742062616c616e636520666f722063616c6c536166654d6174683a206d756c7469706c69636174696f6e206f766572666c6f774f776e61626c653a2063616c6c6572206973206e6f7420746865206f776e65725361666545524332303a204552433230206f7065726174696f6e20646964206e6f7420737563636565645361666545524332303a20617070726f76652066726f6d206e6f6e2d7a65726f20746f206e6f6e2d7a65726f20616c6c6f77616e6365a26469706673582212200e3f123497a529de330a6ed83cd50f15c356ddac94434099a65041e3cb1e1f0064736f6c634300060c0033416464726573733a20696e73756666696369656e742062616c616e636520666f722063616c6c5361666545524332303a204552433230206f7065726174696f6e20646964206e6f7420737563636565645361666545524332303a20617070726f76652066726f6d206e6f6e2d7a65726f20746f206e6f6e2d7a65726f20616c6c6f77616e6365",
  "linkReferences": {},
  "deployedLinkReferences": {}
}