{
  "_format": "hh-sol-artifact-1",
  "contractName": "StrategyCommonChefStaking",
  "sourceName": "contracts/BIFI/strategies/Common/StrategyCommonChefStaking.sol",
  "abi": [
    {
      "inputs": [
        {
          "internalType": "address",
          "name": "_want",
          "type": "address"
        },
        {
          "internalType": "address",
          "name": "_chef",
          "type": "address"
        },
        {
          "internalType": "address",
          "name": "_vault",
          "type": "address"
        },
        {
          "internalType": "address",
          "name": "_unirouter",
          "type": "address"
        },
        {
          "internalType": "address",
          "name": "_keeper",
          "type": "address"
        },
        {
          "internalType": "address",
          "name": "_strategist",
          "type": "address"
        },
        {
          "internalType": "address",
          "name": "_beefyFeeRecipient",
          "type": "address"
        },
        {
          "internalType": "address[]",
          "name": "_wantToNativeRoute",
          "type": "address[]"
        }
      ],
      "stateMutability": "nonpayable",
      "type": "constructor"
    },
    {
      "anonymous": false,
      "inputs": [
        {
          "indexed": true,
          "internalType": "address",
          "name": "previousOwner",
          "type": "address"
        },
        {
          "indexed": true,
          "internalType": "address",
          "name": "newOwner",
          "type": "address"
        }
      ],
      "name": "OwnershipTransferred",
      "type": "event"
    },
    {
      "anonymous": false,
      "inputs": [
        {
          "indexed": false,
          "internalType": "address",
          "name": "account",
          "type": "address"
        }
      ],
      "name": "Paused",
      "type": "event"
    },
    {
      "anonymous": false,
      "inputs": [
        {
          "indexed": true,
          "internalType": "address",
          "name": "harvester",
          "type": "address"
        }
      ],
      "name": "StratHarvest",
      "type": "event"
    },
    {
      "anonymous": false,
      "inputs": [
        {
          "indexed": false,
          "internalType": "address",
          "name": "account",
          "type": "address"
        }
      ],
      "name": "Unpaused",
      "type": "event"
    },
    {
      "inputs": [],
      "name": "MAX_CALL_FEE",
      "outputs": [
        {
          "internalType": "uint256",
          "name": "",
          "type": "uint256"
        }
      ],
      "stateMutability": "view",
      "type": "function"
    },
    {
      "inputs": [],
      "name": "MAX_FEE",
      "outputs": [
        {
          "internalType": "uint256",
          "name": "",
          "type": "uint256"
        }
      ],
      "stateMutability": "view",
      "type": "function"
    },
    {
      "inputs": [],
      "name": "STRATEGIST_FEE",
      "outputs": [
        {
          "internalType": "uint256",
          "name": "",
          "type": "uint256"
        }
      ],
      "stateMutability": "view",
      "type": "function"
    },
    {
      "inputs": [],
      "name": "WITHDRAWAL_FEE_CAP",
      "outputs": [
        {
          "internalType": "uint256",
          "name": "",
          "type": "uint256"
        }
      ],
      "stateMutability": "view",
      "type": "function"
    },
    {
      "inputs": [],
      "name": "WITHDRAWAL_MAX",
      "outputs": [
        {
          "internalType": "uint256",
          "name": "",
          "type": "uint256"
        }
      ],
      "stateMutability": "view",
      "type": "function"
    },
    {
      "inputs": [],
      "name": "balanceOf",
      "outputs": [
        {
          "internalType": "uint256",
          "name": "",
          "type": "uint256"
        }
      ],
      "stateMutability": "view",
      "type": "function"
    },
    {
      "inputs": [],
      "name": "balanceOfPool",
      "outputs": [
        {
          "internalType": "uint256",
          "name": "",
          "type": "uint256"
        }
      ],
      "stateMutability": "view",
      "type": "function"
    },
    {
      "inputs": [],
      "name": "balanceOfWant",
      "outputs": [
        {
          "internalType": "uint256",
          "name": "",
          "type": "uint256"
        }
      ],
      "stateMutability": "view",
      "type": "function"
    },
    {
      "inputs": [],
      "name": "beefyFee",
      "outputs": [
        {
          "internalType": "uint256",
          "name": "",
          "type": "uint256"
        }
      ],
      "stateMutability": "view",
      "type": "function"
    },
    {
      "inputs": [],
      "name": "beefyFeeRecipient",
      "outputs": [
        {
          "internalType": "address",
          "name": "",
          "type": "address"
        }
      ],
      "stateMutability": "view",
      "type": "function"
    },
    {
      "inputs": [],
      "name": "beforeDeposit",
      "outputs": [],
      "stateMutability": "nonpayable",
      "type": "function"
    },
    {
      "inputs": [],
      "name": "callFee",
      "outputs": [
        {
          "internalType": "uint256",
          "name": "",
          "type": "uint256"
        }
      ],
      "stateMutability": "view",
      "type": "function"
    },
    {
      "inputs": [],
      "name": "chef",
      "outputs": [
        {
          "internalType": "address",
          "name": "",
          "type": "address"
        }
      ],
      "stateMutability": "view",
      "type": "function"
    },
    {
      "inputs": [],
      "name": "deposit",
      "outputs": [],
      "stateMutability": "nonpayable",
      "type": "function"
    },
    {
      "inputs": [],
      "name": "harvest",
      "outputs": [],
      "stateMutability": "nonpayable",
      "type": "function"
    },
    {
      "inputs": [],
      "name": "harvestOnDeposit",
      "outputs": [
        {
          "internalType": "bool",
          "name": "",
          "type": "bool"
        }
      ],
      "stateMutability": "view",
      "type": "function"
    },
    {
      "inputs": [
        {
          "internalType": "address",
          "name": "callFeeRecipient",
          "type": "address"
        }
      ],
      "name": "harvestWithCallFeeRecipient",
      "outputs": [],
      "stateMutability": "nonpayable",
      "type": "function"
    },
    {
      "inputs": [],
      "name": "keeper",
      "outputs": [
        {
          "internalType": "address",
          "name": "",
          "type": "address"
        }
      ],
      "stateMutability": "view",
      "type": "function"
    },
    {
      "inputs": [],
      "name": "lastHarvest",
      "outputs": [
        {
          "internalType": "uint256",
          "name": "",
          "type": "uint256"
        }
      ],
      "stateMutability": "view",
      "type": "function"
    },
    {
      "inputs": [],
      "name": "managerHarvest",
      "outputs": [],
      "stateMutability": "nonpayable",
      "type": "function"
    },
    {
      "inputs": [],
      "name": "native",
      "outputs": [
        {
          "internalType": "address",
          "name": "",
          "type": "address"
        }
      ],
      "stateMutability": "view",
      "type": "function"
    },
    {
      "inputs": [],
      "name": "owner",
      "outputs": [
        {
          "internalType": "address",
          "name": "",
          "type": "address"
        }
      ],
      "stateMutability": "view",
      "type": "function"
    },
    {
      "inputs": [],
      "name": "panic",
      "outputs": [],
      "stateMutability": "nonpayable",
      "type": "function"
    },
    {
      "inputs": [],
      "name": "pause",
      "outputs": [],
      "stateMutability": "nonpayable",
      "type": "function"
    },
    {
      "inputs": [],
      "name": "paused",
      "outputs": [
        {
          "internalType": "bool",
          "name": "",
          "type": "bool"
        }
      ],
      "stateMutability": "view",
      "type": "function"
    },
    {
      "inputs": [],
      "name": "poolId",
      "outputs": [
        {
          "internalType": "uint256",
          "name": "",
          "type": "uint256"
        }
      ],
      "stateMutability": "view",
      "type": "function"
    },
    {
      "inputs": [],
      "name": "renounceOwnership",
      "outputs": [],
      "stateMutability": "nonpayable",
      "type": "function"
    },
    {
      "inputs": [],
      "name": "retireStrat",
      "outputs": [],
      "stateMutability": "nonpayable",
      "type": "function"
    },
    {
      "inputs": [
        {
          "internalType": "address",
          "name": "_beefyFeeRecipient",
          "type": "address"
        }
      ],
      "name": "setBeefyFeeRecipient",
      "outputs": [],
      "stateMutability": "nonpayable",
      "type": "function"
    },
    {
      "inputs": [
        {
          "internalType": "uint256",
          "name": "_fee",
          "type": "uint256"
        }
      ],
      "name": "setCallFee",
      "outputs": [],
      "stateMutability": "nonpayable",
      "type": "function"
    },
    {
      "inputs": [
        {
          "internalType": "bool",
          "name": "_harvestOnDeposit",
          "type": "bool"
        }
      ],
      "name": "setHarvestOnDeposit",
      "outputs": [],
      "stateMutability": "nonpayable",
      "type": "function"
    },
    {
      "inputs": [
        {
          "internalType": "address",
          "name": "_keeper",
          "type": "address"
        }
      ],
      "name": "setKeeper",
      "outputs": [],
      "stateMutability": "nonpayable",
      "type": "function"
    },
    {
      "inputs": [
        {
          "internalType": "address",
          "name": "_strategist",
          "type": "address"
        }
      ],
      "name": "setStrategist",
      "outputs": [],
      "stateMutability": "nonpayable",
      "type": "function"
    },
    {
      "inputs": [
        {
          "internalType": "address",
          "name": "_unirouter",
          "type": "address"
        }
      ],
      "name": "setUnirouter",
      "outputs": [],
      "stateMutability": "nonpayable",
      "type": "function"
    },
    {
      "inputs": [
        {
          "internalType": "address",
          "name": "_vault",
          "type": "address"
        }
      ],
      "name": "setVault",
      "outputs": [],
      "stateMutability": "nonpayable",
      "type": "function"
    },
    {
      "inputs": [
        {
          "internalType": "uint256",
          "name": "_fee",
          "type": "uint256"
        }
      ],
      "name": "setWithdrawalFee",
      "outputs": [],
      "stateMutability": "nonpayable",
      "type": "function"
    },
    {
      "inputs": [],
      "name": "strategist",
      "outputs": [
        {
          "internalType": "address",
          "name": "",
          "type": "address"
        }
      ],
      "stateMutability": "view",
      "type": "function"
    },
    {
      "inputs": [
        {
          "internalType": "address",
          "name": "newOwner",
          "type": "address"
        }
      ],
      "name": "transferOwnership",
      "outputs": [],
      "stateMutability": "nonpayable",
      "type": "function"
    },
    {
      "inputs": [],
      "name": "unirouter",
      "outputs": [
        {
          "internalType": "address",
          "name": "",
          "type": "address"
        }
      ],
      "stateMutability": "view",
      "type": "function"
    },
    {
      "inputs": [],
      "name": "unpause",
      "outputs": [],
      "stateMutability": "nonpayable",
      "type": "function"
    },
    {
      "inputs": [],
      "name": "vault",
      "outputs": [
        {
          "internalType": "address",
          "name": "",
          "type": "address"
        }
      ],
      "stateMutability": "view",
      "type": "function"
    },
    {
      "inputs": [],
      "name": "want",
      "outputs": [
        {
          "internalType": "address",
          "name": "",
          "type": "address"
        }
      ],
      "stateMutability": "view",
      "type": "function"
    },
    {
      "inputs": [],
      "name": "wantToNative",
      "outputs": [
        {
          "internalType": "address[]",
          "name": "",
          "type": "address[]"
        }
      ],
      "stateMutability": "view",
      "type": "function"
    },
    {
      "inputs": [
        {
          "internalType": "uint256",
          "name": "",
          "type": "uint256"
        }
      ],
      "name": "wantToNativeRoute",
      "outputs": [
        {
          "internalType": "address",
          "name": "",
          "type": "address"
        }
      ],
      "stateMutability": "view",
      "type": "function"
    },
    {
      "inputs": [
        {
          "internalType": "uint256",
          "name": "_amount",
          "type": "uint256"
        }
      ],
      "name": "withdraw",
      "outputs": [],
      "stateMutability": "nonpayable",
      "type": "function"
    },
    {
      "inputs": [],
      "name": "withdrawalFee",
      "outputs": [
        {
          "internalType": "uint256",
          "name": "",
          "type": "uint256"
        }
      ],
      "stateMutability": "view",
      "type": "function"
    }
  ],
  "bytecode": "0x6080604052600a600655606f600755610309600855600e805460ff191660011790553480156200002e57600080fd5b5060405162002abb38038062002abb83398181016040526101008110156200005557600080fd5b815160208301516040808501516060860151608087015160a088015160c089015160e08a0180519651989a979995989497939692959194939182019284640100000000821115620000a557600080fd5b908301906020820185811115620000bb57600080fd5b8251866020820283011164010000000082111715620000d957600080fd5b82525081516020918201928201910280838360005b8381101562000108578181015183820152602001620000ee565b50505050905001604052505050838386888560006200012c620002ce60201b60201c565b600080546001600160a01b0319166001600160a01b0383169081178255604051929350917f8be0079c531659141344cd1fd0a4f28419497f9722a3daafe3b4186f6b6457e0908290a3506000805460ff60a01b19168155600180546001600160a01b03199081166001600160a01b0398891617909155600280548216968816969096179095556003805486169487169490941790935560048054851692861692909217909155600580548416918516919091179055600a805483168c85161790819055600b80549093168b8516179092558351919092169183916200020d57fe5b60200260200101516001600160a01b03161462000259576040805162461bcd60e51b8152602060048201526005602482015264085dd85b9d60da1b604482015290519081900360640190fd5b806001825103815181106200026a57fe5b602090810291909101810151600980546001600160a01b0319166001600160a01b039092169190911790558151620002a991600d919084019062000806565b50620002b4620002d2565b620002c060006200032e565b505050505050505062000891565b3390565b600b54600a54620002ff916001600160a01b039182169116600019620003e4602090811b620014b417901c565b600354600a546200032c916001600160a01b039182169116600019620003e4602090811b620014b417901c565b565b6200033862000508565b6001600160a01b0316336001600160a01b031614806200036257506001546001600160a01b031633145b6200039f576040805162461bcd60e51b815260206004820152600860248201526710b6b0b730b3b2b960c11b604482015290519081900360640190fd5b6032811115620003df576040805162461bcd60e51b815260206004808301919091526024820152630216361760e41b604482015290519081900360640190fd5b600655565b8015806200046e575060408051636eb1769f60e11b81523060048201526001600160a01b03848116602483015291519185169163dd62ed3e91604480820192602092909190829003018186803b1580156200043e57600080fd5b505afa15801562000453573d6000803e3d6000fd5b505050506040513d60208110156200046a57600080fd5b5051155b620004ab5760405162461bcd60e51b815260040180806020018281038252603681526020018062002a856036913960400191505060405180910390fd5b604080516001600160a01b038416602482015260448082018490528251808303909101815260649091019091526020810180516001600160e01b0390811663095ea7b360e01b17909152620005039185916200051716565b505050565b6000546001600160a01b031690565b606062000573826040518060400160405280602081526020017f5361666545524332303a206c6f772d6c6576656c2063616c6c206661696c6564815250856001600160a01b0316620005d360201b620015c7179092919060201c565b80519091501562000503578080602001905160208110156200059457600080fd5b5051620005035760405162461bcd60e51b815260040180806020018281038252602a81526020018062002a5b602a913960400191505060405180910390fd5b6060620005e48484600085620005ee565b90505b9392505050565b606082471015620006315760405162461bcd60e51b815260040180806020018281038252602681526020018062002a356026913960400191505060405180910390fd5b6200063c8562000756565b6200068e576040805162461bcd60e51b815260206004820152601d60248201527f416464726573733a2063616c6c20746f206e6f6e2d636f6e7472616374000000604482015290519081900360640190fd5b60006060866001600160a01b031685876040518082805190602001908083835b60208310620006cf5780518252601f199092019160209182019101620006ae565b6001836020036101000a03801982511681845116808217855250505050505090500191505060006040518083038185875af1925050503d806000811462000733576040519150601f19603f3d011682016040523d82523d6000602084013e62000738565b606091505b5090925090506200074b8282866200075c565b979650505050505050565b3b151590565b606083156200076d575081620005e7565b8251156200077e5782518084602001fd5b8160405162461bcd60e51b81526004018080602001828103825283818151815260200191508051906020019080838360005b83811015620007ca578181015183820152602001620007b0565b50505050905090810190601f168015620007f85780820380516001836020036101000a031916815260200191505b509250505060405180910390fd5b8280548282559060005260206000209081019282156200085e579160200282015b828111156200085e57825182546001600160a01b0319166001600160a01b0390911617825560209092019160019091019062000827565b506200086c92915062000870565b5090565b5b808211156200086c5780546001600160a01b031916815560010162000871565b61219480620008a16000396000f3fe608060405234801561001057600080fd5b506004361061028a5760003560e01c80637d38ca651161015c578063bc063e1a116100ce578063d92f3d7311610087578063d92f3d7314610564578063dfbdc4371461058a578063f1a392da14610592578063f2fde38b1461059a578063fb617787146105c0578063fbfa77cf146105c85761028a565b8063bc063e1a14610516578063c1a3d44c1461051e578063c7b9d53014610526578063d0e30db01461054c578063d310258914610554578063d801d9461461055c5761028a565b80638e145459116101205780638e1454591461046357806390321e1a1461046b578063a68833e514610473578063ac1e502514610499578063aced1661146104b6578063aec3e769146104be5761028a565b80637d38ca651461043b5780638456cb59146104435780638912cb8b1461044b5780638bc7e8c4146104535780638da5cb5b1461045b5761028a565b80633f4ba83a116102005780635ecdd293116101b95780635ecdd2931461039c578063623d8bd2146103b95780636817031b146103df578063715018a614610405578063722713f71461040d578063748747e6146104155761028a565b80633f4ba83a146103585780634641257d146103605780634700d3051461036857806354518b1a14610370578063573fef0a146103785780635c975abb146103805761028a565b80631fe4a686116102525780631fe4a686146102fe578063257ae0de14610306578063264658261461030e5780632ad5a53f1461032b5780632e1a7d4d146103335780633e0dc34e146103505761028a565b80630e8fbb5a1461028f57806311588086146102b057806311b0b42d146102ca5780631f1fcd51146102ee5780631fc8bc5d146102f6575b600080fd5b6102ae600480360360208110156102a557600080fd5b503515156105d0565b005b6102b8610650565b60408051918252519081900360200190f35b6102d26106d5565b604080516001600160a01b039092168252519081900360200190f35b6102d26106e4565b6102d26106f3565b6102d2610702565b6102d2610711565b6102ae6004803603602081101561032457600080fd5b5035610720565b6102b86107da565b6102ae6004803603602081101561034957600080fd5b50356107df565b6102b8610964565b6102ae610969565b6102ae6109f0565b6102ae6109fa565b6102b8610ad5565b6102ae610adb565b610388610b2e565b604080519115158252519081900360200190f35b6102d2600480360360208110156103b257600080fd5b5035610b3e565b6102ae600480360360208110156103cf57600080fd5b50356001600160a01b0316610b65565b6102ae600480360360208110156103f557600080fd5b50356001600160a01b0316610b71565b6102ae610bf5565b6102b8610ca1565b6102ae6004803603602081101561042b57600080fd5b50356001600160a01b0316610cc1565b6102b8610d50565b6102ae610d55565b610388610dd2565b6102b8610ddb565b6102d2610de1565b6102d2610df0565b6102b8610dff565b6102ae6004803603602081101561048957600080fd5b50356001600160a01b0316610e05565b6102ae600480360360208110156104af57600080fd5b5035610e89565b6102d2610f3a565b6104c6610f49565b60408051602080825283518183015283519192839290830191858101910280838360005b838110156105025781810151838201526020016104ea565b505050509050019250505060405180910390f35b6102b8610fab565b6102b8610fb1565b6102ae6004803603602081101561053c57600080fd5b50356001600160a01b031661102d565b6102ae61109c565b6102b8611163565b6102ae611169565b6102ae6004803603602081101561057a57600080fd5b50356001600160a01b03166111d6565b6102b861125a565b6102b861125f565b6102ae600480360360208110156105b057600080fd5b50356001600160a01b0316611265565b6102ae611367565b6102d26114a5565b6105d8610de1565b6001600160a01b0316336001600160a01b0316148061060157506001546001600160a01b031633145b61063d576040805162461bcd60e51b815260206004820152600860248201526710b6b0b730b3b2b960c11b604482015290519081900360640190fd5b600e805460ff1916911515919091179055565b600b54604080516393f1a40b60e01b81526000600482018190523060248301528251909384936001600160a01b03909116926393f1a40b9260448083019392829003018186803b1580156106a357600080fd5b505afa1580156106b7573d6000803e3d6000fd5b505050506040513d60408110156106cd57600080fd5b505191505090565b6009546001600160a01b031681565b600a546001600160a01b031681565b600b546001600160a01b031681565b6002546001600160a01b031681565b6003546001600160a01b031681565b610728610de1565b6001600160a01b0316336001600160a01b0316148061075157506001546001600160a01b031633145b61078d576040805162461bcd60e51b815260206004820152600860248201526710b6b0b730b3b2b960c11b604482015290519081900360640190fd5b606f8111156107cc576040805162461bcd60e51b815260206004808301919091526024820152630216361760e41b604482015290519081900360640190fd5b600781905561037803600855565b606f81565b6004546001600160a01b03163314610827576040805162461bcd60e51b8152602060048201526006602482015265085d985d5b1d60d21b604482015290519081900360640190fd5b6000610831610fb1565b9050818110156108af57600b546001600160a01b0316631058d28161085684846115e0565b6040518263ffffffff1660e01b815260040180828152602001915050600060405180830381600087803b15801561088c57600080fd5b505af11580156108a0573d6000803e3d6000fd5b505050506108ac610fb1565b90505b818111156108ba5750805b6108c2610de1565b6001600160a01b0316326001600160a01b031614806108e457506108e4610b2e565b1561090b57600454600a54610906916001600160a01b03918216911683611642565b610960565b600061092e6127106109286006548561169490919063ffffffff16565b906116ed565b60045490915061095e906001600160a01b031661094b84846115e0565b600a546001600160a01b03169190611642565b505b5050565b600081565b610971610de1565b6001600160a01b0316336001600160a01b0316148061099a57506001546001600160a01b031633145b6109d6576040805162461bcd60e51b815260206004820152600860248201526710b6b0b730b3b2b960c11b604482015290519081900360640190fd5b6109de611754565b6109e66117f7565b6109ee61109c565b565b6109ee6000611835565b610a02610de1565b6001600160a01b0316336001600160a01b03161480610a2b57506001546001600160a01b031633145b610a67576040805162461bcd60e51b815260206004820152600860248201526710b6b0b730b3b2b960c11b604482015290519081900360640190fd5b610a6f610d55565b600b5460408051632989754760e11b815260006004820181905291516001600160a01b0390931692635312ea8e9260248084019391929182900301818387803b158015610abb57600080fd5b505af1158015610acf573d6000803e3d6000fd5b50505050565b61271081565b600e5460ff16156109ee576004546001600160a01b031633146109f0576040805162461bcd60e51b8152602060048201526006602482015265085d985d5b1d60d21b604482015290519081900360640190fd5b600054600160a01b900460ff1690565b600d8181548110610b4b57fe5b6000918252602090912001546001600160a01b0316905081565b610b6e81611835565b50565b610b79611991565b6001600160a01b0316610b8a610de1565b6001600160a01b031614610bd3576040805162461bcd60e51b815260206004820181905260248201526000805160206120df833981519152604482015290519081900360640190fd5b600480546001600160a01b0319166001600160a01b0392909216919091179055565b610bfd611991565b6001600160a01b0316610c0e610de1565b6001600160a01b031614610c57576040805162461bcd60e51b815260206004820181905260248201526000805160206120df833981519152604482015290519081900360640190fd5b600080546040516001600160a01b03909116907f8be0079c531659141344cd1fd0a4f28419497f9722a3daafe3b4186f6b6457e0908390a3600080546001600160a01b0319169055565b6000610cbc610cae610650565b610cb6610fb1565b90611995565b905090565b610cc9610de1565b6001600160a01b0316336001600160a01b03161480610cf257506001546001600160a01b031633145b610d2e576040805162461bcd60e51b815260206004820152600860248201526710b6b0b730b3b2b960c11b604482015290519081900360640190fd5b600180546001600160a01b0319166001600160a01b0392909216919091179055565b607081565b610d5d610de1565b6001600160a01b0316336001600160a01b03161480610d8657506001546001600160a01b031633145b610dc2576040805162461bcd60e51b815260206004820152600860248201526710b6b0b730b3b2b960c11b604482015290519081900360640190fd5b610dca6119ef565b6109ee611a78565b600e5460ff1681565b60065481565b6000546001600160a01b031690565b6005546001600160a01b031681565b60075481565b610e0d611991565b6001600160a01b0316610e1e610de1565b6001600160a01b031614610e67576040805162461bcd60e51b815260206004820181905260248201526000805160206120df833981519152604482015290519081900360640190fd5b600580546001600160a01b0319166001600160a01b0392909216919091179055565b610e91610de1565b6001600160a01b0316336001600160a01b03161480610eba57506001546001600160a01b031633145b610ef6576040805162461bcd60e51b815260206004820152600860248201526710b6b0b730b3b2b960c11b604482015290519081900360640190fd5b6032811115610f35576040805162461bcd60e51b815260206004808301919091526024820152630216361760e41b604482015290519081900360640190fd5b600655565b6001546001600160a01b031681565b6060600d805480602002602001604051908101604052809291908181526020018280548015610fa157602002820191906000526020600020905b81546001600160a01b03168152600190910190602001808311610f83575b5050505050905090565b6103e881565b600a54604080516370a0823160e01b815230600482015290516000926001600160a01b0316916370a08231916024808301926020929190829003018186803b158015610ffc57600080fd5b505afa158015611010573d6000803e3d6000fd5b505050506040513d602081101561102657600080fd5b5051905090565b6002546001600160a01b0316331461107a576040805162461bcd60e51b815260206004820152600b60248201526a085cdd1c985d1959da5cdd60aa1b604482015290519081900360640190fd5b600280546001600160a01b0319166001600160a01b0392909216919091179055565b6110a4610b2e565b156110e9576040805162461bcd60e51b815260206004820152601060248201526f14185d5cd8589b194e881c185d5cd95960821b604482015290519081900360640190fd5b60006110f3610fb1565b90508015610b6e57600b54604080516341441d3b60e01b81526004810184905290516001600160a01b03909216916341441d3b9160248082019260009290919082900301818387803b15801561114857600080fd5b505af115801561115c573d6000803e3d6000fd5b5050505050565b60085481565b611171610de1565b6001600160a01b0316336001600160a01b0316148061119a57506001546001600160a01b031633145b6109f0576040805162461bcd60e51b815260206004820152600860248201526710b6b0b730b3b2b960c11b604482015290519081900360640190fd5b6111de611991565b6001600160a01b03166111ef610de1565b6001600160a01b031614611238576040805162461bcd60e51b815260206004820181905260248201526000805160206120df833981519152604482015290519081900360640190fd5b600380546001600160a01b0319166001600160a01b0392909216919091179055565b603281565b600c5481565b61126d611991565b6001600160a01b031661127e610de1565b6001600160a01b0316146112c7576040805162461bcd60e51b815260206004820181905260248201526000805160206120df833981519152604482015290519081900360640190fd5b6001600160a01b03811661130c5760405162461bcd60e51b81526004018080602001828103825260268152602001806120726026913960400191505060405180910390fd5b600080546040516001600160a01b03808516939216917f8be0079c531659141344cd1fd0a4f28419497f9722a3daafe3b4186f6b6457e091a3600080546001600160a01b0319166001600160a01b0392909216919091179055565b6004546001600160a01b031633146113af576040805162461bcd60e51b8152602060048201526006602482015265085d985d5b1d60d21b604482015290519081900360640190fd5b600b5460408051632989754760e11b815260006004820181905291516001600160a01b0390931692635312ea8e9260248084019391929182900301818387803b1580156113fb57600080fd5b505af115801561140f573d6000803e3d6000fd5b50505050600061141d610fb1565b600a54600480546040805163a9059cbb60e01b81526001600160a01b039283169381019390935260248301859052519394509091169163a9059cbb916044808201926020929091908290030181600087803b15801561147b57600080fd5b505af115801561148f573d6000803e3d6000fd5b505050506040513d602081101561095e57600080fd5b6004546001600160a01b031681565b80158061153a575060408051636eb1769f60e11b81523060048201526001600160a01b03848116602483015291519185169163dd62ed3e91604480820192602092909190829003018186803b15801561150c57600080fd5b505afa158015611520573d6000803e3d6000fd5b505050506040513d602081101561153657600080fd5b5051155b6115755760405162461bcd60e51b81526004018080602001828103825260368152602001806121296036913960400191505060405180910390fd5b604080516001600160a01b038416602482015260448082018490528251808303909101815260649091019091526020810180516001600160e01b031663095ea7b360e01b17905261095e908490611ab4565b60606115d68484600085611b65565b90505b9392505050565b600082821115611637576040805162461bcd60e51b815260206004820152601e60248201527f536166654d6174683a207375627472616374696f6e206f766572666c6f770000604482015290519081900360640190fd5b508082035b92915050565b604080516001600160a01b038416602482015260448082018490528251808303909101815260649091019091526020810180516001600160e01b031663a9059cbb60e01b17905261095e908490611ab4565b6000826116a35750600061163c565b828202828482816116b057fe5b04146115d95760405162461bcd60e51b81526004018080602001828103825260218152602001806120be6021913960400191505060405180910390fd5b6000808211611743576040805162461bcd60e51b815260206004820152601a60248201527f536166654d6174683a206469766973696f6e206279207a65726f000000000000604482015290519081900360640190fd5b81838161174c57fe5b049392505050565b61175c610b2e565b6117a4576040805162461bcd60e51b815260206004820152601460248201527314185d5cd8589b194e881b9bdd081c185d5cd95960621b604482015290519081900360640190fd5b6000805460ff60a01b191690557f5db9ee0a495bf2e6ff9c91a7834c1ba4fdd244a5e8aa4e537bd38aeae4b073aa6117da611991565b604080516001600160a01b039092168252519081900360200190a1565b600b54600a54611816916001600160a01b0391821691166000196114b4565b600354600a546109ee916001600160a01b0391821691166000196114b4565b61183d610b2e565b15611882576040805162461bcd60e51b815260206004820152601060248201526f14185d5cd8589b194e881c185d5cd95960821b604482015290519081900360640190fd5b3233148061189a57506004546001600160a01b031633145b6118d7576040805162461bcd60e51b81526020600482015260096024820152680858dbdb9d1c9858dd60ba1b604482015290519081900360640190fd5b600b5460408051631058d28160e01b815260006004820181905291516001600160a01b0390931692631058d2819260248084019391929182900301818387803b15801561192357600080fd5b505af1158015611937573d6000803e3d6000fd5b505050506000611945610fb1565b905080156109605761195682611cc1565b61195e61109c565b42600c5560405133907f577a37fdb49a88d66684922c6f913df5239b4f214b2b97c53ef8e3bbb2034cb590600090a25050565b3390565b6000828201838110156115d9576040805162461bcd60e51b815260206004820152601b60248201527f536166654d6174683a206164646974696f6e206f766572666c6f770000000000604482015290519081900360640190fd5b6119f7610b2e565b15611a3c576040805162461bcd60e51b815260206004820152601060248201526f14185d5cd8589b194e881c185d5cd95960821b604482015290519081900360640190fd5b6000805460ff60a01b1916600160a01b1790557f62e78cea01bee320cd4e420270b5ea74000d11b0c9f74754ebdbfc544b05a2586117da611991565b600b54600a54611a96916001600160a01b03918216911660006114b4565b600354600a546109ee916001600160a01b03918216911660006114b4565b6060611b09826040518060400160405280602081526020017f5361666545524332303a206c6f772d6c6576656c2063616c6c206661696c6564815250856001600160a01b03166115c79092919063ffffffff16565b80519091501561095e57808060200190516020811015611b2857600080fd5b505161095e5760405162461bcd60e51b815260040180806020018281038252602a8152602001806120ff602a913960400191505060405180910390fd5b606082471015611ba65760405162461bcd60e51b81526004018080602001828103825260268152602001806120986026913960400191505060405180910390fd5b611baf85611fc7565b611c00576040805162461bcd60e51b815260206004820152601d60248201527f416464726573733a2063616c6c20746f206e6f6e2d636f6e7472616374000000604482015290519081900360640190fd5b60006060866001600160a01b031685876040518082805190602001908083835b60208310611c3f5780518252601f199092019160209182019101611c20565b6001836020036101000a03801982511681845116808217855250505050505090500191505060006040518083038185875af1925050503d8060008114611ca1576040519150601f19603f3d011682016040523d82523d6000602084013e611ca6565b606091505b5091509150611cb6828286611fcd565b979650505050505050565b6000611cdc6103e8610928602d611cd6610fb1565b90611694565b9050600360009054906101000a90046001600160a01b03166001600160a01b03166338ed1739826000600d30426040518663ffffffff1660e01b81526004018086815260200185815260200180602001846001600160a01b031681526020018381526020018281038252858181548152602001915080548015611d8857602002820191906000526020600020905b81546001600160a01b03168152600190910190602001808311611d6a575b50509650505050505050600060405180830381600087803b158015611dac57600080fd5b505af1158015611dc0573d6000803e3d6000fd5b505050506040513d6000823e601f3d908101601f191682016040526020811015611de957600080fd5b8101908080516040519392919084640100000000821115611e0957600080fd5b908301906020820185811115611e1e57600080fd5b8251866020820283011164010000000082111715611e3b57600080fd5b82525081516020918201928201910280838360005b83811015611e68578181015183820152602001611e50565b505050509190910160408181526009546370a0823160e01b83523060048401529051600097506001600160a01b0390911695506370a08231945060248083019450602093509091829003018186803b158015611ec357600080fd5b505afa158015611ed7573d6000803e3d6000fd5b505050506040513d6020811015611eed57600080fd5b5051600754909150600090611f0b906103e890610928908590611694565b90506001600160a01b03841615611f3857600954611f33906001600160a01b03168583611642565b611f4f565b600954611f4f906001600160a01b03163283611642565b6000611f6c6103e86109286008548661169490919063ffffffff16565b600554600954919250611f8c916001600160a01b03908116911683611642565b6000611f9f6103e8610928866070611694565b600254600954919250611fbf916001600160a01b03908116911683611642565b505050505050565b3b151590565b60608315611fdc5750816115d9565b825115611fec5782518084602001fd5b8160405162461bcd60e51b81526004018080602001828103825283818151815260200191508051906020019080838360005b8381101561203657818101518382015260200161201e565b50505050905090810190601f1680156120635780820380516001836020036101000a031916815260200191505b509250505060405180910390fdfe4f776e61626c653a206e6577206f776e657220697320746865207a65726f2061646472657373416464726573733a20696e73756666696369656e742062616c616e636520666f722063616c6c536166654d6174683a206d756c7469706c69636174696f6e206f766572666c6f774f776e61626c653a2063616c6c6572206973206e6f7420746865206f776e65725361666545524332303a204552433230206f7065726174696f6e20646964206e6f7420737563636565645361666545524332303a20617070726f76652066726f6d206e6f6e2d7a65726f20746f206e6f6e2d7a65726f20616c6c6f77616e6365a264697066735822122076a7706cf0efbdce138582efed4c501566adef46177ba07de10e9cdac5c55d9364736f6c634300060c0033416464726573733a20696e73756666696369656e742062616c616e636520666f722063616c6c5361666545524332303a204552433230206f7065726174696f6e20646964206e6f7420737563636565645361666545524332303a20617070726f76652066726f6d206e6f6e2d7a65726f20746f206e6f6e2d7a65726f20616c6c6f77616e6365",
  "linkReferences": {},
  "deployedLinkReferences": {}
}