{
  "_format": "hh-sol-artifact-1",
  "contractName": "StrategyCommonChefReferrerLP",
  "sourceName": "contracts/BIFI/strategies/Common/StrategyCommonChefReferrerLP.sol",
  "abi": [
    {
      "inputs": [
        {
          "internalType": "address",
          "name": "_want",
          "type": "address"
        },
        {
          "internalType": "uint256",
          "name": "_poolId",
          "type": "uint256"
        },
        {
          "internalType": "address",
          "name": "_chef",
          "type": "address"
        },
        {
          "internalType": "address",
          "name": "_referrer",
          "type": "address"
        },
        {
          "internalType": "address",
          "name": "_vault",
          "type": "address"
        },
        {
          "internalType": "address",
          "name": "_unirouter",
          "type": "address"
        },
        {
          "internalType": "address",
          "name": "_keeper",
          "type": "address"
        },
        {
          "internalType": "address",
          "name": "_strategist",
          "type": "address"
        },
        {
          "internalType": "address",
          "name": "_beefyFeeRecipient",
          "type": "address"
        },
        {
          "internalType": "address[]",
          "name": "_outputToNativeRoute",
          "type": "address[]"
        },
        {
          "internalType": "address[]",
          "name": "_outputToLp0Route",
          "type": "address[]"
        },
        {
          "internalType": "address[]",
          "name": "_outputToLp1Route",
          "type": "address[]"
        }
      ],
      "stateMutability": "nonpayable",
      "type": "constructor"
    },
    {
      "anonymous": false,
      "inputs": [
        {
          "indexed": true,
          "internalType": "address",
          "name": "previousOwner",
          "type": "address"
        },
        {
          "indexed": true,
          "internalType": "address",
          "name": "newOwner",
          "type": "address"
        }
      ],
      "name": "OwnershipTransferred",
      "type": "event"
    },
    {
      "anonymous": false,
      "inputs": [
        {
          "indexed": false,
          "internalType": "address",
          "name": "account",
          "type": "address"
        }
      ],
      "name": "Paused",
      "type": "event"
    },
    {
      "anonymous": false,
      "inputs": [
        {
          "indexed": true,
          "internalType": "address",
          "name": "harvester",
          "type": "address"
        }
      ],
      "name": "StratHarvest",
      "type": "event"
    },
    {
      "anonymous": false,
      "inputs": [
        {
          "indexed": false,
          "internalType": "address",
          "name": "account",
          "type": "address"
        }
      ],
      "name": "Unpaused",
      "type": "event"
    },
    {
      "inputs": [],
      "name": "MAX_CALL_FEE",
      "outputs": [
        {
          "internalType": "uint256",
          "name": "",
          "type": "uint256"
        }
      ],
      "stateMutability": "view",
      "type": "function"
    },
    {
      "inputs": [],
      "name": "MAX_FEE",
      "outputs": [
        {
          "internalType": "uint256",
          "name": "",
          "type": "uint256"
        }
      ],
      "stateMutability": "view",
      "type": "function"
    },
    {
      "inputs": [],
      "name": "STRATEGIST_FEE",
      "outputs": [
        {
          "internalType": "uint256",
          "name": "",
          "type": "uint256"
        }
      ],
      "stateMutability": "view",
      "type": "function"
    },
    {
      "inputs": [],
      "name": "WITHDRAWAL_FEE_CAP",
      "outputs": [
        {
          "internalType": "uint256",
          "name": "",
          "type": "uint256"
        }
      ],
      "stateMutability": "view",
      "type": "function"
    },
    {
      "inputs": [],
      "name": "WITHDRAWAL_MAX",
      "outputs": [
        {
          "internalType": "uint256",
          "name": "",
          "type": "uint256"
        }
      ],
      "stateMutability": "view",
      "type": "function"
    },
    {
      "inputs": [],
      "name": "balanceOf",
      "outputs": [
        {
          "internalType": "uint256",
          "name": "",
          "type": "uint256"
        }
      ],
      "stateMutability": "view",
      "type": "function"
    },
    {
      "inputs": [],
      "name": "balanceOfPool",
      "outputs": [
        {
          "internalType": "uint256",
          "name": "",
          "type": "uint256"
        }
      ],
      "stateMutability": "view",
      "type": "function"
    },
    {
      "inputs": [],
      "name": "balanceOfWant",
      "outputs": [
        {
          "internalType": "uint256",
          "name": "",
          "type": "uint256"
        }
      ],
      "stateMutability": "view",
      "type": "function"
    },
    {
      "inputs": [],
      "name": "beefyFee",
      "outputs": [
        {
          "internalType": "uint256",
          "name": "",
          "type": "uint256"
        }
      ],
      "stateMutability": "view",
      "type": "function"
    },
    {
      "inputs": [],
      "name": "beefyFeeRecipient",
      "outputs": [
        {
          "internalType": "address",
          "name": "",
          "type": "address"
        }
      ],
      "stateMutability": "view",
      "type": "function"
    },
    {
      "inputs": [],
      "name": "beforeDeposit",
      "outputs": [],
      "stateMutability": "nonpayable",
      "type": "function"
    },
    {
      "inputs": [],
      "name": "callFee",
      "outputs": [
        {
          "internalType": "uint256",
          "name": "",
          "type": "uint256"
        }
      ],
      "stateMutability": "view",
      "type": "function"
    },
    {
      "inputs": [],
      "name": "chef",
      "outputs": [
        {
          "internalType": "address",
          "name": "",
          "type": "address"
        }
      ],
      "stateMutability": "view",
      "type": "function"
    },
    {
      "inputs": [],
      "name": "deposit",
      "outputs": [],
      "stateMutability": "nonpayable",
      "type": "function"
    },
    {
      "inputs": [],
      "name": "harvest",
      "outputs": [],
      "stateMutability": "nonpayable",
      "type": "function"
    },
    {
      "inputs": [
        {
          "internalType": "address",
          "name": "callFeeRecipient",
          "type": "address"
        }
      ],
      "name": "harvestWithCallFeeRecipient",
      "outputs": [],
      "stateMutability": "nonpayable",
      "type": "function"
    },
    {
      "inputs": [],
      "name": "keeper",
      "outputs": [
        {
          "internalType": "address",
          "name": "",
          "type": "address"
        }
      ],
      "stateMutability": "view",
      "type": "function"
    },
    {
      "inputs": [],
      "name": "lastHarvest",
      "outputs": [
        {
          "internalType": "uint256",
          "name": "",
          "type": "uint256"
        }
      ],
      "stateMutability": "view",
      "type": "function"
    },
    {
      "inputs": [],
      "name": "lpToken0",
      "outputs": [
        {
          "internalType": "address",
          "name": "",
          "type": "address"
        }
      ],
      "stateMutability": "view",
      "type": "function"
    },
    {
      "inputs": [],
      "name": "lpToken1",
      "outputs": [
        {
          "internalType": "address",
          "name": "",
          "type": "address"
        }
      ],
      "stateMutability": "view",
      "type": "function"
    },
    {
      "inputs": [],
      "name": "managerHarvest",
      "outputs": [],
      "stateMutability": "nonpayable",
      "type": "function"
    },
    {
      "inputs": [],
      "name": "native",
      "outputs": [
        {
          "internalType": "address",
          "name": "",
          "type": "address"
        }
      ],
      "stateMutability": "view",
      "type": "function"
    },
    {
      "inputs": [],
      "name": "output",
      "outputs": [
        {
          "internalType": "address",
          "name": "",
          "type": "address"
        }
      ],
      "stateMutability": "view",
      "type": "function"
    },
    {
      "inputs": [],
      "name": "outputToLp0",
      "outputs": [
        {
          "internalType": "address[]",
          "name": "",
          "type": "address[]"
        }
      ],
      "stateMutability": "view",
      "type": "function"
    },
    {
      "inputs": [
        {
          "internalType": "uint256",
          "name": "",
          "type": "uint256"
        }
      ],
      "name": "outputToLp0Route",
      "outputs": [
        {
          "internalType": "address",
          "name": "",
          "type": "address"
        }
      ],
      "stateMutability": "view",
      "type": "function"
    },
    {
      "inputs": [],
      "name": "outputToLp1",
      "outputs": [
        {
          "internalType": "address[]",
          "name": "",
          "type": "address[]"
        }
      ],
      "stateMutability": "view",
      "type": "function"
    },
    {
      "inputs": [
        {
          "internalType": "uint256",
          "name": "",
          "type": "uint256"
        }
      ],
      "name": "outputToLp1Route",
      "outputs": [
        {
          "internalType": "address",
          "name": "",
          "type": "address"
        }
      ],
      "stateMutability": "view",
      "type": "function"
    },
    {
      "inputs": [],
      "name": "outputToNative",
      "outputs": [
        {
          "internalType": "address[]",
          "name": "",
          "type": "address[]"
        }
      ],
      "stateMutability": "view",
      "type": "function"
    },
    {
      "inputs": [
        {
          "internalType": "uint256",
          "name": "",
          "type": "uint256"
        }
      ],
      "name": "outputToNativeRoute",
      "outputs": [
        {
          "internalType": "address",
          "name": "",
          "type": "address"
        }
      ],
      "stateMutability": "view",
      "type": "function"
    },
    {
      "inputs": [],
      "name": "owner",
      "outputs": [
        {
          "internalType": "address",
          "name": "",
          "type": "address"
        }
      ],
      "stateMutability": "view",
      "type": "function"
    },
    {
      "inputs": [],
      "name": "panic",
      "outputs": [],
      "stateMutability": "nonpayable",
      "type": "function"
    },
    {
      "inputs": [],
      "name": "pause",
      "outputs": [],
      "stateMutability": "nonpayable",
      "type": "function"
    },
    {
      "inputs": [],
      "name": "paused",
      "outputs": [
        {
          "internalType": "bool",
          "name": "",
          "type": "bool"
        }
      ],
      "stateMutability": "view",
      "type": "function"
    },
    {
      "inputs": [],
      "name": "poolId",
      "outputs": [
        {
          "internalType": "uint256",
          "name": "",
          "type": "uint256"
        }
      ],
      "stateMutability": "view",
      "type": "function"
    },
    {
      "inputs": [],
      "name": "referrer",
      "outputs": [
        {
          "internalType": "address",
          "name": "",
          "type": "address"
        }
      ],
      "stateMutability": "view",
      "type": "function"
    },
    {
      "inputs": [],
      "name": "renounceOwnership",
      "outputs": [],
      "stateMutability": "nonpayable",
      "type": "function"
    },
    {
      "inputs": [],
      "name": "retireStrat",
      "outputs": [],
      "stateMutability": "nonpayable",
      "type": "function"
    },
    {
      "inputs": [
        {
          "internalType": "address",
          "name": "_beefyFeeRecipient",
          "type": "address"
        }
      ],
      "name": "setBeefyFeeRecipient",
      "outputs": [],
      "stateMutability": "nonpayable",
      "type": "function"
    },
    {
      "inputs": [
        {
          "internalType": "uint256",
          "name": "_fee",
          "type": "uint256"
        }
      ],
      "name": "setCallFee",
      "outputs": [],
      "stateMutability": "nonpayable",
      "type": "function"
    },
    {
      "inputs": [
        {
          "internalType": "address",
          "name": "_keeper",
          "type": "address"
        }
      ],
      "name": "setKeeper",
      "outputs": [],
      "stateMutability": "nonpayable",
      "type": "function"
    },
    {
      "inputs": [
        {
          "internalType": "address",
          "name": "_strategist",
          "type": "address"
        }
      ],
      "name": "setStrategist",
      "outputs": [],
      "stateMutability": "nonpayable",
      "type": "function"
    },
    {
      "inputs": [
        {
          "internalType": "address",
          "name": "_unirouter",
          "type": "address"
        }
      ],
      "name": "setUnirouter",
      "outputs": [],
      "stateMutability": "nonpayable",
      "type": "function"
    },
    {
      "inputs": [
        {
          "internalType": "address",
          "name": "_vault",
          "type": "address"
        }
      ],
      "name": "setVault",
      "outputs": [],
      "stateMutability": "nonpayable",
      "type": "function"
    },
    {
      "inputs": [
        {
          "internalType": "uint256",
          "name": "_fee",
          "type": "uint256"
        }
      ],
      "name": "setWithdrawalFee",
      "outputs": [],
      "stateMutability": "nonpayable",
      "type": "function"
    },
    {
      "inputs": [],
      "name": "strategist",
      "outputs": [
        {
          "internalType": "address",
          "name": "",
          "type": "address"
        }
      ],
      "stateMutability": "view",
      "type": "function"
    },
    {
      "inputs": [
        {
          "internalType": "address",
          "name": "newOwner",
          "type": "address"
        }
      ],
      "name": "transferOwnership",
      "outputs": [],
      "stateMutability": "nonpayable",
      "type": "function"
    },
    {
      "inputs": [],
      "name": "unirouter",
      "outputs": [
        {
          "internalType": "address",
          "name": "",
          "type": "address"
        }
      ],
      "stateMutability": "view",
      "type": "function"
    },
    {
      "inputs": [],
      "name": "unpause",
      "outputs": [],
      "stateMutability": "nonpayable",
      "type": "function"
    },
    {
      "inputs": [],
      "name": "vault",
      "outputs": [
        {
          "internalType": "address",
          "name": "",
          "type": "address"
        }
      ],
      "stateMutability": "view",
      "type": "function"
    },
    {
      "inputs": [],
      "name": "want",
      "outputs": [
        {
          "internalType": "address",
          "name": "",
          "type": "address"
        }
      ],
      "stateMutability": "view",
      "type": "function"
    },
    {
      "inputs": [
        {
          "internalType": "uint256",
          "name": "_amount",
          "type": "uint256"
        }
      ],
      "name": "withdraw",
      "outputs": [],
      "stateMutability": "nonpayable",
      "type": "function"
    },
    {
      "inputs": [],
      "name": "withdrawalFee",
      "outputs": [
        {
          "internalType": "uint256",
          "name": "",
          "type": "uint256"
        }
      ],
      "stateMutability": "view",
      "type": "function"
    }
  ],
  "bytecode": "0x6080604052600a600655606f6007556103096008553480156200002157600080fd5b50604051620037833803806200378383398181016040526101808110156200004857600080fd5b815160208301516040808501516060860151608087015160a088015160c089015160e08a01516101008b01516101208c01805198519a9c999b979a969995989497939692959194929382019284640100000000821115620000a857600080fd5b908301906020820185811115620000be57600080fd5b8251866020820283011164010000000082111715620000dc57600080fd5b82525081516020918201928201910280838360005b838110156200010b578181015183820152602001620000f1565b50505050905001604052602001805160405193929190846401000000008211156200013557600080fd5b9083019060208201858111156200014b57600080fd5b82518660208202830111640100000000821117156200016957600080fd5b82525081516020918201928201910280838360005b83811015620001985781810151838201526020016200017e565b5050505090500160405260200180516040519392919084640100000000821115620001c257600080fd5b908301906020820185811115620001d857600080fd5b8251866020820283011164010000000082111715620001f657600080fd5b82525081516020918201928201910280838360005b83811015620002255781810151838201526020016200020b565b505050509050016040525050508585888a87600062000249620007ca60201b60201c565b600080546001600160a01b0319166001600160a01b0383169081178255604051929350917f8be0079c531659141344cd1fd0a4f28419497f9722a3daafe3b4186f6b6457e0908290a35060008060146101000a81548160ff02191690831515021790555084600160006101000a8154816001600160a01b0302191690836001600160a01b0316021790555083600260006101000a8154816001600160a01b0302191690836001600160a01b0316021790555082600360006101000a8154816001600160a01b0302191690836001600160a01b0316021790555081600460006101000a8154816001600160a01b0302191690836001600160a01b0316021790555080600560006101000a8154816001600160a01b0302191690836001600160a01b0316021790555050505050508b600b60006101000a8154816001600160a01b0302191690836001600160a01b031602179055508a600f8190555089600e60006101000a8154816001600160a01b0302191690836001600160a01b0316021790555088601460006101000a8154816001600160a01b0302191690836001600160a01b0316021790555082600081518110620003ff57fe5b6020026020010151600a60006101000a8154816001600160a01b0302191690836001600160a01b03160217905550826001845103815181106200043e57fe5b602090810291909101810151600980546001600160a01b0319166001600160a01b0390921691909117905583516200047d916011919086019062000cef565b50600b60009054906101000a90046001600160a01b03166001600160a01b0316630dfe16816040518163ffffffff1660e01b815260040160206040518083038186803b158015620004cd57600080fd5b505afa158015620004e2573d6000803e3d6000fd5b505050506040513d6020811015620004f957600080fd5b5051600c80546001600160a01b0319166001600160a01b03928316179055600a54835191169083906000906200052b57fe5b60200260200101516001600160a01b0316146200058f576040805162461bcd60e51b815260206004820152601d60248201527f6f7574707574546f4c7030526f7574655b305d20213d206f7574707574000000604482015290519081900360640190fd5b600c5482516001600160a01b039091169083906000198101908110620005b157fe5b60200260200101516001600160a01b031614620006005760405162461bcd60e51b8152600401808060200182810382526022815260200180620037016022913960400191505060405180910390fd5b81516200061590601290602085019062000cef565b50600b60009054906101000a90046001600160a01b03166001600160a01b031663d21220a76040518163ffffffff1660e01b815260040160206040518083038186803b1580156200066557600080fd5b505afa1580156200067a573d6000803e3d6000fd5b505050506040513d60208110156200069157600080fd5b5051600d80546001600160a01b0319166001600160a01b03928316179055600a5482519116908290600090620006c357fe5b60200260200101516001600160a01b03161462000727576040805162461bcd60e51b815260206004820152601d60248201527f6f7574707574546f4c7031526f7574655b305d20213d206f7574707574000000604482015290519081900360640190fd5b600d5481516001600160a01b0390911690829060001981019081106200074957fe5b60200260200101516001600160a01b031614620007985760405162461bcd60e51b8152600401808060200182810382526022815260200180620036b96022913960400191505060405180910390fd5b8051620007ad90601390602084019062000cef565b50620007b8620007ce565b50505050505050505050505062000d7a565b3390565b600e54600b54620007fb916001600160a01b039182169116600019620008dc602090811b6200179817901c565b600354600a5462000828916001600160a01b039182169116600019620008dc602090811b6200179817901c565b600354600c5462000854916001600160a01b0391821691166000620008dc602090811b6200179817901c565b600354600c5462000881916001600160a01b039182169116600019620008dc602090811b6200179817901c565b600354600d54620008ad916001600160a01b0391821691166000620008dc602090811b6200179817901c565b600354600d54620008da916001600160a01b039182169116600019620008dc602090811b6200179817901c565b565b80158062000966575060408051636eb1769f60e11b81523060048201526001600160a01b03848116602483015291519185169163dd62ed3e91604480820192602092909190829003018186803b1580156200093657600080fd5b505afa1580156200094b573d6000803e3d6000fd5b505050506040513d60208110156200096257600080fd5b5051155b620009a35760405162461bcd60e51b81526004018080602001828103825260368152602001806200374d6036913960400191505060405180910390fd5b604080516001600160a01b038416602482015260448082018490528251808303909101815260649091019091526020810180516001600160e01b0390811663095ea7b360e01b17909152620009fb91859162000a0016565b505050565b606062000a5c826040518060400160405280602081526020017f5361666545524332303a206c6f772d6c6576656c2063616c6c206661696c6564815250856001600160a01b031662000abc60201b620018ab179092919060201c565b805190915015620009fb5780806020019051602081101562000a7d57600080fd5b5051620009fb5760405162461bcd60e51b815260040180806020018281038252602a81526020018062003723602a913960400191505060405180910390fd5b606062000acd848460008562000ad7565b90505b9392505050565b60608247101562000b1a5760405162461bcd60e51b8152600401808060200182810382526026815260200180620036db6026913960400191505060405180910390fd5b62000b258562000c3f565b62000b77576040805162461bcd60e51b815260206004820152601d60248201527f416464726573733a2063616c6c20746f206e6f6e2d636f6e7472616374000000604482015290519081900360640190fd5b60006060866001600160a01b031685876040518082805190602001908083835b6020831062000bb85780518252601f19909201916020918201910162000b97565b6001836020036101000a03801982511681845116808217855250505050505090500191505060006040518083038185875af1925050503d806000811462000c1c576040519150601f19603f3d011682016040523d82523d6000602084013e62000c21565b606091505b50909250905062000c3482828662000c45565b979650505050505050565b3b151590565b6060831562000c5657508162000ad0565b82511562000c675782518084602001fd5b8160405162461bcd60e51b81526004018080602001828103825283818151815260200191508051906020019080838360005b8381101562000cb357818101518382015260200162000c99565b50505050905090810190601f16801562000ce15780820380516001836020036101000a031916815260200191505b509250505060405180910390fd5b82805482825590600052602060002090810192821562000d47579160200282015b8281111562000d4757825182546001600160a01b0319166001600160a01b0390911617825560209092019160019091019062000d10565b5062000d5592915062000d59565b5090565b5b8082111562000d555780546001600160a01b031916815560010162000d5a565b61292f8062000d8a6000396000f3fe608060405234801561001057600080fd5b506004361061030c5760003560e01c80637d38ca651161019d578063c1a3d44c116100e9578063dfbdc437116100a2578063f2fde38b1161007c578063f2fde38b14610642578063fb61778714610668578063fbfa77cf14610670578063fd63a887146106785761030c565b8063dfbdc4371461062a578063f1a392da14610632578063f20eaeb81461063a5761030c565b8063c1a3d44c146105be578063c7b9d530146105c6578063d0e30db0146105ec578063d3102589146105f4578063d801d946146105fc578063d92f3d73146106045761030c565b806390321e1a11610156578063ac1e502511610130578063ac1e502514610574578063aced166114610591578063bc063e1a14610599578063be12a978146105a15761030c565b806390321e1a1461053e578063989ef4e314610546578063a68833e51461054e5761030c565b80637d38ca651461050e5780638456cb5914610516578063877562b61461051e5780638bc7e8c4146105265780638da5cb5b1461052e5780638e145459146105365761030c565b80633f4ba83a1161025c5780635ee167c01161021557806368447c93116101ef57806368447c93146104d0578063715018a6146104d8578063722713f7146104e0578063748747e6146104e85761030c565b80635ee167c01461047c578063623d8bd2146104845780636817031b146104aa5761030c565b80633f4ba83a146104385780634641257d146104405780634700d3051461044857806354518b1a14610450578063573fef0a146104585780635c975abb146104605761030c565b80631fe4a686116102c95780632ad5a53f116102a35780632ad5a53f146103ee5780632e1a7d4d146103f657806336c6cf21146104135780633e0dc34e146104305761030c565b80631fe4a686146103bf578063257ae0de146103c757806326465826146103cf5761030c565b80630587f78514610311578063115880861461036957806311b0b42d1461038357806313e120b1146103a75780631f1fcd51146103af5780631fc8bc5d146103b7575b600080fd5b610319610695565b60408051602080825283518183015283519192839290830191858101910280838360005b8381101561035557818101518382015260200161033d565b505050509050019250505060405180910390f35b6103716106f7565b60408051918252519081900360200190f35b61038b61077e565b604080516001600160a01b039092168252519081900360200190f35b61031961078d565b61038b6107ed565b61038b6107fc565b61038b61080b565b61038b61081a565b6103ec600480360360208110156103e557600080fd5b5035610829565b005b6103716108e3565b6103ec6004803603602081101561040c57600080fd5b50356108e8565b61038b6004803603602081101561042957600080fd5b5035610b57565b610371610b7e565b6103ec610b84565b6103ec610c0b565b6103ec610c15565b610371610cf4565b6103ec610c09565b610468610cfa565b604080519115158252519081900360200190f35b61038b610d0a565b6103ec6004803603602081101561049a57600080fd5b50356001600160a01b0316610d19565b6103ec600480360360208110156104c057600080fd5b50356001600160a01b0316610d25565b61038b610da9565b6103ec610db8565b610371610e64565b6103ec600480360360208110156104fe57600080fd5b50356001600160a01b0316610e84565b610371610f13565b6103ec610f18565b61038b610f95565b610371610fa4565b61038b610faa565b61038b610fb9565b610371610fc8565b610319610fce565b6103ec6004803603602081101561056457600080fd5b50356001600160a01b031661102e565b6103ec6004803603602081101561058a57600080fd5b50356110b2565b61038b611163565b610371611172565b61038b600480360360208110156105b757600080fd5b5035611178565b610371611185565b6103ec600480360360208110156105dc57600080fd5b50356001600160a01b0316611201565b6103ec611270565b6103716113b8565b6103ec6113be565b6103ec6004803603602081101561061a57600080fd5b50356001600160a01b031661142b565b6103716114af565b6103716114b4565b61038b6114ba565b6103ec6004803603602081101561065857600080fd5b50356001600160a01b03166114c9565b6103ec6115cb565b61038b61177c565b61038b6004803603602081101561068e57600080fd5b503561178b565b606060138054806020026020016040519081016040528092919081815260200182805480156106ed57602002820191906000526020600020905b81546001600160a01b031681526001909101906020018083116106cf575b5050505050905090565b600e54600f54604080516393f1a40b60e01b81526004810192909252306024830152805160009384936001600160a01b03909116926393f1a40b92604480840193829003018186803b15801561074c57600080fd5b505afa158015610760573d6000803e3d6000fd5b505050506040513d604081101561077657600080fd5b505191505090565b6009546001600160a01b031681565b606060118054806020026020016040519081016040528092919081815260200182805480156106ed576020028201919060005260206000209081546001600160a01b031681526001909101906020018083116106cf575050505050905090565b600b546001600160a01b031681565b600e546001600160a01b031681565b6002546001600160a01b031681565b6003546001600160a01b031681565b610831610faa565b6001600160a01b0316336001600160a01b0316148061085a57506001546001600160a01b031633145b610896576040805162461bcd60e51b815260206004820152600860248201526710b6b0b730b3b2b960c11b604482015290519081900360640190fd5b606f8111156108d5576040805162461bcd60e51b815260206004808301919091526024820152630216361760e41b604482015290519081900360640190fd5b600781905561037803600855565b606f81565b6004546001600160a01b03163314610930576040805162461bcd60e51b8152602060048201526006602482015265085d985d5b1d60d21b604482015290519081900360640190fd5b600b54604080516370a0823160e01b815230600482015290516000926001600160a01b0316916370a08231916024808301926020929190829003018186803b15801561097b57600080fd5b505afa15801561098f573d6000803e3d6000fd5b505050506040513d60208110156109a557600080fd5b5051905081811015610aa257600e54600f546001600160a01b039091169063441a3e70906109d385856118c4565b6040518363ffffffff1660e01b81526004018083815260200182815260200192505050600060405180830381600087803b158015610a1057600080fd5b505af1158015610a24573d6000803e3d6000fd5b5050600b54604080516370a0823160e01b815230600482015290516001600160a01b0390921693506370a082319250602480820192602092909190829003018186803b158015610a7357600080fd5b505afa158015610a87573d6000803e3d6000fd5b505050506040513d6020811015610a9d57600080fd5b505190505b81811115610aad5750805b610ab5610faa565b6001600160a01b0316326001600160a01b03161480610ad75750610ad7610cfa565b15610afe57600454600b54610af9916001600160a01b03918216911683611926565b610b53565b6000610b21612710610b1b6006548561197890919063ffffffff16565b906119d1565b600454909150610b51906001600160a01b0316610b3e84846118c4565b600b546001600160a01b03169190611926565b505b5050565b60128181548110610b6457fe5b6000918252602090912001546001600160a01b0316905081565b600f5481565b610b8c610faa565b6001600160a01b0316336001600160a01b03161480610bb557506001546001600160a01b031633145b610bf1576040805162461bcd60e51b815260206004820152600860248201526710b6b0b730b3b2b960c11b604482015290519081900360640190fd5b610bf9611a38565b610c01611adb565b610c09611270565b565b610c096000611b93565b610c1d610faa565b6001600160a01b0316336001600160a01b03161480610c4657506001546001600160a01b031633145b610c82576040805162461bcd60e51b815260206004820152600860248201526710b6b0b730b3b2b960c11b604482015290519081900360640190fd5b610c8a610f18565b600e54600f5460408051632989754760e11b81526004810192909252516001600160a01b0390921691635312ea8e9160248082019260009290919082900301818387803b158015610cda57600080fd5b505af1158015610cee573d6000803e3d6000fd5b50505050565b61271081565b600054600160a01b900460ff1690565b600c546001600160a01b031681565b610d2281611b93565b50565b610d2d611d22565b6001600160a01b0316610d3e610faa565b6001600160a01b031614610d87576040805162461bcd60e51b8152602060048201819052602482015260008051602061287a833981519152604482015290519081900360640190fd5b600480546001600160a01b0319166001600160a01b0392909216919091179055565b6014546001600160a01b031681565b610dc0611d22565b6001600160a01b0316610dd1610faa565b6001600160a01b031614610e1a576040805162461bcd60e51b8152602060048201819052602482015260008051602061287a833981519152604482015290519081900360640190fd5b600080546040516001600160a01b03909116907f8be0079c531659141344cd1fd0a4f28419497f9722a3daafe3b4186f6b6457e0908390a3600080546001600160a01b0319169055565b6000610e7f610e716106f7565b610e79611185565b90611d26565b905090565b610e8c610faa565b6001600160a01b0316336001600160a01b03161480610eb557506001546001600160a01b031633145b610ef1576040805162461bcd60e51b815260206004820152600860248201526710b6b0b730b3b2b960c11b604482015290519081900360640190fd5b600180546001600160a01b0319166001600160a01b0392909216919091179055565b607081565b610f20610faa565b6001600160a01b0316336001600160a01b03161480610f4957506001546001600160a01b031633145b610f85576040805162461bcd60e51b815260206004820152600860248201526710b6b0b730b3b2b960c11b604482015290519081900360640190fd5b610f8d611d80565b610c09611e09565b600d546001600160a01b031681565b60065481565b6000546001600160a01b031690565b6005546001600160a01b031681565b60075481565b606060128054806020026020016040519081016040528092919081815260200182805480156106ed576020028201919060005260206000209081546001600160a01b031681526001909101906020018083116106cf575050505050905090565b611036611d22565b6001600160a01b0316611047610faa565b6001600160a01b031614611090576040805162461bcd60e51b8152602060048201819052602482015260008051602061287a833981519152604482015290519081900360640190fd5b600580546001600160a01b0319166001600160a01b0392909216919091179055565b6110ba610faa565b6001600160a01b0316336001600160a01b031614806110e357506001546001600160a01b031633145b61111f576040805162461bcd60e51b815260206004820152600860248201526710b6b0b730b3b2b960c11b604482015290519081900360640190fd5b603281111561115e576040805162461bcd60e51b815260206004808301919091526024820152630216361760e41b604482015290519081900360640190fd5b600655565b6001546001600160a01b031681565b6103e881565b60118181548110610b6457fe5b600b54604080516370a0823160e01b815230600482015290516000926001600160a01b0316916370a08231916024808301926020929190829003018186803b1580156111d057600080fd5b505afa1580156111e4573d6000803e3d6000fd5b505050506040513d60208110156111fa57600080fd5b5051905090565b6002546001600160a01b0316331461124e576040805162461bcd60e51b815260206004820152600b60248201526a085cdd1c985d1959da5cdd60aa1b604482015290519081900360640190fd5b600280546001600160a01b0319166001600160a01b0392909216919091179055565b611278610cfa565b156112bd576040805162461bcd60e51b815260206004820152601060248201526f14185d5cd8589b194e881c185d5cd95960821b604482015290519081900360640190fd5b600b54604080516370a0823160e01b815230600482015290516000926001600160a01b0316916370a08231916024808301926020929190829003018186803b15801561130857600080fd5b505afa15801561131c573d6000803e3d6000fd5b505050506040513d602081101561133257600080fd5b505190508015610d2257600e54600f5460145460408051638dbdbe6d60e01b81526004810193909352602483018590526001600160a01b03918216604484015251921691638dbdbe6d9160648082019260009290919082900301818387803b15801561139d57600080fd5b505af11580156113b1573d6000803e3d6000fd5b5050505050565b60085481565b6113c6610faa565b6001600160a01b0316336001600160a01b031614806113ef57506001546001600160a01b031633145b610c0b576040805162461bcd60e51b815260206004820152600860248201526710b6b0b730b3b2b960c11b604482015290519081900360640190fd5b611433611d22565b6001600160a01b0316611444610faa565b6001600160a01b03161461148d576040805162461bcd60e51b8152602060048201819052602482015260008051602061287a833981519152604482015290519081900360640190fd5b600380546001600160a01b0319166001600160a01b0392909216919091179055565b603281565b60105481565b600a546001600160a01b031681565b6114d1611d22565b6001600160a01b03166114e2610faa565b6001600160a01b03161461152b576040805162461bcd60e51b8152602060048201819052602482015260008051602061287a833981519152604482015290519081900360640190fd5b6001600160a01b0381166115705760405162461bcd60e51b815260040180806020018281038252602681526020018061280d6026913960400191505060405180910390fd5b600080546040516001600160a01b03808516939216917f8be0079c531659141344cd1fd0a4f28419497f9722a3daafe3b4186f6b6457e091a3600080546001600160a01b0319166001600160a01b0392909216919091179055565b6004546001600160a01b03163314611613576040805162461bcd60e51b8152602060048201526006602482015265085d985d5b1d60d21b604482015290519081900360640190fd5b600e54600f5460408051632989754760e11b81526004810192909252516001600160a01b0390921691635312ea8e9160248082019260009290919082900301818387803b15801561166357600080fd5b505af1158015611677573d6000803e3d6000fd5b5050600b54604080516370a0823160e01b81523060048201529051600094506001600160a01b0390921692506370a08231916024808301926020929190829003018186803b1580156116c857600080fd5b505afa1580156116dc573d6000803e3d6000fd5b505050506040513d60208110156116f257600080fd5b5051600b54600480546040805163a9059cbb60e01b81526001600160a01b039283169381019390935260248301859052519394509091169163a9059cbb916044808201926020929091908290030181600087803b15801561175257600080fd5b505af1158015611766573d6000803e3d6000fd5b505050506040513d6020811015610b5157600080fd5b6004546001600160a01b031681565b60138181548110610b6457fe5b80158061181e575060408051636eb1769f60e11b81523060048201526001600160a01b03848116602483015291519185169163dd62ed3e91604480820192602092909190829003018186803b1580156117f057600080fd5b505afa158015611804573d6000803e3d6000fd5b505050506040513d602081101561181a57600080fd5b5051155b6118595760405162461bcd60e51b81526004018080602001828103825260368152602001806128c46036913960400191505060405180910390fd5b604080516001600160a01b038416602482015260448082018490528251808303909101815260649091019091526020810180516001600160e01b031663095ea7b360e01b179052610b51908490611e81565b60606118ba8484600085611f32565b90505b9392505050565b60008282111561191b576040805162461bcd60e51b815260206004820152601e60248201527f536166654d6174683a207375627472616374696f6e206f766572666c6f770000604482015290519081900360640190fd5b508082035b92915050565b604080516001600160a01b038416602482015260448082018490528251808303909101815260649091019091526020810180516001600160e01b031663a9059cbb60e01b179052610b51908490611e81565b60008261198757506000611920565b8282028284828161199457fe5b04146118bd5760405162461bcd60e51b81526004018080602001828103825260218152602001806128596021913960400191505060405180910390fd5b6000808211611a27576040805162461bcd60e51b815260206004820152601a60248201527f536166654d6174683a206469766973696f6e206279207a65726f000000000000604482015290519081900360640190fd5b818381611a3057fe5b049392505050565b611a40610cfa565b611a88576040805162461bcd60e51b815260206004820152601460248201527314185d5cd8589b194e881b9bdd081c185d5cd95960621b604482015290519081900360640190fd5b6000805460ff60a01b191690557f5db9ee0a495bf2e6ff9c91a7834c1ba4fdd244a5e8aa4e537bd38aeae4b073aa611abe611d22565b604080516001600160a01b039092168252519081900360200190a1565b600e54600b54611afa916001600160a01b039182169116600019611798565b600354600a54611b19916001600160a01b039182169116600019611798565b600354600c54611b37916001600160a01b0391821691166000611798565b600354600c54611b56916001600160a01b039182169116600019611798565b600354600d54611b74916001600160a01b0391821691166000611798565b600354600d54610c09916001600160a01b039182169116600019611798565b611b9b610cfa565b15611be0576040805162461bcd60e51b815260206004820152601060248201526f14185d5cd8589b194e881c185d5cd95960821b604482015290519081900360640190fd5b600e54600f5460408051638dbdbe6d60e01b815260048101929092526000602483018190526044830181905290516001600160a01b0390931692638dbdbe6d92606480820193929182900301818387803b158015611c3d57600080fd5b505af1158015611c51573d6000803e3d6000fd5b5050600a54604080516370a0823160e01b81523060048201529051600094506001600160a01b0390921692506370a08231916024808301926020929190829003018186803b158015611ca257600080fd5b505afa158015611cb6573d6000803e3d6000fd5b505050506040513d6020811015611ccc57600080fd5b505190508015610b5357611cdf8261208e565b611ce7612356565b611cef611270565b4260105560405133907f577a37fdb49a88d66684922c6f913df5239b4f214b2b97c53ef8e3bbb2034cb590600090a25050565b3390565b6000828201838110156118bd576040805162461bcd60e51b815260206004820152601b60248201527f536166654d6174683a206164646974696f6e206f766572666c6f770000000000604482015290519081900360640190fd5b611d88610cfa565b15611dcd576040805162461bcd60e51b815260206004820152601060248201526f14185d5cd8589b194e881c185d5cd95960821b604482015290519081900360640190fd5b6000805460ff60a01b1916600160a01b1790557f62e78cea01bee320cd4e420270b5ea74000d11b0c9f74754ebdbfc544b05a258611abe611d22565b600e54600b54611e27916001600160a01b0391821691166000611798565b600354600a54611e45916001600160a01b0391821691166000611798565b600354600c54611e63916001600160a01b0391821691166000611798565b600354600d54610c09916001600160a01b0391821691166000611798565b6060611ed6826040518060400160405280602081526020017f5361666545524332303a206c6f772d6c6576656c2063616c6c206661696c6564815250856001600160a01b03166118ab9092919063ffffffff16565b805190915015610b5157808060200190516020811015611ef557600080fd5b5051610b515760405162461bcd60e51b815260040180806020018281038252602a81526020018061289a602a913960400191505060405180910390fd5b606082471015611f735760405162461bcd60e51b81526004018080602001828103825260268152602001806128336026913960400191505060405180910390fd5b611f7c85612762565b611fcd576040805162461bcd60e51b815260206004820152601d60248201527f416464726573733a2063616c6c20746f206e6f6e2d636f6e7472616374000000604482015290519081900360640190fd5b60006060866001600160a01b031685876040518082805190602001908083835b6020831061200c5780518252601f199092019160209182019101611fed565b6001836020036101000a03801982511681845116808217855250505050505090500191505060006040518083038185875af1925050503d806000811461206e576040519150601f19603f3d011682016040523d82523d6000602084013e612073565b606091505b5091509150612083828286612768565b979650505050505050565b600a54604080516370a0823160e01b8152306004820152905160009261211d926103e892610b1b92602d926001600160a01b03909116916370a0823191602480820192602092909190829003018186803b1580156120eb57600080fd5b505afa1580156120ff573d6000803e3d6000fd5b505050506040513d602081101561211557600080fd5b505190611978565b9050600360009054906101000a90046001600160a01b03166001600160a01b0316635c11d795826000601130426040518663ffffffff1660e01b81526004018086815260200185815260200180602001846001600160a01b0316815260200183815260200182810382528581815481526020019150805480156121c957602002820191906000526020600020905b81546001600160a01b031681526001909101906020018083116121ab575b50509650505050505050600060405180830381600087803b1580156121ed57600080fd5b505af1158015612201573d6000803e3d6000fd5b5050600954604080516370a0823160e01b81523060048201529051600094506001600160a01b0390921692506370a08231916024808301926020929190829003018186803b15801561225257600080fd5b505afa158015612266573d6000803e3d6000fd5b505050506040513d602081101561227c57600080fd5b505160075490915060009061229a906103e890610b1b908590611978565b90506001600160a01b038416156122c7576009546122c2906001600160a01b03168583611926565b6122de565b6009546122de906001600160a01b03163283611926565b60006122fb6103e8610b1b6008548661197890919063ffffffff16565b60055460095491925061231b916001600160a01b03908116911683611926565b600061232e6103e8610b1b866070611978565b60025460095491925061234e916001600160a01b03908116911683611926565b505050505050565b600a54604080516370a0823160e01b815230600482015290516000926123dd926002926001600160a01b03909216916370a0823191602480820192602092909190829003018186803b1580156123ab57600080fd5b505afa1580156123bf573d6000803e3d6000fd5b505050506040513d60208110156123d557600080fd5b5051906119d1565b600a54600c549192506001600160a01b039182169116146124cf57600354604051635c11d79560e01b8152600481018381526000602483018190523060648401819052426084850181905260a0604486019081526012805460a488018190526001600160a01b0390981697635c11d795978a97929594939160c4909101908690801561249257602002820191906000526020600020905b81546001600160a01b03168152600190910190602001808311612474575b50509650505050505050600060405180830381600087803b1580156124b657600080fd5b505af11580156124ca573d6000803e3d6000fd5b505050505b600a54600d546001600160a01b039081169116146125be57600354604051635c11d79560e01b8152600481018381526000602483018190523060648401819052426084850181905260a0604486019081526013805460a488018190526001600160a01b0390981697635c11d795978a97929594939160c4909101908690801561258157602002820191906000526020600020905b81546001600160a01b03168152600190910190602001808311612563575b50509650505050505050600060405180830381600087803b1580156125a557600080fd5b505af11580156125b9573d6000803e3d6000fd5b505050505b600c54604080516370a0823160e01b815230600482015290516000926001600160a01b0316916370a08231916024808301926020929190829003018186803b15801561260957600080fd5b505afa15801561261d573d6000803e3d6000fd5b505050506040513d602081101561263357600080fd5b5051600d54604080516370a0823160e01b815230600482015290519293506000926001600160a01b03909216916370a0823191602480820192602092909190829003018186803b15801561268657600080fd5b505afa15801561269a573d6000803e3d6000fd5b505050506040513d60208110156126b057600080fd5b5051600354600c54600d546040805162e8e33760e81b81526001600160a01b0393841660048201529183166024830152604482018790526064820185905260016084830181905260a48301523060c48301524260e48301525193945091169163e8e3370091610104808201926060929091908290030181600087803b15801561273857600080fd5b505af115801561274c573d6000803e3d6000fd5b505050506040513d60608110156113b157600080fd5b3b151590565b606083156127775750816118bd565b8251156127875782518084602001fd5b8160405162461bcd60e51b81526004018080602001828103825283818151815260200191508051906020019080838360005b838110156127d15781810151838201526020016127b9565b50505050905090810190601f1680156127fe5780820380516001836020036101000a031916815260200191505b509250505060405180910390fdfe4f776e61626c653a206e6577206f776e657220697320746865207a65726f2061646472657373416464726573733a20696e73756666696369656e742062616c616e636520666f722063616c6c536166654d6174683a206d756c7469706c69636174696f6e206f766572666c6f774f776e61626c653a2063616c6c6572206973206e6f7420746865206f776e65725361666545524332303a204552433230206f7065726174696f6e20646964206e6f7420737563636565645361666545524332303a20617070726f76652066726f6d206e6f6e2d7a65726f20746f206e6f6e2d7a65726f20616c6c6f77616e6365a2646970667358221220fae443c434fbaebff7713bcd0b8ef537174eda86c209f80ab58ee50801fc657464736f6c634300060c00336f7574707574546f4c7031526f7574655b6c6173745d20213d206c70546f6b656e31416464726573733a20696e73756666696369656e742062616c616e636520666f722063616c6c6f7574707574546f4c7030526f7574655b6c6173745d20213d206c70546f6b656e305361666545524332303a204552433230206f7065726174696f6e20646964206e6f7420737563636565645361666545524332303a20617070726f76652066726f6d206e6f6e2d7a65726f20746f206e6f6e2d7a65726f20616c6c6f77616e6365",
  "linkReferences": {},
  "deployedLinkReferences": {}
}