{
  "_format": "hh-sol-artifact-1",
  "contractName": "CRTInteraction",
  "sourceName": "contracts/BIFI/token/CRT_interaction.sol",
  "abi": [
    {
      "inputs": [
        {
          "internalType": "address",
          "name": "_CRTadd",
          "type": "address"
        }
      ],
      "stateMutability": "nonpayable",
      "type": "constructor"
    },
    {
      "anonymous": false,
      "inputs": [
        {
          "indexed": true,
          "internalType": "address",
          "name": "previousOwner",
          "type": "address"
        },
        {
          "indexed": true,
          "internalType": "address",
          "name": "newOwner",
          "type": "address"
        }
      ],
      "name": "OwnershipTransferred",
      "type": "event"
    },
    {
      "stateMutability": "payable",
      "type": "fallback"
    },
    {
      "inputs": [],
      "name": "CRTaddress",
      "outputs": [
        {
          "internalType": "address",
          "name": "",
          "type": "address"
        }
      ],
      "stateMutability": "view",
      "type": "function"
    },
    {
      "inputs": [],
      "name": "owner",
      "outputs": [
        {
          "internalType": "address",
          "name": "",
          "type": "address"
        }
      ],
      "stateMutability": "view",
      "type": "function"
    },
    {
      "inputs": [],
      "name": "renounceOwnership",
      "outputs": [],
      "stateMutability": "nonpayable",
      "type": "function"
    },
    {
      "inputs": [
        {
          "internalType": "address",
          "name": "newOwner",
          "type": "address"
        }
      ],
      "name": "transferOwnership",
      "outputs": [],
      "stateMutability": "nonpayable",
      "type": "function"
    },
    {
      "stateMutability": "payable",
      "type": "receive"
    }
  ],
  "bytecode": "0x608060405234801561001057600080fd5b506040516106f33803806106f38339818101604052602081101561003357600080fd5b5051600061003f6100ae565b600080546001600160a01b0319166001600160a01b0383169081178255604051929350917f8be0079c531659141344cd1fd0a4f28419497f9722a3daafe3b4186f6b6457e0908290a350600180546001600160a01b0319166001600160a01b03929092169190911790556100b2565b3390565b610632806100c16000396000f3fe6080604052600436106100435760003560e01c8063715018a6146100bd5780638da5cb5b146100d2578063c643e09214610103578063f2fde38b14610118576100bb565b366100bb5733600061005634600a61014b565b90506100846040518060400160405280600a8152602001692932b1b4b834b2b73a1d60b11b815250836101ad565b6100ad6040518060400160405280600781526020016620b6b7bab73a1d60c91b81525082610268565b6100b78282610316565b5050005b005b3480156100c957600080fd5b506100bb6103a0565b3480156100de57600080fd5b506100e761045e565b604080516001600160a01b039092168252519081900360200190f35b34801561010f57600080fd5b506100e761046d565b34801561012457600080fd5b506100bb6004803603602081101561013b57600080fd5b50356001600160a01b031661047c565b60008261015a575060006101a7565b8282028284828161016757fe5b04146101a45760405162461bcd60e51b81526004018080602001828103825260218152602001806105dc6021913960400191505060405180910390fd5b90505b92915050565b61026482826040516024018080602001836001600160a01b03168152602001828103825284818151815260200191508051906020019080838360005b838110156102015781810151838201526020016101e9565b50505050905090810190601f16801561022e5780820380516001836020036101000a031916815260200191505b5060408051601f198184030181529190526020810180516001600160e01b031663319af33360e01b179052935061059092505050565b5050565b61026482826040516024018080602001838152602001828103825284818151815260200191508051906020019080838360005b838110156102b357818101518382015260200161029b565b50505050905090810190601f1680156102e05780820380516001836020036101000a031916815260200191505b5060408051601f198184030181529190526020810180516001600160e01b03166309710a9d60e41b179052935061059092505050565b6001546040805163a9059cbb60e01b81526001600160a01b0385811660048301526024820185905291519190921691829163a9059cbb916044808201926020929091908290030181600087803b15801561036f57600080fd5b505af1158015610383573d6000803e3d6000fd5b505050506040513d602081101561039957600080fd5b5050505050565b6103a86105b1565b6001600160a01b03166103b961045e565b6001600160a01b031614610414576040805162461bcd60e51b815260206004820181905260248201527f4f776e61626c653a2063616c6c6572206973206e6f7420746865206f776e6572604482015290519081900360640190fd5b600080546040516001600160a01b03909116907f8be0079c531659141344cd1fd0a4f28419497f9722a3daafe3b4186f6b6457e0908390a3600080546001600160a01b0319169055565b6000546001600160a01b031690565b6001546001600160a01b031681565b6104846105b1565b6001600160a01b031661049561045e565b6001600160a01b0316146104f0576040805162461bcd60e51b815260206004820181905260248201527f4f776e61626c653a2063616c6c6572206973206e6f7420746865206f776e6572604482015290519081900360640190fd5b6001600160a01b0381166105355760405162461bcd60e51b81526004018080602001828103825260268152602001806105b66026913960400191505060405180910390fd5b600080546040516001600160a01b03808516939216917f8be0079c531659141344cd1fd0a4f28419497f9722a3daafe3b4186f6b6457e091a3600080546001600160a01b0319166001600160a01b0392909216919091179055565b80516a636f6e736f6c652e6c6f67602083016000808483855afa5050505050565b339056fe4f776e61626c653a206e6577206f776e657220697320746865207a65726f2061646472657373536166654d6174683a206d756c7469706c69636174696f6e206f766572666c6f77a2646970667358221220f6774205276361700ac710cd6eaeefcfae8d855e4f51b55cc3d7ec78afb8f4e864736f6c634300060c0033",
  "linkReferences": {},
  "deployedLinkReferences": {}
}