{
  "_format": "hh-sol-artifact-1",
  "contractName": "StrategyCommonMultiRewardPoolLP",
  "sourceName": "contracts/BIFI/strategies/Common/StrategyCommonMultiRewardPoolLP.sol",
  "abi": [
    {
      "inputs": [
        {
          "internalType": "address",
          "name": "_want",
          "type": "address"
        },
        {
          "internalType": "address",
          "name": "_rewardPool",
          "type": "address"
        },
        {
          "internalType": "address",
          "name": "_vault",
          "type": "address"
        },
        {
          "internalType": "address",
          "name": "_unirouter",
          "type": "address"
        },
        {
          "internalType": "address",
          "name": "_keeper",
          "type": "address"
        },
        {
          "internalType": "address",
          "name": "_strategist",
          "type": "address"
        },
        {
          "internalType": "address",
          "name": "_beefyFeeRecipient",
          "type": "address"
        },
        {
          "internalType": "address[]",
          "name": "_outputToNativeRoute",
          "type": "address[]"
        },
        {
          "internalType": "address[]",
          "name": "_outputToLp0Route",
          "type": "address[]"
        },
        {
          "internalType": "address[]",
          "name": "_outputToLp1Route",
          "type": "address[]"
        },
        {
          "internalType": "address[]",
          "name": "_secondOutputToOutputRoute",
          "type": "address[]"
        }
      ],
      "stateMutability": "nonpayable",
      "type": "constructor"
    },
    {
      "anonymous": false,
      "inputs": [
        {
          "indexed": true,
          "internalType": "address",
          "name": "previousOwner",
          "type": "address"
        },
        {
          "indexed": true,
          "internalType": "address",
          "name": "newOwner",
          "type": "address"
        }
      ],
      "name": "OwnershipTransferred",
      "type": "event"
    },
    {
      "anonymous": false,
      "inputs": [
        {
          "indexed": false,
          "internalType": "address",
          "name": "account",
          "type": "address"
        }
      ],
      "name": "Paused",
      "type": "event"
    },
    {
      "anonymous": false,
      "inputs": [
        {
          "indexed": true,
          "internalType": "address",
          "name": "harvester",
          "type": "address"
        }
      ],
      "name": "StratHarvest",
      "type": "event"
    },
    {
      "anonymous": false,
      "inputs": [
        {
          "indexed": false,
          "internalType": "address",
          "name": "account",
          "type": "address"
        }
      ],
      "name": "Unpaused",
      "type": "event"
    },
    {
      "inputs": [],
      "name": "MAX_CALL_FEE",
      "outputs": [
        {
          "internalType": "uint256",
          "name": "",
          "type": "uint256"
        }
      ],
      "stateMutability": "view",
      "type": "function"
    },
    {
      "inputs": [],
      "name": "MAX_FEE",
      "outputs": [
        {
          "internalType": "uint256",
          "name": "",
          "type": "uint256"
        }
      ],
      "stateMutability": "view",
      "type": "function"
    },
    {
      "inputs": [],
      "name": "STRATEGIST_FEE",
      "outputs": [
        {
          "internalType": "uint256",
          "name": "",
          "type": "uint256"
        }
      ],
      "stateMutability": "view",
      "type": "function"
    },
    {
      "inputs": [],
      "name": "WITHDRAWAL_FEE_CAP",
      "outputs": [
        {
          "internalType": "uint256",
          "name": "",
          "type": "uint256"
        }
      ],
      "stateMutability": "view",
      "type": "function"
    },
    {
      "inputs": [],
      "name": "WITHDRAWAL_MAX",
      "outputs": [
        {
          "internalType": "uint256",
          "name": "",
          "type": "uint256"
        }
      ],
      "stateMutability": "view",
      "type": "function"
    },
    {
      "inputs": [],
      "name": "balanceOf",
      "outputs": [
        {
          "internalType": "uint256",
          "name": "",
          "type": "uint256"
        }
      ],
      "stateMutability": "view",
      "type": "function"
    },
    {
      "inputs": [],
      "name": "balanceOfPool",
      "outputs": [
        {
          "internalType": "uint256",
          "name": "",
          "type": "uint256"
        }
      ],
      "stateMutability": "view",
      "type": "function"
    },
    {
      "inputs": [],
      "name": "balanceOfWant",
      "outputs": [
        {
          "internalType": "uint256",
          "name": "",
          "type": "uint256"
        }
      ],
      "stateMutability": "view",
      "type": "function"
    },
    {
      "inputs": [],
      "name": "beefyFee",
      "outputs": [
        {
          "internalType": "uint256",
          "name": "",
          "type": "uint256"
        }
      ],
      "stateMutability": "view",
      "type": "function"
    },
    {
      "inputs": [],
      "name": "beefyFeeRecipient",
      "outputs": [
        {
          "internalType": "address",
          "name": "",
          "type": "address"
        }
      ],
      "stateMutability": "view",
      "type": "function"
    },
    {
      "inputs": [],
      "name": "beforeDeposit",
      "outputs": [],
      "stateMutability": "nonpayable",
      "type": "function"
    },
    {
      "inputs": [],
      "name": "callFee",
      "outputs": [
        {
          "internalType": "uint256",
          "name": "",
          "type": "uint256"
        }
      ],
      "stateMutability": "view",
      "type": "function"
    },
    {
      "inputs": [],
      "name": "deposit",
      "outputs": [],
      "stateMutability": "nonpayable",
      "type": "function"
    },
    {
      "inputs": [],
      "name": "harvest",
      "outputs": [],
      "stateMutability": "nonpayable",
      "type": "function"
    },
    {
      "inputs": [
        {
          "internalType": "address",
          "name": "callFeeRecipient",
          "type": "address"
        }
      ],
      "name": "harvestWithCallFeeRecipient",
      "outputs": [],
      "stateMutability": "nonpayable",
      "type": "function"
    },
    {
      "inputs": [],
      "name": "keeper",
      "outputs": [
        {
          "internalType": "address",
          "name": "",
          "type": "address"
        }
      ],
      "stateMutability": "view",
      "type": "function"
    },
    {
      "inputs": [],
      "name": "lastHarvest",
      "outputs": [
        {
          "internalType": "uint256",
          "name": "",
          "type": "uint256"
        }
      ],
      "stateMutability": "view",
      "type": "function"
    },
    {
      "inputs": [],
      "name": "lpToken0",
      "outputs": [
        {
          "internalType": "address",
          "name": "",
          "type": "address"
        }
      ],
      "stateMutability": "view",
      "type": "function"
    },
    {
      "inputs": [],
      "name": "lpToken1",
      "outputs": [
        {
          "internalType": "address",
          "name": "",
          "type": "address"
        }
      ],
      "stateMutability": "view",
      "type": "function"
    },
    {
      "inputs": [],
      "name": "managerHarvest",
      "outputs": [],
      "stateMutability": "nonpayable",
      "type": "function"
    },
    {
      "inputs": [],
      "name": "native",
      "outputs": [
        {
          "internalType": "address",
          "name": "",
          "type": "address"
        }
      ],
      "stateMutability": "view",
      "type": "function"
    },
    {
      "inputs": [],
      "name": "output",
      "outputs": [
        {
          "internalType": "address",
          "name": "",
          "type": "address"
        }
      ],
      "stateMutability": "view",
      "type": "function"
    },
    {
      "inputs": [],
      "name": "outputToLp0",
      "outputs": [
        {
          "internalType": "address[]",
          "name": "",
          "type": "address[]"
        }
      ],
      "stateMutability": "view",
      "type": "function"
    },
    {
      "inputs": [
        {
          "internalType": "uint256",
          "name": "",
          "type": "uint256"
        }
      ],
      "name": "outputToLp0Route",
      "outputs": [
        {
          "internalType": "address",
          "name": "",
          "type": "address"
        }
      ],
      "stateMutability": "view",
      "type": "function"
    },
    {
      "inputs": [],
      "name": "outputToLp1",
      "outputs": [
        {
          "internalType": "address[]",
          "name": "",
          "type": "address[]"
        }
      ],
      "stateMutability": "view",
      "type": "function"
    },
    {
      "inputs": [
        {
          "internalType": "uint256",
          "name": "",
          "type": "uint256"
        }
      ],
      "name": "outputToLp1Route",
      "outputs": [
        {
          "internalType": "address",
          "name": "",
          "type": "address"
        }
      ],
      "stateMutability": "view",
      "type": "function"
    },
    {
      "inputs": [],
      "name": "outputToNative",
      "outputs": [
        {
          "internalType": "address[]",
          "name": "",
          "type": "address[]"
        }
      ],
      "stateMutability": "view",
      "type": "function"
    },
    {
      "inputs": [
        {
          "internalType": "uint256",
          "name": "",
          "type": "uint256"
        }
      ],
      "name": "outputToNativeRoute",
      "outputs": [
        {
          "internalType": "address",
          "name": "",
          "type": "address"
        }
      ],
      "stateMutability": "view",
      "type": "function"
    },
    {
      "inputs": [],
      "name": "owner",
      "outputs": [
        {
          "internalType": "address",
          "name": "",
          "type": "address"
        }
      ],
      "stateMutability": "view",
      "type": "function"
    },
    {
      "inputs": [],
      "name": "panic",
      "outputs": [],
      "stateMutability": "nonpayable",
      "type": "function"
    },
    {
      "inputs": [],
      "name": "pause",
      "outputs": [],
      "stateMutability": "nonpayable",
      "type": "function"
    },
    {
      "inputs": [],
      "name": "paused",
      "outputs": [
        {
          "internalType": "bool",
          "name": "",
          "type": "bool"
        }
      ],
      "stateMutability": "view",
      "type": "function"
    },
    {
      "inputs": [],
      "name": "renounceOwnership",
      "outputs": [],
      "stateMutability": "nonpayable",
      "type": "function"
    },
    {
      "inputs": [],
      "name": "retireStrat",
      "outputs": [],
      "stateMutability": "nonpayable",
      "type": "function"
    },
    {
      "inputs": [],
      "name": "rewardPool",
      "outputs": [
        {
          "internalType": "address",
          "name": "",
          "type": "address"
        }
      ],
      "stateMutability": "view",
      "type": "function"
    },
    {
      "inputs": [],
      "name": "secondOutput",
      "outputs": [
        {
          "internalType": "address",
          "name": "",
          "type": "address"
        }
      ],
      "stateMutability": "view",
      "type": "function"
    },
    {
      "inputs": [],
      "name": "secondOutputToOutput",
      "outputs": [
        {
          "internalType": "address[]",
          "name": "",
          "type": "address[]"
        }
      ],
      "stateMutability": "view",
      "type": "function"
    },
    {
      "inputs": [
        {
          "internalType": "uint256",
          "name": "",
          "type": "uint256"
        }
      ],
      "name": "secondOutputToOutputRoute",
      "outputs": [
        {
          "internalType": "address",
          "name": "",
          "type": "address"
        }
      ],
      "stateMutability": "view",
      "type": "function"
    },
    {
      "inputs": [
        {
          "internalType": "address",
          "name": "_beefyFeeRecipient",
          "type": "address"
        }
      ],
      "name": "setBeefyFeeRecipient",
      "outputs": [],
      "stateMutability": "nonpayable",
      "type": "function"
    },
    {
      "inputs": [
        {
          "internalType": "uint256",
          "name": "_fee",
          "type": "uint256"
        }
      ],
      "name": "setCallFee",
      "outputs": [],
      "stateMutability": "nonpayable",
      "type": "function"
    },
    {
      "inputs": [
        {
          "internalType": "address",
          "name": "_keeper",
          "type": "address"
        }
      ],
      "name": "setKeeper",
      "outputs": [],
      "stateMutability": "nonpayable",
      "type": "function"
    },
    {
      "inputs": [
        {
          "internalType": "address",
          "name": "_strategist",
          "type": "address"
        }
      ],
      "name": "setStrategist",
      "outputs": [],
      "stateMutability": "nonpayable",
      "type": "function"
    },
    {
      "inputs": [
        {
          "internalType": "address",
          "name": "_unirouter",
          "type": "address"
        }
      ],
      "name": "setUnirouter",
      "outputs": [],
      "stateMutability": "nonpayable",
      "type": "function"
    },
    {
      "inputs": [
        {
          "internalType": "address",
          "name": "_vault",
          "type": "address"
        }
      ],
      "name": "setVault",
      "outputs": [],
      "stateMutability": "nonpayable",
      "type": "function"
    },
    {
      "inputs": [
        {
          "internalType": "uint256",
          "name": "_fee",
          "type": "uint256"
        }
      ],
      "name": "setWithdrawalFee",
      "outputs": [],
      "stateMutability": "nonpayable",
      "type": "function"
    },
    {
      "inputs": [],
      "name": "strategist",
      "outputs": [
        {
          "internalType": "address",
          "name": "",
          "type": "address"
        }
      ],
      "stateMutability": "view",
      "type": "function"
    },
    {
      "inputs": [
        {
          "internalType": "address",
          "name": "newOwner",
          "type": "address"
        }
      ],
      "name": "transferOwnership",
      "outputs": [],
      "stateMutability": "nonpayable",
      "type": "function"
    },
    {
      "inputs": [],
      "name": "unirouter",
      "outputs": [
        {
          "internalType": "address",
          "name": "",
          "type": "address"
        }
      ],
      "stateMutability": "view",
      "type": "function"
    },
    {
      "inputs": [],
      "name": "unpause",
      "outputs": [],
      "stateMutability": "nonpayable",
      "type": "function"
    },
    {
      "inputs": [],
      "name": "vault",
      "outputs": [
        {
          "internalType": "address",
          "name": "",
          "type": "address"
        }
      ],
      "stateMutability": "view",
      "type": "function"
    },
    {
      "inputs": [],
      "name": "want",
      "outputs": [
        {
          "internalType": "address",
          "name": "",
          "type": "address"
        }
      ],
      "stateMutability": "view",
      "type": "function"
    },
    {
      "inputs": [
        {
          "internalType": "uint256",
          "name": "_amount",
          "type": "uint256"
        }
      ],
      "name": "withdraw",
      "outputs": [],
      "stateMutability": "nonpayable",
      "type": "function"
    },
    {
      "inputs": [],
      "name": "withdrawalFee",
      "outputs": [
        {
          "internalType": "uint256",
          "name": "",
          "type": "uint256"
        }
      ],
      "stateMutability": "view",
      "type": "function"
    }
  ],
  "bytecode": "0x6080604052600a600655606f6007556103096008553480156200002157600080fd5b50604051620034f8380380620034f8833981016040819052620000449162000924565b8686898b886000620000556200039a565b600080546001600160a01b0319166001600160a01b0383169081178255604051929350917f8be0079c531659141344cd1fd0a4f28419497f9722a3daafe3b4186f6b6457e0908290a3506000805460ff60a01b19168155600180546001600160a01b03199081166001600160a01b0398891617909155600280548216968816969096179095556003805486169487169490941790935560048054851692861692909217909155600580548416918516919091179055600c805483168f8516179055600f8054909216928d1692909217905584518591906200013257fe5b6020026020010151600a60006101000a8154816001600160a01b0302191690836001600160a01b03160217905550836001855103815181106200017157fe5b602090810291909101810151600980546001600160a01b0319166001600160a01b039092169190911790558451620001b09160119190870190620007bb565b5080600081518110620001bf57fe5b602090810291909101810151600b80546001600160a01b0319166001600160a01b039092169190911790558151620001fe9160149190840190620007bb565b50600c60009054906101000a90046001600160a01b03166001600160a01b0316630dfe16816040518163ffffffff1660e01b815260040160206040518083038186803b1580156200024e57600080fd5b505afa15801562000263573d6000803e3d6000fd5b505050506040513d601f19601f8201168201806040525081019062000289919062000906565b600d80546001600160a01b0319166001600160a01b03929092169190911790558251620002be906012906020860190620007bb565b50600c60009054906101000a90046001600160a01b03166001600160a01b031663d21220a76040518163ffffffff1660e01b815260040160206040518083038186803b1580156200030e57600080fd5b505afa15801562000323573d6000803e3d6000fd5b505050506040513d601f19601f8201168201806040525081019062000349919062000906565b600e80546001600160a01b0319166001600160a01b039290921691909117905581516200037e906013906020850190620007bb565b50620003896200039e565b505050505050505050505062000c94565b3390565b600f54600c54620003cb916001600160a01b039182169116600019620004d9602090811b6200128117901c565b600354600a54620003f8916001600160a01b039182169116600019620004d9602090811b6200128117901c565b600354600b5462000425916001600160a01b039182169116600019620004d9602090811b6200128117901c565b600354600d5462000451916001600160a01b0391821691166000620004d9602090811b6200128117901c565b600354600d546200047e916001600160a01b039182169116600019620004d9602090811b6200128117901c565b600354600e54620004aa916001600160a01b0391821691166000620004d9602090811b6200128117901c565b600354600e54620004d7916001600160a01b039182169116600019620004d9602090811b6200128117901c565b565b801580620005685750604051636eb1769f60e11b81526001600160a01b0384169063dd62ed3e9062000512903090869060040162000ad5565b60206040518083038186803b1580156200052b57600080fd5b505afa15801562000540573d6000803e3d6000fd5b505050506040513d601f19601f8201168201806040525081019062000566919062000a9e565b155b620005905760405162461bcd60e51b8152600401620005879062000c04565b60405180910390fd5b620005eb8363095ea7b360e01b8484604051602401620005b292919062000aef565b60408051808303601f190181529190526020810180516001600160e01b0319939093166001600160e01b0393841617905290620005f016565b505050565b60606200064c826040518060400160405280602081526020017f5361666545524332303a206c6f772d6c6576656c2063616c6c206661696c6564815250856001600160a01b03166200068c60201b6200137b179092919060201c565b805190915015620005eb57808060200190518101906200066d919062000a7c565b620005eb5760405162461bcd60e51b8152600401620005879062000bba565b60606200069d8484600085620006a7565b90505b9392505050565b606082471015620006cc5760405162461bcd60e51b8152600401620005879062000b3d565b620006d78562000777565b620006f65760405162461bcd60e51b8152600401620005879062000b83565b60006060866001600160a01b0316858760405162000715919062000ab7565b60006040518083038185875af1925050503d806000811462000754576040519150601f19603f3d011682016040523d82523d6000602084013e62000759565b606091505b5090925090506200076c8282866200077d565b979650505050505050565b3b151590565b606083156200078e575081620006a0565b8251156200079f5782518084602001fd5b8160405162461bcd60e51b815260040162000587919062000b08565b82805482825590600052602060002090810192821562000813579160200282015b828111156200081357825182546001600160a01b0319166001600160a01b03909116178255602090920191600190910190620007dc565b506200082192915062000825565b5090565b5b80821115620008215780546001600160a01b031916815560010162000826565b80516001600160a01b03811681146200085e57600080fd5b92915050565b600082601f83011262000875578081fd5b81516001600160401b03808211156200088c578283fd5b602080830260405182828201018181108582111715620008aa578687fd5b604052848152945081850192508582018187018301881015620008cc57600080fd5b600091505b84821015620008fb57620008e6888262000846565b845292820192600191909101908201620008d1565b505050505092915050565b60006020828403121562000918578081fd5b620006a0838362000846565b60008060008060008060008060008060006101608c8e03121562000946578687fd5b620009528d8d62000846565b9a50620009638d60208e0162000846565b9950620009748d60408e0162000846565b9850620009858d60608e0162000846565b9750620009968d60808e0162000846565b9650620009a78d60a08e0162000846565b9550620009b88d60c08e0162000846565b60e08d01519095506001600160401b03811115620009d4578485fd5b620009e28e828f0162000864565b6101008e015190955090506001600160401b0381111562000a01578384fd5b62000a0f8e828f0162000864565b6101208e015190945090506001600160401b0381111562000a2e578283fd5b62000a3c8e828f0162000864565b6101408e015190935090506001600160401b0381111562000a5b578182fd5b62000a698e828f0162000864565b9150509295989b509295989b9093969950565b60006020828403121562000a8e578081fd5b81518015158114620006a0578182fd5b60006020828403121562000ab0578081fd5b5051919050565b6000825162000acb81846020870162000c61565b9190910192915050565b6001600160a01b0392831681529116602082015260400190565b6001600160a01b03929092168252602082015260400190565b600060208252825180602084015262000b2981604085016020870162000c61565b601f01601f19169190910160400192915050565b60208082526026908201527f416464726573733a20696e73756666696369656e742062616c616e636520666f6040820152651c8818d85b1b60d21b606082015260800190565b6020808252601d908201527f416464726573733a2063616c6c20746f206e6f6e2d636f6e7472616374000000604082015260600190565b6020808252602a908201527f5361666545524332303a204552433230206f7065726174696f6e20646964206e6040820152691bdd081cdd58d8d9595960b21b606082015260800190565b60208082526036908201527f5361666545524332303a20617070726f76652066726f6d206e6f6e2d7a65726f60408201527f20746f206e6f6e2d7a65726f20616c6c6f77616e636500000000000000000000606082015260800190565b60005b8381101562000c7e57818101518382015260200162000c64565b8381111562000c8e576000848401525b50505050565b6128548062000ca46000396000f3fe608060405234801561001057600080fd5b50600436106103275760003560e01c80638456cb59116101b8578063be12a97811610104578063dfbdc437116100a2578063f2fde38b1161007c578063f2fde38b14610577578063fb6177871461058a578063fbfa77cf14610592578063fd63a8871461059a57610327565b8063dfbdc4371461055f578063f1a392da14610567578063f20eaeb81461056f57610327565b8063d0e30db0116100de578063d0e30db014610534578063d31025891461053c578063d801d94614610544578063d92f3d731461054c57610327565b8063be12a97814610506578063c1a3d44c14610519578063c7b9d5301461052157610327565b806390321e1a11610171578063ac1e50251161014b578063ac1e5025146104d0578063aced1661146104e3578063b60951c4146104eb578063bc063e1a146104fe57610327565b806390321e1a146104ad578063989ef4e3146104b5578063a68833e5146104bd57610327565b80638456cb591461047d578063877562b6146104855780638bc7e8c41461048d5780638cd258d2146104955780638da5cb5b1461049d5780638e145459146104a557610327565b80634641257d11610277578063623d8bd211610230578063715018a61161020a578063715018a614610452578063722713f71461045a578063748747e6146104625780637d38ca651461047557610327565b8063623d8bd21461042457806366666aa9146104375780636817031b1461043f57610327565b80634641257d146103e75780634700d305146103ef57806354518b1a146103f7578063573fef0a146103ff5780635c975abb146104075780635ee167c01461041c57610327565b8063257ae0de116102e45780632ad5a53f116102be5780632ad5a53f146103b15780632e1a7d4d146103b957806336c6cf21146103cc5780633f4ba83a146103df57610327565b8063257ae0de1461038c57806326465826146103945780632a4b3e22146103a957610327565b80630587f7851461032c578063115880861461034a57806311b0b42d1461035f57806313e120b1146103745780631f1fcd511461037c5780631fe4a68614610384575b600080fd5b6103346105ad565b6040516103419190612349565b60405180910390f35b61035261060f565b604051610341919061272f565b610367610695565b60405161034191906122b9565b6103346106a4565b610367610704565b610367610713565b610367610722565b6103a76103a2366004612240565b610731565b005b6103676107b6565b6103526107c5565b6103a76103c7366004612240565b6107ca565b6103676103da366004612240565b610931565b6103a7610958565b6103a76109bf565b6103a76109c9565b610352610a87565b6103a76109bd565b61040f610a8d565b6040516103419190612396565b610367610a9d565b6103a7610432366004612164565b610aac565b610367610ab8565b6103a761044d366004612164565b610ac7565b6103a7610b28565b610352610bb1565b6103a7610470366004612164565b610bcc565b610352610c3b565b6103a7610c40565b610367610c9d565b610352610cac565b610334610cb2565b610367610d12565b610367610d21565b610352610d30565b610334610d36565b6103a76104cb366004612164565b610d96565b6103a76104de366004612240565b610df7565b610367610e6a565b6103676104f9366004612240565b610e79565b610352610e86565b610367610514366004612240565b610e8c565b610352610e99565b6103a761052f366004612164565b610eca565b6103a7610f16565b610352610fb2565b6103a7610fb8565b6103a761055a366004612164565b611005565b610352611066565b61035261106b565b610367611071565b6103a7610585366004612164565b611080565b6103a7611140565b610367611265565b6103676105a8366004612240565b611274565b6060601380548060200260200160405190810160405280929190818152602001828054801561060557602002820191906000526020600020905b81546001600160a01b031681526001909101906020018083116105e7575b5050505050905090565b600f546040516370a0823160e01b81526000916001600160a01b0316906370a08231906106409030906004016122b9565b60206040518083038186803b15801561065857600080fd5b505afa15801561066c573d6000803e3d6000fd5b505050506040513d601f19601f820116820180604052508101906106909190612258565b905090565b6009546001600160a01b031681565b60606011805480602002602001604051908101604052809291908181526020018280548015610605576020028201919060005260206000209081546001600160a01b031681526001909101906020018083116105e7575050505050905090565b600c546001600160a01b031681565b6002546001600160a01b031681565b6003546001600160a01b031681565b610739610d12565b6001600160a01b0316336001600160a01b0316148061076257506001546001600160a01b031633145b6107875760405162461bcd60e51b815260040161077e9061266d565b60405180910390fd5b606f8111156107a85760405162461bcd60e51b815260040161077e90612582565b600781905561037803600855565b600b546001600160a01b031681565b606f81565b6004546001600160a01b031633146107f45760405162461bcd60e51b815260040161077e906125e1565b60006107fe610e99565b90508181101561087c57600f546001600160a01b0316632e1a7d4d6108238484611394565b6040518263ffffffff1660e01b815260040161083f919061272f565b600060405180830381600087803b15801561085957600080fd5b505af115801561086d573d6000803e3d6000fd5b50505050610879610e99565b90505b818111156108875750805b61088f610d12565b6001600160a01b0316326001600160a01b031614806108b157506108b1610a8d565b156108d857600454600c546108d3916001600160a01b039182169116836113c1565b61092d565b60006108fb6127106108f5600654856113e090919063ffffffff16565b9061141a565b60045490915061092b906001600160a01b03166109188484611394565b600c546001600160a01b031691906113c1565b505b5050565b6012818154811061093e57fe5b6000918252602090912001546001600160a01b0316905081565b610960610d12565b6001600160a01b0316336001600160a01b0316148061098957506001546001600160a01b031633145b6109a55760405162461bcd60e51b815260040161077e9061266d565b6109ad61144c565b6109b56114bd565b6109bd610f16565b565b6109bd6000611594565b6109d1610d12565b6001600160a01b0316336001600160a01b031614806109fa57506001546001600160a01b031633145b610a165760405162461bcd60e51b815260040161077e9061266d565b610a1e610c40565b600f546001600160a01b0316632e1a7d4d610a3761060f565b6040518263ffffffff1660e01b8152600401610a53919061272f565b600060405180830381600087803b158015610a6d57600080fd5b505af1158015610a81573d6000803e3d6000fd5b50505050565b61271081565b600054600160a01b900460ff1690565b600d546001600160a01b031681565b610ab581611594565b50565b600f546001600160a01b031681565b610acf61178d565b6001600160a01b0316610ae0610d12565b6001600160a01b031614610b065760405162461bcd60e51b815260040161077e90612601565b600480546001600160a01b0319166001600160a01b0392909216919091179055565b610b3061178d565b6001600160a01b0316610b41610d12565b6001600160a01b031614610b675760405162461bcd60e51b815260040161077e90612601565b600080546040516001600160a01b03909116907f8be0079c531659141344cd1fd0a4f28419497f9722a3daafe3b4186f6b6457e0908390a3600080546001600160a01b0319169055565b6000610690610bbe61060f565b610bc6610e99565b90611791565b610bd4610d12565b6001600160a01b0316336001600160a01b03161480610bfd57506001546001600160a01b031633145b610c195760405162461bcd60e51b815260040161077e9061266d565b600180546001600160a01b0319166001600160a01b0392909216919091179055565b607081565b610c48610d12565b6001600160a01b0316336001600160a01b03161480610c7157506001546001600160a01b031633145b610c8d5760405162461bcd60e51b815260040161077e9061266d565b610c956117b6565b6109bd611817565b600e546001600160a01b031681565b60065481565b60606014805480602002602001604051908101604052809291908181526020018280548015610605576020028201919060005260206000209081546001600160a01b031681526001909101906020018083116105e7575050505050905090565b6000546001600160a01b031690565b6005546001600160a01b031681565b60075481565b60606012805480602002602001604051908101604052809291908181526020018280548015610605576020028201919060005260206000209081546001600160a01b031681526001909101906020018083116105e7575050505050905090565b610d9e61178d565b6001600160a01b0316610daf610d12565b6001600160a01b031614610dd55760405162461bcd60e51b815260040161077e90612601565b600580546001600160a01b0319166001600160a01b0392909216919091179055565b610dff610d12565b6001600160a01b0316336001600160a01b03161480610e2857506001546001600160a01b031633145b610e445760405162461bcd60e51b815260040161077e9061266d565b6032811115610e655760405162461bcd60e51b815260040161077e90612582565b600655565b6001546001600160a01b031681565b6014818154811061093e57fe5b6103e881565b6011818154811061093e57fe5b600c546040516370a0823160e01b81526000916001600160a01b0316906370a08231906106409030906004016122b9565b6002546001600160a01b03163314610ef45760405162461bcd60e51b815260040161077e90612402565b600280546001600160a01b0319166001600160a01b0392909216919091179055565b610f1e610a8d565b15610f3b5760405162461bcd60e51b815260040161077e90612558565b6000610f45610e99565b90508015610ab557600f5460405163534a7e1d60e11b81526001600160a01b039091169063a694fc3a90610f7d90849060040161272f565b600060405180830381600087803b158015610f9757600080fd5b505af1158015610fab573d6000803e3d6000fd5b5050505050565b60085481565b610fc0610d12565b6001600160a01b0316336001600160a01b03161480610fe957506001546001600160a01b031633145b6109bf5760405162461bcd60e51b815260040161077e9061266d565b61100d61178d565b6001600160a01b031661101e610d12565b6001600160a01b0316146110445760405162461bcd60e51b815260040161077e90612601565b600380546001600160a01b0319166001600160a01b0392909216919091179055565b603281565b60105481565b600a546001600160a01b031681565b61108861178d565b6001600160a01b0316611099610d12565b6001600160a01b0316146110bf5760405162461bcd60e51b815260040161077e90612601565b6001600160a01b0381166110e55760405162461bcd60e51b815260040161077e90612427565b600080546040516001600160a01b03808516939216917f8be0079c531659141344cd1fd0a4f28419497f9722a3daafe3b4186f6b6457e091a3600080546001600160a01b0319166001600160a01b0392909216919091179055565b6004546001600160a01b0316331461116a5760405162461bcd60e51b815260040161077e906125e1565b600f546001600160a01b0316632e1a7d4d61118361060f565b6040518263ffffffff1660e01b815260040161119f919061272f565b600060405180830381600087803b1580156111b957600080fd5b505af11580156111cd573d6000803e3d6000fd5b5050505060006111db610e99565b600c546004805460405163a9059cbb60e01b81529394506001600160a01b039283169363a9059cbb9361121393921691869101612330565b602060405180830381600087803b15801561122d57600080fd5b505af1158015611241573d6000803e3d6000fd5b505050506040513d601f19601f8201168201806040525081019061092d9190612220565b6004546001600160a01b031681565b6013818154811061093e57fe5b8015806113095750604051636eb1769f60e11b81526001600160a01b0384169063dd62ed3e906112b790309086906004016122cd565b60206040518083038186803b1580156112cf57600080fd5b505afa1580156112e3573d6000803e3d6000fd5b505050506040513d601f19601f820116820180604052508101906113079190612258565b155b6113255760405162461bcd60e51b815260040161077e906126d9565b61092b8363095ea7b360e01b8484604051602401611344929190612330565b60408051601f198184030181529190526020810180516001600160e01b03166001600160e01b0319909316929092179091526118ad565b606061138a848460008561193c565b90505b9392505050565b6000828211156113b65760405162461bcd60e51b815260040161077e906124a4565b508082035b92915050565b61092b8363a9059cbb60e01b8484604051602401611344929190612330565b6000826113ef575060006113bb565b828202828482816113fc57fe5b041461138d5760405162461bcd60e51b815260040161077e906125a0565b600080821161143b5760405162461bcd60e51b815260040161077e90612521565b81838161144457fe5b049392505050565b611454610a8d565b6114705760405162461bcd60e51b815260040161077e906123d4565b6000805460ff60a01b191690557f5db9ee0a495bf2e6ff9c91a7834c1ba4fdd244a5e8aa4e537bd38aeae4b073aa6114a661178d565b6040516114b391906122b9565b60405180910390a1565b600f54600c546114dc916001600160a01b039182169116600019611281565b600354600a546114fb916001600160a01b039182169116600019611281565b600354600b5461151a916001600160a01b039182169116600019611281565b600354600d54611538916001600160a01b0391821691166000611281565b600354600d54611557916001600160a01b039182169116600019611281565b600354600e54611575916001600160a01b0391821691166000611281565b600354600e546109bd916001600160a01b039182169116600019611281565b61159c610a8d565b156115b95760405162461bcd60e51b815260040161077e90612558565b600f60009054906101000a90046001600160a01b03166001600160a01b0316633d18b9126040518163ffffffff1660e01b8152600401600060405180830381600087803b15801561160957600080fd5b505af115801561161d573d6000803e3d6000fd5b5050600a546040516370a0823160e01b8152600093506001600160a01b0390911691506370a08231906116549030906004016122b9565b60206040518083038186803b15801561166c57600080fd5b505afa158015611680573d6000803e3d6000fd5b505050506040513d601f19601f820116820180604052508101906116a49190612258565b600b546040516370a0823160e01b81529192506000916001600160a01b03909116906370a08231906116da9030906004016122b9565b60206040518083038186803b1580156116f257600080fd5b505afa158015611706573d6000803e3d6000fd5b505050506040513d601f19601f8201168201806040525081019061172a9190612258565b9050600082118061173b5750600081115b1561092b57611749836119fd565b611751611d9d565b611759610f16565b4260105560405133907f577a37fdb49a88d66684922c6f913df5239b4f214b2b97c53ef8e3bbb2034cb590600090a2505050565b3390565b60008282018381101561138d5760405162461bcd60e51b815260040161077e9061246d565b6117be610a8d565b156117db5760405162461bcd60e51b815260040161077e90612558565b6000805460ff60a01b1916600160a01b1790557f62e78cea01bee320cd4e420270b5ea74000d11b0c9f74754ebdbfc544b05a2586114a661178d565b600f54600c54611835916001600160a01b0391821691166000611281565b600354600a54611853916001600160a01b0391821691166000611281565b600354600b54611871916001600160a01b0391821691166000611281565b600354600d5461188f916001600160a01b0391821691166000611281565b600354600e546109bd916001600160a01b0391821691166000611281565b6060611902826040518060400160405280602081526020017f5361666545524332303a206c6f772d6c6576656c2063616c6c206661696c6564815250856001600160a01b031661137b9092919063ffffffff16565b80519091501561092b57808060200190518101906119209190612220565b61092b5760405162461bcd60e51b815260040161077e9061268f565b60608247101561195e5760405162461bcd60e51b815260040161077e906124db565b61196785612125565b6119835760405162461bcd60e51b815260040161077e90612636565b60006060866001600160a01b031685876040516119a0919061229d565b60006040518083038185875af1925050503d80600081146119dd576040519150601f19603f3d011682016040523d82523d6000602084013e6119e2565b606091505b50915091506119f282828661212b565b979650505050505050565b600b546040516370a0823160e01b81526000916001600160a01b0316906370a0823190611a2e9030906004016122b9565b60206040518083038186803b158015611a4657600080fd5b505afa158015611a5a573d6000803e3d6000fd5b505050506040513d601f19601f82011682018060405250810190611a7e9190612258565b90508015611b18576003546040516338ed173960e01b81526001600160a01b03909116906338ed173990611ac090849060009060149030904290600401612738565b600060405180830381600087803b158015611ada57600080fd5b505af1158015611aee573d6000803e3d6000fd5b505050506040513d6000823e601f3d908101601f19168201604052611b16919081019061218b565b505b600a546040516370a0823160e01b8152600091611bae916103e8916108f591602d916001600160a01b0316906370a0823190611b589030906004016122b9565b60206040518083038186803b158015611b7057600080fd5b505afa158015611b84573d6000803e3d6000fd5b505050506040513d601f19601f82011682018060405250810190611ba89190612258565b906113e0565b6003546040516338ed173960e01b81529192506001600160a01b0316906338ed173990611be990849060009060119030904290600401612738565b600060405180830381600087803b158015611c0357600080fd5b505af1158015611c17573d6000803e3d6000fd5b505050506040513d6000823e601f3d908101601f19168201604052611c3f919081019061218b565b506009546040516370a0823160e01b81526000916001600160a01b0316906370a0823190611c719030906004016122b9565b60206040518083038186803b158015611c8957600080fd5b505afa158015611c9d573d6000803e3d6000fd5b505050506040513d601f19601f82011682018060405250810190611cc19190612258565b90506000611ce06103e86108f5600754856113e090919063ffffffff16565b90506001600160a01b03851615611d0d57600954611d08906001600160a01b031686836113c1565b611d24565b600954611d24906001600160a01b031632836113c1565b6000611d416103e86108f5600854866113e090919063ffffffff16565b600554600954919250611d61916001600160a01b039081169116836113c1565b6000611d746103e86108f58660706113e0565b600254600954919250611d94916001600160a01b039081169116836113c1565b50505050505050565b600a546040516370a0823160e01b8152600091611e25916002916001600160a01b0316906370a0823190611dd59030906004016122b9565b60206040518083038186803b158015611ded57600080fd5b505afa158015611e01573d6000803e3d6000fd5b505050506040513d601f19601f820116820180604052508101906108f59190612258565b600a54600d549192506001600160a01b03918216911614611ed2576003546040516338ed173960e01b81526001600160a01b03909116906338ed173990611e7a90849060009060129030904290600401612738565b600060405180830381600087803b158015611e9457600080fd5b505af1158015611ea8573d6000803e3d6000fd5b505050506040513d6000823e601f3d908101601f19168201604052611ed0919081019061218b565b505b600a54600e546001600160a01b03908116911614611f7c576003546040516338ed173960e01b81526001600160a01b03909116906338ed173990611f2490849060009060139030904290600401612738565b600060405180830381600087803b158015611f3e57600080fd5b505af1158015611f52573d6000803e3d6000fd5b505050506040513d6000823e601f3d908101601f19168201604052611f7a919081019061218b565b505b600d546040516370a0823160e01b81526000916001600160a01b0316906370a0823190611fad9030906004016122b9565b60206040518083038186803b158015611fc557600080fd5b505afa158015611fd9573d6000803e3d6000fd5b505050506040513d601f19601f82011682018060405250810190611ffd9190612258565b600e546040516370a0823160e01b81529192506000916001600160a01b03909116906370a08231906120339030906004016122b9565b60206040518083038186803b15801561204b57600080fd5b505afa15801561205f573d6000803e3d6000fd5b505050506040513d601f19601f820116820180604052508101906120839190612258565b600354600d54600e5460405162e8e33760e81b81529394506001600160a01b039283169363e8e33700936120cb938116921690879087906001908190309042906004016122e7565b606060405180830381600087803b1580156120e557600080fd5b505af11580156120f9573d6000803e3d6000fd5b505050506040513d601f19601f8201168201806040525081019061211d9190612270565b505050505050565b3b151590565b6060831561213a57508161138d565b82511561214a5782518084602001fd5b8160405162461bcd60e51b815260040161077e91906123a1565b600060208284031215612175578081fd5b81356001600160a01b038116811461138d578182fd5b6000602080838503121561219d578182fd5b825167ffffffffffffffff8111156121b3578283fd5b8301601f810185136121c3578283fd5b80516121d66121d1826127d2565b6127ab565b81815283810190838501858402850186018910156121f2578687fd5b8694505b838510156122145780518352600194909401939185019185016121f6565b50979650505050505050565b600060208284031215612231578081fd5b8151801515811461138d578182fd5b600060208284031215612251578081fd5b5035919050565b600060208284031215612269578081fd5b5051919050565b600080600060608486031215612284578182fd5b8351925060208401519150604084015190509250925092565b600082516122af8184602087016127f2565b9190910192915050565b6001600160a01b0391909116815260200190565b6001600160a01b0392831681529116602082015260400190565b6001600160a01b039889168152968816602088015260408701959095526060860193909352608085019190915260a084015290921660c082015260e08101919091526101000190565b6001600160a01b03929092168252602082015260400190565b6020808252825182820181905260009190848201906040850190845b8181101561238a5783516001600160a01b031683529284019291840191600101612365565b50909695505050505050565b901515815260200190565b60006020825282518060208401526123c08160408501602087016127f2565b601f01601f19169190910160400192915050565b60208082526014908201527314185d5cd8589b194e881b9bdd081c185d5cd95960621b604082015260600190565b6020808252600b908201526a085cdd1c985d1959da5cdd60aa1b604082015260600190565b60208082526026908201527f4f776e61626c653a206e6577206f776e657220697320746865207a65726f206160408201526564647265737360d01b606082015260800190565b6020808252601b908201527f536166654d6174683a206164646974696f6e206f766572666c6f770000000000604082015260600190565b6020808252601e908201527f536166654d6174683a207375627472616374696f6e206f766572666c6f770000604082015260600190565b60208082526026908201527f416464726573733a20696e73756666696369656e742062616c616e636520666f6040820152651c8818d85b1b60d21b606082015260800190565b6020808252601a908201527f536166654d6174683a206469766973696f6e206279207a65726f000000000000604082015260600190565b60208082526010908201526f14185d5cd8589b194e881c185d5cd95960821b604082015260600190565b6020808252600490820152630216361760e41b604082015260600190565b60208082526021908201527f536166654d6174683a206d756c7469706c69636174696f6e206f766572666c6f6040820152607760f81b606082015260800190565b602080825260069082015265085d985d5b1d60d21b604082015260600190565b6020808252818101527f4f776e61626c653a2063616c6c6572206973206e6f7420746865206f776e6572604082015260600190565b6020808252601d908201527f416464726573733a2063616c6c20746f206e6f6e2d636f6e7472616374000000604082015260600190565b60208082526008908201526710b6b0b730b3b2b960c11b604082015260600190565b6020808252602a908201527f5361666545524332303a204552433230206f7065726174696f6e20646964206e6040820152691bdd081cdd58d8d9595960b21b606082015260800190565b60208082526036908201527f5361666545524332303a20617070726f76652066726f6d206e6f6e2d7a65726f60408201527520746f206e6f6e2d7a65726f20616c6c6f77616e636560501b606082015260800190565b90815260200190565b600060a082018783526020878185015260a0604085015281875480845260c0860191508885528285209350845b8181101561278a5784546001600160a01b031683526001948501949284019201612765565b50506001600160a01b03969096166060850152505050608001529392505050565b60405181810167ffffffffffffffff811182821017156127ca57600080fd5b604052919050565b600067ffffffffffffffff8211156127e8578081fd5b5060209081020190565b60005b8381101561280d5781810151838201526020016127f5565b83811115610a81575050600091015256fea26469706673582212206c5284c42463245002c4bbb56503b010c27129b8ae17d459c9956362fa0714bd64736f6c634300060c0033",
  "linkReferences": {},
  "deployedLinkReferences": {}
}