{
  "_format": "hh-sol-artifact-1",
  "contractName": "StrategyCommonChefSingle",
  "sourceName": "contracts/BIFI/strategies/Common/StrategyCommonChefSingle.sol",
  "abi": [
    {
      "inputs": [
        {
          "internalType": "address",
          "name": "_want",
          "type": "address"
        },
        {
          "internalType": "uint256",
          "name": "_poolId",
          "type": "uint256"
        },
        {
          "internalType": "address",
          "name": "_chef",
          "type": "address"
        },
        {
          "internalType": "address",
          "name": "_vault",
          "type": "address"
        },
        {
          "internalType": "address",
          "name": "_unirouter",
          "type": "address"
        },
        {
          "internalType": "address",
          "name": "_keeper",
          "type": "address"
        },
        {
          "internalType": "address",
          "name": "_strategist",
          "type": "address"
        },
        {
          "internalType": "address",
          "name": "_beefyFeeRecipient",
          "type": "address"
        },
        {
          "internalType": "address[]",
          "name": "_outputToNativeRoute",
          "type": "address[]"
        },
        {
          "internalType": "address[]",
          "name": "_outputToWantRoute",
          "type": "address[]"
        }
      ],
      "stateMutability": "nonpayable",
      "type": "constructor"
    },
    {
      "anonymous": false,
      "inputs": [
        {
          "indexed": true,
          "internalType": "address",
          "name": "previousOwner",
          "type": "address"
        },
        {
          "indexed": true,
          "internalType": "address",
          "name": "newOwner",
          "type": "address"
        }
      ],
      "name": "OwnershipTransferred",
      "type": "event"
    },
    {
      "anonymous": false,
      "inputs": [
        {
          "indexed": false,
          "internalType": "address",
          "name": "account",
          "type": "address"
        }
      ],
      "name": "Paused",
      "type": "event"
    },
    {
      "anonymous": false,
      "inputs": [
        {
          "indexed": true,
          "internalType": "address",
          "name": "harvester",
          "type": "address"
        }
      ],
      "name": "StratHarvest",
      "type": "event"
    },
    {
      "anonymous": false,
      "inputs": [
        {
          "indexed": false,
          "internalType": "address",
          "name": "account",
          "type": "address"
        }
      ],
      "name": "Unpaused",
      "type": "event"
    },
    {
      "inputs": [],
      "name": "MAX_CALL_FEE",
      "outputs": [
        {
          "internalType": "uint256",
          "name": "",
          "type": "uint256"
        }
      ],
      "stateMutability": "view",
      "type": "function"
    },
    {
      "inputs": [],
      "name": "MAX_FEE",
      "outputs": [
        {
          "internalType": "uint256",
          "name": "",
          "type": "uint256"
        }
      ],
      "stateMutability": "view",
      "type": "function"
    },
    {
      "inputs": [],
      "name": "STRATEGIST_FEE",
      "outputs": [
        {
          "internalType": "uint256",
          "name": "",
          "type": "uint256"
        }
      ],
      "stateMutability": "view",
      "type": "function"
    },
    {
      "inputs": [],
      "name": "WITHDRAWAL_FEE_CAP",
      "outputs": [
        {
          "internalType": "uint256",
          "name": "",
          "type": "uint256"
        }
      ],
      "stateMutability": "view",
      "type": "function"
    },
    {
      "inputs": [],
      "name": "WITHDRAWAL_MAX",
      "outputs": [
        {
          "internalType": "uint256",
          "name": "",
          "type": "uint256"
        }
      ],
      "stateMutability": "view",
      "type": "function"
    },
    {
      "inputs": [],
      "name": "balanceOf",
      "outputs": [
        {
          "internalType": "uint256",
          "name": "",
          "type": "uint256"
        }
      ],
      "stateMutability": "view",
      "type": "function"
    },
    {
      "inputs": [],
      "name": "balanceOfPool",
      "outputs": [
        {
          "internalType": "uint256",
          "name": "",
          "type": "uint256"
        }
      ],
      "stateMutability": "view",
      "type": "function"
    },
    {
      "inputs": [],
      "name": "balanceOfWant",
      "outputs": [
        {
          "internalType": "uint256",
          "name": "",
          "type": "uint256"
        }
      ],
      "stateMutability": "view",
      "type": "function"
    },
    {
      "inputs": [],
      "name": "beefyFee",
      "outputs": [
        {
          "internalType": "uint256",
          "name": "",
          "type": "uint256"
        }
      ],
      "stateMutability": "view",
      "type": "function"
    },
    {
      "inputs": [],
      "name": "beefyFeeRecipient",
      "outputs": [
        {
          "internalType": "address",
          "name": "",
          "type": "address"
        }
      ],
      "stateMutability": "view",
      "type": "function"
    },
    {
      "inputs": [],
      "name": "beforeDeposit",
      "outputs": [],
      "stateMutability": "nonpayable",
      "type": "function"
    },
    {
      "inputs": [],
      "name": "callFee",
      "outputs": [
        {
          "internalType": "uint256",
          "name": "",
          "type": "uint256"
        }
      ],
      "stateMutability": "view",
      "type": "function"
    },
    {
      "inputs": [],
      "name": "chef",
      "outputs": [
        {
          "internalType": "address",
          "name": "",
          "type": "address"
        }
      ],
      "stateMutability": "view",
      "type": "function"
    },
    {
      "inputs": [],
      "name": "deposit",
      "outputs": [],
      "stateMutability": "nonpayable",
      "type": "function"
    },
    {
      "inputs": [],
      "name": "harvest",
      "outputs": [],
      "stateMutability": "nonpayable",
      "type": "function"
    },
    {
      "inputs": [],
      "name": "harvestOnDeposit",
      "outputs": [
        {
          "internalType": "bool",
          "name": "",
          "type": "bool"
        }
      ],
      "stateMutability": "view",
      "type": "function"
    },
    {
      "inputs": [
        {
          "internalType": "address",
          "name": "callFeeRecipient",
          "type": "address"
        }
      ],
      "name": "harvestWithCallFeeRecipient",
      "outputs": [],
      "stateMutability": "nonpayable",
      "type": "function"
    },
    {
      "inputs": [],
      "name": "keeper",
      "outputs": [
        {
          "internalType": "address",
          "name": "",
          "type": "address"
        }
      ],
      "stateMutability": "view",
      "type": "function"
    },
    {
      "inputs": [],
      "name": "lastHarvest",
      "outputs": [
        {
          "internalType": "uint256",
          "name": "",
          "type": "uint256"
        }
      ],
      "stateMutability": "view",
      "type": "function"
    },
    {
      "inputs": [],
      "name": "managerHarvest",
      "outputs": [],
      "stateMutability": "nonpayable",
      "type": "function"
    },
    {
      "inputs": [],
      "name": "native",
      "outputs": [
        {
          "internalType": "address",
          "name": "",
          "type": "address"
        }
      ],
      "stateMutability": "view",
      "type": "function"
    },
    {
      "inputs": [],
      "name": "output",
      "outputs": [
        {
          "internalType": "address",
          "name": "",
          "type": "address"
        }
      ],
      "stateMutability": "view",
      "type": "function"
    },
    {
      "inputs": [],
      "name": "outputToNative",
      "outputs": [
        {
          "internalType": "address[]",
          "name": "",
          "type": "address[]"
        }
      ],
      "stateMutability": "view",
      "type": "function"
    },
    {
      "inputs": [
        {
          "internalType": "uint256",
          "name": "",
          "type": "uint256"
        }
      ],
      "name": "outputToNativeRoute",
      "outputs": [
        {
          "internalType": "address",
          "name": "",
          "type": "address"
        }
      ],
      "stateMutability": "view",
      "type": "function"
    },
    {
      "inputs": [],
      "name": "outputToWant",
      "outputs": [
        {
          "internalType": "address[]",
          "name": "",
          "type": "address[]"
        }
      ],
      "stateMutability": "view",
      "type": "function"
    },
    {
      "inputs": [
        {
          "internalType": "uint256",
          "name": "",
          "type": "uint256"
        }
      ],
      "name": "outputToWantRoute",
      "outputs": [
        {
          "internalType": "address",
          "name": "",
          "type": "address"
        }
      ],
      "stateMutability": "view",
      "type": "function"
    },
    {
      "inputs": [],
      "name": "owner",
      "outputs": [
        {
          "internalType": "address",
          "name": "",
          "type": "address"
        }
      ],
      "stateMutability": "view",
      "type": "function"
    },
    {
      "inputs": [],
      "name": "panic",
      "outputs": [],
      "stateMutability": "nonpayable",
      "type": "function"
    },
    {
      "inputs": [],
      "name": "pause",
      "outputs": [],
      "stateMutability": "nonpayable",
      "type": "function"
    },
    {
      "inputs": [],
      "name": "paused",
      "outputs": [
        {
          "internalType": "bool",
          "name": "",
          "type": "bool"
        }
      ],
      "stateMutability": "view",
      "type": "function"
    },
    {
      "inputs": [],
      "name": "poolId",
      "outputs": [
        {
          "internalType": "uint256",
          "name": "",
          "type": "uint256"
        }
      ],
      "stateMutability": "view",
      "type": "function"
    },
    {
      "inputs": [],
      "name": "renounceOwnership",
      "outputs": [],
      "stateMutability": "nonpayable",
      "type": "function"
    },
    {
      "inputs": [],
      "name": "retireStrat",
      "outputs": [],
      "stateMutability": "nonpayable",
      "type": "function"
    },
    {
      "inputs": [
        {
          "internalType": "address",
          "name": "_beefyFeeRecipient",
          "type": "address"
        }
      ],
      "name": "setBeefyFeeRecipient",
      "outputs": [],
      "stateMutability": "nonpayable",
      "type": "function"
    },
    {
      "inputs": [
        {
          "internalType": "uint256",
          "name": "_fee",
          "type": "uint256"
        }
      ],
      "name": "setCallFee",
      "outputs": [],
      "stateMutability": "nonpayable",
      "type": "function"
    },
    {
      "inputs": [
        {
          "internalType": "bool",
          "name": "_harvestOnDeposit",
          "type": "bool"
        }
      ],
      "name": "setHarvestOnDeposit",
      "outputs": [],
      "stateMutability": "nonpayable",
      "type": "function"
    },
    {
      "inputs": [
        {
          "internalType": "address",
          "name": "_keeper",
          "type": "address"
        }
      ],
      "name": "setKeeper",
      "outputs": [],
      "stateMutability": "nonpayable",
      "type": "function"
    },
    {
      "inputs": [
        {
          "internalType": "address",
          "name": "_strategist",
          "type": "address"
        }
      ],
      "name": "setStrategist",
      "outputs": [],
      "stateMutability": "nonpayable",
      "type": "function"
    },
    {
      "inputs": [
        {
          "internalType": "address",
          "name": "_unirouter",
          "type": "address"
        }
      ],
      "name": "setUnirouter",
      "outputs": [],
      "stateMutability": "nonpayable",
      "type": "function"
    },
    {
      "inputs": [
        {
          "internalType": "address",
          "name": "_vault",
          "type": "address"
        }
      ],
      "name": "setVault",
      "outputs": [],
      "stateMutability": "nonpayable",
      "type": "function"
    },
    {
      "inputs": [
        {
          "internalType": "uint256",
          "name": "_fee",
          "type": "uint256"
        }
      ],
      "name": "setWithdrawalFee",
      "outputs": [],
      "stateMutability": "nonpayable",
      "type": "function"
    },
    {
      "inputs": [],
      "name": "strategist",
      "outputs": [
        {
          "internalType": "address",
          "name": "",
          "type": "address"
        }
      ],
      "stateMutability": "view",
      "type": "function"
    },
    {
      "inputs": [
        {
          "internalType": "address",
          "name": "newOwner",
          "type": "address"
        }
      ],
      "name": "transferOwnership",
      "outputs": [],
      "stateMutability": "nonpayable",
      "type": "function"
    },
    {
      "inputs": [],
      "name": "unirouter",
      "outputs": [
        {
          "internalType": "address",
          "name": "",
          "type": "address"
        }
      ],
      "stateMutability": "view",
      "type": "function"
    },
    {
      "inputs": [],
      "name": "unpause",
      "outputs": [],
      "stateMutability": "nonpayable",
      "type": "function"
    },
    {
      "inputs": [],
      "name": "vault",
      "outputs": [
        {
          "internalType": "address",
          "name": "",
          "type": "address"
        }
      ],
      "stateMutability": "view",
      "type": "function"
    },
    {
      "inputs": [],
      "name": "want",
      "outputs": [
        {
          "internalType": "address",
          "name": "",
          "type": "address"
        }
      ],
      "stateMutability": "view",
      "type": "function"
    },
    {
      "inputs": [
        {
          "internalType": "uint256",
          "name": "_amount",
          "type": "uint256"
        }
      ],
      "name": "withdraw",
      "outputs": [],
      "stateMutability": "nonpayable",
      "type": "function"
    },
    {
      "inputs": [],
      "name": "withdrawalFee",
      "outputs": [
        {
          "internalType": "uint256",
          "name": "",
          "type": "uint256"
        }
      ],
      "stateMutability": "view",
      "type": "function"
    }
  ],
  "bytecode": "0x6080604052600a600655606f6007556103096008556011805460ff191660011790553480156200002e57600080fd5b506040516200304c3803806200304c83398181016040526101408110156200005557600080fd5b815160208301516040808501516060860151608087015160a088015160c089015160e08a01516101008b0180519751999b989a96999598949793969295919491939282019284640100000000821115620000ae57600080fd5b908301906020820185811115620000c457600080fd5b8251866020820283011164010000000082111715620000e257600080fd5b82525081516020918201928201910280838360005b8381101562000111578181015183820152602001620000f7565b50505050905001604052602001805160405193929190846401000000008211156200013b57600080fd5b9083019060208201858111156200015157600080fd5b82518660208202830111640100000000821117156200016f57600080fd5b82525081516020918201928201910280838360005b838110156200019e57818101518382015260200162000184565b5050505090500160405250505084848789866000620001c26200044e60201b60201c565b600080546001600160a01b0319166001600160a01b0383169081178255604051929350917f8be0079c531659141344cd1fd0a4f28419497f9722a3daafe3b4186f6b6457e0908290a3506000805460ff60a01b19168155600180546001600160a01b03199081166001600160a01b0398891617909155600280548216968816969096179095556003805486169487169490941790935560048054851692861692909217909155600580548416918516919091179055600b805483168e8516179055600d8c9055600c8054909216928b169290921790558251839190620002a457fe5b6020026020010151600a60006101000a8154816001600160a01b0302191690836001600160a01b0316021790555081600183510381518110620002e357fe5b602090810291909101810151600980546001600160a01b0319166001600160a01b0390921691909117905582516200032291600f919085019062000986565b50600a5481516001600160a01b039091169082906000906200034057fe5b60200260200101516001600160a01b031614620003a4576040805162461bcd60e51b815260206004820152601660248201527f746f4465706f7369745b305d20213d206f757470757400000000000000000000604482015290519081900360640190fd5b600b5481516001600160a01b039091169082906000198101908110620003c657fe5b60200260200101516001600160a01b03161462000412576040805162461bcd60e51b8152602060048201526005602482015264085dd85b9d60da1b604482015290519081900360640190fd5b80516200042790601090602084019062000986565b506200043262000452565b6200043e6000620004ae565b5050505050505050505062000a11565b3390565b600c54600b546200047f916001600160a01b03918216911660001962000564602090811b620015b117901c565b600354600a54620004ac916001600160a01b03918216911660001962000564602090811b620015b117901c565b565b620004b862000688565b6001600160a01b0316336001600160a01b03161480620004e257506001546001600160a01b031633145b6200051f576040805162461bcd60e51b815260206004820152600860248201526710b6b0b730b3b2b960c11b604482015290519081900360640190fd5b60328111156200055f576040805162461bcd60e51b815260206004808301919091526024820152630216361760e41b604482015290519081900360640190fd5b600655565b801580620005ee575060408051636eb1769f60e11b81523060048201526001600160a01b03848116602483015291519185169163dd62ed3e91604480820192602092909190829003018186803b158015620005be57600080fd5b505afa158015620005d3573d6000803e3d6000fd5b505050506040513d6020811015620005ea57600080fd5b5051155b6200062b5760405162461bcd60e51b8152600401808060200182810382526036815260200180620030166036913960400191505060405180910390fd5b604080516001600160a01b038416602482015260448082018490528251808303909101815260649091019091526020810180516001600160e01b0390811663095ea7b360e01b17909152620006839185916200069716565b505050565b6000546001600160a01b031690565b6060620006f3826040518060400160405280602081526020017f5361666545524332303a206c6f772d6c6576656c2063616c6c206661696c6564815250856001600160a01b03166200075360201b620016c4179092919060201c565b80519091501562000683578080602001905160208110156200071457600080fd5b5051620006835760405162461bcd60e51b815260040180806020018281038252602a81526020018062002fec602a913960400191505060405180910390fd5b60606200076484846000856200076e565b90505b9392505050565b606082471015620007b15760405162461bcd60e51b815260040180806020018281038252602681526020018062002fc66026913960400191505060405180910390fd5b620007bc85620008d6565b6200080e576040805162461bcd60e51b815260206004820152601d60248201527f416464726573733a2063616c6c20746f206e6f6e2d636f6e7472616374000000604482015290519081900360640190fd5b60006060866001600160a01b031685876040518082805190602001908083835b602083106200084f5780518252601f1990920191602091820191016200082e565b6001836020036101000a03801982511681845116808217855250505050505090500191505060006040518083038185875af1925050503d8060008114620008b3576040519150601f19603f3d011682016040523d82523d6000602084013e620008b8565b606091505b509092509050620008cb828286620008dc565b979650505050505050565b3b151590565b60608315620008ed57508162000767565b825115620008fe5782518084602001fd5b8160405162461bcd60e51b81526004018080602001828103825283818151815260200191508051906020019080838360005b838110156200094a57818101518382015260200162000930565b50505050905090810190601f168015620009785780820380516001836020036101000a031916815260200191505b509250505060405180910390fd5b828054828255906000526020600020908101928215620009de579160200282015b82811115620009de57825182546001600160a01b0319166001600160a01b03909116178255602090920191600190910190620009a7565b50620009ec929150620009f0565b5090565b5b80821115620009ec5780546001600160a01b0319168155600101620009f1565b6125a58062000a216000396000f3fe608060405234801561001057600080fd5b50600436106102bb5760003560e01c80638456cb5911610182578063c7b9d530116100e9578063dd93d6b3116100a2578063f20eaeb81161007c578063f20eaeb8146105f0578063f2fde38b146105f8578063fb6177871461061e578063fbfa77cf14610626576102bb565b8063dd93d6b3146105c3578063dfbdc437146105e0578063f1a392da146105e8576102bb565b8063c7b9d53014610557578063cc7cb29b1461057d578063d0e30db014610585578063d31025891461058d578063d801d94614610595578063d92f3d731461059d576102bb565b8063a68833e51161013b578063a68833e5146104df578063ac1e502514610505578063aced166114610522578063bc063e1a1461052a578063be12a97814610532578063c1a3d44c1461054f576102bb565b80638456cb59146104af5780638912cb8b146104b75780638bc7e8c4146104bf5780638da5cb5b146104c75780638e145459146104cf57806390321e1a146104d7576102bb565b80633f4ba83a11610226578063623d8bd2116101df578063623d8bd2146104255780636817031b1461044b578063715018a614610471578063722713f714610479578063748747e6146104815780637d38ca65146104a7576102bb565b80633f4ba83a146103e15780634641257d146103e95780634700d305146103f157806354518b1a146103f9578063573fef0a146104015780635c975abb14610409576102bb565b80631fe4a686116102785780631fe4a68614610387578063257ae0de1461038f57806326465826146103975780632ad5a53f146103b45780632e1a7d4d146103bc5780633e0dc34e146103d9576102bb565b80630e8fbb5a146102c057806311588086146102e157806311b0b42d146102fb57806313e120b11461031f5780631f1fcd51146103775780631fc8bc5d1461037f575b600080fd5b6102df600480360360208110156102d657600080fd5b5035151561062e565b005b6102e96106ae565b60408051918252519081900360200190f35b610303610735565b604080516001600160a01b039092168252519081900360200190f35b610327610744565b60408051602080825283518183015283519192839290830191858101910280838360005b8381101561036357818101518382015260200161034b565b505050509050019250505060405180910390f35b6103036107a6565b6103036107b5565b6103036107c4565b6103036107d3565b6102df600480360360208110156103ad57600080fd5b50356107e2565b6102e961089c565b6102df600480360360208110156103d257600080fd5b50356108a1565b6102e9610a34565b6102df610a3a565b6102df610ac1565b6102df610acb565b6102e9610baa565b6102df610bb0565b610411610c03565b604080519115158252519081900360200190f35b6102df6004803603602081101561043b57600080fd5b50356001600160a01b0316610c13565b6102df6004803603602081101561046157600080fd5b50356001600160a01b0316610c1f565b6102df610ca3565b6102e9610d4f565b6102df6004803603602081101561049757600080fd5b50356001600160a01b0316610d6f565b6102e9610dfe565b6102df610e03565b610411610e80565b6102e9610e89565b610303610e8f565b610303610e9e565b6102e9610ead565b6102df600480360360208110156104f557600080fd5b50356001600160a01b0316610eb3565b6102df6004803603602081101561051b57600080fd5b5035610f37565b610303610fe8565b6102e9610ff7565b6103036004803603602081101561054857600080fd5b5035610ffd565b6102e9611024565b6102df6004803603602081101561056d57600080fd5b50356001600160a01b03166110a0565b61032761110f565b6102df61116f565b6102e9611240565b6102df611246565b6102df600480360360208110156105b357600080fd5b50356001600160a01b03166112b3565b610303600480360360208110156105d957600080fd5b5035611337565b6102e9611344565b6102e9611349565b61030361134f565b6102df6004803603602081101561060e57600080fd5b50356001600160a01b031661135e565b6102df611460565b6103036115a2565b610636610e8f565b6001600160a01b0316336001600160a01b0316148061065f57506001546001600160a01b031633145b61069b576040805162461bcd60e51b815260206004820152600860248201526710b6b0b730b3b2b960c11b604482015290519081900360640190fd5b6011805460ff1916911515919091179055565b600c54600d54604080516393f1a40b60e01b81526004810192909252306024830152805160009384936001600160a01b03909116926393f1a40b92604480840193829003018186803b15801561070357600080fd5b505afa158015610717573d6000803e3d6000fd5b505050506040513d604081101561072d57600080fd5b505191505090565b6009546001600160a01b031681565b6060600f80548060200260200160405190810160405280929190818152602001828054801561079c57602002820191906000526020600020905b81546001600160a01b0316815260019091019060200180831161077e575b5050505050905090565b600b546001600160a01b031681565b600c546001600160a01b031681565b6002546001600160a01b031681565b6003546001600160a01b031681565b6107ea610e8f565b6001600160a01b0316336001600160a01b0316148061081357506001546001600160a01b031633145b61084f576040805162461bcd60e51b815260206004820152600860248201526710b6b0b730b3b2b960c11b604482015290519081900360640190fd5b606f81111561088e576040805162461bcd60e51b815260206004808301919091526024820152630216361760e41b604482015290519081900360640190fd5b600781905561037803600855565b606f81565b6004546001600160a01b031633146108e9576040805162461bcd60e51b8152602060048201526006602482015265085d985d5b1d60d21b604482015290519081900360640190fd5b60006108f3611024565b90508181101561097f57600c54600d546001600160a01b039091169063441a3e709061091f85856116dd565b6040518363ffffffff1660e01b81526004018083815260200182815260200192505050600060405180830381600087803b15801561095c57600080fd5b505af1158015610970573d6000803e3d6000fd5b5050505061097c611024565b90505b8181111561098a5750805b610992610e8f565b6001600160a01b0316326001600160a01b031614806109b457506109b4610c03565b156109db57600454600b546109d6916001600160a01b0391821691168361173f565b610a30565b60006109fe6127106109f86006548561179190919063ffffffff16565b906117ea565b600454909150610a2e906001600160a01b0316610a1b84846116dd565b600b546001600160a01b0316919061173f565b505b5050565b600d5481565b610a42610e8f565b6001600160a01b0316336001600160a01b03161480610a6b57506001546001600160a01b031633145b610aa7576040805162461bcd60e51b815260206004820152600860248201526710b6b0b730b3b2b960c11b604482015290519081900360640190fd5b610aaf611851565b610ab76118f4565b610abf61116f565b565b610abf6000611932565b610ad3610e8f565b6001600160a01b0316336001600160a01b03161480610afc57506001546001600160a01b031633145b610b38576040805162461bcd60e51b815260206004820152600860248201526710b6b0b730b3b2b960c11b604482015290519081900360640190fd5b610b40610e03565b600c54600d5460408051632989754760e11b81526004810192909252516001600160a01b0390921691635312ea8e9160248082019260009290919082900301818387803b158015610b9057600080fd5b505af1158015610ba4573d6000803e3d6000fd5b50505050565b61271081565b60115460ff1615610abf576004546001600160a01b03163314610ac1576040805162461bcd60e51b8152602060048201526006602482015265085d985d5b1d60d21b604482015290519081900360640190fd5b600054600160a01b900460ff1690565b610c1c81611932565b50565b610c27611b0f565b6001600160a01b0316610c38610e8f565b6001600160a01b031614610c81576040805162461bcd60e51b815260206004820181905260248201526000805160206124f0833981519152604482015290519081900360640190fd5b600480546001600160a01b0319166001600160a01b0392909216919091179055565b610cab611b0f565b6001600160a01b0316610cbc610e8f565b6001600160a01b031614610d05576040805162461bcd60e51b815260206004820181905260248201526000805160206124f0833981519152604482015290519081900360640190fd5b600080546040516001600160a01b03909116907f8be0079c531659141344cd1fd0a4f28419497f9722a3daafe3b4186f6b6457e0908390a3600080546001600160a01b0319169055565b6000610d6a610d5c6106ae565b610d64611024565b90611b13565b905090565b610d77610e8f565b6001600160a01b0316336001600160a01b03161480610da057506001546001600160a01b031633145b610ddc576040805162461bcd60e51b815260206004820152600860248201526710b6b0b730b3b2b960c11b604482015290519081900360640190fd5b600180546001600160a01b0319166001600160a01b0392909216919091179055565b607081565b610e0b610e8f565b6001600160a01b0316336001600160a01b03161480610e3457506001546001600160a01b031633145b610e70576040805162461bcd60e51b815260206004820152600860248201526710b6b0b730b3b2b960c11b604482015290519081900360640190fd5b610e78611b6d565b610abf611bf6565b60115460ff1681565b60065481565b6000546001600160a01b031690565b6005546001600160a01b031681565b60075481565b610ebb611b0f565b6001600160a01b0316610ecc610e8f565b6001600160a01b031614610f15576040805162461bcd60e51b815260206004820181905260248201526000805160206124f0833981519152604482015290519081900360640190fd5b600580546001600160a01b0319166001600160a01b0392909216919091179055565b610f3f610e8f565b6001600160a01b0316336001600160a01b03161480610f6857506001546001600160a01b031633145b610fa4576040805162461bcd60e51b815260206004820152600860248201526710b6b0b730b3b2b960c11b604482015290519081900360640190fd5b6032811115610fe3576040805162461bcd60e51b815260206004808301919091526024820152630216361760e41b604482015290519081900360640190fd5b600655565b6001546001600160a01b031681565b6103e881565b600f818154811061100a57fe5b6000918252602090912001546001600160a01b0316905081565b600b54604080516370a0823160e01b815230600482015290516000926001600160a01b0316916370a08231916024808301926020929190829003018186803b15801561106f57600080fd5b505afa158015611083573d6000803e3d6000fd5b505050506040513d602081101561109957600080fd5b5051905090565b6002546001600160a01b031633146110ed576040805162461bcd60e51b815260206004820152600b60248201526a085cdd1c985d1959da5cdd60aa1b604482015290519081900360640190fd5b600280546001600160a01b0319166001600160a01b0392909216919091179055565b6060601080548060200260200160405190810160405280929190818152602001828054801561079c576020028201919060005260206000209081546001600160a01b0316815260019091019060200180831161077e575050505050905090565b611177610c03565b156111bc576040805162461bcd60e51b815260206004820152601060248201526f14185d5cd8589b194e881c185d5cd95960821b604482015290519081900360640190fd5b60006111c6611024565b90508015610c1c57600c54600d5460408051631c57762b60e31b8152600481019290925260248201849052516001600160a01b039092169163e2bbb1589160448082019260009290919082900301818387803b15801561122557600080fd5b505af1158015611239573d6000803e3d6000fd5b5050505050565b60085481565b61124e610e8f565b6001600160a01b0316336001600160a01b0316148061127757506001546001600160a01b031633145b610ac1576040805162461bcd60e51b815260206004820152600860248201526710b6b0b730b3b2b960c11b604482015290519081900360640190fd5b6112bb611b0f565b6001600160a01b03166112cc610e8f565b6001600160a01b031614611315576040805162461bcd60e51b815260206004820181905260248201526000805160206124f0833981519152604482015290519081900360640190fd5b600380546001600160a01b0319166001600160a01b0392909216919091179055565b6010818154811061100a57fe5b603281565b600e5481565b600a546001600160a01b031681565b611366611b0f565b6001600160a01b0316611377610e8f565b6001600160a01b0316146113c0576040805162461bcd60e51b815260206004820181905260248201526000805160206124f0833981519152604482015290519081900360640190fd5b6001600160a01b0381166114055760405162461bcd60e51b81526004018080602001828103825260268152602001806124836026913960400191505060405180910390fd5b600080546040516001600160a01b03808516939216917f8be0079c531659141344cd1fd0a4f28419497f9722a3daafe3b4186f6b6457e091a3600080546001600160a01b0319166001600160a01b0392909216919091179055565b6004546001600160a01b031633146114a8576040805162461bcd60e51b8152602060048201526006602482015265085d985d5b1d60d21b604482015290519081900360640190fd5b600c54600d5460408051632989754760e11b81526004810192909252516001600160a01b0390921691635312ea8e9160248082019260009290919082900301818387803b1580156114f857600080fd5b505af115801561150c573d6000803e3d6000fd5b50505050600061151a611024565b600b54600480546040805163a9059cbb60e01b81526001600160a01b039283169381019390935260248301859052519394509091169163a9059cbb916044808201926020929091908290030181600087803b15801561157857600080fd5b505af115801561158c573d6000803e3d6000fd5b505050506040513d6020811015610a2e57600080fd5b6004546001600160a01b031681565b801580611637575060408051636eb1769f60e11b81523060048201526001600160a01b03848116602483015291519185169163dd62ed3e91604480820192602092909190829003018186803b15801561160957600080fd5b505afa15801561161d573d6000803e3d6000fd5b505050506040513d602081101561163357600080fd5b5051155b6116725760405162461bcd60e51b815260040180806020018281038252603681526020018061253a6036913960400191505060405180910390fd5b604080516001600160a01b038416602482015260448082018490528251808303909101815260649091019091526020810180516001600160e01b031663095ea7b360e01b179052610a2e908490611c32565b60606116d38484600085611ce3565b90505b9392505050565b600082821115611734576040805162461bcd60e51b815260206004820152601e60248201527f536166654d6174683a207375627472616374696f6e206f766572666c6f770000604482015290519081900360640190fd5b508082035b92915050565b604080516001600160a01b038416602482015260448082018490528251808303909101815260649091019091526020810180516001600160e01b031663a9059cbb60e01b179052610a2e908490611c32565b6000826117a057506000611739565b828202828482816117ad57fe5b04146116d65760405162461bcd60e51b81526004018080602001828103825260218152602001806124cf6021913960400191505060405180910390fd5b6000808211611840576040805162461bcd60e51b815260206004820152601a60248201527f536166654d6174683a206469766973696f6e206279207a65726f000000000000604482015290519081900360640190fd5b81838161184957fe5b049392505050565b611859610c03565b6118a1576040805162461bcd60e51b815260206004820152601460248201527314185d5cd8589b194e881b9bdd081c185d5cd95960621b604482015290519081900360640190fd5b6000805460ff60a01b191690557f5db9ee0a495bf2e6ff9c91a7834c1ba4fdd244a5e8aa4e537bd38aeae4b073aa6118d7611b0f565b604080516001600160a01b039092168252519081900360200190a1565b600c54600b54611913916001600160a01b0391821691166000196115b1565b600354600a54610abf916001600160a01b0391821691166000196115b1565b61193a610c03565b1561197f576040805162461bcd60e51b815260206004820152601060248201526f14185d5cd8589b194e881c185d5cd95960821b604482015290519081900360640190fd5b3233148061199757506004546001600160a01b031633145b6119d4576040805162461bcd60e51b81526020600482015260096024820152680858dbdb9d1c9858dd60ba1b604482015290519081900360640190fd5b600c54600d5460408051631c57762b60e31b8152600481019290925260006024830181905290516001600160a01b039093169263e2bbb15892604480820193929182900301818387803b158015611a2a57600080fd5b505af1158015611a3e573d6000803e3d6000fd5b5050600a54604080516370a0823160e01b81523060048201529051600094506001600160a01b0390921692506370a08231916024808301926020929190829003018186803b158015611a8f57600080fd5b505afa158015611aa3573d6000803e3d6000fd5b505050506040513d6020811015611ab957600080fd5b505190508015610a3057611acc82611e3f565b611ad46121b9565b611adc61116f565b42600e5560405133907f577a37fdb49a88d66684922c6f913df5239b4f214b2b97c53ef8e3bbb2034cb590600090a25050565b3390565b6000828201838110156116d6576040805162461bcd60e51b815260206004820152601b60248201527f536166654d6174683a206164646974696f6e206f766572666c6f770000000000604482015290519081900360640190fd5b611b75610c03565b15611bba576040805162461bcd60e51b815260206004820152601060248201526f14185d5cd8589b194e881c185d5cd95960821b604482015290519081900360640190fd5b6000805460ff60a01b1916600160a01b1790557f62e78cea01bee320cd4e420270b5ea74000d11b0c9f74754ebdbfc544b05a2586118d7611b0f565b600c54600b54611c14916001600160a01b03918216911660006115b1565b600354600a54610abf916001600160a01b03918216911660006115b1565b6060611c87826040518060400160405280602081526020017f5361666545524332303a206c6f772d6c6576656c2063616c6c206661696c6564815250856001600160a01b03166116c49092919063ffffffff16565b805190915015610a2e57808060200190516020811015611ca657600080fd5b5051610a2e5760405162461bcd60e51b815260040180806020018281038252602a815260200180612510602a913960400191505060405180910390fd5b606082471015611d245760405162461bcd60e51b81526004018080602001828103825260268152602001806124a96026913960400191505060405180910390fd5b611d2d856123d8565b611d7e576040805162461bcd60e51b815260206004820152601d60248201527f416464726573733a2063616c6c20746f206e6f6e2d636f6e7472616374000000604482015290519081900360640190fd5b60006060866001600160a01b031685876040518082805190602001908083835b60208310611dbd5780518252601f199092019160209182019101611d9e565b6001836020036101000a03801982511681845116808217855250505050505090500191505060006040518083038185875af1925050503d8060008114611e1f576040519150601f19603f3d011682016040523d82523d6000602084013e611e24565b606091505b5091509150611e348282866123de565b979650505050505050565b600a54604080516370a0823160e01b81523060048201529051600092611ece926103e8926109f892602d926001600160a01b03909116916370a0823191602480820192602092909190829003018186803b158015611e9c57600080fd5b505afa158015611eb0573d6000803e3d6000fd5b505050506040513d6020811015611ec657600080fd5b505190611791565b9050600360009054906101000a90046001600160a01b03166001600160a01b03166338ed1739826000600f30426040518663ffffffff1660e01b81526004018086815260200185815260200180602001846001600160a01b031681526020018381526020018281038252858181548152602001915080548015611f7a57602002820191906000526020600020905b81546001600160a01b03168152600190910190602001808311611f5c575b50509650505050505050600060405180830381600087803b158015611f9e57600080fd5b505af1158015611fb2573d6000803e3d6000fd5b505050506040513d6000823e601f3d908101601f191682016040526020811015611fdb57600080fd5b8101908080516040519392919084640100000000821115611ffb57600080fd5b90830190602082018581111561201057600080fd5b825186602082028301116401000000008211171561202d57600080fd5b82525081516020918201928201910280838360005b8381101561205a578181015183820152602001612042565b505050509190910160408181526009546370a0823160e01b83523060048401529051600097506001600160a01b0390911695506370a08231945060248083019450602093509091829003018186803b1580156120b557600080fd5b505afa1580156120c9573d6000803e3d6000fd5b505050506040513d60208110156120df57600080fd5b50516007549091506000906120fd906103e8906109f8908590611791565b90506001600160a01b0384161561212a57600954612125906001600160a01b0316858361173f565b612141565b600954612141906001600160a01b0316328361173f565b600061215e6103e86109f86008548661179190919063ffffffff16565b60055460095491925061217e916001600160a01b0390811691168361173f565b60006121916103e86109f8866070611791565b6002546009549192506121b1916001600160a01b0390811691168361173f565b505050505050565b600a54600b546001600160a01b03908116911614610abf57600a54604080516370a0823160e01b815230600482015290516000926001600160a01b0316916370a08231916024808301926020929190829003018186803b15801561221c57600080fd5b505afa158015612230573d6000803e3d6000fd5b505050506040513d602081101561224657600080fd5b50516003546040516338ed173960e01b8152600481018381526000602483018190523060648401819052426084850181905260a0604486019081526010805460a488018190529899506001600160a01b03909716976338ed1739978a979596909590929160c490910190869080156122e757602002820191906000526020600020905b81546001600160a01b031681526001909101906020018083116122c9575b50509650505050505050600060405180830381600087803b15801561230b57600080fd5b505af115801561231f573d6000803e3d6000fd5b505050506040513d6000823e601f3d908101601f19168201604052602081101561234857600080fd5b810190808051604051939291908464010000000082111561236857600080fd5b90830190602082018581111561237d57600080fd5b825186602082028301116401000000008211171561239a57600080fd5b82525081516020918201928201910280838360005b838110156123c75781810151838201526020016123af565b505050509050016040525050505050565b3b151590565b606083156123ed5750816116d6565b8251156123fd5782518084602001fd5b8160405162461bcd60e51b81526004018080602001828103825283818151815260200191508051906020019080838360005b8381101561244757818101518382015260200161242f565b50505050905090810190601f1680156124745780820380516001836020036101000a031916815260200191505b509250505060405180910390fdfe4f776e61626c653a206e6577206f776e657220697320746865207a65726f2061646472657373416464726573733a20696e73756666696369656e742062616c616e636520666f722063616c6c536166654d6174683a206d756c7469706c69636174696f6e206f766572666c6f774f776e61626c653a2063616c6c6572206973206e6f7420746865206f776e65725361666545524332303a204552433230206f7065726174696f6e20646964206e6f7420737563636565645361666545524332303a20617070726f76652066726f6d206e6f6e2d7a65726f20746f206e6f6e2d7a65726f20616c6c6f77616e6365a26469706673582212205ad5927462439a1daa38546b3a2cd1a9d62ea36ce71fb1e4aba4d862bf1eaedd64736f6c634300060c0033416464726573733a20696e73756666696369656e742062616c616e636520666f722063616c6c5361666545524332303a204552433230206f7065726174696f6e20646964206e6f7420737563636565645361666545524332303a20617070726f76652066726f6d206e6f6e2d7a65726f20746f206e6f6e2d7a65726f20616c6c6f77616e6365",
  "linkReferences": {},
  "deployedLinkReferences": {}
}